{
  "contractName": "BInterestRateModel",
  "abi": [
    {
      "anonymous": false,
      "inputs": [
        {
          "indexed": false,
          "internalType": "uint256",
          "name": "interestAccumulated",
          "type": "uint256"
        },
        {
          "indexed": false,
          "internalType": "uint256",
          "name": "borrowIndex",
          "type": "uint256"
        },
        {
          "indexed": false,
          "internalType": "uint256",
          "name": "totalBorrows",
          "type": "uint256"
        }
      ],
      "name": "AccrueInterest",
      "type": "event"
    },
    {
      "anonymous": false,
      "inputs": [
        {
          "indexed": true,
          "internalType": "address",
          "name": "owner",
          "type": "address"
        },
        {
          "indexed": true,
          "internalType": "address",
          "name": "spender",
          "type": "address"
        },
        {
          "indexed": false,
          "internalType": "uint256",
          "name": "value",
          "type": "uint256"
        }
      ],
      "name": "Approval",
      "type": "event"
    },
    {
      "anonymous": false,
      "inputs": [
        {
          "indexed": false,
          "internalType": "uint256",
          "name": "borrowRate",
          "type": "uint256"
        }
      ],
      "name": "CalculateBorrowRate",
      "type": "event"
    },
    {
      "anonymous": false,
      "inputs": [
        {
          "indexed": false,
          "internalType": "uint256",
          "name": "kinkBorrowRate",
          "type": "uint256"
        }
      ],
      "name": "CalculateKinkBorrowRate",
      "type": "event"
    },
    {
      "anonymous": false,
      "inputs": [
        {
          "indexed": true,
          "internalType": "address",
          "name": "sender",
          "type": "address"
        },
        {
          "indexed": true,
          "internalType": "address",
          "name": "minter",
          "type": "address"
        },
        {
          "indexed": false,
          "internalType": "uint256",
          "name": "mintAmount",
          "type": "uint256"
        },
        {
          "indexed": false,
          "internalType": "uint256",
          "name": "mintTokens",
          "type": "uint256"
        }
      ],
      "name": "Mint",
      "type": "event"
    },
    {
      "anonymous": false,
      "inputs": [
        {
          "indexed": true,
          "internalType": "address",
          "name": "sender",
          "type": "address"
        },
        {
          "indexed": true,
          "internalType": "address",
          "name": "redeemer",
          "type": "address"
        },
        {
          "indexed": false,
          "internalType": "uint256",
          "name": "redeemAmount",
          "type": "uint256"
        },
        {
          "indexed": false,
          "internalType": "uint256",
          "name": "redeemTokens",
          "type": "uint256"
        }
      ],
      "name": "Redeem",
      "type": "event"
    },
    {
      "anonymous": false,
      "inputs": [
        {
          "indexed": false,
          "internalType": "uint256",
          "name": "totalBalance",
          "type": "uint256"
        }
      ],
      "name": "Sync",
      "type": "event"
    },
    {
      "anonymous": false,
      "inputs": [
        {
          "indexed": true,
          "internalType": "address",
          "name": "from",
          "type": "address"
        },
        {
          "indexed": true,
          "internalType": "address",
          "name": "to",
          "type": "address"
        },
        {
          "indexed": false,
          "internalType": "uint256",
          "name": "value",
          "type": "uint256"
        }
      ],
      "name": "Transfer",
      "type": "event"
    },
    {
      "constant": true,
      "inputs": [],
      "name": "DOMAIN_SEPARATOR",
      "outputs": [
        {
          "internalType": "bytes32",
          "name": "",
          "type": "bytes32"
        }
      ],
      "payable": false,
      "stateMutability": "view",
      "type": "function"
    },
    {
      "constant": true,
      "inputs": [],
      "name": "KINK_BORROW_RATE_MAX",
      "outputs": [
        {
          "internalType": "uint256",
          "name": "",
          "type": "uint256"
        }
      ],
      "payable": false,
      "stateMutability": "view",
      "type": "function"
    },
    {
      "constant": true,
      "inputs": [],
      "name": "KINK_BORROW_RATE_MIN",
      "outputs": [
        {
          "internalType": "uint256",
          "name": "",
          "type": "uint256"
        }
      ],
      "payable": false,
      "stateMutability": "view",
      "type": "function"
    },
    {
      "constant": true,
      "inputs": [],
      "name": "KINK_MULTIPLIER",
      "outputs": [
        {
          "internalType": "uint256",
          "name": "",
          "type": "uint256"
        }
      ],
      "payable": false,
      "stateMutability": "view",
      "type": "function"
    },
    {
      "constant": true,
      "inputs": [],
      "name": "MINIMUM_LIQUIDITY",
      "outputs": [
        {
          "internalType": "uint256",
          "name": "",
          "type": "uint256"
        }
      ],
      "payable": false,
      "stateMutability": "view",
      "type": "function"
    },
    {
      "constant": true,
      "inputs": [],
      "name": "PERMIT_TYPEHASH",
      "outputs": [
        {
          "internalType": "bytes32",
          "name": "",
          "type": "bytes32"
        }
      ],
      "payable": false,
      "stateMutability": "view",
      "type": "function"
    },
    {
      "constant": false,
      "inputs": [],
      "name": "_setFactory",
      "outputs": [],
      "payable": false,
      "stateMutability": "nonpayable",
      "type": "function"
    },
    {
      "constant": true,
      "inputs": [],
      "name": "accrualTimestamp",
      "outputs": [
        {
          "internalType": "uint32",
          "name": "",
          "type": "uint32"
        }
      ],
      "payable": false,
      "stateMutability": "view",
      "type": "function"
    },
    {
      "constant": true,
      "inputs": [],
      "name": "adjustSpeed",
      "outputs": [
        {
          "internalType": "uint256",
          "name": "",
          "type": "uint256"
        }
      ],
      "payable": false,
      "stateMutability": "view",
      "type": "function"
    },
    {
      "constant": true,
      "inputs": [
        {
          "internalType": "address",
          "name": "",
          "type": "address"
        },
        {
          "internalType": "address",
          "name": "",
          "type": "address"
        }
      ],
      "name": "allowance",
      "outputs": [
        {
          "internalType": "uint256",
          "name": "",
          "type": "uint256"
        }
      ],
      "payable": false,
      "stateMutability": "view",
      "type": "function"
    },
    {
      "constant": false,
      "inputs": [
        {
          "internalType": "address",
          "name": "spender",
          "type": "address"
        },
        {
          "internalType": "uint256",
          "name": "value",
          "type": "uint256"
        }
      ],
      "name": "approve",
      "outputs": [
        {
          "internalType": "bool",
          "name": "",
          "type": "bool"
        }
      ],
      "payable": false,
      "stateMutability": "nonpayable",
      "type": "function"
    },
    {
      "constant": true,
      "inputs": [
        {
          "internalType": "address",
          "name": "",
          "type": "address"
        }
      ],
      "name": "balanceOf",
      "outputs": [
        {
          "internalType": "uint256",
          "name": "",
          "type": "uint256"
        }
      ],
      "payable": false,
      "stateMutability": "view",
      "type": "function"
    },
    {
      "constant": true,
      "inputs": [
        {
          "internalType": "address",
          "name": "",
          "type": "address"
        },
        {
          "internalType": "address",
          "name": "",
          "type": "address"
        }
      ],
      "name": "borrowAllowance",
      "outputs": [
        {
          "internalType": "uint256",
          "name": "",
          "type": "uint256"
        }
      ],
      "payable": false,
      "stateMutability": "view",
      "type": "function"
    },
    {
      "constant": true,
      "inputs": [],
      "name": "borrowIndex",
      "outputs": [
        {
          "internalType": "uint112",
          "name": "",
          "type": "uint112"
        }
      ],
      "payable": false,
      "stateMutability": "view",
      "type": "function"
    },
    {
      "constant": true,
      "inputs": [],
      "name": "borrowRate",
      "outputs": [
        {
          "internalType": "uint48",
          "name": "",
          "type": "uint48"
        }
      ],
      "payable": false,
      "stateMutability": "view",
      "type": "function"
    },
    {
      "constant": true,
      "inputs": [],
      "name": "borrowTracker",
      "outputs": [
        {
          "internalType": "address",
          "name": "",
          "type": "address"
        }
      ],
      "payable": false,
      "stateMutability": "view",
      "type": "function"
    },
    {
      "constant": true,
      "inputs": [],
      "name": "collateral",
      "outputs": [
        {
          "internalType": "address",
          "name": "",
          "type": "address"
        }
      ],
      "payable": false,
      "stateMutability": "view",
      "type": "function"
    },
    {
      "constant": true,
      "inputs": [],
      "name": "decimals",
      "outputs": [
        {
          "internalType": "uint8",
          "name": "",
          "type": "uint8"
        }
      ],
      "payable": false,
      "stateMutability": "view",
      "type": "function"
    },
    {
      "constant": false,
      "inputs": [],
      "name": "exchangeRate",
      "outputs": [
        {
          "internalType": "uint256",
          "name": "",
          "type": "uint256"
        }
      ],
      "payable": false,
      "stateMutability": "nonpayable",
      "type": "function"
    },
    {
      "constant": true,
      "inputs": [],
      "name": "exchangeRateLast",
      "outputs": [
        {
          "internalType": "uint256",
          "name": "",
          "type": "uint256"
        }
      ],
      "payable": false,
      "stateMutability": "view",
      "type": "function"
    },
    {
      "constant": true,
      "inputs": [],
      "name": "factory",
      "outputs": [
        {
          "internalType": "address",
          "name": "",
          "type": "address"
        }
      ],
      "payable": false,
      "stateMutability": "view",
      "type": "function"
    },
    {
      "constant": true,
      "inputs": [],
      "name": "kinkBorrowRate",
      "outputs": [
        {
          "internalType": "uint48",
          "name": "",
          "type": "uint48"
        }
      ],
      "payable": false,
      "stateMutability": "view",
      "type": "function"
    },
    {
      "constant": true,
      "inputs": [],
      "name": "kinkUtilizationRate",
      "outputs": [
        {
          "internalType": "uint256",
          "name": "",
          "type": "uint256"
        }
      ],
      "payable": false,
      "stateMutability": "view",
      "type": "function"
    },
    {
      "constant": false,
      "inputs": [
        {
          "internalType": "address",
          "name": "minter",
          "type": "address"
        }
      ],
      "name": "mint",
      "outputs": [
        {
          "internalType": "uint256",
          "name": "mintTokens",
          "type": "uint256"
        }
      ],
      "payable": false,
      "stateMutability": "nonpayable",
      "type": "function"
    },
    {
      "constant": true,
      "inputs": [],
      "name": "name",
      "outputs": [
        {
          "internalType": "string",
          "name": "",
          "type": "string"
        }
      ],
      "payable": false,
      "stateMutability": "view",
      "type": "function"
    },
    {
      "constant": true,
      "inputs": [
        {
          "internalType": "address",
          "name": "",
          "type": "address"
        }
      ],
      "name": "nonces",
      "outputs": [
        {
          "internalType": "uint256",
          "name": "",
          "type": "uint256"
        }
      ],
      "payable": false,
      "stateMutability": "view",
      "type": "function"
    },
    {
      "constant": false,
      "inputs": [
        {
          "internalType": "address",
          "name": "owner",
          "type": "address"
        },
        {
          "internalType": "address",
          "name": "spender",
          "type": "address"
        },
        {
          "internalType": "uint256",
          "name": "value",
          "type": "uint256"
        },
        {
          "internalType": "uint256",
          "name": "deadline",
          "type": "uint256"
        },
        {
          "internalType": "uint8",
          "name": "v",
          "type": "uint8"
        },
        {
          "internalType": "bytes32",
          "name": "r",
          "type": "bytes32"
        },
        {
          "internalType": "bytes32",
          "name": "s",
          "type": "bytes32"
        }
      ],
      "name": "permit",
      "outputs": [],
      "payable": false,
      "stateMutability": "nonpayable",
      "type": "function"
    },
    {
      "constant": true,
      "inputs": [],
      "name": "rateUpdateTimestamp",
      "outputs": [
        {
          "internalType": "uint32",
          "name": "",
          "type": "uint32"
        }
      ],
      "payable": false,
      "stateMutability": "view",
      "type": "function"
    },
    {
      "constant": false,
      "inputs": [
        {
          "internalType": "address",
          "name": "redeemer",
          "type": "address"
        }
      ],
      "name": "redeem",
      "outputs": [
        {
          "internalType": "uint256",
          "name": "redeemAmount",
          "type": "uint256"
        }
      ],
      "payable": false,
      "stateMutability": "nonpayable",
      "type": "function"
    },
    {
      "constant": true,
      "inputs": [],
      "name": "reserveFactor",
      "outputs": [
        {
          "internalType": "uint256",
          "name": "",
          "type": "uint256"
        }
      ],
      "payable": false,
      "stateMutability": "view",
      "type": "function"
    },
    {
      "constant": false,
      "inputs": [
        {
          "internalType": "address",
          "name": "to",
          "type": "address"
        }
      ],
      "name": "skim",
      "outputs": [],
      "payable": false,
      "stateMutability": "nonpayable",
      "type": "function"
    },
    {
      "constant": true,
      "inputs": [],
      "name": "symbol",
      "outputs": [
        {
          "internalType": "string",
          "name": "",
          "type": "string"
        }
      ],
      "payable": false,
      "stateMutability": "view",
      "type": "function"
    },
    {
      "constant": false,
      "inputs": [],
      "name": "sync",
      "outputs": [],
      "payable": false,
      "stateMutability": "nonpayable",
      "type": "function"
    },
    {
      "constant": true,
      "inputs": [],
      "name": "totalBalance",
      "outputs": [
        {
          "internalType": "uint256",
          "name": "",
          "type": "uint256"
        }
      ],
      "payable": false,
      "stateMutability": "view",
      "type": "function"
    },
    {
      "constant": true,
      "inputs": [],
      "name": "totalBorrows",
      "outputs": [
        {
          "internalType": "uint112",
          "name": "",
          "type": "uint112"
        }
      ],
      "payable": false,
      "stateMutability": "view",
      "type": "function"
    },
    {
      "constant": true,
      "inputs": [],
      "name": "totalSupply",
      "outputs": [
        {
          "internalType": "uint256",
          "name": "",
          "type": "uint256"
        }
      ],
      "payable": false,
      "stateMutability": "view",
      "type": "function"
    },
    {
      "constant": false,
      "inputs": [
        {
          "internalType": "address",
          "name": "to",
          "type": "address"
        },
        {
          "internalType": "uint256",
          "name": "value",
          "type": "uint256"
        }
      ],
      "name": "transfer",
      "outputs": [
        {
          "internalType": "bool",
          "name": "",
          "type": "bool"
        }
      ],
      "payable": false,
      "stateMutability": "nonpayable",
      "type": "function"
    },
    {
      "constant": false,
      "inputs": [
        {
          "internalType": "address",
          "name": "from",
          "type": "address"
        },
        {
          "internalType": "address",
          "name": "to",
          "type": "address"
        },
        {
          "internalType": "uint256",
          "name": "value",
          "type": "uint256"
        }
      ],
      "name": "transferFrom",
      "outputs": [
        {
          "internalType": "bool",
          "name": "",
          "type": "bool"
        }
      ],
      "payable": false,
      "stateMutability": "nonpayable",
      "type": "function"
    },
    {
      "constant": true,
      "inputs": [],
      "name": "underlying",
      "outputs": [
        {
          "internalType": "address",
          "name": "",
          "type": "address"
        }
      ],
      "payable": false,
      "stateMutability": "view",
      "type": "function"
    },
    {
      "constant": false,
      "inputs": [],
      "name": "accrueInterest",
      "outputs": [],
      "payable": false,
      "stateMutability": "nonpayable",
      "type": "function"
    },
    {
      "constant": true,
      "inputs": [],
      "name": "getBlockTimestamp",
      "outputs": [
        {
          "internalType": "uint32",
          "name": "",
          "type": "uint32"
        }
      ],
      "payable": false,
      "stateMutability": "view",
      "type": "function"
    }
  ],
  "bytecode": "0x60806040526002805460ff199081166012908117909255600b80549091166001179055600e80546001600160701b031916670de0b6b3a7640000176001600160e01b0316600160e01b4263ffffffff16908102919091179091556010805465ffffffffffff60301b191669bd014d800000000000001763ffffffff60601b19166c0100000000000000000000000090920291909117905567016345785d8a00006011556709b6e64a8ec6000090556486bd6db02060135561228b806100c56000396000f3fe608060405234801561001057600080fd5b50600436106102d35760003560e01c8063796b89b911610186578063ba9a7a56116100e3578063d505accf11610097578063e076600011610071578063e07660001461076b578063e12b630614610773578063fff6cae91461077b576102d3565b8063d505accf146106ca578063d8dfeb4514610728578063dd62ed3e14610730576102d3565b8063be340e32116100c8578063be340e32146106b2578063c45a0155146106ba578063c914b437146106c2576102d3565b8063ba9a7a5614610677578063bc25cf771461067f576102d3565b8063a6afed951161013a578063aa5af0fd1161011f578063aa5af0fd1461065f578063ad7a672f14610667578063b95b92a31461066f576102d3565b8063a6afed951461061e578063a9059cbb14610626576102d3565b806391b427451161016b57806391b42745146105c057806395a2251f146105e357806395d89b4114610616576102d3565b8063796b89b91461056c5780637ecebe001461058d576102d3565b80634322b714116102345780635b2b9d1a116101e85780636bd76d24116101cd5780636bd76d24146104f65780636f307dc31461053157806370a0823114610539576102d3565b80635b2b9d1a146104bb5780636a627842146104c3576102d3565b806347bd37181161021957806347bd3718146104555780634a5d316c14610480578063559572201461048a576102d3565b80634322b71414610445578063452ae95f1461044d576102d3565b80632d5231d31161028b578063313ce56711610270578063313ce567146104175780633644e515146104355780633ba0b9a91461043d576102d3565b80632d5231d31461040757806330adf81f1461040f576102d3565b806318160ddd116102bc57806318160ddd146103a25780631aebf12f146103bc57806323b872dd146103c4576102d3565b806306fdde03146102d8578063095ea7b314610355575b600080fd5b6102e0610783565b6040805160208082528351818301528351919283929083019185019080838360005b8381101561031a578181015183820152602001610302565b50505050905090810190601f1680156103475780820380516001836020036101000a031916815260200191505b509250505060405180910390f35b61038e6004803603604081101561036b57600080fd5b5073ffffffffffffffffffffffffffffffffffffffff813516906020013561082f565b604080519115158252519081900360200190f35b6103aa610846565b60408051918252519081900360200190f35b6103aa61084c565b61038e600480360360608110156103da57600080fd5b5073ffffffffffffffffffffffffffffffffffffffff813581169160208101359091169060400135610852565b6103aa610966565b6103aa61096c565b61041f610990565b6040805160ff9092168252519081900360200190f35b6103aa610999565b6103aa61099f565b6103aa6109fb565b6103aa610a01565b61045d610a0a565b604080516dffffffffffffffffffffffffffff9092168252519081900360200190f35b610488610a32565b005b610492610ae3565b6040805173ffffffffffffffffffffffffffffffffffffffff9092168252519081900360200190f35b6103aa610aff565b6103aa600480360360208110156104d957600080fd5b503573ffffffffffffffffffffffffffffffffffffffff16610b04565b6103aa6004803603604081101561050c57600080fd5b5073ffffffffffffffffffffffffffffffffffffffff81358116916020013516610db2565b610492610dcf565b6103aa6004803603602081101561054f57600080fd5b503573ffffffffffffffffffffffffffffffffffffffff16610deb565b610574610dfd565b6040805163ffffffff9092168252519081900360200190f35b6103aa600480360360208110156105a357600080fd5b503573ffffffffffffffffffffffffffffffffffffffff16610e07565b6105c8610e19565b6040805165ffffffffffff9092168252519081900360200190f35b6103aa600480360360208110156105f957600080fd5b503573ffffffffffffffffffffffffffffffffffffffff16610e31565b6102e0611055565b6104886110cd565b61038e6004803603604081101561063c57600080fd5b5073ffffffffffffffffffffffffffffffffffffffff813516906020013561130c565b61045d611319565b6103aa61132f565b610574611335565b6103aa611361565b6104886004803603602081101561069557600080fd5b503573ffffffffffffffffffffffffffffffffffffffff16611367565b6103aa6114ea565b6104926114f0565b6105c861150c565b610488600480360360e08110156106e057600080fd5b5073ffffffffffffffffffffffffffffffffffffffff813581169160208101359091169060408101359060608101359060ff6080820135169060a08101359060c0013561151a565b61049261155e565b6103aa6004803603604081101561074657600080fd5b5073ffffffffffffffffffffffffffffffffffffffff8135811691602001351661157f565b6103aa61159c565b6105746115a4565b6104886115c0565b6000805460408051602060026001851615610100027fffffffffffffffffffffffffffffffffffffffffffffffffffffffffffffffff0190941693909304601f810184900484028201840190925281815292918301828280156108275780601f106107fc57610100808354040283529160200191610827565b820191906000526020600020905b81548152906001019060200180831161080a57829003601f168201915b505050505081565b600061083c33848461168e565b5060015b92915050565b60035481565b60125481565b73ffffffffffffffffffffffffffffffffffffffff831660009081526005602090815260408083203384529091528120547fffffffffffffffffffffffffffffffffffffffffffffffffffffffffffffffff1461095157604080518082018252601e81527f496d7065726d61783a205452414e534645525f4e4f545f414c4c4f574544000060208083019190915273ffffffffffffffffffffffffffffffffffffffff8716600090815260058252838120338252909152919091205461091f91849063ffffffff6116fd16565b73ffffffffffffffffffffffffffffffffffffffff851660009081526005602090815260408083203384529091529020555b61095c8484846117ae565b5060019392505050565b60135481565b7f6e71edae12b1b97f4d1f60370fef10105fa2faae0126114a169c64845d6126c981565b60025460ff1681565b60065481565b600354600a54600091908115806109b4575080155b156109cb57670de0b6b3a7640000925050506109f8565b6109f3826109e783670de0b6b3a764000063ffffffff6118c716565b9063ffffffff61194116565b925050505b90565b60115481565b6407620d070081565b600e546e01000000000000000000000000000090046dffffffffffffffffffffffffffff1681565b60095473ffffffffffffffffffffffffffffffffffffffff1615610ab757604080517f08c379a000000000000000000000000000000000000000000000000000000000815260206004820152601d60248201527f496d7065726d61783a20464143544f52595f414c52454144595f534554000000604482015290519081900360640190fd5b600980547fffffffffffffffffffffffff00000000000000000000000000000000000000001633179055565b60145473ffffffffffffffffffffffffffffffffffffffff1681565b600581565b600b5460009060ff16610b7857604080517f08c379a000000000000000000000000000000000000000000000000000000000815260206004820152601360248201527f496d7065726d61783a205245454e544552454400000000000000000000000000604482015290519081900360640190fd5b600b80547fffffffffffffffffffffffffffffffffffffffffffffffffffffffffffffff00169055600854604080517f70a08231000000000000000000000000000000000000000000000000000000008152306004820152905160009273ffffffffffffffffffffffffffffffffffffffff16916370a08231916024808301926020929190829003018186803b158015610c1157600080fd5b505afa158015610c25573d6000803e3d6000fd5b505050506040513d6020811015610c3b57600080fd5b5051600a54909150600090610c5790839063ffffffff61198316565b9050610c7c610c6461099f565b6109e783670de0b6b3a764000063ffffffff6118c716565b925060035460001415610caa57610c9b836103e863ffffffff61198316565b9250610caa60006103e86119c5565b60008311610d1957604080517f08c379a000000000000000000000000000000000000000000000000000000000815260206004820152601a60248201527f496d7065726d61783a204d494e545f414d4f554e545f5a45524f000000000000604482015290519081900360640190fd5b610d2384846119c5565b6040805182815260208101859052815173ffffffffffffffffffffffffffffffffffffffff87169233927f2f00e3cdd69a77be7ed215ec7b2a36784dd158f921fca79ac29deffa353fe6ee929081900390910190a35050610d82611a76565b600b80547fffffffffffffffffffffffffffffffffffffffffffffffffffffffffffffff00166001179055919050565b600c60209081526000928352604080842090915290825290205481565b60085473ffffffffffffffffffffffffffffffffffffffff1681565b60046020526000908152604090205481565b63ffffffff421690565b60076020526000908152604090205481565b6010546601000000000000900465ffffffffffff1681565b600b5460009060ff16610ea557604080517f08c379a000000000000000000000000000000000000000000000000000000000815260206004820152601360248201527f496d7065726d61783a205245454e544552454400000000000000000000000000604482015290519081900360640190fd5b600b80547fffffffffffffffffffffffffffffffffffffffffffffffffffffffffffffff0016905530600090815260046020526040902054610f01670de0b6b3a76400006109e7610ef461099f565b849063ffffffff6118c716565b915060008211610f7257604080517f08c379a000000000000000000000000000000000000000000000000000000000815260206004820152601c60248201527f496d7065726d61783a2052454445454d5f414d4f554e545f5a45524f00000000604482015290519081900360640190fd5b600a54821115610fe357604080517f08c379a000000000000000000000000000000000000000000000000000000000815260206004820152601b60248201527f496d7065726d61783a20494e53554646494349454e545f434153480000000000604482015290519081900360640190fd5b610fed3082611b4c565b610ff78383611c10565b6040805183815260208101839052815173ffffffffffffffffffffffffffffffffffffffff86169233927f3f693fff038bb8a046aa76d9516190ac7444f7d69cf952c4cbdc086fdef2d6fc929081900390910190a350610d82611a76565b60018054604080516020600284861615610100027fffffffffffffffffffffffffffffffffffffffffffffffffffffffffffffffff0190941693909304601f810184900484028201840190925281815292918301828280156108275780601f106107fc57610100808354040283529160200191610827565b600e546dffffffffffffffffffffffffffff808216916e0100000000000000000000000000008104909116907c0100000000000000000000000000000000000000000000000000000000900463ffffffff166000611129610dfd565b90508063ffffffff168263ffffffff161415611148575050505061130a565b600e805463ffffffff8084167c0100000000000000000000000000000000000000000000000000000000027bffffffffffffffffffffffffffffffffffffffffffffffffffffffff90921691909117909155601054838303916000916111bd9165ffffffffffff90911690808516906118c716565b905060006111dd670de0b6b3a76400006109e7848963ffffffff6118c716565b90506111ef868263ffffffff611e1c16565b955061121d611210670de0b6b3a76400006109e7858b63ffffffff6118c716565b889063ffffffff611e1c16565b965061122887611e90565b600e80547fffffffffffffffffffffffffffffffffffff0000000000000000000000000000166dffffffffffffffffffffffffffff9290921691909117905561127086611e90565b600e80546dffffffffffffffffffffffffffff929092166e010000000000000000000000000000027fffffffff0000000000000000000000000000ffffffffffffffffffffffffffff909216919091179055604080518281526020810189905280820188905290517f875352fb3fadeb8c0be7cbbe8ff761b308fa7033470cd0287f02f3436fd76cb99181900360600190a1505050505050505b565b600061083c3384846117ae565b600e546dffffffffffffffffffffffffffff1681565b600a5481565b600e547c0100000000000000000000000000000000000000000000000000000000900463ffffffff1681565b6103e881565b600b5460ff166113d857604080517f08c379a000000000000000000000000000000000000000000000000000000000815260206004820152601360248201527f496d7065726d61783a205245454e544552454400000000000000000000000000604482015290519081900360640190fd5b600b80547fffffffffffffffffffffffffffffffffffffffffffffffffffffffffffffff00169055600a54600854604080517f70a0823100000000000000000000000000000000000000000000000000000000815230600482015290516114bc9385936114b793919273ffffffffffffffffffffffffffffffffffffffff909116916370a08231916024808301926020929190829003018186803b15801561147f57600080fd5b505afa158015611493573d6000803e3d6000fd5b505050506040513d60208110156114a957600080fd5b50519063ffffffff61198316565b611c10565b50600b80547fffffffffffffffffffffffffffffffffffffffffffffffffffffffffffffff00166001179055565b600f5481565b60095473ffffffffffffffffffffffffffffffffffffffff1681565b60105465ffffffffffff1681565b61154a878787878787877f6e71edae12b1b97f4d1f60370fef10105fa2faae0126114a169c64845d6126c9611f13565b61155587878761168e565b50505050505050565b600b54610100900473ffffffffffffffffffffffffffffffffffffffff1681565b600560209081526000928352604080842090915290825290205481565b6312e687c081565b6010546c01000000000000000000000000900463ffffffff1681565b600b5460ff1661163157604080517f08c379a000000000000000000000000000000000000000000000000000000000815260206004820152601360248201527f496d7065726d61783a205245454e544552454400000000000000000000000000604482015290519081900360640190fd5b600b80547fffffffffffffffffffffffffffffffffffffffffffffffffffffffffffffff00169055611661611a76565b600b80547fffffffffffffffffffffffffffffffffffffffffffffffffffffffffffffff00166001179055565b73ffffffffffffffffffffffffffffffffffffffff808416600081815260056020908152604080832094871680845294825291829020859055815185815291517f8c5be1e5ebec7d5bd14f71427d1e84f3dd0314c0f7b2291e5b200ac8c7c3b9259281900390910190a3505050565b600081848411156117a6576040517f08c379a00000000000000000000000000000000000000000000000000000000081526004018080602001828103825283818151815260200191508051906020019080838360005b8381101561176b578181015183820152602001611753565b50505050905090810190601f1680156117985780820380516001836020036101000a031916815260200191505b509250505060405180910390fd5b505050900390565b604080518082018252601b81527f496d7065726d61783a205452414e534645525f544f4f5f48494748000000000060208083019190915273ffffffffffffffffffffffffffffffffffffffff861660009081526004909152919091205461181c91839063ffffffff6116fd16565b73ffffffffffffffffffffffffffffffffffffffff808516600090815260046020526040808220939093559084168152205461185e908263ffffffff611e1c16565b73ffffffffffffffffffffffffffffffffffffffff80841660008181526004602090815260409182902094909455805185815290519193928716927fddf252ad1be2c89b69c2b068fc378daa952ba7f163c4a11628f55a4df523b3ef92918290030190a3505050565b6000826118d657506000610840565b828202828482816118e357fe5b041461193a576040517f08c379a00000000000000000000000000000000000000000000000000000000081526004018080602001828103825260218152602001806122366021913960400191505060405180910390fd5b9392505050565b600061193a83836040518060400160405280601a81526020017f536166654d6174683a206469766973696f6e206279207a65726f0000000000008152506121b6565b600061193a83836040518060400160405280601f81526020017f536166654d6174683a207375627472616374696f6e20756e646572666c6f77008152506116fd565b6003546119d8908263ffffffff611e1c16565b60035573ffffffffffffffffffffffffffffffffffffffff8216600090815260046020526040902054611a11908263ffffffff611e1c16565b73ffffffffffffffffffffffffffffffffffffffff831660008181526004602090815260408083209490945583518581529351929391927fddf252ad1be2c89b69c2b068fc378daa952ba7f163c4a11628f55a4df523b3ef9281900390910190a35050565b600854604080517f70a08231000000000000000000000000000000000000000000000000000000008152306004820152905173ffffffffffffffffffffffffffffffffffffffff909216916370a0823191602480820192602092909190829003018186803b158015611ae757600080fd5b505afa158015611afb573d6000803e3d6000fd5b505050506040513d6020811015611b1157600080fd5b5051600a81905560408051918252517f8a0df8ef054fae2c3d2d19a7b322e864870cc9fd3cb07fb9526309c596244bf49181900360200190a1565b73ffffffffffffffffffffffffffffffffffffffff8216600090815260046020526040902054611b82908263ffffffff61198316565b73ffffffffffffffffffffffffffffffffffffffff8316600090815260046020526040902055600354611bbb908263ffffffff61198316565b60035560408051828152905160009173ffffffffffffffffffffffffffffffffffffffff8516917fddf252ad1be2c89b69c2b068fc378daa952ba7f163c4a11628f55a4df523b3ef9181900360200190a35050565b600854604080518082018252601981527f7472616e7366657228616464726573732c75696e743235362900000000000000602091820152815173ffffffffffffffffffffffffffffffffffffffff86811660248301526044808301879052845180840390910181526064909201845291810180517bffffffffffffffffffffffffffffffffffffffffffffffffffffffff167fa9059cbb000000000000000000000000000000000000000000000000000000001781529251815160009560609594169382918083835b60208310611d1657805182527fffffffffffffffffffffffffffffffffffffffffffffffffffffffffffffffe09092019160209182019101611cd9565b6001836020036101000a0380198251168184511680821785525050505050509050019150506000604051808303816000865af19150503d8060008114611d78576040519150601f19603f3d011682016040523d82523d6000602084013e611d7d565b606091505b5091509150818015611dab575080511580611dab5750808060200190516020811015611da857600080fd5b50515b611e1657604080517f08c379a000000000000000000000000000000000000000000000000000000000815260206004820152601960248201527f496d7065726d61783a205452414e534645525f4641494c454400000000000000604482015290519081900360640190fd5b50505050565b60008282018381101561193a57604080517f08c379a000000000000000000000000000000000000000000000000000000000815260206004820152601b60248201527f536166654d6174683a206164646974696f6e206f766572666c6f770000000000604482015290519081900360640190fd5b60006e0100000000000000000000000000008210611f0f57604080517f08c379a000000000000000000000000000000000000000000000000000000000815260206004820152601160248201527f496d7065726d61783a2053414645313132000000000000000000000000000000604482015290519081900360640190fd5b5090565b42851015611f8257604080517f08c379a000000000000000000000000000000000000000000000000000000000815260206004820152601160248201527f496d7065726d61783a2045585049524544000000000000000000000000000000604482015290519081900360640190fd5b60065473ffffffffffffffffffffffffffffffffffffffff808a1660008181526007602090815260408083208054600180820190925582518085018a905280840196909652958e166060860152608085018d905260a085019590955260c08085018c90528151808603909101815260e0850182528051908301207f19010000000000000000000000000000000000000000000000000000000000006101008601526101028501969096526101228085019690965280518085039096018652610142840180825286519683019690962095839052610162840180825286905260ff8a166101828501526101a284018990526101c28401889052519193926101e2808201937fffffffffffffffffffffffffffffffffffffffffffffffffffffffffffffffe081019281900390910190855afa1580156120c4573d6000803e3d6000fd5b50506040517fffffffffffffffffffffffffffffffffffffffffffffffffffffffffffffffe0015191505073ffffffffffffffffffffffffffffffffffffffff81161580159061213f57508973ffffffffffffffffffffffffffffffffffffffff168173ffffffffffffffffffffffffffffffffffffffff16145b6121aa57604080517f08c379a000000000000000000000000000000000000000000000000000000000815260206004820152601b60248201527f496d7065726d61783a20494e56414c49445f5349474e41545552450000000000604482015290519081900360640190fd5b50505050505050505050565b6000818361221f576040517f08c379a000000000000000000000000000000000000000000000000000000000815260206004820181815283516024840152835190928392604490910191908501908083836000831561176b578181015183820152602001611753565b50600083858161222b57fe5b049594505050505056fe536166654d6174683a206d756c7469706c69636174696f6e206f766572666c6f77a265627a7a72315820b3fdb8479b8e638c0a912cbe31b24a0ab71203a7a3aa2cbb537fa1e636541d9964736f6c63430005100032",
  "source": "pragma solidity =0.5.16;\r\n\r\nimport \"./BStorage.sol\";\r\nimport \"./PoolToken.sol\";\r\n\r\ncontract BInterestRateModel is PoolToken, BStorage {\r\n\r\n\t// When utilization is 100% borrowRate is kinkBorrowRate * KINK_MULTIPLIER\r\n\t// kinkBorrowRate relative adjustment per second belongs to [1-adjustSpeed, 1+adjustSpeed*(KINK_MULTIPLIER-1)]\r\n\tuint public constant KINK_MULTIPLIER = 5;\r\n\tuint public constant KINK_BORROW_RATE_MAX = 31.7097920e9; //100% per year\r\n\tuint public constant KINK_BORROW_RATE_MIN = 0.31709792e9; //1% per year\r\n\r\n\tevent AccrueInterest(uint interestAccumulated, uint borrowIndex, uint totalBorrows);\r\n\tevent CalculateKinkBorrowRate(uint kinkBorrowRate);\r\n\tevent CalculateBorrowRate(uint borrowRate);\r\n\t\t\r\n\tfunction _calculateBorrowRate() internal {\r\n\t\tuint _kinkUtilizationRate = kinkUtilizationRate;\t\t\r\n\t\tuint _adjustSpeed = adjustSpeed;\r\n\t\tuint _borrowRate = borrowRate;\t\r\n\t\tuint _kinkBorrowRate = kinkBorrowRate;\r\n\t\tuint32 _rateUpdateTimestamp = rateUpdateTimestamp;\t\t\r\n\t\r\n\t\t// update kinkBorrowRate using previous borrowRate\r\n\t\tuint32 timeElapsed = getBlockTimestamp() - _rateUpdateTimestamp; // underflow is desired\r\n\t\tif(timeElapsed > 0) {\r\n\t\t\trateUpdateTimestamp = getBlockTimestamp();\r\n\t\t\tuint adjustFactor;\r\n\t\t\t\r\n\t\t\tif (_borrowRate < _kinkBorrowRate) {\r\n\t\t\t\t// never overflows, _kinkBorrowRate is never 0\r\n\t\t\t\tuint tmp = (_kinkBorrowRate - _borrowRate) * 1e18 / _kinkBorrowRate * _adjustSpeed * timeElapsed / 1e18;\r\n\t\t\t\tadjustFactor = tmp > 1e18 ? 0 : 1e18 - tmp;\r\n\t\t\t} else {\r\n\t\t\t\t// never overflows, _kinkBorrowRate is never 0\r\n\t\t\t\tuint tmp = (_borrowRate - _kinkBorrowRate) * 1e18 / _kinkBorrowRate * _adjustSpeed * timeElapsed / 1e18;\r\n\t\t\t\tadjustFactor = tmp + 1e18;\r\n\t\t\t}\r\n\t\t\t\r\n\t\t\t// never overflows\r\n\t\t\t_kinkBorrowRate = _kinkBorrowRate * adjustFactor / 1e18;\r\n\t\t\tif(_kinkBorrowRate > KINK_BORROW_RATE_MAX) _kinkBorrowRate = KINK_BORROW_RATE_MAX;\r\n\t\t\tif(_kinkBorrowRate < KINK_BORROW_RATE_MIN) _kinkBorrowRate = KINK_BORROW_RATE_MIN;\r\n\r\n\t\t\tkinkBorrowRate = uint48(_kinkBorrowRate);\r\n\t\t\temit CalculateKinkBorrowRate(_kinkBorrowRate);\r\n\t\t}\r\n\t\t\r\n\t\tuint _utilizationRate;\r\n\t\t{ // avoid stack to deep\r\n\t\tuint _totalBorrows = totalBorrows; // gas savings\r\n\t\tuint _actualBalance = totalBalance.add(_totalBorrows);\r\n\t\t_utilizationRate = (_actualBalance == 0) ? 0 : _totalBorrows * 1e18 / _actualBalance;\r\n\t\t}\r\n\t\t\r\n\t\t// update borrowRate using the new kinkBorrowRate\t\r\n\t\tif(_utilizationRate <= _kinkUtilizationRate) {\r\n\t\t\t// never overflows, _kinkUtilizationRate is never 0\r\n\t\t\t_borrowRate = _kinkBorrowRate * _utilizationRate / _kinkUtilizationRate;\r\n\t\t} else {\r\n\t\t\t// never overflows, _kinkUtilizationRate is always < 1e18\r\n\t\t\tuint overUtilization = (_utilizationRate - _kinkUtilizationRate) * 1e18 / (1e18 - _kinkUtilizationRate);\r\n\t\t\t// never overflows\r\n\t\t\t_borrowRate = ((KINK_MULTIPLIER - 1) * overUtilization + 1e18) * _kinkBorrowRate / 1e18;\r\n\t\t}\r\n\t\tborrowRate = uint48(_borrowRate);\r\n\t\temit CalculateBorrowRate(_borrowRate);\r\n\t}\r\n\t\r\n\t// applies accrued interest to total borrows and reserves\r\n\tfunction accrueInterest() public {\r\n\t\tuint _borrowIndex = borrowIndex;\r\n\t\tuint _totalBorrows = totalBorrows;\r\n\t\tuint32 _accrualTimestamp = accrualTimestamp;\r\n\t\t\r\n\t\tuint32 blockTimestamp = getBlockTimestamp();\r\n\t\tif (_accrualTimestamp == blockTimestamp) return;\r\n\t\tuint32 timeElapsed = blockTimestamp - _accrualTimestamp; // underflow is desired\r\n\t\taccrualTimestamp = blockTimestamp;\r\n\t\t\r\n\t\tuint interestFactor = uint(borrowRate).mul(timeElapsed);\t\r\n\t\tuint interestAccumulated = interestFactor.mul(_totalBorrows).div(1e18);\r\n\t\t_totalBorrows = _totalBorrows.add( interestAccumulated );\r\n\t\t_borrowIndex = _borrowIndex.add( interestFactor.mul(_borrowIndex).div(1e18) );\r\n\t\r\n\t\tborrowIndex = safe112(_borrowIndex);\r\n\t\ttotalBorrows = safe112(_totalBorrows);\r\n\t\temit AccrueInterest(interestAccumulated, _borrowIndex, _totalBorrows);\r\n\t}\r\n\t\t\r\n\tfunction getBlockTimestamp() public view returns (uint32) {\r\n\t\treturn uint32(block.timestamp % 2**32);\r\n\t}\r\n}",
  "sourcePath": "C:\\Users\\simor\\Desktop\\impermax-x-uniswapv2-periphery\\test\\Contracts\\imx-univ2-core\\BInterestRateModel.sol",
  "compiler": {
    "name": "solc",
    "version": "0.5.16+commit.9c3226ce.Emscripten.clang"
  },
  "schemaVersion": "3.3.2",
  "updatedAt": "2021-02-23T00:00:51.745Z",
  "devdoc": {
    "methods": {}
  },
  "userdoc": {
    "methods": {
      "_setFactory()": {
        "notice": "* Initialize **"
      }
    }
  }
}