{
  "contractName": "CapitalFreeLiquidate",
  "abi": [
    {
      "inputs": [
        {
          "internalType": "address",
          "name": "_factory",
          "type": "address"
        },
        {
          "internalType": "address",
          "name": "_bDeployer",
          "type": "address"
        },
        {
          "internalType": "address",
          "name": "_cDeployer",
          "type": "address"
        },
        {
          "internalType": "address",
          "name": "_WETH",
          "type": "address"
        },
        {
          "internalType": "address",
          "name": "_to",
          "type": "address"
        }
      ],
      "stateMutability": "nonpayable",
      "type": "constructor"
    },
    {
      "inputs": [],
      "name": "WETH",
      "outputs": [
        {
          "internalType": "address",
          "name": "",
          "type": "address"
        }
      ],
      "stateMutability": "view",
      "type": "function"
    },
    {
      "inputs": [],
      "name": "bDeployer",
      "outputs": [
        {
          "internalType": "address",
          "name": "",
          "type": "address"
        }
      ],
      "stateMutability": "view",
      "type": "function"
    },
    {
      "inputs": [],
      "name": "cDeployer",
      "outputs": [
        {
          "internalType": "address",
          "name": "",
          "type": "address"
        }
      ],
      "stateMutability": "view",
      "type": "function"
    },
    {
      "inputs": [],
      "name": "factory",
      "outputs": [
        {
          "internalType": "address",
          "name": "",
          "type": "address"
        }
      ],
      "stateMutability": "view",
      "type": "function"
    },
    {
      "inputs": [],
      "name": "to",
      "outputs": [
        {
          "internalType": "address",
          "name": "",
          "type": "address"
        }
      ],
      "stateMutability": "view",
      "type": "function"
    },
    {
      "stateMutability": "payable",
      "type": "receive"
    },
    {
      "inputs": [
        {
          "internalType": "address",
          "name": "uniswapV2Pair",
          "type": "address"
        },
        {
          "internalType": "uint8",
          "name": "toLiquidateIndex",
          "type": "uint8"
        },
        {
          "internalType": "uint8",
          "name": "takeProfitIndex",
          "type": "uint8"
        },
        {
          "internalType": "address",
          "name": "borrower",
          "type": "address"
        },
        {
          "internalType": "uint256",
          "name": "liquidateAmountMax",
          "type": "uint256"
        },
        {
          "internalType": "uint256",
          "name": "profitMin",
          "type": "uint256"
        }
      ],
      "name": "liquidate",
      "outputs": [
        {
          "internalType": "uint256",
          "name": "profit",
          "type": "uint256"
        }
      ],
      "stateMutability": "nonpayable",
      "type": "function"
    },
    {
      "inputs": [
        {
          "internalType": "address",
          "name": "sender",
          "type": "address"
        },
        {
          "internalType": "uint256",
          "name": "redeemAmount",
          "type": "uint256"
        },
        {
          "internalType": "bytes",
          "name": "data",
          "type": "bytes"
        }
      ],
      "name": "impermaxRedeem",
      "outputs": [],
      "stateMutability": "nonpayable",
      "type": "function"
    },
    {
      "inputs": [
        {
          "internalType": "address",
          "name": "sender",
          "type": "address"
        },
        {
          "internalType": "address",
          "name": "borrower",
          "type": "address"
        },
        {
          "internalType": "uint256",
          "name": "borrowAmount",
          "type": "uint256"
        },
        {
          "internalType": "bytes",
          "name": "data",
          "type": "bytes"
        }
      ],
      "name": "impermaxBorrow",
      "outputs": [],
      "stateMutability": "nonpayable",
      "type": "function"
    },
    {
      "inputs": [
        {
          "internalType": "address",
          "name": "token",
          "type": "address"
        }
      ],
      "name": "skim",
      "outputs": [],
      "stateMutability": "nonpayable",
      "type": "function"
    },
    {
      "inputs": [
        {
          "internalType": "address",
          "name": "uniswapV2Pair",
          "type": "address"
        },
        {
          "internalType": "uint8",
          "name": "index",
          "type": "uint8"
        }
      ],
      "name": "getBorrowable",
      "outputs": [
        {
          "internalType": "address",
          "name": "borrowable",
          "type": "address"
        }
      ],
      "stateMutability": "view",
      "type": "function"
    },
    {
      "inputs": [
        {
          "internalType": "address",
          "name": "uniswapV2Pair",
          "type": "address"
        }
      ],
      "name": "getCollateral",
      "outputs": [
        {
          "internalType": "address",
          "name": "collateral",
          "type": "address"
        }
      ],
      "stateMutability": "view",
      "type": "function"
    },
    {
      "inputs": [
        {
          "internalType": "address",
          "name": "uniswapV2Pair",
          "type": "address"
        }
      ],
      "name": "getLendingPool",
      "outputs": [
        {
          "internalType": "address",
          "name": "collateral",
          "type": "address"
        },
        {
          "internalType": "address",
          "name": "borrowableA",
          "type": "address"
        },
        {
          "internalType": "address",
          "name": "borrowableB",
          "type": "address"
        }
      ],
      "stateMutability": "view",
      "type": "function"
    }
  ],
  "bytecode": "0x6101006040523480156200001257600080fd5b506040516200264038038062002640833981016040819052620000359162000085565b606094851b6001600160601b031990811660805293851b841660a05291841b831660c05290921b1660e052600080546001600160a01b0319166001600160a01b039092169190911790556200011d565b600080600080600060a086880312156200009d578081fd5b8551620000aa8162000104565b6020870151909550620000bd8162000104565b6040870151909450620000d08162000104565b6060870151909350620000e38162000104565b6080870151909250620000f68162000104565b809150509295509295909350565b6001600160a01b03811681146200011a57600080fd5b50565b60805160601c60a05160601c60c05160601c60e05160601c6124bf620001816000398060e8528061041052806104db528061056a5250806102df528061030c52508061085552806108b852508061032d528061062552806108d952506124bf6000f3fe6080604052600436106100cb5760003560e01c8063ad5c464811610074578063cfa1f4451161004e578063cfa1f4451461022f578063db5a26901461025c578063ef974e9c1461027157610111565b8063ad5c4648146101e5578063bc25cf77146101fa578063c45a01551461021a57610111565b8063876d9d9e116100a5578063876d9d9e146101855780639b56d6c9146101a5578063acb86cbb146101c557610111565b80630572bf5f14610116578063131519811461014e5780637a4660d51461017057610111565b36610111573373ffffffffffffffffffffffffffffffffffffffff7f0000000000000000000000000000000000000000000000000000000000000000161461010f57fe5b005b600080fd5b34801561012257600080fd5b5061013661013136600461198b565b610291565b60405161014593929190611f32565b60405180910390f35b34801561015a57600080fd5b506101636102c1565b6040516101459190611eb5565b34801561017c57600080fd5b506101636102dd565b34801561019157600080fd5b5061010f6101a03660046119c3565b610301565b3480156101b157600080fd5b506101636101c036600461198b565b610308565b3480156101d157600080fd5b5061010f6101e0366004611a34565b6103c1565b3480156101f157600080fd5b5061016361040e565b34801561020657600080fd5b5061010f61021536600461198b565b610432565b34801561022657600080fd5b50610163610623565b34801561023b57600080fd5b5061024f61024a366004611ac3565b610647565b604051610145919061235f565b34801561026857600080fd5b50610163610853565b34801561027d57600080fd5b5061016361028c366004611a8e565b610877565b600080600061029f84610308565b92506102ac846000610877565b91506102b9846001610877565b929491935050565b60005473ffffffffffffffffffffffffffffffffffffffff1681565b7f000000000000000000000000000000000000000000000000000000000000000081565b5050505050565b60007f00000000000000000000000000000000000000000000000000000000000000007f00000000000000000000000000000000000000000000000000000000000000008360405160200161035e929190611cf6565b60405160208183030381529060405280519060200120604051602001610385929190611db3565b604080517fffffffffffffffffffffffffffffffffffffffffffffffffffffffffffffffe0818403018152919052805160209091012092915050565b6103c96118dc565b6103d582840184611b4e565b9050610301816000015182602001518360400151846060015185608001518660a001518760c001518860e001518961010001518d610970565b7f000000000000000000000000000000000000000000000000000000000000000081565b6040517f70a0823100000000000000000000000000000000000000000000000000000000815260009073ffffffffffffffffffffffffffffffffffffffff8316906370a0823190610487903090600401611eb5565b60206040518083038186803b15801561049f57600080fd5b505afa1580156104b3573d6000803e3d6000fd5b505050506040513d601f19601f820116820180604052508101906104d79190611c50565b90507f000000000000000000000000000000000000000000000000000000000000000073ffffffffffffffffffffffffffffffffffffffff168273ffffffffffffffffffffffffffffffffffffffff1614156105fa576040517f2e1a7d4d00000000000000000000000000000000000000000000000000000000815273ffffffffffffffffffffffffffffffffffffffff7f00000000000000000000000000000000000000000000000000000000000000001690632e1a7d4d9061059f90849060040161235f565b600060405180830381600087803b1580156105b957600080fd5b505af11580156105cd573d6000803e3d6000fd5b50506000546105f5925073ffffffffffffffffffffffffffffffffffffffff16905082610a8f565b61061f565b60005461061f90839073ffffffffffffffffffffffffffffffffffffffff1683610b48565b5050565b7f000000000000000000000000000000000000000000000000000000000000000081565b60008061065388610308565b905060006106618989610877565b90506000610670828789610c6b565b905060006106808b858c85610d8c565b90506000806106928d8d8d8787610e75565b91985092509050878710156106dc576040517f08c379a00000000000000000000000000000000000000000000000000000000081526004016106d39061225d565b60405180910390fd5b60606040518061012001604052808f73ffffffffffffffffffffffffffffffffffffffff1681526020018873ffffffffffffffffffffffffffffffffffffffff1681526020018773ffffffffffffffffffffffffffffffffffffffff1681526020018e60ff1681526020018d60ff1681526020018c73ffffffffffffffffffffffffffffffffffffffff1681526020018481526020018381526020018681525060405160200161078c91906122ba565b604080517fffffffffffffffffffffffffffffffffffffffffffffffffffffffffffffffe0818403018152908290527f19f3400d000000000000000000000000000000000000000000000000000000008252915073ffffffffffffffffffffffffffffffffffffffff8816906319f3400d9061081090309088908690600401611ed6565b600060405180830381600087803b15801561082a57600080fd5b505af115801561083e573d6000803e3d6000fd5b50505050505050505050509695505050505050565b7f000000000000000000000000000000000000000000000000000000000000000081565b600060028260ff16106108b6576040517f08c379a00000000000000000000000000000000000000000000000000000000081526004016106d390611f9b565b7f00000000000000000000000000000000000000000000000000000000000000007f0000000000000000000000000000000000000000000000000000000000000000848460405160200161090c93929190611d30565b60405160208183030381529060405280519060200120604051602001610933929190611e34565b604080517fffffffffffffffffffffffffffffffffffffffffffffffffffffffffffffffe081840301815291905280516020909101209392505050565b61097a8a82610fad565b50506000806109898c8a611069565b9150915061099a8c8388888d611192565b6109a5818b86610b48565b6040517f86b9d81f00000000000000000000000000000000000000000000000000000000815260009073ffffffffffffffffffffffffffffffffffffffff8c16906386b9d81f906109fc908b903090600401611f0b565b602060405180830381600087803b158015610a1657600080fd5b505af1158015610a2a573d6000803e3d6000fd5b505050506040513d601f19601f82011682018060405250810190610a4e9190611c50565b9050610a5b8c8d83610b48565b8860ff168a60ff161415610a7757610a7282610432565b610a80565b610a8083610432565b50505050505050505050505050565b6040805160008082526020820190925273ffffffffffffffffffffffffffffffffffffffff8416908390604051610ac69190611d97565b60006040518083038185875af1925050503d8060008114610b03576040519150601f19603f3d011682016040523d82523d6000602084013e610b08565b606091505b5050905080610b43576040517f08c379a00000000000000000000000000000000000000000000000000000000081526004016106d39061208c565b505050565b600060608473ffffffffffffffffffffffffffffffffffffffff1663a9059cbb8585604051602401610b7b929190611f62565b6040516020818303038152906040529060e01b6020820180517bffffffffffffffffffffffffffffffffffffffffffffffffffffffff8381831617835250505050604051610bc99190611d97565b6000604051808303816000865af19150503d8060008114610c06576040519150601f19603f3d011682016040523d82523d6000602084013e610c0b565b606091505b5091509150818015610c35575080511580610c35575080806020019051810190610c359190611b2e565b610301576040517f08c379a00000000000000000000000000000000000000000000000000000000081526004016106d3906121a3565b60008373ffffffffffffffffffffffffffffffffffffffff1663a6afed956040518163ffffffff1660e01b8152600401600060405180830381600087803b158015610cb557600080fd5b505af1158015610cc9573d6000803e3d6000fd5b50506040517f4d73e9ba0000000000000000000000000000000000000000000000000000000081526000925073ffffffffffffffffffffffffffffffffffffffff87169150634d73e9ba90610d22908690600401611eb5565b60206040518083038186803b158015610d3a57600080fd5b505afa158015610d4e573d6000803e3d6000fd5b505050506040513d601f19601f82011682018060405250810190610d729190611c50565b9050808410610d815780610d83565b835b95945050505050565b600080610d9b8686868661125c565b905060008573ffffffffffffffffffffffffffffffffffffffff16638c765e946040518163ffffffff1660e01b815260040160206040518083038186803b158015610de557600080fd5b505afa158015610df9573d6000803e3d6000fd5b505050506040513d601f19601f82011682018060405250810190610e1d9190611c50565b9050610e6a6001610e5e670de0b6b3a7640000610e4686610e5283838c8a63ffffffff6113e816565b9063ffffffff61144516565b9063ffffffff6113e816565b9063ffffffff61148716565b979650505050505050565b6000806000806000806000610e8a8c896114c9565b93509350935093506000808c60ff16600114610ea7578284610eaa565b83835b9150915060008d60ff16600114610ec15786610ec3565b855b90508d60ff168d60ff161415610f36578d60ff16600114610ee45785610ee6565b865b9850610ef3898484611646565b9750610f2f8c60405180606001604052806027815260200161246360279139610f22848c63ffffffff61172c16565b919063ffffffff61176b16565b9950610f9b565b610f468c8263ffffffff61148716565b9750610f538884846117b1565b985060008e60ff16600114610f685786610f6a565b875b9050610f978a60405180606001604052806027815260200161243c6027913983919063ffffffff61176b16565b9a50505b50505050505050955095509592505050565b600080610fbb848585610b48565b6040517f89afcb4400000000000000000000000000000000000000000000000000000000815273ffffffffffffffffffffffffffffffffffffffff8516906389afcb449061100d903090600401611eb5565b6040805180830381600087803b15801561102657600080fd5b505af115801561103a573d6000803e3d6000fd5b505050506040513d601f19601f8201168201806040525081019061105e9190611c68565b909590945092505050565b60008060008473ffffffffffffffffffffffffffffffffffffffff16630dfe16816040518163ffffffff1660e01b815260040160206040518083038186803b1580156110b457600080fd5b505afa1580156110c8573d6000803e3d6000fd5b505050506040513d601f19601f820116820180604052508101906110ec91906119a7565b905060008573ffffffffffffffffffffffffffffffffffffffff1663d21220a76040518163ffffffff1660e01b815260040160206040518083038186803b15801561113657600080fd5b505afa15801561114a573d6000803e3d6000fd5b505050506040513d601f19601f8201168201806040525081019061116e91906119a7565b90508460ff16600114611182578082611185565b81815b9097909650945050505050565b61119d848685610b48565b6000808260ff166001146111b3578360006111b7565b6000845b604080516000815260208101918290527f022c0d9f00000000000000000000000000000000000000000000000000000000909152919350915073ffffffffffffffffffffffffffffffffffffffff88169063022c0d9f906112219085908590309060248101612368565b600060405180830381600087803b15801561123b57600080fd5b505af115801561124f573d6000803e3d6000fd5b5050505050505050505050565b60008060008573ffffffffffffffffffffffffffffffffffffffff1663bd9a548b6040518163ffffffff1660e01b81526004016040805180830381600087803b1580156112a857600080fd5b505af11580156112bc573d6000803e3d6000fd5b505050506040513d601f19601f820116820180604052508101906112e09190611c68565b915091508460ff166000146112f557806112f7565b815b92506000808873ffffffffffffffffffffffffffffffffffffffff16630902f1ac6040518163ffffffff1660e01b815260040160606040518083038186803b15801561134257600080fd5b505afa158015611356573d6000803e3d6000fd5b505050506040513d601f19601f8201168201806040525081019061137a9190611bfc565b506dffffffffffffffffffffffffffff1691506dffffffffffffffffffffffffffff16915060008760ff166000146113b257816113b4565b825b90506113da6113ca826103e860038b020461172c565b610e46888463ffffffff6113e816565b9a9950505050505050505050565b6000826113f75750600061143f565b8282028284828161140457fe5b041461143c576040517f08c379a00000000000000000000000000000000000000000000000000000000081526004016106d390612146565b90505b92915050565b600061143c83836040518060400160405280601a81526020017f536166654d6174683a206469766973696f6e206279207a65726f00000000000081525061188b565b600061143c83836040518060400160405280601f81526020017f536166654d6174683a207375627472616374696f6e20756e646572666c6f770081525061176b565b60008060008060008673ffffffffffffffffffffffffffffffffffffffff166318160ddd6040518163ffffffff1660e01b815260040160206040518083038186803b15801561151757600080fd5b505afa15801561152b573d6000803e3d6000fd5b505050506040513d601f19601f8201168201806040525081019061154f9190611c50565b90506000808873ffffffffffffffffffffffffffffffffffffffff16630902f1ac6040518163ffffffff1660e01b815260040160606040518083038186803b15801561159a57600080fd5b505afa1580156115ae573d6000803e3d6000fd5b505050506040513d601f19601f820116820180604052508101906115d29190611bfc565b506dffffffffffffffffffffffffffff91821693501690506115fe83610e468a8563ffffffff6113e816565b965061161483610e468a8463ffffffff6113e816565b9550611626828863ffffffff61148716565b9450611638818763ffffffff61148716565b935050505092959194509250565b6000808411611681576040517f08c379a00000000000000000000000000000000000000000000000000000000081526004016106d390612200565b6000831180156116915750600082115b6116c7576040517f08c379a00000000000000000000000000000000000000000000000000000000081526004016106d3906120e9565b60006116db856103e563ffffffff6113e816565b905060006116ef828563ffffffff6113e816565b9050600061171583611709886103e863ffffffff6113e816565b9063ffffffff61172c16565b905080828161172057fe5b04979650505050505050565b60008282018381101561143c576040517f08c379a00000000000000000000000000000000000000000000000000000000081526004016106d390611ff8565b600081848411156117a9576040517f08c379a00000000000000000000000000000000000000000000000000000000081526004016106d39190611f88565b505050900390565b60008084116117ec576040517f08c379a00000000000000000000000000000000000000000000000000000000081526004016106d39061202f565b6000831180156117fc5750600082115b611832576040517f08c379a00000000000000000000000000000000000000000000000000000000081526004016106d3906120e9565b600061184a6103e8610e52868863ffffffff6113e816565b905060006118646103e5610e52868963ffffffff61148716565b9050611881600182848161187457fe5b049063ffffffff61172c16565b9695505050505050565b600081836118c6576040517f08c379a00000000000000000000000000000000000000000000000000000000081526004016106d39190611f88565b5060008385816118d257fe5b0495945050505050565b6040805161012081018252600080825260208201819052918101829052606081018290526080810182905260a0810182905260c0810182905260e0810182905261010081019190915290565b803561143f816123fa565b60008083601f840112611944578182fd5b50813567ffffffffffffffff81111561195b578182fd5b60208301915083602082850101111561197357600080fd5b9250929050565b803560ff8116811461143f57600080fd5b60006020828403121561199c578081fd5b813561143c816123fa565b6000602082840312156119b8578081fd5b815161143c816123fa565b6000806000806000608086880312156119da578081fd5b85356119e5816123fa565b945060208601356119f5816123fa565b935060408601359250606086013567ffffffffffffffff811115611a17578182fd5b611a2388828901611933565b969995985093965092949392505050565b60008060008060608587031215611a49578384fd5b8435611a54816123fa565b935060208501359250604085013567ffffffffffffffff811115611a76578283fd5b611a8287828801611933565b95989497509550505050565b60008060408385031215611aa0578182fd5b8235611aab816123fa565b9150611aba846020850161197a565b90509250929050565b60008060008060008060c08789031215611adb578081fd5b8635611ae6816123fa565b9550611af5886020890161197a565b9450611b04886040890161197a565b93506060870135611b14816123fa565b9598949750929560808101359460a0909101359350915050565b600060208284031215611b3f578081fd5b8151801515811461143c578182fd5b6000610120808385031215611b61578182fd5b611b6a816123a3565b611b748585611928565b8152611b838560208601611928565b6020820152611b958560408601611928565b6040820152611ba7856060860161197a565b6060820152611bb9856080860161197a565b6080820152611bcb8560a08601611928565b60a082015260c084013560c082015260e084013560e082015261010091508184013582820152809250505092915050565b600080600060608486031215611c10578283fd5b8351611c1b8161241f565b6020850151909350611c2c8161241f565b604085015190925063ffffffff81168114611c45578182fd5b809150509250925092565b600060208284031215611c61578081fd5b5051919050565b60008060408385031215611c7a578182fd5b505080516020909101519092909150565b73ffffffffffffffffffffffffffffffffffffffff169052565b60008151808452611cbd8160208601602086016123ca565b601f017fffffffffffffffffffffffffffffffffffffffffffffffffffffffffffffffe0169290920160200192915050565b60ff169052565b7fffffffffffffffffffffffffffffffffffffffff000000000000000000000000606093841b811682529190921b16601482015260280190565b606093841b7fffffffffffffffffffffffffffffffffffffffff00000000000000000000000090811682529290931b909116601483015260f81b7fff0000000000000000000000000000000000000000000000000000000000000016602882015260290190565b60008251611da98184602087016123ca565b9190910192915050565b7fff00000000000000000000000000000000000000000000000000000000000000815260609290921b7fffffffffffffffffffffffffffffffffffffffff00000000000000000000000016600183015260158201527f4b8788d8761647e6330407671d3c6c80afaed3d047800dba0e0e3befde047767603582015260550190565b7fff00000000000000000000000000000000000000000000000000000000000000815260609290921b7fffffffffffffffffffffffffffffffffffffffff00000000000000000000000016600183015260158201527f605ba1db56496978613939baf0ae31dccceea3f5ca53dfaa76512bc880d7bb8f603582015260550190565b73ffffffffffffffffffffffffffffffffffffffff91909116815260200190565b600073ffffffffffffffffffffffffffffffffffffffff8516825283602083015260606040830152610d836060830184611ca5565b73ffffffffffffffffffffffffffffffffffffffff92831681529116602082015260400190565b73ffffffffffffffffffffffffffffffffffffffff93841681529183166020830152909116604082015260600190565b73ffffffffffffffffffffffffffffffffffffffff929092168252602082015260400190565b60006020825261143c6020830184611ca5565b60208082526025908201527f4361706974616c467265654c697175696461746f723a20494e4445585f544f4f60408201527f5f48494748000000000000000000000000000000000000000000000000000000606082015260800190565b6020808252601b908201527f536166654d6174683a206164646974696f6e206f766572666c6f770000000000604082015260600190565b6020808252602c908201527f556e697377617056324c6962726172793a20494e53554646494349454e545f4f60408201527f55545055545f414d4f554e540000000000000000000000000000000000000000606082015260800190565b60208082526034908201527f5472616e7366657248656c7065723a3a736166655472616e736665724554483a60408201527f20455448207472616e73666572206661696c6564000000000000000000000000606082015260800190565b60208082526028908201527f556e697377617056324c6962726172793a20494e53554646494349454e545f4c60408201527f4951554944495459000000000000000000000000000000000000000000000000606082015260800190565b60208082526021908201527f536166654d6174683a206d756c7469706c69636174696f6e206f766572666c6f60408201527f7700000000000000000000000000000000000000000000000000000000000000606082015260800190565b6020808252602d908201527f5472616e7366657248656c7065723a3a736166655472616e736665723a20747260408201527f616e73666572206661696c656400000000000000000000000000000000000000606082015260800190565b6020808252602b908201527f556e697377617056324c6962726172793a20494e53554646494349454e545f4960408201527f4e5055545f414d4f554e54000000000000000000000000000000000000000000606082015260800190565b6020808252602a908201527f4361706974616c467265654c697175696461746f723a20494e5355464649434960408201527f454e545f50524f46495400000000000000000000000000000000000000000000606082015260800190565b815173ffffffffffffffffffffffffffffffffffffffff1681526020808301516101208301916122ec90840182611c8b565b5060408301516122ff6040840182611c8b565b5060608301516123126060840182611cef565b5060808301516123256080840182611cef565b5060a083015161233860a0840182611c8b565b5060c083015160c083015260e083015160e083015261010080840151818401525092915050565b90815260200190565b600085825284602083015273ffffffffffffffffffffffffffffffffffffffff84166040830152608060608301526118816080830184611ca5565b60405181810167ffffffffffffffff811182821017156123c257600080fd5b604052919050565b60005b838110156123e55781810151838201526020016123cd565b838111156123f4576000848401525b50505050565b73ffffffffffffffffffffffffffffffffffffffff8116811461241c57600080fd5b50565b6dffffffffffffffffffffffffffff8116811461241c57600080fdfe4361706974616c467265654c69717569646174653a204e454741544956455f50524f4649545f324361706974616c467265654c69717569646174653a204e454741544956455f50524f4649545f31a2646970667358221220f99e6e622f949fe6d839200510b88ca0e850ec4bd4382530800edc83335ba82a64736f6c63430006060033",
  "immutableReferences": {
    "22": [
      {
        "length": 32,
        "start": 813
      },
      {
        "length": 32,
        "start": 1573
      },
      {
        "length": 32,
        "start": 2265
      }
    ],
    "25": [
      {
        "length": 32,
        "start": 2133
      },
      {
        "length": 32,
        "start": 2232
      }
    ],
    "28": [
      {
        "length": 32,
        "start": 735
      },
      {
        "length": 32,
        "start": 780
      }
    ],
    "31": [
      {
        "length": 32,
        "start": 232
      },
      {
        "length": 32,
        "start": 1040
      },
      {
        "length": 32,
        "start": 1243
      },
      {
        "length": 32,
        "start": 1386
      }
    ]
  },
  "source": "pragma solidity =0.6.6;\r\npragma experimental ABIEncoderV2;\r\n\r\nimport \"./interfaces/ICapitalFreeLiquidate.sol\";\r\nimport \"./interfaces/IBorrowable.sol\";\r\nimport \"./interfaces/ICollateral.sol\";\r\nimport \"./interfaces/IImpermaxCallee.sol\";\r\nimport \"./interfaces/IERC20.sol\";\r\nimport \"./interfaces/IWETH.sol\";\r\nimport \"./interfaces/IUniswapV2Pair.sol\";\r\nimport \"./libraries/SafeMath.sol\";\r\nimport \"./libraries/TransferHelper.sol\";\r\nimport \"./libraries/UniswapV2Library.sol\";\r\n\r\n// This assumes that the borrower has enough collateral to repay\r\n// The chance that this is not true is low and the check isn't worth the additional gas cost\r\n// The check should be done off chain, and the caller should use the right liquidateAmount parameter\r\n// Another problem is the slippage, so it may be convenient to liquidate large amounts in multiple rounds\r\n\r\n// TODO: bot to liquidate both sides at the same time?\r\n\r\ncontract CapitalFreeLiquidate is ICapitalFreeLiquidate, IImpermaxCallee {\r\n\tusing SafeMath for uint;\r\n\r\n\taddress public immutable override factory;\r\n\taddress public immutable override bDeployer;\r\n\taddress public immutable override cDeployer;\r\n\taddress public immutable override WETH;\r\n\t\r\n\taddress public override to;\r\n\r\n\tconstructor(address _factory, address _bDeployer, address _cDeployer, address _WETH, address _to) public {\r\n\t\tfactory = _factory;\r\n\t\tbDeployer = _bDeployer;\r\n\t\tcDeployer = _cDeployer;\r\n\t\tWETH = _WETH;\r\n\t\tto = _to;\r\n\t}\r\n\r\n\treceive() external payable {\r\n\t\tassert(msg.sender == WETH); // only accept ETH via fallback from the WETH contract\r\n\t}\r\n\t\r\n\tfunction _burn(\r\n\t\taddress uniswapV2Pair, \r\n\t\tuint collateralAmount\r\n\t) internal virtual returns (uint amount0, uint amount1) {\r\n\t\tTransferHelper.safeTransfer(uniswapV2Pair, uniswapV2Pair, collateralAmount);\r\n\t\t(amount0, amount1) = IUniswapV2Pair(uniswapV2Pair).burn(address(this));\r\n\t}\r\n\t\r\n\tfunction _swap(\r\n\t\taddress uniswapV2Pair, \r\n\t\taddress tokenIn, \r\n\t\tuint amountIn, \r\n\t\tuint amountOut, \r\n\t\tuint8 index\r\n\t) internal virtual {\r\n\t\tTransferHelper.safeTransfer(tokenIn, uniswapV2Pair, amountIn);\r\n\t\t(uint amount0Out, uint amount1Out) = index == 1 ? (uint(0), amountOut) : (amountOut, uint(0));\r\n\t\tIUniswapV2Pair(uniswapV2Pair).swap(amount0Out, amount1Out, address(this), new bytes(0));\r\n\t}\r\n\t\r\n\tfunction _liquidateAmount(\r\n\t\taddress borrowable,\r\n\t\tuint amountMax,\r\n\t\taddress borrower\r\n\t) internal virtual returns (uint amount) {\r\n\t\tIBorrowable(borrowable).accrueInterest();\r\n\t\tuint borrowedAmount = IBorrowable(borrowable).borrowBalance(borrower);\r\n\t\tamount = amountMax < borrowedAmount ? amountMax : borrowedAmount;\r\n\t}\r\n\t\r\n\tfunction _getBorrowablePrice(\r\n\t\taddress uniswapV2Pair,\r\n\t\taddress collateral,\r\n\t\tuint8 index,\r\n\t\tuint swapAmount\r\n\t) internal virtual returns (uint price) {\r\n\t\t(uint price0, uint price1) = ICollateral(collateral).getPrices();\r\n\t\tprice = index == 0 ? price0 : price1;\r\n\t\t(uint reserve0, uint reserve1,) = IUniswapV2Pair(uniswapV2Pair).getReserves();\r\n\t\tuint reserve = index == 0 ? reserve0 : reserve1;\r\n\t\t// Account for LP appreciation after swap\r\n\t\tprice = price.mul(reserve).div(reserve.add(swapAmount * 3 / 1000));\r\n\t}\r\n\t\r\n\tfunction _getExpectedCollateralAmount(\r\n\t\taddress uniswapV2Pair,\r\n\t\taddress collateral,\r\n\t\tuint8 toLiquidateIndex,\r\n\t\tuint liquidateAmount\r\n\t) internal virtual returns (uint collateralAmount) {\r\n\t\tuint price = _getBorrowablePrice(uniswapV2Pair, collateral, toLiquidateIndex, liquidateAmount);\r\n\t\tuint liquidationIncentive = ICollateral(collateral).liquidationIncentive();\r\n\t\tcollateralAmount = liquidateAmount.mul(liquidationIncentive).div(1e18).mul(price).div(1e18).sub(1);\r\n\t}\r\n\t\r\n\tfunction _simulateBurn(\r\n\t\taddress uniswapV2Pair,\r\n\t\tuint collateralAmount\r\n\t) internal virtual view returns (uint amount0, uint amount1, uint reserve0, uint reserve1) {\r\n\t\tuint totalSupply = IUniswapV2Pair(uniswapV2Pair).totalSupply();\r\n\t\t(uint reserve0Old, uint reserve1Old,) = IUniswapV2Pair(uniswapV2Pair).getReserves();\r\n\t\tamount0 = collateralAmount.mul(reserve0Old).div(totalSupply);\r\n\t\tamount1 = collateralAmount.mul(reserve1Old).div(totalSupply);\r\n\t\treserve0 = reserve0Old.sub(amount0);\r\n\t\treserve1 = reserve1Old.sub(amount1);\r\n\t}\r\n\r\n\tfunction _getLiquidateProfit(\r\n\t\taddress uniswapV2Pair,\r\n\t\tuint8 toLiquidateIndex,\r\n\t\tuint8 takeProfitIndex,\r\n\t\tuint liquidateAmount,\r\n\t\tuint collateralAmount\r\n\t) internal virtual view returns (uint profit, uint amountIn, uint amountOut) {\r\n\t\t(uint amount0, uint amount1, uint reserve0, uint reserve1) = _simulateBurn(uniswapV2Pair, collateralAmount);\r\n\t\t(uint reserveIn, uint reserveOut) = toLiquidateIndex == 1 ? (reserve0, reserve1) : (reserve1, reserve0);\r\n\t\tuint amountOutBalance = toLiquidateIndex == 1 ? amount1 : amount0;\r\n\t\tif (takeProfitIndex == toLiquidateIndex) {\r\n\t\t\t// Swap all\r\n\t\t\tamountIn = toLiquidateIndex == 1 ? amount0 : amount1;\r\n\t\t\tamountOut = UniswapV2Library.getAmountOut(amountIn, reserveIn, reserveOut);\r\n\t\t\tprofit = amountOutBalance.add(amountOut).sub(liquidateAmount, \"CapitalFreeLiquidate: NEGATIVE_PROFIT_1\");\r\n\t\t}\r\n\t\telse {\r\n\t\t\t// Swap only necessary\r\n\t\t\tamountOut = liquidateAmount.sub(amountOutBalance);\r\n\t\t\tamountIn = UniswapV2Library.getAmountIn(amountOut, reserveIn, reserveOut);\r\n\t\t\tuint amountInBalance = toLiquidateIndex == 1 ? amount0 : amount1;\r\n\t\t\tprofit = amountInBalance.sub(amountIn, \"CapitalFreeLiquidate: NEGATIVE_PROFIT_2\");\r\n\t\t}\r\n\t}\r\n\t\r\n\tfunction _getTokenInTokenOut(\r\n\t\taddress uniswapV2Pair,\r\n\t\tuint8 index\r\n\t) internal virtual view returns (address tokenIn, address tokenOut) {\r\n\t\taddress token0 = IUniswapV2Pair(uniswapV2Pair).token0();\r\n\t\taddress token1 = IUniswapV2Pair(uniswapV2Pair).token1();\r\n\t\t(tokenIn, tokenOut) = index == 1 ? (token0, token1) : (token1, token0);\r\n\t}\r\n\t\r\n\tfunction liquidate(\r\n\t\taddress uniswapV2Pair,\r\n\t\tuint8 toLiquidateIndex,\r\n\t\tuint8 takeProfitIndex,\r\n\t\taddress borrower,\r\n\t\tuint liquidateAmountMax,\r\n\t\tuint profitMin\r\n\t) external virtual override returns (uint profit) {\r\n\t\taddress collateral = getCollateral(uniswapV2Pair);\t\t\r\n\t\taddress borrowable = getBorrowable(uniswapV2Pair, toLiquidateIndex);\r\n\t\tuint liquidateAmount = _liquidateAmount(borrowable, liquidateAmountMax, borrower);\r\n\t\tuint collateralAmount = _getExpectedCollateralAmount(uniswapV2Pair, collateral, toLiquidateIndex, liquidateAmount);\r\n\t\tuint amountIn;\r\n\t\tuint amountOut;\r\n\t\t(profit, amountIn, amountOut) = \r\n\t\t\t_getLiquidateProfit(uniswapV2Pair, toLiquidateIndex, takeProfitIndex, liquidateAmount, collateralAmount);\r\n\t\trequire(profit >= profitMin, \"CapitalFreeLiquidator: INSUFFICIENT_PROFIT\");\r\n\t\tbytes memory data = abi.encode(CalleeData({\r\n\t\t\tuniswapV2Pair: uniswapV2Pair,\r\n\t\t\tcollateral: collateral,\r\n\t\t\tborrowable: borrowable,\r\n\t\t\ttoLiquidateIndex: toLiquidateIndex,\r\n\t\t\ttakeProfitIndex: takeProfitIndex,\r\n\t\t\tborrower: borrower,\r\n\t\t\tamountIn: amountIn,\r\n\t\t\tamountOut: amountOut,\r\n\t\t\tliquidateAmount: liquidateAmount\r\n\t\t}));\r\n\t\tICollateral(collateral).flashRedeem(address(this), collateralAmount, data);\r\n\t}\r\n\t\r\n\tfunction liquidateCallback(\r\n\t\taddress uniswapV2Pair,\r\n\t\taddress collateral,\r\n\t\taddress borrowable,\r\n\t\tuint8 toLiquidateIndex,\r\n\t\tuint8 takeProfitIndex,\r\n\t\taddress borrower,\r\n\t\tuint amountIn,\r\n\t\tuint amountOut,\r\n\t\tuint liquidateAmount,\r\n\t\tuint collateralAmount\r\n\t) internal virtual {\r\n\t\t_burn(uniswapV2Pair, collateralAmount);\r\n\t\t(address tokenIn, address tokenOut) = _getTokenInTokenOut(uniswapV2Pair, toLiquidateIndex);\r\n\t\t_swap(uniswapV2Pair, tokenIn, amountIn, amountOut, toLiquidateIndex);\r\n\t\tTransferHelper.safeTransfer(tokenOut, borrowable, liquidateAmount);\r\n\t\tuint seizeTokens = IBorrowable(borrowable).liquidate(borrower, address(this));\r\n\t\tTransferHelper.safeTransfer(collateral, collateral, seizeTokens);\r\n\t\tif (toLiquidateIndex == takeProfitIndex) skim(tokenOut);\r\n\t\telse skim(tokenIn);\r\n\t}\r\n\t\r\n\tstruct CalleeData {\r\n\t\taddress uniswapV2Pair;\r\n\t\taddress collateral;\r\n\t\taddress borrowable;\r\n\t\tuint8 toLiquidateIndex;\r\n\t\tuint8 takeProfitIndex;\r\n\t\taddress borrower;\r\n\t\tuint amountIn;\r\n\t\tuint amountOut;\r\n\t\tuint liquidateAmount;\r\n\t}\r\n\t\r\n\tfunction impermaxRedeem(address sender, uint redeemAmount, bytes calldata data) external virtual override {\r\n\t\tsender;\r\n\t\t// no security check needed\r\n\t\tCalleeData memory calleeData = abi.decode(data, (CalleeData));\r\n\t\tliquidateCallback(\r\n\t\t\tcalleeData.uniswapV2Pair,\r\n\t\t\tcalleeData.collateral,\r\n\t\t\tcalleeData.borrowable,\r\n\t\t\tcalleeData.toLiquidateIndex,\r\n\t\t\tcalleeData.takeProfitIndex,\r\n\t\t\tcalleeData.borrower,\r\n\t\t\tcalleeData.amountIn,\r\n\t\t\tcalleeData.amountOut,\r\n\t\t\tcalleeData.liquidateAmount,\r\n\t\t\tredeemAmount\r\n\t\t);\r\n\t}\r\n\r\n\tfunction impermaxBorrow(address sender, address borrower, uint borrowAmount, bytes calldata data) external virtual override { sender; borrower; borrowAmount; data; }\r\n\t\r\n\tfunction skim(address token) public virtual override {\r\n\t\tuint balance = IERC20(token).balanceOf(address(this));\r\n\t\tif (token == WETH) {\t\t\r\n\t\t\tIWETH(WETH).withdraw(balance);\r\n\t\t\tTransferHelper.safeTransferETH(to, balance);\r\n\t\t}\r\n\t\telse TransferHelper.safeTransfer(token, to, balance);\r\n\t}\r\n\t\r\n\t/*** UTILITIES ***/\r\n\t\r\n\tfunction getBorrowable(address uniswapV2Pair, uint8 index) public virtual override view returns (address borrowable) {\r\n\t\trequire(index < 2, \"CapitalFreeLiquidator: INDEX_TOO_HIGH\");\r\n\t\tborrowable = address(uint(keccak256(abi.encodePacked(\r\n\t\t\thex\"ff\",\r\n\t\t\tbDeployer,\r\n\t\t\tkeccak256(abi.encodePacked(factory, uniswapV2Pair, index)),\r\n\t\t\thex\"605ba1db56496978613939baf0ae31dccceea3f5ca53dfaa76512bc880d7bb8f\" // Borrowable bytecode keccak256\r\n\t\t))));\r\n\t}\r\n\tfunction getCollateral(address uniswapV2Pair) public virtual override view returns (address collateral) {\r\n\t\tcollateral = address(uint(keccak256(abi.encodePacked(\r\n\t\t\thex\"ff\",\r\n\t\t\tcDeployer,\r\n\t\t\tkeccak256(abi.encodePacked(factory, uniswapV2Pair)),\r\n\t\t\thex\"4b8788d8761647e6330407671d3c6c80afaed3d047800dba0e0e3befde047767\" // Collateral bytecode keccak256\r\n\t\t))));\r\n\t}\r\n\tfunction getLendingPool(address uniswapV2Pair) public virtual override view returns (address collateral, address borrowableA, address borrowableB) {\r\n\t\tcollateral = getCollateral(uniswapV2Pair);\r\n\t\tborrowableA = getBorrowable(uniswapV2Pair, 0);\r\n\t\tborrowableB = getBorrowable(uniswapV2Pair, 1);\r\n\t}\r\n}\r\n",
  "sourcePath": "C:/Users/simor/Desktop/impermax-x-uniswapv2-periphery/contracts/CapitalFreeLiquidate.sol",
  "compiler": {
    "name": "solc",
    "version": "0.6.6+commit.6c089d02.Emscripten.clang"
  },
  "schemaVersion": "3.3.2",
  "updatedAt": "2021-05-21T13:01:19.611Z",
  "devdoc": {
    "methods": {}
  },
  "userdoc": {
    "methods": {
      "getBorrowable(address,uint8)": {
        "notice": "* UTILITIES **"
      }
    }
  }
}