{
  "contractName": "CapitalFreeLiquidate04",
  "abi": [
    {
      "inputs": [
        {
          "internalType": "address",
          "name": "_factory",
          "type": "address"
        },
        {
          "internalType": "address",
          "name": "_bDeployer",
          "type": "address"
        },
        {
          "internalType": "address",
          "name": "_cDeployer",
          "type": "address"
        },
        {
          "internalType": "address",
          "name": "_WETH",
          "type": "address"
        },
        {
          "internalType": "address",
          "name": "_to",
          "type": "address"
        }
      ],
      "stateMutability": "nonpayable",
      "type": "constructor"
    },
    {
      "inputs": [],
      "name": "WETH",
      "outputs": [
        {
          "internalType": "address",
          "name": "",
          "type": "address"
        }
      ],
      "stateMutability": "view",
      "type": "function"
    },
    {
      "inputs": [],
      "name": "bDeployer",
      "outputs": [
        {
          "internalType": "address",
          "name": "",
          "type": "address"
        }
      ],
      "stateMutability": "view",
      "type": "function"
    },
    {
      "inputs": [],
      "name": "cDeployer",
      "outputs": [
        {
          "internalType": "address",
          "name": "",
          "type": "address"
        }
      ],
      "stateMutability": "view",
      "type": "function"
    },
    {
      "inputs": [],
      "name": "factory",
      "outputs": [
        {
          "internalType": "address",
          "name": "",
          "type": "address"
        }
      ],
      "stateMutability": "view",
      "type": "function"
    },
    {
      "inputs": [],
      "name": "to",
      "outputs": [
        {
          "internalType": "address",
          "name": "",
          "type": "address"
        }
      ],
      "stateMutability": "view",
      "type": "function"
    },
    {
      "stateMutability": "payable",
      "type": "receive"
    },
    {
      "inputs": [
        {
          "internalType": "address",
          "name": "underlying",
          "type": "address"
        },
        {
          "internalType": "address",
          "name": "borrower",
          "type": "address"
        },
        {
          "internalType": "uint256",
          "name": "profitMin",
          "type": "uint256"
        }
      ],
      "name": "liquidate",
      "outputs": [
        {
          "internalType": "uint256",
          "name": "profit",
          "type": "uint256"
        }
      ],
      "stateMutability": "nonpayable",
      "type": "function"
    },
    {
      "inputs": [
        {
          "internalType": "address",
          "name": "underlying",
          "type": "address"
        },
        {
          "internalType": "address",
          "name": "borrower",
          "type": "address"
        },
        {
          "internalType": "uint256",
          "name": "profitMin",
          "type": "uint256"
        }
      ],
      "name": "liquidateDebug",
      "outputs": [
        {
          "internalType": "uint256",
          "name": "liquidateAmountA",
          "type": "uint256"
        },
        {
          "internalType": "uint256",
          "name": "liquidateAmountB",
          "type": "uint256"
        },
        {
          "internalType": "uint256",
          "name": "collateralAmount",
          "type": "uint256"
        },
        {
          "internalType": "uint256",
          "name": "collateralToBurn",
          "type": "uint256"
        }
      ],
      "stateMutability": "nonpayable",
      "type": "function"
    },
    {
      "inputs": [
        {
          "internalType": "address",
          "name": "underlying",
          "type": "address"
        },
        {
          "internalType": "address",
          "name": "borrower",
          "type": "address"
        },
        {
          "internalType": "uint256",
          "name": "profitMin",
          "type": "uint256"
        }
      ],
      "name": "liquidateDebug2",
      "outputs": [
        {
          "internalType": "uint256",
          "name": "profit",
          "type": "uint256"
        }
      ],
      "stateMutability": "nonpayable",
      "type": "function"
    },
    {
      "inputs": [
        {
          "internalType": "address",
          "name": "sender",
          "type": "address"
        },
        {
          "internalType": "uint256",
          "name": "redeemAmount",
          "type": "uint256"
        },
        {
          "internalType": "bytes",
          "name": "data",
          "type": "bytes"
        }
      ],
      "name": "impermaxRedeem",
      "outputs": [],
      "stateMutability": "nonpayable",
      "type": "function"
    },
    {
      "inputs": [
        {
          "internalType": "address",
          "name": "sender",
          "type": "address"
        },
        {
          "internalType": "address",
          "name": "borrower",
          "type": "address"
        },
        {
          "internalType": "uint256",
          "name": "borrowAmount",
          "type": "uint256"
        },
        {
          "internalType": "bytes",
          "name": "data",
          "type": "bytes"
        }
      ],
      "name": "impermaxBorrow",
      "outputs": [],
      "stateMutability": "nonpayable",
      "type": "function"
    },
    {
      "inputs": [
        {
          "internalType": "address",
          "name": "underlying",
          "type": "address"
        }
      ],
      "name": "isStakedLPToken",
      "outputs": [
        {
          "internalType": "bool",
          "name": "",
          "type": "bool"
        }
      ],
      "stateMutability": "view",
      "type": "function"
    },
    {
      "inputs": [
        {
          "internalType": "address",
          "name": "underlying",
          "type": "address"
        }
      ],
      "name": "getUniswapV2Pair",
      "outputs": [
        {
          "internalType": "address",
          "name": "",
          "type": "address"
        }
      ],
      "stateMutability": "view",
      "type": "function"
    },
    {
      "inputs": [
        {
          "internalType": "address",
          "name": "underlying",
          "type": "address"
        },
        {
          "internalType": "uint8",
          "name": "index",
          "type": "uint8"
        }
      ],
      "name": "getBorrowable",
      "outputs": [
        {
          "internalType": "address",
          "name": "borrowable",
          "type": "address"
        }
      ],
      "stateMutability": "view",
      "type": "function"
    },
    {
      "inputs": [
        {
          "internalType": "address",
          "name": "underlying",
          "type": "address"
        }
      ],
      "name": "getCollateral",
      "outputs": [
        {
          "internalType": "address",
          "name": "collateral",
          "type": "address"
        }
      ],
      "stateMutability": "view",
      "type": "function"
    },
    {
      "inputs": [
        {
          "internalType": "address",
          "name": "underlying",
          "type": "address"
        }
      ],
      "name": "getLendingPool",
      "outputs": [
        {
          "internalType": "address",
          "name": "collateral",
          "type": "address"
        },
        {
          "internalType": "address",
          "name": "borrowableA",
          "type": "address"
        },
        {
          "internalType": "address",
          "name": "borrowableB",
          "type": "address"
        }
      ],
      "stateMutability": "view",
      "type": "function"
    }
  ],
  "bytecode": "0x6101006040523480156200001257600080fd5b5060405162002a7538038062002a75833981016040819052620000359162000085565b606094851b6001600160601b031990811660805293851b841660a05291841b831660c05290921b1660e052600080546001600160a01b0319166001600160a01b039092169190911790556200011d565b600080600080600060a086880312156200009d578081fd5b8551620000aa8162000104565b6020870151909550620000bd8162000104565b6040870151909450620000d08162000104565b6060870151909350620000e38162000104565b6080870151909250620000f68162000104565b809150509295509295909350565b6001600160a01b03811681146200011a57600080fd5b50565b60805160601c60a05160601c60c05160601c60e05160601c6128fd6200017860003980610109528061085252508061067952806106a6525080610a365280610ac65250806106c75280610a125280610ae752506128fd6000f3fe6080604052600436106100ec5760003560e01c8063a3c252a01161008a578063c45a015511610059578063c45a0155146102b5578063db5a2690146102ca578063e8b35fe0146102df578063ef974e9c1461030f57610132565b8063a3c252a014610233578063acb86cbb14610260578063ad5c464814610280578063c1858b491461029557610132565b80633970036a116100c65780633970036a146101be5780637a4660d5146101de578063876d9d9e146101f35780639b56d6c91461021357610132565b80630572bf5f14610137578063131519811461016f57806326c013031461019157610132565b36610132573373ffffffffffffffffffffffffffffffffffffffff7f0000000000000000000000000000000000000000000000000000000000000000161461013057fe5b005b600080fd5b34801561014357600080fd5b50610157610152366004611ebc565b61032f565b6040516101669392919061243a565b60405180910390f35b34801561017b57600080fd5b5061018461035f565b60405161016691906123b4565b34801561019d57600080fd5b506101b16101ac366004611ef4565b61037b565b6040516101669190612752565b3480156101ca57600080fd5b506101846101d9366004611ebc565b6105a9565b3480156101ea57600080fd5b50610184610677565b3480156101ff57600080fd5b5061013061020e366004611f34565b61069b565b34801561021f57600080fd5b5061018461022e366004611ebc565b6106a2565b34801561023f57600080fd5b5061025361024e366004611ebc565b61075b565b6040516101669190612490565b34801561026c57600080fd5b5061013061027b366004611fa5565b610804565b34801561028c57600080fd5b50610184610850565b3480156102a157600080fd5b506101b16102b0366004611ef4565b610874565b3480156102c157600080fd5b50610184610a10565b3480156102d657600080fd5b50610184610a34565b3480156102eb57600080fd5b506102ff6102fa366004611ef4565b610a58565b60405161016694939291906127a0565b34801561031b57600080fd5b5061018461032a366004611fff565b610a85565b600080600061033d846106a2565b925061034a846000610a85565b9150610357846001610a85565b929491935050565b60005473ffffffffffffffffffffffffffffffffffffffff1681565b60008060008061038a8761032f565b925092509250600080600061039f8a8a610b7e565b92509250925060006103b28b8585610fad565b90506103df816040518060600160405280602681526020016128a26026913984919063ffffffff6113b116565b975088881015610424576040517f08c379a000000000000000000000000000000000000000000000000000000000815260040161041b90612659565b60405180910390fd5b60606040518061012001604052808d73ffffffffffffffffffffffffffffffffffffffff1681526020018c73ffffffffffffffffffffffffffffffffffffffff1681526020018973ffffffffffffffffffffffffffffffffffffffff1681526020018873ffffffffffffffffffffffffffffffffffffffff1681526020018773ffffffffffffffffffffffffffffffffffffffff168152602001868152602001858152602001848152602001838152506040516020016104e491906126b6565b604080517fffffffffffffffffffffffffffffffffffffffffffffffffffffffffffffffe0818403018152908290527f19f3400d000000000000000000000000000000000000000000000000000000008252915073ffffffffffffffffffffffffffffffffffffffff8916906319f3400d90610568903090879086906004016123d5565b600060405180830381600087803b15801561058257600080fd5b505af1158015610596573d6000803e3d6000fd5b5050505050505050505050509392505050565b60008173ffffffffffffffffffffffffffffffffffffffff16636f307dc36040518163ffffffff1660e01b815260040160206040518083038186803b1580156105f157600080fd5b505afa92505050801561063f575060408051601f3d9081017fffffffffffffffffffffffffffffffffffffffffffffffffffffffffffffffe016820190925261063c91810190611ed8565b60015b61064a575080610672565b73ffffffffffffffffffffffffffffffffffffffff81161561066d579050610672565b829150505b919050565b7f000000000000000000000000000000000000000000000000000000000000000081565b5050505050565b60007f00000000000000000000000000000000000000000000000000000000000000007f0000000000000000000000000000000000000000000000000000000000000000836040516020016106f89291906121f5565b6040516020818303038152906040528051906020012060405160200161071f9291906122b2565b604080517fffffffffffffffffffffffffffffffffffffffffffffffffffffffffffffffe0818403018152919052805160209091012092915050565b60008173ffffffffffffffffffffffffffffffffffffffff16630a6410636040518163ffffffff1660e01b815260040160206040518083038186803b1580156107a357600080fd5b505afa9250505080156107f1575060408051601f3d9081017fffffffffffffffffffffffffffffffffffffffffffffffffffffffffffffffe01682019092526107ee9181019061203c565b60015b6107fd57506000610672565b9050610672565b61080c611e1e565b6108188284018461205c565b905061069b816000015182602001518360400151846060015185608001518660a001518760c001518860e001518961010001516113f7565b7f000000000000000000000000000000000000000000000000000000000000000081565b6000806000806108838761032f565b92509250925060008060006108988a8a610b7e565b92509250925060006108ab8b8585610fad565b90506108d8816040518060600160405280602681526020016128a26026913984919063ffffffff6113b116565b975088881015610914576040517f08c379a000000000000000000000000000000000000000000000000000000000815260040161041b90612659565b60606040518061012001604052808d73ffffffffffffffffffffffffffffffffffffffff1681526020018c73ffffffffffffffffffffffffffffffffffffffff1681526020018973ffffffffffffffffffffffffffffffffffffffff1681526020018873ffffffffffffffffffffffffffffffffffffffff1681526020018773ffffffffffffffffffffffffffffffffffffffff168152602001868152602001858152602001848152602001838152506040516020016109d491906126b6565b604080517fffffffffffffffffffffffffffffffffffffffffffffffffffffffffffffffe08184030190525250969a9950505050505050505050565b7f000000000000000000000000000000000000000000000000000000000000000081565b7f000000000000000000000000000000000000000000000000000000000000000081565b600080600080610a688787610b7e565b91955093509150610a7a878585610fad565b905093509350935093565b600060028260ff1610610ac4576040517f08c379a000000000000000000000000000000000000000000000000000000000815260040161041b906124ae565b7f00000000000000000000000000000000000000000000000000000000000000007f00000000000000000000000000000000000000000000000000000000000000008484604051602001610b1a9392919061222f565b60405160208183030381529060405280519060200120604051602001610b41929190612333565b604080517fffffffffffffffffffffffffffffffffffffffffffffffffffffffffffffffe081840301815291905280516020909101209392505050565b600080600080610b8d866106a2565b90506000806000806000806000610ba38d61032f565b92509250506000610bb4838e6115b4565b90506000610bc2838f6115b4565b90508973ffffffffffffffffffffffffffffffffffffffff1663bd9a548b6040518163ffffffff1660e01b81526004016040805180830381600087803b158015610c0b57600080fd5b505af1158015610c1f573d6000803e3d6000fd5b505050506040513d601f19601f82011682018060405250810190610c43919061216e565b809950819a5050508973ffffffffffffffffffffffffffffffffffffffff16638c765e946040518163ffffffff1660e01b815260040160206040518083038186803b158015610c9157600080fd5b505afa158015610ca5573d6000803e3d6000fd5b505050506040513d601f19601f82011682018060405250810190610cc99190612156565b9650612710610d08670de0b6b3a7640000610cf08c610cfc8383898f63ffffffff6116bf16565b9063ffffffff61171c16565b9063ffffffff6116bf16565b61270f0281610d1357fe5b049550612710610d3b670de0b6b3a7640000610cf08b610cfc8383888f63ffffffff6116bf16565b61270f0281610d4657fe5b049450505050506000612710610de161270f8973ffffffffffffffffffffffffffffffffffffffff166370a082318f6040518263ffffffff1660e01b8152600401610d9191906123b4565b60206040518083038186803b158015610da957600080fd5b505afa158015610dbd573d6000803e3d6000fd5b505050506040513d601f19601f82011682018060405250810190610cfc9190612156565b81610de857fe5b049050610e87670de0b6b3a7640000610cf08973ffffffffffffffffffffffffffffffffffffffff16633ba0b9a96040518163ffffffff1660e01b8152600401602060405180830381600087803b158015610e4257600080fd5b505af1158015610e56573d6000803e3d6000fd5b505050506040513d601f19601f82011682018060405250810190610e7a9190612156565b849063ffffffff6116bf16565b905080610e9a848463ffffffff61175e16565b1115610eed576000610eac848461179d565b90506000610eba85856117b3565b905082821115610ecf57508190506000610ed4565b508082035b838510610ee2578082610ee5565b81815b909550935050505b61270f610f1287610cf0670de0b6b3a7640000610cfc89838a8463ffffffff6116bf16565b6127100281610f1d57fe5b04995061270f610f4586610cf0670de0b6b3a7640000610cfc8983898463ffffffff6116bf16565b6127100281610f5057fe5b049850610f63838363ffffffff61175e16565b975060008811610f9f576040517f08c379a000000000000000000000000000000000000000000000000000000000815260040161041b9061259f565b505050505050509250925092565b6000806000806000806000610fc18a6105a9565b90508073ffffffffffffffffffffffffffffffffffffffff166318160ddd6040518163ffffffff1660e01b815260040160206040518083038186803b15801561100957600080fd5b505afa15801561101d573d6000803e3d6000fd5b505050506040513d601f19601f820116820180604052508101906110419190612156565b95506000808273ffffffffffffffffffffffffffffffffffffffff16630902f1ac6040518163ffffffff1660e01b815260040160606040518083038186803b15801561108c57600080fd5b505afa1580156110a0573d6000803e3d6000fd5b505050506040513d601f19601f820116820180604052508101906110c49190612102565b506dffffffffffffffffffffffffffff91821693501690506110f881610cf08c670de0b6b3a764000063ffffffff6116bf16565b61111483610cf08e670de0b6b3a764000063ffffffff6116bf16565b11611122578a8a8383611127565b898b82845b929950909750955093506000925061114991508490508363ffffffff6116bf16565b9050600061119361116b6103e8610cf06003610cfc898b63ffffffff6116bf16565b6111876103e8610cf06107cd610cfc8a8a63ffffffff6116bf16565b9063ffffffff61175e16565b905060006111f16111b66103e8610cf06103e5610cfc8b8d63ffffffff6116bf16565b6111e56111d56103e8610cf06103e5610cfc8b8f63ffffffff6116bf16565b611187898b63ffffffff6116bf16565b9063ffffffff6117c216565b9050600061124c6112476112286004610cfc680ad78ebc5ac62000008704680ad78ebc5ac62000008a5b049063ffffffff6116bf16565b6111e5680ad78ebc5ac62000008704680ad78ebc5ac62000008861121b565b611804565b680ad78ebc5ac620000002905060006112c561126f86600263ffffffff6116bf16565b610cf0670de0b6b3a7640000610cfc866040518060400160405280600e81526020017f70726f7072696f207175656c6c6f0000000000000000000000000000000000008152508a6113b19092919063ffffffff16565b905061270f6112e6670de0b6b3a7640000610cf08d8563ffffffff6116bf16565b61271002816112f157fe5b049a506112fd8e61075b565b156113a05761139d8e73ffffffffffffffffffffffffffffffffffffffff16633ba0b9a96040518163ffffffff1660e01b8152600401602060405180830381600087803b15801561134d57600080fd5b505af1158015611361573d6000803e3d6000fd5b505050506040513d601f19601f820116820180604052508101906113859190612156565b610cf08d670de0b6b3a764000063ffffffff6116bf16565b9a505b505050505050505050509392505050565b600081848411156113ef576040517f08c379a000000000000000000000000000000000000000000000000000000000815260040161041b919061249b565b505050900390565b60006114028a6105a9565b905060008a73ffffffffffffffffffffffffffffffffffffffff16630dfe16816040518163ffffffff1660e01b815260040160206040518083038186803b15801561144c57600080fd5b505afa158015611460573d6000803e3d6000fd5b505050506040513d601f19601f820116820180604052508101906114849190611ed8565b905060008b73ffffffffffffffffffffffffffffffffffffffff1663d21220a76040518163ffffffff1660e01b815260040160206040518083038186803b1580156114ce57600080fd5b505afa1580156114e2573d6000803e3d6000fd5b505050506040513d601f19601f820116820180604052508101906115069190611ed8565b90506000806115178e863089611855565b909250905061152b85858585858e8e611a4a565b5080881015611553576115418a848a8f8f611beb565b61154e8983898f8f611beb565b61156d565b6115608983898f8f611beb565b61156d8a848a8f8f611beb565b6000546115a3908e90869073ffffffffffffffffffffffffffffffffffffffff1661159e8a8a63ffffffff6117c216565b611855565b505050505050505050505050505050565b60008273ffffffffffffffffffffffffffffffffffffffff1663a6afed956040518163ffffffff1660e01b8152600401600060405180830381600087803b1580156115fe57600080fd5b505af1158015611612573d6000803e3d6000fd5b50506040517f4d73e9ba00000000000000000000000000000000000000000000000000000000815273ffffffffffffffffffffffffffffffffffffffff86169250634d73e9ba91506116689085906004016123b4565b60206040518083038186803b15801561168057600080fd5b505afa158015611694573d6000803e3d6000fd5b505050506040513d601f19601f820116820180604052508101906116b89190612156565b9392505050565b6000826116ce57506000611716565b828202828482816116db57fe5b0414611713576040517f08c379a000000000000000000000000000000000000000000000000000000000815260040161041b90612542565b90505b92915050565b60006116b883836040518060400160405280601a81526020017f536166654d6174683a206469766973696f6e206279207a65726f000000000000815250611caa565b600082820183811015611713576040517f08c379a000000000000000000000000000000000000000000000000000000000815260040161041b9061250b565b60008183106117ac57816116b8565b5090919050565b60008183116117ac57816116b8565b60006116b883836040518060400160405280601f81526020017f536166654d6174683a207375627472616374696f6e20756e646572666c6f77008152506113b1565b60006003821115611847575080600160028204015b818110156118415780915060028182858161183057fe5b04018161183957fe5b049050611819565b50610672565b811561067257506001919050565b6000808573ffffffffffffffffffffffffffffffffffffffff1663a9059cbb87856040518363ffffffff1660e01b815260040161189392919061246a565b602060405180830381600087803b1580156118ad57600080fd5b505af11580156118c1573d6000803e3d6000fd5b505050506040513d601f19601f820116820180604052508101906118e5919061203c565b506118ef8661075b565b1561199a576040517f95a2251f00000000000000000000000000000000000000000000000000000000815273ffffffffffffffffffffffffffffffffffffffff8716906395a2251f906119469088906004016123b4565b602060405180830381600087803b15801561196057600080fd5b505af1158015611974573d6000803e3d6000fd5b505050506040513d601f19601f820116820180604052508101906119989190612156565b505b6040517f89afcb4400000000000000000000000000000000000000000000000000000000815273ffffffffffffffffffffffffffffffffffffffff8616906389afcb44906119ec9087906004016123b4565b6040805180830381600087803b158015611a0557600080fd5b505af1158015611a19573d6000803e3d6000fd5b505050506040513d601f19601f82011682018060405250810190611a3d919061216e565b9097909650945050505050565b6000828511611a595785611a5b565b865b90506000838611611a9657611a918360405180606001604052806035815260200161286d6035913987919063ffffffff6113b116565b611aa6565b611aa6868563ffffffff6117c216565b90506000848710611ad457838610611abf576000611acf565b611acf848763ffffffff6117c216565b611ae4565b611ae4858863ffffffff6117c216565b905080611af357505050611be2565b611afe838b84611cfb565b6000808473ffffffffffffffffffffffffffffffffffffffff168b73ffffffffffffffffffffffffffffffffffffffff1614611b3c57826000611b40565b6000835b604080516000815260208101918290527f022c0d9f00000000000000000000000000000000000000000000000000000000909152919350915073ffffffffffffffffffffffffffffffffffffffff8d169063022c0d9f90611baa908590859030906024810161275b565b600060405180830381600087803b158015611bc457600080fd5b505af1158015611bd8573d6000803e3d6000fd5b5050505050505050505b50505050505050565b821561069b57611bfc848685611cfb565b6040517f86b9d81f00000000000000000000000000000000000000000000000000000000815273ffffffffffffffffffffffffffffffffffffffff8616906386b9d81f90611c509085908590600401612413565b602060405180830381600087803b158015611c6a57600080fd5b505af1158015611c7e573d6000803e3d6000fd5b505050506040513d601f19601f82011682018060405250810190611ca29190612156565b505050505050565b60008183611ce5576040517f08c379a000000000000000000000000000000000000000000000000000000000815260040161041b919061249b565b506000838581611cf157fe5b0495945050505050565b600060608473ffffffffffffffffffffffffffffffffffffffff1663a9059cbb8585604051602401611d2e92919061246a565b6040516020818303038152906040529060e01b6020820180517bffffffffffffffffffffffffffffffffffffffffffffffffffffffff8381831617835250505050604051611d7c9190612296565b6000604051808303816000865af19150503d8060008114611db9576040519150601f19603f3d011682016040523d82523d6000602084013e611dbe565b606091505b5091509150818015611de8575080511580611de8575080806020019051810190611de8919061203c565b61069b576040517f08c379a000000000000000000000000000000000000000000000000000000000815260040161041b906125fc565b6040805161012081018252600080825260208201819052918101829052606081018290526080810182905260a0810182905260c0810182905260e0810182905261010081019190915290565b80356117168161282b565b60008083601f840112611e86578182fd5b50813567ffffffffffffffff811115611e9d578182fd5b602083019150836020828501011115611eb557600080fd5b9250929050565b600060208284031215611ecd578081fd5b81356117138161282b565b600060208284031215611ee9578081fd5b81516117138161282b565b600080600060608486031215611f08578182fd5b8335611f138161282b565b92506020840135611f238161282b565b929592945050506040919091013590565b600080600080600060808688031215611f4b578081fd5b8535611f568161282b565b94506020860135611f668161282b565b935060408601359250606086013567ffffffffffffffff811115611f88578182fd5b611f9488828901611e75565b969995985093965092949392505050565b60008060008060608587031215611fba578384fd5b8435611fc58161282b565b935060208501359250604085013567ffffffffffffffff811115611fe7578283fd5b611ff387828801611e75565b95989497509550505050565b60008060408385031215612011578182fd5b823561201c8161282b565b9150602083013560ff81168114612031578182fd5b809150509250929050565b60006020828403121561204d578081fd5b81518015158114611713578182fd5b600061012080838503121561206f578182fd5b612078816127bb565b6120828585611e6a565b81526120918560208601611e6a565b60208201526120a38560408601611e6a565b60408201526120b58560608601611e6a565b60608201526120c78560808601611e6a565b608082015260a084013560a082015260c084013560c082015260e084013560e082015261010091508184013582820152809250505092915050565b600080600060608486031215612116578283fd5b835161212181612850565b602085015190935061213281612850565b604085015190925063ffffffff8116811461214b578182fd5b809150509250925092565b600060208284031215612167578081fd5b5051919050565b60008060408385031215612180578182fd5b505080516020909101519092909150565b73ffffffffffffffffffffffffffffffffffffffff169052565b600081518084526121c38160208601602086016127fb565b601f017fffffffffffffffffffffffffffffffffffffffffffffffffffffffffffffffe0169290920160200192915050565b7fffffffffffffffffffffffffffffffffffffffff000000000000000000000000606093841b811682529190921b16601482015260280190565b606093841b7fffffffffffffffffffffffffffffffffffffffff00000000000000000000000090811682529290931b909116601483015260f81b7fff0000000000000000000000000000000000000000000000000000000000000016602882015260290190565b600082516122a88184602087016127fb565b9190910192915050565b7fff00000000000000000000000000000000000000000000000000000000000000815260609290921b7fffffffffffffffffffffffffffffffffffffffff00000000000000000000000016600183015260158201527f4b8788d8761647e6330407671d3c6c80afaed3d047800dba0e0e3befde047767603582015260550190565b7fff00000000000000000000000000000000000000000000000000000000000000815260609290921b7fffffffffffffffffffffffffffffffffffffffff00000000000000000000000016600183015260158201527f605ba1db56496978613939baf0ae31dccceea3f5ca53dfaa76512bc880d7bb8f603582015260550190565b73ffffffffffffffffffffffffffffffffffffffff91909116815260200190565b600073ffffffffffffffffffffffffffffffffffffffff851682528360208301526060604083015261240a60608301846121ab565b95945050505050565b73ffffffffffffffffffffffffffffffffffffffff92831681529116602082015260400190565b73ffffffffffffffffffffffffffffffffffffffff93841681529183166020830152909116604082015260600190565b73ffffffffffffffffffffffffffffffffffffffff929092168252602082015260400190565b901515815260200190565b6000602082526116b860208301846121ab565b60208082526025908201527f4361706974616c467265654c697175696461746f723a20494e4445585f544f4f60408201527f5f48494748000000000000000000000000000000000000000000000000000000606082015260800190565b6020808252601b908201527f536166654d6174683a206164646974696f6e206f766572666c6f770000000000604082015260600190565b60208082526021908201527f536166654d6174683a206d756c7469706c69636174696f6e206f766572666c6f60408201527f7700000000000000000000000000000000000000000000000000000000000000606082015260800190565b60208082526037908201527f4361706974616c467265654c69717569646174653a205a45524f5f434f4c4c4160408201527f544552414c5f414d4f554e54202866726f6e7472756e29000000000000000000606082015260800190565b6020808252602d908201527f5472616e7366657248656c7065723a3a736166655472616e736665723a20747260408201527f616e73666572206661696c656400000000000000000000000000000000000000606082015260800190565b6020808252602a908201527f4361706974616c467265654c697175696461746f723a20494e5355464649434960408201527f454e545f50524f46495400000000000000000000000000000000000000000000606082015260800190565b81516101208201906126c7906127e2565b825273ffffffffffffffffffffffffffffffffffffffff602084015116602083015260408301516126fb6040840182612191565b50606083015161270e6060840182612191565b5060808301516127216080840182612191565b5060a083015160a083015260c083015160c083015260e083015160e083015261010080840151818401525092915050565b90815260200190565b600085825284602083015273ffffffffffffffffffffffffffffffffffffffff841660408301526080606083015261279660808301846121ab565b9695505050505050565b93845260208401929092526040830152606082015260800190565b60405181810167ffffffffffffffff811182821017156127da57600080fd5b604052919050565b73ffffffffffffffffffffffffffffffffffffffff1690565b60005b838110156128165781810151838201526020016127fe565b83811115612825576000848401525b50505050565b73ffffffffffffffffffffffffffffffffffffffff8116811461284d57600080fd5b50565b6dffffffffffffffffffffffffffff8116811461284d57600080fdfe4361706974616c467265654c69717569646174653a20494e53554646494349454e54535f415641494c41424c455f414d4f554e54534361706974616c467265654c697175696461746f723a204e454741544956455f50524f464954a2646970667358221220ad281c2a3d88ef8fff2a6cceebce9602ad91ed1e1d6ad48e00151a8c31a6acb264736f6c63430006060033",
  "immutableReferences": {
    "3195": [
      {
        "length": 32,
        "start": 1735
      },
      {
        "length": 32,
        "start": 2578
      },
      {
        "length": 32,
        "start": 2791
      }
    ],
    "3197": [
      {
        "length": 32,
        "start": 2614
      },
      {
        "length": 32,
        "start": 2758
      }
    ],
    "3199": [
      {
        "length": 32,
        "start": 1657
      },
      {
        "length": 32,
        "start": 1702
      }
    ],
    "3201": [
      {
        "length": 32,
        "start": 265
      },
      {
        "length": 32,
        "start": 2130
      }
    ]
  },
  "source": "pragma solidity =0.6.6;\r\npragma experimental ABIEncoderV2;\r\n\r\nimport \"./interfaces/IBorrowable.sol\";\r\nimport \"./interfaces/ICollateral.sol\";\r\nimport \"./interfaces/IImpermaxCallee.sol\";\r\nimport \"./interfaces/IERC20.sol\";\r\nimport \"./interfaces/IWETH.sol\";\r\nimport \"./interfaces/IUniswapV2Pair.sol\";\r\nimport \"./interfaces/IStakedLPToken01.sol\";\r\nimport \"./libraries/Math.sol\";\r\nimport \"./libraries/SafeMath.sol\";\r\nimport \"./libraries/TransferHelper.sol\";\r\nimport \"./libraries/UniswapV2Library.sol\";\r\n\r\n// This assumes that the borrower has enough collateral to repay\r\n// The chance that this is not true is low and the check isn't worth the additional gas cost\r\n// The check should be done off chain, and the caller should use the right liquidateAmount parameter\r\n// Another problem is the slippage, so it may be convenient to liquidate large amounts in multiple rounds\r\n\r\ncontract CapitalFreeLiquidate04 is IImpermaxCallee {\r\n\tusing SafeMath for uint;\r\n\r\n\taddress public immutable factory;\r\n\taddress public immutable bDeployer;\r\n\taddress public immutable cDeployer;\r\n\taddress public immutable WETH;\r\n\t\r\n\taddress public to;\r\n\r\n\tconstructor(address _factory, address _bDeployer, address _cDeployer, address _WETH, address _to) public {\r\n\t\tfactory = _factory;\r\n\t\tbDeployer = _bDeployer;\r\n\t\tcDeployer = _cDeployer;\r\n\t\tWETH = _WETH;\r\n\t\tto = _to;\r\n\t}\r\n\r\n\treceive() external payable {\r\n\t\tassert(msg.sender == WETH); // only accept ETH via fallback from the WETH contract\r\n\t}\r\n\t\r\n\tfunction _burn(\r\n\t\taddress underlying, \r\n\t\taddress uniswapV2Pair, \r\n\t\taddress recipient,\r\n\t\tuint collateralToBurn\r\n\t) internal virtual returns (uint amount0, uint amount1) {\r\n\t\tIUniswapV2Pair(underlying).transfer(underlying, collateralToBurn);\r\n\t\tif (isStakedLPToken(underlying)) IStakedLPToken01(underlying).redeem(uniswapV2Pair);\r\n\t\t(amount0, amount1) = IUniswapV2Pair(uniswapV2Pair).burn(recipient);\r\n\t}\r\n\t\r\n\tfunction _swap(\r\n\t\taddress uniswapV2Pair,\r\n\t\taddress tokenA, \r\n\t\taddress tokenB,\r\n\t\tuint amountA,\r\n\t\tuint amountB,\r\n\t\tuint liquidateAmountA, \r\n\t\tuint liquidateAmountB \r\n\t) internal virtual {\r\n\t\taddress tokenIn = amountA > liquidateAmountA ? tokenA: tokenB;\r\n\t\tuint swapAmountIn = amountA > liquidateAmountA ? \r\n\t\t\tamountA.sub(liquidateAmountA) : \r\n\t\t\tamountB.sub(liquidateAmountB, \"CapitalFreeLiquidate: INSUFFICIENTS_AVAILABLE_AMOUNTS\");\r\n\t\tuint swapAmountOut = amountA < liquidateAmountA ? liquidateAmountA.sub(amountA) :\r\n\t\t\tamountB < liquidateAmountB ? liquidateAmountB.sub(amountB) : 0;\r\n\t\tif (swapAmountOut == 0) return;\r\n\t\tTransferHelper.safeTransfer(tokenIn, uniswapV2Pair, swapAmountIn);\r\n\t\t(uint amount0Out, uint amount1Out) = tokenA == tokenIn ? (uint(0), swapAmountOut) : (swapAmountOut, uint(0));\r\n\t\tIUniswapV2Pair(uniswapV2Pair).swap(amount0Out, amount1Out, address(this), new bytes(0));\r\n\t}\r\n\t\r\n\tfunction _liquidate(\r\n\t\taddress borrowable,\r\n\t\taddress token,\r\n\t\tuint liquidateAmount,\r\n\t\taddress borrower, \r\n\t\taddress collateral\r\n\t) internal virtual {\r\n\t\tif (liquidateAmount > 0) {\r\n\t\t\tTransferHelper.safeTransfer(token, borrowable, liquidateAmount);\r\n\t\t\tIBorrowable(borrowable).liquidate(borrower, collateral);\r\n\t\t}\r\n\t}\r\n\t\r\n\tfunction _borrowBalance(\r\n\t\taddress borrowable,\r\n\t\taddress borrower\r\n\t) internal virtual returns (uint amount) {\r\n\t\tIBorrowable(borrowable).accrueInterest();\r\n\t\tamount = IBorrowable(borrowable).borrowBalance(borrower);\r\n\t}\r\n\t\r\n\tfunction _setupAmounts(\r\n\t\taddress underlying,\r\n\t\taddress borrower\r\n\t) internal virtual returns (uint liquidateAmountA, uint liquidateAmountB, uint collateralAmount) {\r\n\t\taddress collateral = getCollateral(underlying);\r\n\t\tuint priceA; uint priceB;\r\n\t\tuint liquidationIncentive;\r\n\t\tuint collateralAmountA;\r\n\t\tuint collateralAmountB;\r\n\t\t{\r\n\t\t(, address borrowableA, address borrowableB) = getLendingPool(underlying);\r\n\t\tuint borrowBalanceA = _borrowBalance(borrowableA, borrower);\r\n\t\tuint borrowBalanceB = _borrowBalance(borrowableB, borrower);\r\n\t\t(priceA, priceB) = ICollateral(collateral).getPrices();\r\n\t\tliquidationIncentive = ICollateral(collateral).liquidationIncentive();\r\n\t\tcollateralAmountA = borrowBalanceA.mul(liquidationIncentive).div(1e18).mul(priceA).div(1e18) * 9999 / 10000;\r\n\t\tcollateralAmountB = borrowBalanceB.mul(liquidationIncentive).div(1e18).mul(priceB).div(1e18) * 9999 / 10000;\r\n\t\t}\r\n\t\t// Avoid liquidating too much\r\n\t\tuint collateralAvailable = ICollateral(collateral).balanceOf(borrower).mul(9999) / 10000;\r\n\t\tcollateralAvailable = collateralAvailable.mul(ICollateral(collateral).exchangeRate()).div(1e18);\r\n\t\tif (collateralAmountA.add(collateralAmountB) > collateralAvailable) {\r\n\t\t\tuint collateralAmountMin = Math.min(collateralAmountA, collateralAmountB);\r\n\t\t\tuint collateralAmountMax = Math.max(collateralAmountA, collateralAmountB);\r\n\t\t\tif (collateralAmountMin > collateralAvailable) {\r\n\t\t\t\tcollateralAmountMin = collateralAvailable;\r\n\t\t\t\tcollateralAmountMax = 0;\r\n\t\t\t} else {\r\n\t\t\t\tcollateralAmountMax = collateralAvailable - collateralAmountMin;\r\n\t\t\t}\r\n\t\t\t(collateralAmountA, collateralAmountB) = collateralAmountA < collateralAmountB ? (collateralAmountMin, collateralAmountMax) : (collateralAmountMax, collateralAmountMin);\r\n\t\t}\r\n\t\tliquidateAmountA = collateralAmountA.mul(1e18).div(liquidationIncentive).mul(1e18).div(priceA) * 10000 / 9999;\r\n\t\tliquidateAmountB = collateralAmountB.mul(1e18).div(liquidationIncentive).mul(1e18).div(priceB) * 10000 / 9999;\r\n\t\tcollateralAmount = collateralAmountA.add(collateralAmountB);\r\n\t\trequire(collateralAmount > 0, \"CapitalFreeLiquidate: ZERO_COLLATERAL_AMOUNT (frontrun)\");\r\n\t}\r\n\t\r\n\tfunction _collateralToBurn(\r\n\t\taddress underlying,\r\n\t\tuint liquidateAmountA,\r\n\t\tuint liquidateAmountB\r\n\t) internal virtual returns (uint collateralToBurn) {\r\n\t\tuint totalSupply;\r\n\t\tuint liqIn; uint liqOut;\r\n\t\tuint resIn; uint resOut;\r\n\t\t{\r\n\t\taddress uniswapV2Pair = getUniswapV2Pair(underlying);\r\n\t\ttotalSupply = IUniswapV2Pair(uniswapV2Pair).totalSupply();\r\n\t\t(uint reserveA, uint reserveB,) = IUniswapV2Pair(uniswapV2Pair).getReserves();\r\n\t\t(liqIn, liqOut, resIn, resOut) = liquidateAmountA.mul(1e18).div(reserveA) > liquidateAmountB.mul(1e18).div(reserveB)\r\n\t\t\t? (liquidateAmountB, liquidateAmountA, reserveB, reserveA)\r\n\t\t\t: (liquidateAmountA, liquidateAmountB, reserveA, reserveB);\r\n\t\t}\r\n\t\tuint a = resIn.mul(resOut);\r\n\t\tuint nb = resIn.mul(resOut).mul(1997).div(1000).add(resIn.mul(liqOut).mul(3).div(1000));\r\n\t\tuint c = resIn.mul(liqOut).add(resOut.mul(liqIn).mul(997).div(1000)).sub(liqOut.mul(liqIn).mul(997).div(1000));\r\n\t\tuint rad = Math.sqrt((nb/2e20).mul(nb/2e20).sub((a/2e20).mul(c/2e20).mul(4))) * 2e20;\r\n\t\tuint x = nb.sub(rad, \"proprio quello\").mul(1e18).div(a.mul(2));\r\n\t\tcollateralToBurn = totalSupply.mul(x).div(1e18) * 10000 / 9999;\r\n\t\tif (isStakedLPToken(underlying)) {\r\n\t\t\tcollateralToBurn = collateralToBurn.mul(1e18).div(IStakedLPToken01(underlying).exchangeRate());\r\n\t\t}\r\n\t}\r\n\t\r\n\tfunction liquidate(\r\n\t\taddress underlying,\r\n\t\taddress borrower,\r\n\t\tuint profitMin\r\n\t) external virtual returns (uint profit) {\r\n\t\t(address collateral, address borrowableA, address borrowableB) = getLendingPool(underlying);\r\n\t\t(uint liquidateAmountA, uint liquidateAmountB, uint collateralAmount) = _setupAmounts(underlying, borrower);\r\n\t\tuint collateralToBurn = _collateralToBurn(underlying, liquidateAmountA, liquidateAmountB);\r\n\t\tprofit = collateralAmount.sub(collateralToBurn, \"CapitalFreeLiquidator: NEGATIVE_PROFIT\");\r\n\t\trequire(profit >= profitMin, \"CapitalFreeLiquidator: INSUFFICIENT_PROFIT\");\r\n\t\tbytes memory data = abi.encode(CalleeData({\r\n\t\t\tunderlying: underlying,\r\n\t\t\tborrower: borrower,\r\n\t\t\tcollateral: collateral,\r\n\t\t\tborrowableA: borrowableA,\r\n\t\t\tborrowableB: borrowableB,\r\n\t\t\tliquidateAmountA: liquidateAmountA,\r\n\t\t\tliquidateAmountB: liquidateAmountB,\r\n\t\t\tcollateralAmount: collateralAmount,\r\n\t\t\tcollateralToBurn: collateralToBurn\r\n\t\t}));\r\n\t\tICollateral(collateral).flashRedeem(address(this), collateralAmount, data);\r\n\t\t//IUniswapV2Pair(underlying).transfer(collateral, collateralAmount.sub(collateralToBurn));\r\n\t\t//ICollateral(collateral).mint(to);\r\n\t}\r\n\t\r\n\tfunction liquidateDebug(\r\n\t\taddress underlying,\r\n\t\taddress borrower,\r\n\t\tuint profitMin\r\n\t) external virtual returns (uint liquidateAmountA, uint liquidateAmountB, uint collateralAmount, uint collateralToBurn) {\r\n\t\tprofitMin;\r\n\t\t(liquidateAmountA, liquidateAmountB, collateralAmount) = _setupAmounts(underlying, borrower);\r\n\t\tcollateralToBurn = _collateralToBurn(underlying, liquidateAmountA, liquidateAmountB);\r\n\t}\r\n\t\r\n\tfunction liquidateDebug2(\r\n\t\taddress underlying,\r\n\t\taddress borrower,\r\n\t\tuint profitMin\r\n\t) external virtual returns (uint profit) {\r\n\t\t(address collateral, address borrowableA, address borrowableB) = getLendingPool(underlying);\r\n\t\t(uint liquidateAmountA, uint liquidateAmountB, uint collateralAmount) = _setupAmounts(underlying, borrower);\r\n\t\tuint collateralToBurn = _collateralToBurn(underlying, liquidateAmountA, liquidateAmountB);\r\n\t\tprofit = collateralAmount.sub(collateralToBurn, \"CapitalFreeLiquidator: NEGATIVE_PROFIT\");\r\n\t\trequire(profit >= profitMin, \"CapitalFreeLiquidator: INSUFFICIENT_PROFIT\");\r\n\t\tbytes memory data = abi.encode(CalleeData({\r\n\t\t\tunderlying: underlying,\r\n\t\t\tborrower: borrower,\r\n\t\t\tcollateral: collateral,\r\n\t\t\tborrowableA: borrowableA,\r\n\t\t\tborrowableB: borrowableB,\r\n\t\t\tliquidateAmountA: liquidateAmountA,\r\n\t\t\tliquidateAmountB: liquidateAmountB,\r\n\t\t\tcollateralAmount: collateralAmount,\r\n\t\t\tcollateralToBurn: collateralToBurn\r\n\t\t}));\r\n\t}\r\n\t\r\n\tfunction liquidateCallback(\r\n\t\taddress underlying,\r\n\t\taddress borrower,\r\n\t\taddress collateral,\r\n\t\taddress borrowableA,\r\n\t\taddress borrowableB,\r\n\t\tuint liquidateAmountA,\r\n\t\tuint liquidateAmountB,\r\n\t\tuint collateralAmount,\r\n\t\tuint collateralToBurn\r\n\t) internal virtual {\r\n\t\taddress uniswapV2Pair = getUniswapV2Pair(underlying);\r\n\t\taddress tokenA = IUniswapV2Pair(underlying).token0();\r\n\t\taddress tokenB = IUniswapV2Pair(underlying).token1();\r\n\t\tuint amountA;\r\n\t\t{\r\n\t\tuint amountB;\r\n\t\t(amountA, amountB) = _burn(underlying, uniswapV2Pair, address(this), collateralToBurn);\r\n\t\t_swap(uniswapV2Pair, tokenA, tokenB, amountA, amountB, liquidateAmountA, liquidateAmountB);\r\n\t\t}\r\n\t\tif (liquidateAmountA < amountA) {\r\n\t\t\t_liquidate(borrowableA, tokenA, liquidateAmountA, borrower, collateral);\r\n\t\t\t_liquidate(borrowableB, tokenB, liquidateAmountB, borrower, collateral);\r\n\t\t} else {\r\n\t\t\t_liquidate(borrowableB, tokenB, liquidateAmountB, borrower, collateral);\t\t\r\n\t\t\t_liquidate(borrowableA, tokenA, liquidateAmountA, borrower, collateral);\r\n\t\t}\r\n\t\t_burn(underlying, uniswapV2Pair, to, collateralAmount.sub(collateralToBurn));\r\n\t}\r\n\t\r\n\tstruct CalleeData {\r\n\t\taddress underlying;\r\n\t\taddress borrower;\r\n\t\taddress collateral;\r\n\t\taddress borrowableA;\r\n\t\taddress borrowableB;\r\n\t\tuint liquidateAmountA;\r\n\t\tuint liquidateAmountB;\r\n\t\tuint collateralAmount;\r\n\t\tuint collateralToBurn;\r\n\t}\r\n\t\r\n\tfunction impermaxRedeem(address sender, uint redeemAmount, bytes calldata data) external virtual override {\r\n\t\tsender; redeemAmount;\r\n\t\t// no security check needed\r\n\t\tCalleeData memory calleeData = abi.decode(data, (CalleeData));\r\n\t\tliquidateCallback(\r\n\t\t\tcalleeData.underlying,\r\n\t\t\tcalleeData.borrower,\r\n\t\t\tcalleeData.collateral,\r\n\t\t\tcalleeData.borrowableA,\r\n\t\t\tcalleeData.borrowableB,\r\n\t\t\tcalleeData.liquidateAmountA,\r\n\t\t\tcalleeData.liquidateAmountB,\r\n\t\t\tcalleeData.collateralAmount,\r\n\t\t\tcalleeData.collateralToBurn\r\n\t\t);\r\n\t}\r\n\r\n\tfunction impermaxBorrow(address sender, address borrower, uint borrowAmount, bytes calldata data) external virtual override { sender; borrower; borrowAmount; data; }\r\n\t\r\n\t/*** UTILITIES ***/\r\n\t\r\n\tfunction isStakedLPToken(address underlying) public virtual view returns(bool) {\r\n\t\ttry IStakedLPToken01(underlying).isStakedLPToken() returns (bool result) {\r\n\t\t\treturn result;\r\n\t\t} catch {\r\n\t\t\treturn false;\r\n\t\t}\r\n\t}\r\n\tfunction getUniswapV2Pair(address underlying) public virtual view returns (address) {\r\n\t\ttry IStakedLPToken01(underlying).underlying() returns (address u) {\r\n\t\t\tif (u != address(0)) return u;\r\n\t\t\treturn underlying;\r\n\t\t} catch {\r\n\t\t\treturn underlying;\r\n\t\t}\r\n\t}\r\n\t\r\n\tfunction getBorrowable(address underlying, uint8 index) public virtual view returns (address borrowable) {\r\n\t\trequire(index < 2, \"CapitalFreeLiquidator: INDEX_TOO_HIGH\");\r\n\t\tborrowable = address(uint(keccak256(abi.encodePacked(\r\n\t\t\thex\"ff\",\r\n\t\t\tbDeployer,\r\n\t\t\tkeccak256(abi.encodePacked(factory, underlying, index)),\r\n\t\t\thex\"605ba1db56496978613939baf0ae31dccceea3f5ca53dfaa76512bc880d7bb8f\" // Borrowable bytecode keccak256\r\n\t\t))));\r\n\t}\r\n\tfunction getCollateral(address underlying) public virtual view returns (address collateral) {\r\n\t\tcollateral = address(uint(keccak256(abi.encodePacked(\r\n\t\t\thex\"ff\",\r\n\t\t\tcDeployer,\r\n\t\t\tkeccak256(abi.encodePacked(factory, underlying)),\r\n\t\t\thex\"4b8788d8761647e6330407671d3c6c80afaed3d047800dba0e0e3befde047767\" // Collateral bytecode keccak256\r\n\t\t))));\r\n\t}\r\n\tfunction getLendingPool(address underlying) public virtual view returns (address collateral, address borrowableA, address borrowableB) {\r\n\t\tcollateral = getCollateral(underlying);\r\n\t\tborrowableA = getBorrowable(underlying, 0);\r\n\t\tborrowableB = getBorrowable(underlying, 1);\r\n\t}\r\n}\r\n",
  "sourcePath": "C:/Users/simor/Desktop/impermax-x-uniswapv2-periphery/contracts/CapitalFreeLiquidate04.sol",
  "compiler": {
    "name": "solc",
    "version": "0.6.6+commit.6c089d02.Emscripten.clang"
  },
  "schemaVersion": "3.3.2",
  "updatedAt": "2021-08-31T17:08:59.971Z",
  "devdoc": {
    "methods": {}
  },
  "userdoc": {
    "methods": {
      "isStakedLPToken(address)": {
        "notice": "* UTILITIES **"
      }
    }
  }
}