{
  "contractName": "CapitalFreeLiquidate02",
  "abi": [
    {
      "inputs": [
        {
          "internalType": "address",
          "name": "_factory",
          "type": "address"
        },
        {
          "internalType": "address",
          "name": "_bDeployer",
          "type": "address"
        },
        {
          "internalType": "address",
          "name": "_cDeployer",
          "type": "address"
        },
        {
          "internalType": "address",
          "name": "_WETH",
          "type": "address"
        },
        {
          "internalType": "address",
          "name": "_to",
          "type": "address"
        }
      ],
      "stateMutability": "nonpayable",
      "type": "constructor"
    },
    {
      "inputs": [],
      "name": "WETH",
      "outputs": [
        {
          "internalType": "address",
          "name": "",
          "type": "address"
        }
      ],
      "stateMutability": "view",
      "type": "function"
    },
    {
      "inputs": [],
      "name": "bDeployer",
      "outputs": [
        {
          "internalType": "address",
          "name": "",
          "type": "address"
        }
      ],
      "stateMutability": "view",
      "type": "function"
    },
    {
      "inputs": [],
      "name": "cDeployer",
      "outputs": [
        {
          "internalType": "address",
          "name": "",
          "type": "address"
        }
      ],
      "stateMutability": "view",
      "type": "function"
    },
    {
      "inputs": [],
      "name": "factory",
      "outputs": [
        {
          "internalType": "address",
          "name": "",
          "type": "address"
        }
      ],
      "stateMutability": "view",
      "type": "function"
    },
    {
      "inputs": [],
      "name": "to",
      "outputs": [
        {
          "internalType": "address",
          "name": "",
          "type": "address"
        }
      ],
      "stateMutability": "view",
      "type": "function"
    },
    {
      "stateMutability": "payable",
      "type": "receive"
    },
    {
      "inputs": [
        {
          "internalType": "address",
          "name": "underlying",
          "type": "address"
        },
        {
          "internalType": "uint8",
          "name": "toLiquidateIndex",
          "type": "uint8"
        },
        {
          "internalType": "uint8",
          "name": "takeProfitIndex",
          "type": "uint8"
        },
        {
          "internalType": "address",
          "name": "borrower",
          "type": "address"
        },
        {
          "internalType": "uint256",
          "name": "liquidateAmountMax",
          "type": "uint256"
        },
        {
          "internalType": "uint256",
          "name": "profitMin",
          "type": "uint256"
        }
      ],
      "name": "liquidate",
      "outputs": [
        {
          "internalType": "uint256",
          "name": "profit",
          "type": "uint256"
        }
      ],
      "stateMutability": "nonpayable",
      "type": "function"
    },
    {
      "inputs": [
        {
          "internalType": "address",
          "name": "sender",
          "type": "address"
        },
        {
          "internalType": "uint256",
          "name": "redeemAmount",
          "type": "uint256"
        },
        {
          "internalType": "bytes",
          "name": "data",
          "type": "bytes"
        }
      ],
      "name": "impermaxRedeem",
      "outputs": [],
      "stateMutability": "nonpayable",
      "type": "function"
    },
    {
      "inputs": [
        {
          "internalType": "address",
          "name": "sender",
          "type": "address"
        },
        {
          "internalType": "address",
          "name": "borrower",
          "type": "address"
        },
        {
          "internalType": "uint256",
          "name": "borrowAmount",
          "type": "uint256"
        },
        {
          "internalType": "bytes",
          "name": "data",
          "type": "bytes"
        }
      ],
      "name": "impermaxBorrow",
      "outputs": [],
      "stateMutability": "nonpayable",
      "type": "function"
    },
    {
      "inputs": [
        {
          "internalType": "address",
          "name": "token",
          "type": "address"
        }
      ],
      "name": "skim",
      "outputs": [],
      "stateMutability": "nonpayable",
      "type": "function"
    },
    {
      "inputs": [
        {
          "internalType": "address",
          "name": "underlying",
          "type": "address"
        }
      ],
      "name": "isStakedLPToken",
      "outputs": [
        {
          "internalType": "bool",
          "name": "",
          "type": "bool"
        }
      ],
      "stateMutability": "view",
      "type": "function"
    },
    {
      "inputs": [
        {
          "internalType": "address",
          "name": "underlying",
          "type": "address"
        }
      ],
      "name": "getUniswapV2Pair",
      "outputs": [
        {
          "internalType": "address",
          "name": "",
          "type": "address"
        }
      ],
      "stateMutability": "view",
      "type": "function"
    },
    {
      "inputs": [
        {
          "internalType": "address",
          "name": "underlying",
          "type": "address"
        },
        {
          "internalType": "uint8",
          "name": "index",
          "type": "uint8"
        }
      ],
      "name": "getBorrowable",
      "outputs": [
        {
          "internalType": "address",
          "name": "borrowable",
          "type": "address"
        }
      ],
      "stateMutability": "view",
      "type": "function"
    },
    {
      "inputs": [
        {
          "internalType": "address",
          "name": "underlying",
          "type": "address"
        }
      ],
      "name": "getCollateral",
      "outputs": [
        {
          "internalType": "address",
          "name": "collateral",
          "type": "address"
        }
      ],
      "stateMutability": "view",
      "type": "function"
    },
    {
      "inputs": [
        {
          "internalType": "address",
          "name": "underlying",
          "type": "address"
        }
      ],
      "name": "getLendingPool",
      "outputs": [
        {
          "internalType": "address",
          "name": "collateral",
          "type": "address"
        },
        {
          "internalType": "address",
          "name": "borrowableA",
          "type": "address"
        },
        {
          "internalType": "address",
          "name": "borrowableB",
          "type": "address"
        }
      ],
      "stateMutability": "view",
      "type": "function"
    }
  ],
  "bytecode": "0x6101006040523480156200001257600080fd5b5060405162002a9638038062002a96833981016040819052620000359162000085565b606094851b6001600160601b031990811660805293851b841660a05291841b831660c05290921b1660e052600080546001600160a01b0319166001600160a01b039092169190911790556200011d565b600080600080600060a086880312156200009d578081fd5b8551620000aa8162000104565b6020870151909550620000bd8162000104565b6040870151909450620000d08162000104565b6060870151909350620000e38162000104565b6080870151909250620000f68162000104565b809150509295509295909350565b6001600160a01b03811681146200011a57600080fd5b50565b60805160601c60a05160601c60c05160601c60e05160601c612915620001816000398060fe52806105ea52806106b55280610744525080610410528061043d525080610a2f5280610a9252508061045e52806107ff5280610ab352506129156000f3fe6080604052600436106100e15760003560e01c8063acb86cbb1161007f578063c45a015511610059578063c45a01551461027d578063cfa1f44514610292578063db5a2690146102bf578063ef974e9c146102d457610127565b8063acb86cbb14610228578063ad5c464814610248578063bc25cf771461025d57610127565b80637a4660d5116100bb5780637a4660d5146101a6578063876d9d9e146101bb5780639b56d6c9146101db578063a3c252a0146101fb57610127565b80630572bf5f1461012c57806313151981146101645780633970036a1461018657610127565b36610127573373ffffffffffffffffffffffffffffffffffffffff7f0000000000000000000000000000000000000000000000000000000000000000161461012557fe5b005b600080fd5b34801561013857600080fd5b5061014c610147366004611d26565b6102f4565b60405161015b939291906122cd565b60405180910390f35b34801561017057600080fd5b50610179610324565b60405161015b9190612250565b34801561019257600080fd5b506101796101a1366004611d26565b610340565b3480156101b257600080fd5b5061017961040e565b3480156101c757600080fd5b506101256101d6366004611d5e565b610432565b3480156101e757600080fd5b506101796101f6366004611d26565b610439565b34801561020757600080fd5b5061021b610216366004611d26565b6104f2565b60405161015b9190612323565b34801561023457600080fd5b50610125610243366004611dcf565b61059b565b34801561025457600080fd5b506101796105e8565b34801561026957600080fd5b50610125610278366004611d26565b61060c565b34801561028957600080fd5b506101796107fd565b34801561029e57600080fd5b506102b26102ad366004611e5e565b610821565b60405161015b9190612705565b3480156102cb57600080fd5b50610179610a2d565b3480156102e057600080fd5b506101796102ef366004611e29565b610a51565b600080600061030284610439565b925061030f846000610a51565b915061031c846001610a51565b929491935050565b60005473ffffffffffffffffffffffffffffffffffffffff1681565b60008173ffffffffffffffffffffffffffffffffffffffff16636f307dc36040518163ffffffff1660e01b815260040160206040518083038186803b15801561038857600080fd5b505afa9250505080156103d6575060408051601f3d9081017fffffffffffffffffffffffffffffffffffffffffffffffffffffffffffffffe01682019092526103d391810190611d42565b60015b6103e1575080610409565b73ffffffffffffffffffffffffffffffffffffffff811615610404579050610409565b829150505b919050565b7f000000000000000000000000000000000000000000000000000000000000000081565b5050505050565b60007f00000000000000000000000000000000000000000000000000000000000000007f00000000000000000000000000000000000000000000000000000000000000008360405160200161048f929190612091565b604051602081830303815290604052805190602001206040516020016104b692919061214e565b604080517fffffffffffffffffffffffffffffffffffffffffffffffffffffffffffffffe0818403018152919052805160209091012092915050565b60008173ffffffffffffffffffffffffffffffffffffffff16630a6410636040518163ffffffff1660e01b815260040160206040518083038186803b15801561053a57600080fd5b505afa925050508015610588575060408051601f3d9081017fffffffffffffffffffffffffffffffffffffffffffffffffffffffffffffffe016820190925261058591810190611ec9565b60015b61059457506000610409565b9050610409565b6105a3611c77565b6105af82840184611ee9565b9050610432816000015182602001518360400151846060015185608001518660a001518760c001518860e001518961010001518d610b4a565b7f000000000000000000000000000000000000000000000000000000000000000081565b6040517f70a0823100000000000000000000000000000000000000000000000000000000815260009073ffffffffffffffffffffffffffffffffffffffff8316906370a0823190610661903090600401612250565b60206040518083038186803b15801561067957600080fd5b505afa15801561068d573d6000803e3d6000fd5b505050506040513d601f19601f820116820180604052508101906106b19190611feb565b90507f000000000000000000000000000000000000000000000000000000000000000073ffffffffffffffffffffffffffffffffffffffff168273ffffffffffffffffffffffffffffffffffffffff1614156107d4576040517f2e1a7d4d00000000000000000000000000000000000000000000000000000000815273ffffffffffffffffffffffffffffffffffffffff7f00000000000000000000000000000000000000000000000000000000000000001690632e1a7d4d90610779908490600401612705565b600060405180830381600087803b15801561079357600080fd5b505af11580156107a7573d6000803e3d6000fd5b50506000546107cf925073ffffffffffffffffffffffffffffffffffffffff16905082610c78565b6107f9565b6000546107f990839073ffffffffffffffffffffffffffffffffffffffff1683610d31565b5050565b7f000000000000000000000000000000000000000000000000000000000000000081565b60008061082d88610439565b9050600061083b8989610a51565b9050600061084a828789610e54565b9050600061085a8b858c85610f75565b905060008061086c8d8d8d8787611078565b91985092509050878710156108b6576040517f08c379a00000000000000000000000000000000000000000000000000000000081526004016108ad90612603565b60405180910390fd5b60606040518061012001604052808f73ffffffffffffffffffffffffffffffffffffffff1681526020018873ffffffffffffffffffffffffffffffffffffffff1681526020018773ffffffffffffffffffffffffffffffffffffffff1681526020018e60ff1681526020018d60ff1681526020018c73ffffffffffffffffffffffffffffffffffffffff168152602001848152602001838152602001868152506040516020016109669190612660565b604080517fffffffffffffffffffffffffffffffffffffffffffffffffffffffffffffffe0818403018152908290527f19f3400d000000000000000000000000000000000000000000000000000000008252915073ffffffffffffffffffffffffffffffffffffffff8816906319f3400d906109ea90309088908690600401612271565b600060405180830381600087803b158015610a0457600080fd5b505af1158015610a18573d6000803e3d6000fd5b50505050505050505050509695505050505050565b7f000000000000000000000000000000000000000000000000000000000000000081565b600060028260ff1610610a90576040517f08c379a00000000000000000000000000000000000000000000000000000000081526004016108ad90612341565b7f00000000000000000000000000000000000000000000000000000000000000007f00000000000000000000000000000000000000000000000000000000000000008484604051602001610ae6939291906120cb565b60405160208183030381529060405280519060200120604051602001610b0d9291906121cf565b604080517fffffffffffffffffffffffffffffffffffffffffffffffffffffffffffffffe081840301815291905280516020909101209392505050565b6000610b558b610340565b9050610b628b82846111be565b5050600080610b718d8b6113b2565b91509150610b82838389898e6114db565b610b8d818c87610d31565b6040517f86b9d81f00000000000000000000000000000000000000000000000000000000815260009073ffffffffffffffffffffffffffffffffffffffff8d16906386b9d81f90610be4908c9030906004016122a6565b602060405180830381600087803b158015610bfe57600080fd5b505af1158015610c12573d6000803e3d6000fd5b505050506040513d601f19601f82011682018060405250810190610c369190611feb565b9050610c438d8e83610d31565b8960ff168b60ff161415610c5f57610c5a8261060c565b610c68565b610c688361060c565b5050505050505050505050505050565b6040805160008082526020820190925273ffffffffffffffffffffffffffffffffffffffff8416908390604051610caf9190612132565b60006040518083038185875af1925050503d8060008114610cec576040519150601f19603f3d011682016040523d82523d6000602084013e610cf1565b606091505b5050905080610d2c576040517f08c379a00000000000000000000000000000000000000000000000000000000081526004016108ad90612432565b505050565b600060608473ffffffffffffffffffffffffffffffffffffffff1663a9059cbb8585604051602401610d649291906122fd565b6040516020818303038152906040529060e01b6020820180517bffffffffffffffffffffffffffffffffffffffffffffffffffffffff8381831617835250505050604051610db29190612132565b6000604051808303816000865af19150503d8060008114610def576040519150601f19603f3d011682016040523d82523d6000602084013e610df4565b606091505b5091509150818015610e1e575080511580610e1e575080806020019051810190610e1e9190611ec9565b610432576040517f08c379a00000000000000000000000000000000000000000000000000000000081526004016108ad90612549565b60008373ffffffffffffffffffffffffffffffffffffffff1663a6afed956040518163ffffffff1660e01b8152600401600060405180830381600087803b158015610e9e57600080fd5b505af1158015610eb2573d6000803e3d6000fd5b50506040517f4d73e9ba0000000000000000000000000000000000000000000000000000000081526000925073ffffffffffffffffffffffffffffffffffffffff87169150634d73e9ba90610f0b908690600401612250565b60206040518083038186803b158015610f2357600080fd5b505afa158015610f37573d6000803e3d6000fd5b505050506040513d601f19601f82011682018060405250810190610f5b9190611feb565b9050808410610f6a5780610f6c565b835b95945050505050565b600080610f84868686866115a5565b905060008573ffffffffffffffffffffffffffffffffffffffff16638c765e946040518163ffffffff1660e01b815260040160206040518083038186803b158015610fce57600080fd5b505afa158015610fe2573d6000803e3d6000fd5b505050506040513d601f19601f820116820180604052508101906110069190611feb565b905061106d600160405180606001604052806037815260200161283260379139611060670de0b6b3a76400006110488761105483838d8b63ffffffff61173f16565b9063ffffffff61179c16565b9063ffffffff61173f16565b919063ffffffff6117de16565b979650505050505050565b600080600080600080600061108d8c89611824565b93509350935093506000808c60ff166001146110aa5782846110ad565b83835b9150915060008d60ff166001146110c457866110c6565b855b90508d60ff168d60ff16141561112c578d60ff166001146110e757856110e9565b865b98506110f68984846119e5565b97506111258c6040518060600160405280602781526020016128b960279139611060848c63ffffffff611acb16565b99506111ac565b61115781604051806060016040528060298152602001612869602991398e919063ffffffff6117de16565b9750611164888484611b0a565b985060008e60ff16600114611179578661117b565b875b90506111a88a6040518060600160405280602781526020016128926027913983919063ffffffff6117de16565b9a50505b50505050505050955095509592505050565b6000808473ffffffffffffffffffffffffffffffffffffffff1663a9059cbb86856040518363ffffffff1660e01b81526004016111fc9291906122fd565b602060405180830381600087803b15801561121657600080fd5b505af115801561122a573d6000803e3d6000fd5b505050506040513d601f19601f8201168201806040525081019061124e9190611ec9565b50611258856104f2565b15611303576040517f95a2251f00000000000000000000000000000000000000000000000000000000815273ffffffffffffffffffffffffffffffffffffffff8616906395a2251f906112af908790600401612250565b602060405180830381600087803b1580156112c957600080fd5b505af11580156112dd573d6000803e3d6000fd5b505050506040513d601f19601f820116820180604052508101906113019190611feb565b505b6040517f89afcb4400000000000000000000000000000000000000000000000000000000815273ffffffffffffffffffffffffffffffffffffffff8516906389afcb4490611355903090600401612250565b6040805180830381600087803b15801561136e57600080fd5b505af1158015611382573d6000803e3d6000fd5b505050506040513d601f19601f820116820180604052508101906113a69190612003565b90969095509350505050565b60008060008473ffffffffffffffffffffffffffffffffffffffff16630dfe16816040518163ffffffff1660e01b815260040160206040518083038186803b1580156113fd57600080fd5b505afa158015611411573d6000803e3d6000fd5b505050506040513d601f19601f820116820180604052508101906114359190611d42565b905060008573ffffffffffffffffffffffffffffffffffffffff1663d21220a76040518163ffffffff1660e01b815260040160206040518083038186803b15801561147f57600080fd5b505afa158015611493573d6000803e3d6000fd5b505050506040513d601f19601f820116820180604052508101906114b79190611d42565b90508460ff166001146114cb5780826114ce565b81815b9097909650945050505050565b6114e6848685610d31565b6000808260ff166001146114fc57836000611500565b6000845b604080516000815260208101918290527f022c0d9f00000000000000000000000000000000000000000000000000000000909152919350915073ffffffffffffffffffffffffffffffffffffffff88169063022c0d9f9061156a908590859030906024810161270e565b600060405180830381600087803b15801561158457600080fd5b505af1158015611598573d6000803e3d6000fd5b5050505050505050505050565b60008060008573ffffffffffffffffffffffffffffffffffffffff1663bd9a548b6040518163ffffffff1660e01b81526004016040805180830381600087803b1580156115f157600080fd5b505af1158015611605573d6000803e3d6000fd5b505050506040513d601f19601f820116820180604052508101906116299190612003565b915091508460ff1660001461163e5780611640565b815b9250600061164d88610340565b90506000808273ffffffffffffffffffffffffffffffffffffffff16630902f1ac6040518163ffffffff1660e01b815260040160606040518083038186803b15801561169857600080fd5b505afa1580156116ac573d6000803e3d6000fd5b505050506040513d601f19601f820116820180604052508101906116d09190611f97565b506dffffffffffffffffffffffffffff1691506dffffffffffffffffffffffffffff16915060008860ff16600014611708578161170a565b825b9050611730611720826103e860038c0204611acb565b611048898463ffffffff61173f16565b9b9a5050505050505050505050565b60008261174e57506000611796565b8282028284828161175b57fe5b0414611793576040517f08c379a00000000000000000000000000000000000000000000000000000000081526004016108ad906124ec565b90505b92915050565b600061179383836040518060400160405280601a81526020017f536166654d6174683a206469766973696f6e206279207a65726f000000000000815250611be4565b6000818484111561181c576040517f08c379a00000000000000000000000000000000000000000000000000000000081526004016108ad919061232e565b505050900390565b600080600080600061183587610340565b905060008173ffffffffffffffffffffffffffffffffffffffff166318160ddd6040518163ffffffff1660e01b815260040160206040518083038186803b15801561187f57600080fd5b505afa158015611893573d6000803e3d6000fd5b505050506040513d601f19601f820116820180604052508101906118b79190611feb565b90506000808373ffffffffffffffffffffffffffffffffffffffff16630902f1ac6040518163ffffffff1660e01b815260040160606040518083038186803b15801561190257600080fd5b505afa158015611916573d6000803e3d6000fd5b505050506040513d601f19601f8201168201806040525081019061193a9190611f97565b506dffffffffffffffffffffffffffff9182169350169050611966836110488b8563ffffffff61173f16565b975061197c836110488b8463ffffffff61173f16565b96506119a9886040518060600160405280602881526020016127e26028913984919063ffffffff6117de16565b95506119d68760405180606001604052806028815260200161280a6028913983919063ffffffff6117de16565b94505050505092959194509250565b6000808411611a20576040517f08c379a00000000000000000000000000000000000000000000000000000000081526004016108ad906125a6565b600083118015611a305750600082115b611a66576040517f08c379a00000000000000000000000000000000000000000000000000000000081526004016108ad9061248f565b6000611a7a856103e563ffffffff61173f16565b90506000611a8e828563ffffffff61173f16565b90506000611ab483611aa8886103e863ffffffff61173f16565b9063ffffffff611acb16565b9050808281611abf57fe5b04979650505050505050565b600082820183811015611793576040517f08c379a00000000000000000000000000000000000000000000000000000000081526004016108ad9061239e565b6000808411611b45576040517f08c379a00000000000000000000000000000000000000000000000000000000081526004016108ad906123d5565b600083118015611b555750600082115b611b8b576040517f08c379a00000000000000000000000000000000000000000000000000000000081526004016108ad9061248f565b6000611ba36103e8611054868863ffffffff61173f16565b90506000611bbd6103e5611054868963ffffffff611c3516565b9050611bda6001828481611bcd57fe5b049063ffffffff611acb16565b9695505050505050565b60008183611c1f576040517f08c379a00000000000000000000000000000000000000000000000000000000081526004016108ad919061232e565b506000838581611c2b57fe5b0495945050505050565b600061179383836040518060400160405280601f81526020017f536166654d6174683a207375627472616374696f6e20756e646572666c6f77008152506117de565b6040805161012081018252600080825260208201819052918101829052606081018290526080810182905260a0810182905260c0810182905260e0810182905261010081019190915290565b8035611796816127a0565b60008083601f840112611cdf578182fd5b50813567ffffffffffffffff811115611cf6578182fd5b602083019150836020828501011115611d0e57600080fd5b9250929050565b803560ff8116811461179657600080fd5b600060208284031215611d37578081fd5b8135611793816127a0565b600060208284031215611d53578081fd5b8151611793816127a0565b600080600080600060808688031215611d75578081fd5b8535611d80816127a0565b94506020860135611d90816127a0565b935060408601359250606086013567ffffffffffffffff811115611db2578182fd5b611dbe88828901611cce565b969995985093965092949392505050565b60008060008060608587031215611de4578384fd5b8435611def816127a0565b935060208501359250604085013567ffffffffffffffff811115611e11578283fd5b611e1d87828801611cce565b95989497509550505050565b60008060408385031215611e3b578182fd5b8235611e46816127a0565b9150611e558460208501611d15565b90509250929050565b60008060008060008060c08789031215611e76578081fd5b8635611e81816127a0565b9550611e908860208901611d15565b9450611e9f8860408901611d15565b93506060870135611eaf816127a0565b9598949750929560808101359460a0909101359350915050565b600060208284031215611eda578081fd5b81518015158114611793578182fd5b6000610120808385031215611efc578182fd5b611f0581612749565b611f0f8585611cc3565b8152611f1e8560208601611cc3565b6020820152611f308560408601611cc3565b6040820152611f428560608601611d15565b6060820152611f548560808601611d15565b6080820152611f668560a08601611cc3565b60a082015260c084013560c082015260e084013560e082015261010091508184013582820152809250505092915050565b600080600060608486031215611fab578283fd5b8351611fb6816127c5565b6020850151909350611fc7816127c5565b604085015190925063ffffffff81168114611fe0578182fd5b809150509250925092565b600060208284031215611ffc578081fd5b5051919050565b60008060408385031215612015578182fd5b505080516020909101519092909150565b73ffffffffffffffffffffffffffffffffffffffff169052565b60008151808452612058816020860160208601612770565b601f017fffffffffffffffffffffffffffffffffffffffffffffffffffffffffffffffe0169290920160200192915050565b60ff169052565b7fffffffffffffffffffffffffffffffffffffffff000000000000000000000000606093841b811682529190921b16601482015260280190565b606093841b7fffffffffffffffffffffffffffffffffffffffff00000000000000000000000090811682529290931b909116601483015260f81b7fff0000000000000000000000000000000000000000000000000000000000000016602882015260290190565b60008251612144818460208701612770565b9190910192915050565b7fff00000000000000000000000000000000000000000000000000000000000000815260609290921b7fffffffffffffffffffffffffffffffffffffffff00000000000000000000000016600183015260158201527f4b8788d8761647e6330407671d3c6c80afaed3d047800dba0e0e3befde047767603582015260550190565b7fff00000000000000000000000000000000000000000000000000000000000000815260609290921b7fffffffffffffffffffffffffffffffffffffffff00000000000000000000000016600183015260158201527f605ba1db56496978613939baf0ae31dccceea3f5ca53dfaa76512bc880d7bb8f603582015260550190565b73ffffffffffffffffffffffffffffffffffffffff91909116815260200190565b600073ffffffffffffffffffffffffffffffffffffffff8516825283602083015260606040830152610f6c6060830184612040565b73ffffffffffffffffffffffffffffffffffffffff92831681529116602082015260400190565b73ffffffffffffffffffffffffffffffffffffffff93841681529183166020830152909116604082015260600190565b73ffffffffffffffffffffffffffffffffffffffff929092168252602082015260400190565b901515815260200190565b6000602082526117936020830184612040565b60208082526025908201527f4361706974616c467265654c697175696461746f723a20494e4445585f544f4f60408201527f5f48494748000000000000000000000000000000000000000000000000000000606082015260800190565b6020808252601b908201527f536166654d6174683a206164646974696f6e206f766572666c6f770000000000604082015260600190565b6020808252602c908201527f556e697377617056324c6962726172793a20494e53554646494349454e545f4f60408201527f55545055545f414d4f554e540000000000000000000000000000000000000000606082015260800190565b60208082526034908201527f5472616e7366657248656c7065723a3a736166655472616e736665724554483a60408201527f20455448207472616e73666572206661696c6564000000000000000000000000606082015260800190565b60208082526028908201527f556e697377617056324c6962726172793a20494e53554646494349454e545f4c60408201527f4951554944495459000000000000000000000000000000000000000000000000606082015260800190565b60208082526021908201527f536166654d6174683a206d756c7469706c69636174696f6e206f766572666c6f60408201527f7700000000000000000000000000000000000000000000000000000000000000606082015260800190565b6020808252602d908201527f5472616e7366657248656c7065723a3a736166655472616e736665723a20747260408201527f616e73666572206661696c656400000000000000000000000000000000000000606082015260800190565b6020808252602b908201527f556e697377617056324c6962726172793a20494e53554646494349454e545f4960408201527f4e5055545f414d4f554e54000000000000000000000000000000000000000000606082015260800190565b6020808252602a908201527f4361706974616c467265654c697175696461746f723a20494e5355464649434960408201527f454e545f50524f46495400000000000000000000000000000000000000000000606082015260800190565b815173ffffffffffffffffffffffffffffffffffffffff16815260208083015161012083019161269290840182612026565b5060408301516126a56040840182612026565b5060608301516126b8606084018261208a565b5060808301516126cb608084018261208a565b5060a08301516126de60a0840182612026565b5060c083015160c083015260e083015160e083015261010080840151818401525092915050565b90815260200190565b600085825284602083015273ffffffffffffffffffffffffffffffffffffffff8416604083015260806060830152611bda6080830184612040565b60405181810167ffffffffffffffff8111828210171561276857600080fd5b604052919050565b60005b8381101561278b578181015183820152602001612773565b8381111561279a576000848401525b50505050565b73ffffffffffffffffffffffffffffffffffffffff811681146127c257600080fd5b50565b6dffffffffffffffffffffffffffff811681146127c257600080fdfe4361706974616c467265654c69717569646174653a204e454741544956455f524553455256455f304361706974616c467265654c69717569646174653a204e454741544956455f524553455256455f314361706974616c467265654c69717569646174653a205a45524f5f434f4c4c41544552414c5f414d4f554e54202866726f6e7472756e294361706974616c467265654c69717569646174653a204e454741544956455f414d4f554e545f4f55544361706974616c467265654c69717569646174653a204e454741544956455f50524f4649545f324361706974616c467265654c69717569646174653a204e454741544956455f50524f4649545f31a26469706673582212206f8fc7fd207f707aebf1e7669f11e81ca53d48a802c675b7f2ab9f299353fddc64736f6c63430006060033",
  "immutableReferences": {
    "1019": [
      {
        "length": 32,
        "start": 1118
      },
      {
        "length": 32,
        "start": 2047
      },
      {
        "length": 32,
        "start": 2739
      }
    ],
    "1022": [
      {
        "length": 32,
        "start": 2607
      },
      {
        "length": 32,
        "start": 2706
      }
    ],
    "1025": [
      {
        "length": 32,
        "start": 1040
      },
      {
        "length": 32,
        "start": 1085
      }
    ],
    "1028": [
      {
        "length": 32,
        "start": 254
      },
      {
        "length": 32,
        "start": 1514
      },
      {
        "length": 32,
        "start": 1717
      },
      {
        "length": 32,
        "start": 1860
      }
    ]
  },
  "source": "pragma solidity =0.6.6;\r\npragma experimental ABIEncoderV2;\r\n\r\nimport \"./interfaces/ICapitalFreeLiquidate.sol\";\r\nimport \"./interfaces/IBorrowable.sol\";\r\nimport \"./interfaces/ICollateral.sol\";\r\nimport \"./interfaces/IImpermaxCallee.sol\";\r\nimport \"./interfaces/IERC20.sol\";\r\nimport \"./interfaces/IWETH.sol\";\r\nimport \"./interfaces/IUniswapV2Pair.sol\";\r\nimport \"./interfaces/IStakedLPToken01.sol\";\r\nimport \"./libraries/SafeMath.sol\";\r\nimport \"./libraries/TransferHelper.sol\";\r\nimport \"./libraries/UniswapV2Library.sol\";\r\n\r\n// This assumes that the borrower has enough collateral to repay\r\n// The chance that this is not true is low and the check isn't worth the additional gas cost\r\n// The check should be done off chain, and the caller should use the right liquidateAmount parameter\r\n// Another problem is the slippage, so it may be convenient to liquidate large amounts in multiple rounds\r\n\r\n// TODO: bot to liquidate both sides at the same time?\r\n\r\ncontract CapitalFreeLiquidate02 is ICapitalFreeLiquidate, IImpermaxCallee {\r\n\tusing SafeMath for uint;\r\n\r\n\taddress public immutable override factory;\r\n\taddress public immutable override bDeployer;\r\n\taddress public immutable override cDeployer;\r\n\taddress public immutable override WETH;\r\n\t\r\n\taddress public override to;\r\n\r\n\tconstructor(address _factory, address _bDeployer, address _cDeployer, address _WETH, address _to) public {\r\n\t\tfactory = _factory;\r\n\t\tbDeployer = _bDeployer;\r\n\t\tcDeployer = _cDeployer;\r\n\t\tWETH = _WETH;\r\n\t\tto = _to;\r\n\t}\r\n\r\n\treceive() external payable {\r\n\t\tassert(msg.sender == WETH); // only accept ETH via fallback from the WETH contract\r\n\t}\r\n\t\r\n\tfunction _burn(\r\n\t\taddress underlying, \r\n\t\taddress uniswapV2Pair, \r\n\t\tuint collateralAmount\r\n\t) internal virtual returns (uint amount0, uint amount1) {\r\n\t\tIUniswapV2Pair(underlying).transfer(underlying, collateralAmount);\r\n\t\tif (isStakedLPToken(underlying)) IStakedLPToken01(underlying).redeem(uniswapV2Pair);\r\n\t\t(amount0, amount1) = IUniswapV2Pair(uniswapV2Pair).burn(address(this));\r\n\t}\r\n\t\r\n\tfunction _swap(\r\n\t\taddress uniswapV2Pair, \r\n\t\taddress tokenIn, \r\n\t\tuint amountIn, \r\n\t\tuint amountOut, \r\n\t\tuint8 index\r\n\t) internal virtual {\r\n\t\tTransferHelper.safeTransfer(tokenIn, uniswapV2Pair, amountIn);\r\n\t\t(uint amount0Out, uint amount1Out) = index == 1 ? (uint(0), amountOut) : (amountOut, uint(0));\r\n\t\tIUniswapV2Pair(uniswapV2Pair).swap(amount0Out, amount1Out, address(this), new bytes(0));\r\n\t}\r\n\t\r\n\tfunction _liquidateAmount(\r\n\t\taddress borrowable,\r\n\t\tuint amountMax,\r\n\t\taddress borrower\r\n\t) internal virtual returns (uint amount) {\r\n\t\tIBorrowable(borrowable).accrueInterest();\r\n\t\tuint borrowedAmount = IBorrowable(borrowable).borrowBalance(borrower);\r\n\t\tamount = amountMax < borrowedAmount ? amountMax : borrowedAmount;\r\n\t}\r\n\t\r\n\tfunction _getBorrowablePrice(\r\n\t\taddress underlying,\r\n\t\taddress collateral,\r\n\t\tuint8 index,\r\n\t\tuint swapAmount\r\n\t) internal virtual returns (uint price) {\r\n\t\t(uint price0, uint price1) = ICollateral(collateral).getPrices();\r\n\t\tprice = index == 0 ? price0 : price1;\r\n\t\taddress uniswapV2Pair = getUniswapV2Pair(underlying);\r\n\t\t(uint reserve0, uint reserve1,) = IUniswapV2Pair(uniswapV2Pair).getReserves();\r\n\t\tuint reserve = index == 0 ? reserve0 : reserve1;\r\n\t\t// Account for LP appreciation after swap\r\n\t\tprice = price.mul(reserve).div(reserve.add(swapAmount * 3 / 1000));\r\n\t}\r\n\t\r\n\tfunction _getExpectedCollateralAmount(\r\n\t\taddress underlying,\r\n\t\taddress collateral,\r\n\t\tuint8 toLiquidateIndex,\r\n\t\tuint liquidateAmount\r\n\t) internal virtual returns (uint collateralAmount) {\r\n\t\tuint price = _getBorrowablePrice(underlying, collateral, toLiquidateIndex, liquidateAmount);\r\n\t\tuint liquidationIncentive = ICollateral(collateral).liquidationIncentive();\r\n\t\tcollateralAmount = liquidateAmount.mul(liquidationIncentive).div(1e18).mul(price).div(1e18).sub(1, \"CapitalFreeLiquidate: ZERO_COLLATERAL_AMOUNT (frontrun)\");\r\n\t}\r\n\t\r\n\tfunction _simulateBurn(\r\n\t\taddress underlying,\r\n\t\tuint collateralAmount\r\n\t) internal virtual view returns (uint amount0, uint amount1, uint reserve0, uint reserve1) {\r\n\t\taddress uniswapV2Pair = getUniswapV2Pair(underlying);\r\n\t\tuint totalSupply = IUniswapV2Pair(uniswapV2Pair).totalSupply();\r\n\t\t(uint reserve0Old, uint reserve1Old,) = IUniswapV2Pair(uniswapV2Pair).getReserves();\r\n\t\tamount0 = collateralAmount.mul(reserve0Old).div(totalSupply);\r\n\t\tamount1 = collateralAmount.mul(reserve1Old).div(totalSupply);\r\n\t\treserve0 = reserve0Old.sub(amount0, \"CapitalFreeLiquidate: NEGATIVE_RESERVE_0\");\r\n\t\treserve1 = reserve1Old.sub(amount1, \"CapitalFreeLiquidate: NEGATIVE_RESERVE_1\");\r\n\t}\r\n\r\n\tfunction _getLiquidateProfit(\r\n\t\taddress underlying,\r\n\t\tuint8 toLiquidateIndex,\r\n\t\tuint8 takeProfitIndex,\r\n\t\tuint liquidateAmount,\r\n\t\tuint collateralAmount\r\n\t) internal virtual view returns (uint profit, uint amountIn, uint amountOut) {\r\n\t\t(uint amount0, uint amount1, uint reserve0, uint reserve1) = _simulateBurn(underlying, collateralAmount);\r\n\t\t(uint reserveIn, uint reserveOut) = toLiquidateIndex == 1 ? (reserve0, reserve1) : (reserve1, reserve0);\r\n\t\tuint amountOutBalance = toLiquidateIndex == 1 ? amount1 : amount0;\r\n\t\tif (takeProfitIndex == toLiquidateIndex) {\r\n\t\t\t// Swap all\r\n\t\t\tamountIn = toLiquidateIndex == 1 ? amount0 : amount1;\r\n\t\t\tamountOut = UniswapV2Library.getAmountOut(amountIn, reserveIn, reserveOut);\r\n\t\t\tprofit = amountOutBalance.add(amountOut).sub(liquidateAmount, \"CapitalFreeLiquidate: NEGATIVE_PROFIT_1\");\r\n\t\t}\r\n\t\telse {\r\n\t\t\t// Swap only necessary\r\n\t\t\tamountOut = liquidateAmount.sub(amountOutBalance, \"CapitalFreeLiquidate: NEGATIVE_AMOUNT_OUT\");\r\n\t\t\tamountIn = UniswapV2Library.getAmountIn(amountOut, reserveIn, reserveOut);\r\n\t\t\tuint amountInBalance = toLiquidateIndex == 1 ? amount0 : amount1;\r\n\t\t\tprofit = amountInBalance.sub(amountIn, \"CapitalFreeLiquidate: NEGATIVE_PROFIT_2\");\r\n\t\t}\r\n\t}\r\n\t\r\n\tfunction _getTokenInTokenOut(\r\n\t\taddress underlying,\r\n\t\tuint8 index\r\n\t) internal virtual view returns (address tokenIn, address tokenOut) {\r\n\t\taddress token0 = IUniswapV2Pair(underlying).token0();\r\n\t\taddress token1 = IUniswapV2Pair(underlying).token1();\r\n\t\t(tokenIn, tokenOut) = index == 1 ? (token0, token1) : (token1, token0);\r\n\t}\r\n\t\r\n\tfunction liquidate(\r\n\t\taddress underlying,\r\n\t\tuint8 toLiquidateIndex,\r\n\t\tuint8 takeProfitIndex,\r\n\t\taddress borrower,\r\n\t\tuint liquidateAmountMax,\r\n\t\tuint profitMin\r\n\t) external virtual override returns (uint profit) {\r\n\t\taddress collateral = getCollateral(underlying);\t\t\r\n\t\taddress borrowable = getBorrowable(underlying, toLiquidateIndex);\r\n\t\tuint liquidateAmount = _liquidateAmount(borrowable, liquidateAmountMax, borrower);\r\n\t\tuint collateralAmount = _getExpectedCollateralAmount(underlying, collateral, toLiquidateIndex, liquidateAmount);\r\n\t\tuint amountIn;\r\n\t\tuint amountOut;\r\n\t\t(profit, amountIn, amountOut) = \r\n\t\t\t_getLiquidateProfit(underlying, toLiquidateIndex, takeProfitIndex, liquidateAmount, collateralAmount);\r\n\t\trequire(profit >= profitMin, \"CapitalFreeLiquidator: INSUFFICIENT_PROFIT\");\r\n\t\tbytes memory data = abi.encode(CalleeData({\r\n\t\t\tunderlying: underlying,\r\n\t\t\tcollateral: collateral,\r\n\t\t\tborrowable: borrowable,\r\n\t\t\ttoLiquidateIndex: toLiquidateIndex,\r\n\t\t\ttakeProfitIndex: takeProfitIndex,\r\n\t\t\tborrower: borrower,\r\n\t\t\tamountIn: amountIn,\r\n\t\t\tamountOut: amountOut,\r\n\t\t\tliquidateAmount: liquidateAmount\r\n\t\t}));\r\n\t\tICollateral(collateral).flashRedeem(address(this), collateralAmount, data);\r\n\t}\r\n\t\r\n\tfunction liquidateCallback(\r\n\t\taddress underlying,\r\n\t\taddress collateral,\r\n\t\taddress borrowable,\r\n\t\tuint8 toLiquidateIndex,\r\n\t\tuint8 takeProfitIndex,\r\n\t\taddress borrower,\r\n\t\tuint amountIn,\r\n\t\tuint amountOut,\r\n\t\tuint liquidateAmount,\r\n\t\tuint collateralAmount\r\n\t) internal virtual {\r\n\t\taddress uniswapV2Pair = getUniswapV2Pair(underlying);\r\n\t\t_burn(underlying, uniswapV2Pair, collateralAmount);\r\n\t\t(address tokenIn, address tokenOut) = _getTokenInTokenOut(underlying, toLiquidateIndex);\r\n\t\t_swap(uniswapV2Pair, tokenIn, amountIn, amountOut, toLiquidateIndex);\r\n\t\tTransferHelper.safeTransfer(tokenOut, borrowable, liquidateAmount);\r\n\t\tuint seizeTokens = IBorrowable(borrowable).liquidate(borrower, address(this));\r\n\t\tTransferHelper.safeTransfer(collateral, collateral, seizeTokens);\r\n\t\tif (toLiquidateIndex == takeProfitIndex) skim(tokenOut);\r\n\t\telse skim(tokenIn);\r\n\t}\r\n\t\r\n\tstruct CalleeData {\r\n\t\taddress underlying;\r\n\t\taddress collateral;\r\n\t\taddress borrowable;\r\n\t\tuint8 toLiquidateIndex;\r\n\t\tuint8 takeProfitIndex;\r\n\t\taddress borrower;\r\n\t\tuint amountIn;\r\n\t\tuint amountOut;\r\n\t\tuint liquidateAmount;\r\n\t}\r\n\t\r\n\tfunction impermaxRedeem(address sender, uint redeemAmount, bytes calldata data) external virtual override {\r\n\t\tsender;\r\n\t\t// no security check needed\r\n\t\tCalleeData memory calleeData = abi.decode(data, (CalleeData));\r\n\t\tliquidateCallback(\r\n\t\t\tcalleeData.underlying,\r\n\t\t\tcalleeData.collateral,\r\n\t\t\tcalleeData.borrowable,\r\n\t\t\tcalleeData.toLiquidateIndex,\r\n\t\t\tcalleeData.takeProfitIndex,\r\n\t\t\tcalleeData.borrower,\r\n\t\t\tcalleeData.amountIn,\r\n\t\t\tcalleeData.amountOut,\r\n\t\t\tcalleeData.liquidateAmount,\r\n\t\t\tredeemAmount\r\n\t\t);\r\n\t}\r\n\r\n\tfunction impermaxBorrow(address sender, address borrower, uint borrowAmount, bytes calldata data) external virtual override { sender; borrower; borrowAmount; data; }\r\n\t\r\n\tfunction skim(address token) public virtual override {\r\n\t\tuint balance = IERC20(token).balanceOf(address(this));\r\n\t\tif (token == WETH) {\t\t\r\n\t\t\tIWETH(WETH).withdraw(balance);\r\n\t\t\tTransferHelper.safeTransferETH(to, balance);\r\n\t\t}\r\n\t\telse TransferHelper.safeTransfer(token, to, balance);\r\n\t}\r\n\t\r\n\t/*** UTILITIES ***/\r\n\t\r\n\tfunction isStakedLPToken(address underlying) public virtual view returns(bool) {\r\n\t\ttry IStakedLPToken01(underlying).isStakedLPToken() returns (bool result) {\r\n\t\t\treturn result;\r\n\t\t} catch {\r\n\t\t\treturn false;\r\n\t\t}\r\n\t}\r\n\tfunction getUniswapV2Pair(address underlying) public virtual view returns (address) {\r\n\t\ttry IStakedLPToken01(underlying).underlying() returns (address u) {\r\n\t\t\tif (u != address(0)) return u;\r\n\t\t\treturn underlying;\r\n\t\t} catch {\r\n\t\t\treturn underlying;\r\n\t\t}\r\n\t}\r\n\t\r\n\tfunction getBorrowable(address underlying, uint8 index) public virtual override view returns (address borrowable) {\r\n\t\trequire(index < 2, \"CapitalFreeLiquidator: INDEX_TOO_HIGH\");\r\n\t\tborrowable = address(uint(keccak256(abi.encodePacked(\r\n\t\t\thex\"ff\",\r\n\t\t\tbDeployer,\r\n\t\t\tkeccak256(abi.encodePacked(factory, underlying, index)),\r\n\t\t\thex\"605ba1db56496978613939baf0ae31dccceea3f5ca53dfaa76512bc880d7bb8f\" // Borrowable bytecode keccak256\r\n\t\t))));\r\n\t}\r\n\tfunction getCollateral(address underlying) public virtual override view returns (address collateral) {\r\n\t\tcollateral = address(uint(keccak256(abi.encodePacked(\r\n\t\t\thex\"ff\",\r\n\t\t\tcDeployer,\r\n\t\t\tkeccak256(abi.encodePacked(factory, underlying)),\r\n\t\t\thex\"4b8788d8761647e6330407671d3c6c80afaed3d047800dba0e0e3befde047767\" // Collateral bytecode keccak256\r\n\t\t))));\r\n\t}\r\n\tfunction getLendingPool(address underlying) public virtual override view returns (address collateral, address borrowableA, address borrowableB) {\r\n\t\tcollateral = getCollateral(underlying);\r\n\t\tborrowableA = getBorrowable(underlying, 0);\r\n\t\tborrowableB = getBorrowable(underlying, 1);\r\n\t}\r\n}\r\n",
  "sourcePath": "C:/Users/simor/Desktop/impermax-x-uniswapv2-periphery/contracts/CapitalFreeLiquidate02.sol",
  "compiler": {
    "name": "solc",
    "version": "0.6.6+commit.6c089d02.Emscripten.clang"
  },
  "schemaVersion": "3.3.2",
  "updatedAt": "2021-06-20T16:49:13.134Z",
  "devdoc": {
    "methods": {}
  },
  "userdoc": {
    "methods": {
      "isStakedLPToken(address)": {
        "notice": "* UTILITIES **"
      }
    }
  }
}