{
  "contractName": "Collateral",
  "abi": [
    {
      "inputs": [],
      "payable": false,
      "stateMutability": "nonpayable",
      "type": "constructor"
    },
    {
      "anonymous": false,
      "inputs": [
        {
          "indexed": true,
          "internalType": "address",
          "name": "owner",
          "type": "address"
        },
        {
          "indexed": true,
          "internalType": "address",
          "name": "spender",
          "type": "address"
        },
        {
          "indexed": false,
          "internalType": "uint256",
          "name": "value",
          "type": "uint256"
        }
      ],
      "name": "Approval",
      "type": "event"
    },
    {
      "anonymous": false,
      "inputs": [
        {
          "indexed": true,
          "internalType": "address",
          "name": "sender",
          "type": "address"
        },
        {
          "indexed": true,
          "internalType": "address",
          "name": "minter",
          "type": "address"
        },
        {
          "indexed": false,
          "internalType": "uint256",
          "name": "mintAmount",
          "type": "uint256"
        },
        {
          "indexed": false,
          "internalType": "uint256",
          "name": "mintTokens",
          "type": "uint256"
        }
      ],
      "name": "Mint",
      "type": "event"
    },
    {
      "anonymous": false,
      "inputs": [
        {
          "indexed": false,
          "internalType": "uint256",
          "name": "newLiquidationIncentive",
          "type": "uint256"
        }
      ],
      "name": "NewLiquidationIncentive",
      "type": "event"
    },
    {
      "anonymous": false,
      "inputs": [
        {
          "indexed": false,
          "internalType": "uint256",
          "name": "newSafetyMarginSqrt",
          "type": "uint256"
        }
      ],
      "name": "NewSafetyMargin",
      "type": "event"
    },
    {
      "anonymous": false,
      "inputs": [
        {
          "indexed": true,
          "internalType": "address",
          "name": "sender",
          "type": "address"
        },
        {
          "indexed": true,
          "internalType": "address",
          "name": "redeemer",
          "type": "address"
        },
        {
          "indexed": false,
          "internalType": "uint256",
          "name": "redeemAmount",
          "type": "uint256"
        },
        {
          "indexed": false,
          "internalType": "uint256",
          "name": "redeemTokens",
          "type": "uint256"
        }
      ],
      "name": "Redeem",
      "type": "event"
    },
    {
      "anonymous": false,
      "inputs": [
        {
          "indexed": false,
          "internalType": "uint256",
          "name": "totalBalance",
          "type": "uint256"
        }
      ],
      "name": "Sync",
      "type": "event"
    },
    {
      "anonymous": false,
      "inputs": [
        {
          "indexed": true,
          "internalType": "address",
          "name": "from",
          "type": "address"
        },
        {
          "indexed": true,
          "internalType": "address",
          "name": "to",
          "type": "address"
        },
        {
          "indexed": false,
          "internalType": "uint256",
          "name": "value",
          "type": "uint256"
        }
      ],
      "name": "Transfer",
      "type": "event"
    },
    {
      "constant": true,
      "inputs": [],
      "name": "DOMAIN_SEPARATOR",
      "outputs": [
        {
          "internalType": "bytes32",
          "name": "",
          "type": "bytes32"
        }
      ],
      "payable": false,
      "stateMutability": "view",
      "type": "function"
    },
    {
      "constant": true,
      "inputs": [],
      "name": "LIQUIDATION_INCENTIVE_MAX",
      "outputs": [
        {
          "internalType": "uint256",
          "name": "",
          "type": "uint256"
        }
      ],
      "payable": false,
      "stateMutability": "view",
      "type": "function"
    },
    {
      "constant": true,
      "inputs": [],
      "name": "LIQUIDATION_INCENTIVE_MIN",
      "outputs": [
        {
          "internalType": "uint256",
          "name": "",
          "type": "uint256"
        }
      ],
      "payable": false,
      "stateMutability": "view",
      "type": "function"
    },
    {
      "constant": true,
      "inputs": [],
      "name": "MINIMUM_LIQUIDITY",
      "outputs": [
        {
          "internalType": "uint256",
          "name": "",
          "type": "uint256"
        }
      ],
      "payable": false,
      "stateMutability": "view",
      "type": "function"
    },
    {
      "constant": true,
      "inputs": [],
      "name": "PERMIT_TYPEHASH",
      "outputs": [
        {
          "internalType": "bytes32",
          "name": "",
          "type": "bytes32"
        }
      ],
      "payable": false,
      "stateMutability": "view",
      "type": "function"
    },
    {
      "constant": true,
      "inputs": [],
      "name": "SAFETY_MARGIN_SQRT_MAX",
      "outputs": [
        {
          "internalType": "uint256",
          "name": "",
          "type": "uint256"
        }
      ],
      "payable": false,
      "stateMutability": "view",
      "type": "function"
    },
    {
      "constant": true,
      "inputs": [],
      "name": "SAFETY_MARGIN_SQRT_MIN",
      "outputs": [
        {
          "internalType": "uint256",
          "name": "",
          "type": "uint256"
        }
      ],
      "payable": false,
      "stateMutability": "view",
      "type": "function"
    },
    {
      "constant": false,
      "inputs": [
        {
          "internalType": "string",
          "name": "_name",
          "type": "string"
        },
        {
          "internalType": "string",
          "name": "_symbol",
          "type": "string"
        },
        {
          "internalType": "address",
          "name": "_underlying",
          "type": "address"
        },
        {
          "internalType": "address",
          "name": "_borrowable0",
          "type": "address"
        },
        {
          "internalType": "address",
          "name": "_borrowable1",
          "type": "address"
        }
      ],
      "name": "_initialize",
      "outputs": [],
      "payable": false,
      "stateMutability": "nonpayable",
      "type": "function"
    },
    {
      "constant": false,
      "inputs": [],
      "name": "_setFactory",
      "outputs": [],
      "payable": false,
      "stateMutability": "nonpayable",
      "type": "function"
    },
    {
      "constant": false,
      "inputs": [
        {
          "internalType": "uint256",
          "name": "newLiquidationIncentive",
          "type": "uint256"
        }
      ],
      "name": "_setLiquidationIncentive",
      "outputs": [],
      "payable": false,
      "stateMutability": "nonpayable",
      "type": "function"
    },
    {
      "constant": false,
      "inputs": [
        {
          "internalType": "uint256",
          "name": "newSafetyMarginSqrt",
          "type": "uint256"
        }
      ],
      "name": "_setSafetyMarginSqrt",
      "outputs": [],
      "payable": false,
      "stateMutability": "nonpayable",
      "type": "function"
    },
    {
      "constant": true,
      "inputs": [
        {
          "internalType": "address",
          "name": "",
          "type": "address"
        },
        {
          "internalType": "address",
          "name": "",
          "type": "address"
        }
      ],
      "name": "allowance",
      "outputs": [
        {
          "internalType": "uint256",
          "name": "",
          "type": "uint256"
        }
      ],
      "payable": false,
      "stateMutability": "view",
      "type": "function"
    },
    {
      "constant": false,
      "inputs": [
        {
          "internalType": "address",
          "name": "spender",
          "type": "address"
        },
        {
          "internalType": "uint256",
          "name": "value",
          "type": "uint256"
        }
      ],
      "name": "approve",
      "outputs": [
        {
          "internalType": "bool",
          "name": "",
          "type": "bool"
        }
      ],
      "payable": false,
      "stateMutability": "nonpayable",
      "type": "function"
    },
    {
      "constant": true,
      "inputs": [
        {
          "internalType": "address",
          "name": "",
          "type": "address"
        }
      ],
      "name": "balanceOf",
      "outputs": [
        {
          "internalType": "uint256",
          "name": "",
          "type": "uint256"
        }
      ],
      "payable": false,
      "stateMutability": "view",
      "type": "function"
    },
    {
      "constant": true,
      "inputs": [],
      "name": "borrowable0",
      "outputs": [
        {
          "internalType": "address",
          "name": "",
          "type": "address"
        }
      ],
      "payable": false,
      "stateMutability": "view",
      "type": "function"
    },
    {
      "constant": true,
      "inputs": [],
      "name": "borrowable1",
      "outputs": [
        {
          "internalType": "address",
          "name": "",
          "type": "address"
        }
      ],
      "payable": false,
      "stateMutability": "view",
      "type": "function"
    },
    {
      "constant": true,
      "inputs": [],
      "name": "decimals",
      "outputs": [
        {
          "internalType": "uint8",
          "name": "",
          "type": "uint8"
        }
      ],
      "payable": false,
      "stateMutability": "view",
      "type": "function"
    },
    {
      "constant": false,
      "inputs": [],
      "name": "exchangeRate",
      "outputs": [
        {
          "internalType": "uint256",
          "name": "",
          "type": "uint256"
        }
      ],
      "payable": false,
      "stateMutability": "nonpayable",
      "type": "function"
    },
    {
      "constant": true,
      "inputs": [],
      "name": "factory",
      "outputs": [
        {
          "internalType": "address",
          "name": "",
          "type": "address"
        }
      ],
      "payable": false,
      "stateMutability": "view",
      "type": "function"
    },
    {
      "constant": true,
      "inputs": [],
      "name": "liquidationIncentive",
      "outputs": [
        {
          "internalType": "uint256",
          "name": "",
          "type": "uint256"
        }
      ],
      "payable": false,
      "stateMutability": "view",
      "type": "function"
    },
    {
      "constant": false,
      "inputs": [
        {
          "internalType": "address",
          "name": "minter",
          "type": "address"
        }
      ],
      "name": "mint",
      "outputs": [
        {
          "internalType": "uint256",
          "name": "mintTokens",
          "type": "uint256"
        }
      ],
      "payable": false,
      "stateMutability": "nonpayable",
      "type": "function"
    },
    {
      "constant": true,
      "inputs": [],
      "name": "name",
      "outputs": [
        {
          "internalType": "string",
          "name": "",
          "type": "string"
        }
      ],
      "payable": false,
      "stateMutability": "view",
      "type": "function"
    },
    {
      "constant": true,
      "inputs": [
        {
          "internalType": "address",
          "name": "",
          "type": "address"
        }
      ],
      "name": "nonces",
      "outputs": [
        {
          "internalType": "uint256",
          "name": "",
          "type": "uint256"
        }
      ],
      "payable": false,
      "stateMutability": "view",
      "type": "function"
    },
    {
      "constant": false,
      "inputs": [
        {
          "internalType": "address",
          "name": "owner",
          "type": "address"
        },
        {
          "internalType": "address",
          "name": "spender",
          "type": "address"
        },
        {
          "internalType": "uint256",
          "name": "value",
          "type": "uint256"
        },
        {
          "internalType": "uint256",
          "name": "deadline",
          "type": "uint256"
        },
        {
          "internalType": "uint8",
          "name": "v",
          "type": "uint8"
        },
        {
          "internalType": "bytes32",
          "name": "r",
          "type": "bytes32"
        },
        {
          "internalType": "bytes32",
          "name": "s",
          "type": "bytes32"
        }
      ],
      "name": "permit",
      "outputs": [],
      "payable": false,
      "stateMutability": "nonpayable",
      "type": "function"
    },
    {
      "constant": false,
      "inputs": [
        {
          "internalType": "address",
          "name": "redeemer",
          "type": "address"
        }
      ],
      "name": "redeem",
      "outputs": [
        {
          "internalType": "uint256",
          "name": "redeemAmount",
          "type": "uint256"
        }
      ],
      "payable": false,
      "stateMutability": "nonpayable",
      "type": "function"
    },
    {
      "constant": true,
      "inputs": [],
      "name": "safetyMarginSqrt",
      "outputs": [
        {
          "internalType": "uint256",
          "name": "",
          "type": "uint256"
        }
      ],
      "payable": false,
      "stateMutability": "view",
      "type": "function"
    },
    {
      "constant": true,
      "inputs": [],
      "name": "simpleUniswapOracle",
      "outputs": [
        {
          "internalType": "address",
          "name": "",
          "type": "address"
        }
      ],
      "payable": false,
      "stateMutability": "view",
      "type": "function"
    },
    {
      "constant": false,
      "inputs": [
        {
          "internalType": "address",
          "name": "to",
          "type": "address"
        }
      ],
      "name": "skim",
      "outputs": [],
      "payable": false,
      "stateMutability": "nonpayable",
      "type": "function"
    },
    {
      "constant": true,
      "inputs": [],
      "name": "symbol",
      "outputs": [
        {
          "internalType": "string",
          "name": "",
          "type": "string"
        }
      ],
      "payable": false,
      "stateMutability": "view",
      "type": "function"
    },
    {
      "constant": false,
      "inputs": [],
      "name": "sync",
      "outputs": [],
      "payable": false,
      "stateMutability": "nonpayable",
      "type": "function"
    },
    {
      "constant": true,
      "inputs": [],
      "name": "totalBalance",
      "outputs": [
        {
          "internalType": "uint256",
          "name": "",
          "type": "uint256"
        }
      ],
      "payable": false,
      "stateMutability": "view",
      "type": "function"
    },
    {
      "constant": true,
      "inputs": [],
      "name": "totalSupply",
      "outputs": [
        {
          "internalType": "uint256",
          "name": "",
          "type": "uint256"
        }
      ],
      "payable": false,
      "stateMutability": "view",
      "type": "function"
    },
    {
      "constant": false,
      "inputs": [
        {
          "internalType": "address",
          "name": "to",
          "type": "address"
        },
        {
          "internalType": "uint256",
          "name": "value",
          "type": "uint256"
        }
      ],
      "name": "transfer",
      "outputs": [
        {
          "internalType": "bool",
          "name": "",
          "type": "bool"
        }
      ],
      "payable": false,
      "stateMutability": "nonpayable",
      "type": "function"
    },
    {
      "constant": false,
      "inputs": [
        {
          "internalType": "address",
          "name": "from",
          "type": "address"
        },
        {
          "internalType": "address",
          "name": "to",
          "type": "address"
        },
        {
          "internalType": "uint256",
          "name": "value",
          "type": "uint256"
        }
      ],
      "name": "transferFrom",
      "outputs": [
        {
          "internalType": "bool",
          "name": "",
          "type": "bool"
        }
      ],
      "payable": false,
      "stateMutability": "nonpayable",
      "type": "function"
    },
    {
      "constant": true,
      "inputs": [],
      "name": "underlying",
      "outputs": [
        {
          "internalType": "address",
          "name": "",
          "type": "address"
        }
      ],
      "payable": false,
      "stateMutability": "view",
      "type": "function"
    },
    {
      "constant": false,
      "inputs": [],
      "name": "getPrices",
      "outputs": [
        {
          "internalType": "uint256",
          "name": "price0",
          "type": "uint256"
        },
        {
          "internalType": "uint256",
          "name": "price1",
          "type": "uint256"
        }
      ],
      "payable": false,
      "stateMutability": "nonpayable",
      "type": "function"
    },
    {
      "constant": false,
      "inputs": [
        {
          "internalType": "address",
          "name": "from",
          "type": "address"
        },
        {
          "internalType": "uint256",
          "name": "value",
          "type": "uint256"
        }
      ],
      "name": "tokensUnlocked",
      "outputs": [
        {
          "internalType": "bool",
          "name": "",
          "type": "bool"
        }
      ],
      "payable": false,
      "stateMutability": "nonpayable",
      "type": "function"
    },
    {
      "constant": false,
      "inputs": [
        {
          "internalType": "address",
          "name": "borrower",
          "type": "address"
        },
        {
          "internalType": "uint256",
          "name": "amount0",
          "type": "uint256"
        },
        {
          "internalType": "uint256",
          "name": "amount1",
          "type": "uint256"
        }
      ],
      "name": "accountLiquidityAmounts",
      "outputs": [
        {
          "internalType": "uint256",
          "name": "liquidity",
          "type": "uint256"
        },
        {
          "internalType": "uint256",
          "name": "shortfall",
          "type": "uint256"
        }
      ],
      "payable": false,
      "stateMutability": "nonpayable",
      "type": "function"
    },
    {
      "constant": false,
      "inputs": [
        {
          "internalType": "address",
          "name": "borrower",
          "type": "address"
        }
      ],
      "name": "accountLiquidity",
      "outputs": [
        {
          "internalType": "uint256",
          "name": "liquidity",
          "type": "uint256"
        },
        {
          "internalType": "uint256",
          "name": "shortfall",
          "type": "uint256"
        }
      ],
      "payable": false,
      "stateMutability": "nonpayable",
      "type": "function"
    },
    {
      "constant": false,
      "inputs": [
        {
          "internalType": "address",
          "name": "borrower",
          "type": "address"
        },
        {
          "internalType": "address",
          "name": "borrowable",
          "type": "address"
        },
        {
          "internalType": "uint256",
          "name": "accountBorrows",
          "type": "uint256"
        }
      ],
      "name": "canBorrow",
      "outputs": [
        {
          "internalType": "bool",
          "name": "",
          "type": "bool"
        }
      ],
      "payable": false,
      "stateMutability": "nonpayable",
      "type": "function"
    },
    {
      "constant": false,
      "inputs": [
        {
          "internalType": "address",
          "name": "liquidator",
          "type": "address"
        },
        {
          "internalType": "address",
          "name": "borrower",
          "type": "address"
        },
        {
          "internalType": "uint256",
          "name": "repayAmount",
          "type": "uint256"
        }
      ],
      "name": "seize",
      "outputs": [
        {
          "internalType": "uint256",
          "name": "seizeTokens",
          "type": "uint256"
        }
      ],
      "payable": false,
      "stateMutability": "nonpayable",
      "type": "function"
    },
    {
      "constant": false,
      "inputs": [
        {
          "internalType": "address",
          "name": "redeemer",
          "type": "address"
        },
        {
          "internalType": "uint256",
          "name": "redeemAmount",
          "type": "uint256"
        },
        {
          "internalType": "bytes",
          "name": "data",
          "type": "bytes"
        }
      ],
      "name": "flashRedeem",
      "outputs": [],
      "payable": false,
      "stateMutability": "nonpayable",
      "type": "function"
    }
  ],
  "bytecode": "0x60806040526002805460ff19908116601217909155600b805490911660011790556715f155637eba0c00600e55670e6ed27d66680000600f5534801561004457600080fd5b50613bb2806100546000396000f3fe608060405234801561001057600080fd5b50600436106102de5760003560e01c80637ecebe0011610186578063bb6ff386116100e3578063c548e3c511610097578063daf8881811610071578063daf8881814610971578063dd62ed3e14610979578063fff6cae9146109b4576102de565b8063c548e3c514610821578063d490e7e01461090b578063d505accf14610913576102de565b8063bc9bd12a116100c8578063bc9bd12a146103ad578063bd9a548b14610811578063c45a015514610819576102de565b8063bb6ff386146107c1578063bc25cf77146107de576102de565b8063a9059cbb1161013a578063afc8276c1161011f578063afc8276c1461076e578063b2a02ff114610776578063ba9a7a56146107b9576102de565b8063a9059cbb1461072d578063ad7a672f14610766576102de565b806395a2251f1161016b57806395a2251f146106af57806395d89b41146106e25780639aac2c53146106ea576102de565b80637ecebe00146106745780638c765e94146106a7576102de565b80633644e5151161023f5780636a627842116101f35780636f307dc3116101cd5780636f307dc31461063157806370a08231146106395780637c6674b51461066c576102de565b80636a627842146105865780636e01be10146105b95780636f13cb83146105f2576102de565b80634a5d316c116102245780634a5d316c146105155780634fd42e171461051d5780635a0f03c61461053a576102de565b80633644e515146105055780633ba0b9a91461050d576102de565b806323b872dd1161029657806330adf81f1161027b57806330adf81f146104d7578063313ce567146104df578063356c571f146104fd576102de565b806323b872dd146104635780632fa5ae1b146104a6576102de565b80630fb60fef116102c75780630fb60fef146103ad57806318160ddd146103c757806319f3400d146103cf576102de565b806306fdde03146102e3578063095ea7b314610360575b600080fd5b6102eb6109bc565b6040805160208082528351818301528351919283929083019185019080838360005b8381101561032557818101518382015260200161030d565b50505050905090810190601f1680156103525780820380516001836020036101000a031916815260200191505b509250505060405180910390f35b6103996004803603604081101561037657600080fd5b5073ffffffffffffffffffffffffffffffffffffffff8135169060200135610a68565b604080519115158252519081900360200190f35b6103b5610a7f565b60408051918252519081900360200190f35b6103b5610a8b565b610461600480360360608110156103e557600080fd5b73ffffffffffffffffffffffffffffffffffffffff8235169160208101359181019060608101604082013564010000000081111561042257600080fd5b82018360208201111561043457600080fd5b8035906020019184600183028401116401000000008311171561045657600080fd5b509092509050610a91565b005b6103996004803603606081101561047957600080fd5b5073ffffffffffffffffffffffffffffffffffffffff813581169160208101359091169060400135610db7565b6104ae610ecb565b6040805173ffffffffffffffffffffffffffffffffffffffff9092168252519081900360200190f35b6103b5610eec565b6104e7610f10565b6040805160ff9092168252519081900360200190f35b6103b5610f19565b6103b5610f1f565b6103b5610f25565b610461610f75565b6104616004803603602081101561053357600080fd5b5035611026565b61056d6004803603602081101561055057600080fd5b503573ffffffffffffffffffffffffffffffffffffffff16611140565b6040805192835260208301919091528051918290030190f35b6103b56004803603602081101561059c57600080fd5b503573ffffffffffffffffffffffffffffffffffffffff16611177565b610399600480360360408110156105cf57600080fd5b5073ffffffffffffffffffffffffffffffffffffffff8135169060200135611425565b61056d6004803603606081101561060857600080fd5b5073ffffffffffffffffffffffffffffffffffffffff8135169060208101359060400135611618565b6104ae61181b565b6103b56004803603602081101561064f57600080fd5b503573ffffffffffffffffffffffffffffffffffffffff16611837565b6104ae611849565b6103b56004803603602081101561068a57600080fd5b503573ffffffffffffffffffffffffffffffffffffffff16611865565b6103b5611877565b6103b5600480360360208110156106c557600080fd5b503573ffffffffffffffffffffffffffffffffffffffff1661187d565b6102eb611aa1565b6103996004803603606081101561070057600080fd5b5073ffffffffffffffffffffffffffffffffffffffff813581169160208101359091169060400135611b19565b6103996004803603604081101561074357600080fd5b5073ffffffffffffffffffffffffffffffffffffffff8135169060200135611cb3565b6103b5611cc0565b6103b5611cc6565b6103b56004803603606081101561078c57600080fd5b5073ffffffffffffffffffffffffffffffffffffffff813581169160208101359091169060400135611cd2565b6103b5611fb9565b610461600480360360208110156107d757600080fd5b5035611fbf565b610461600480360360208110156107f457600080fd5b503573ffffffffffffffffffffffffffffffffffffffff166120d9565b61056d61225c565b6104ae612637565b610461600480360360a081101561083757600080fd5b81019060208101813564010000000081111561085257600080fd5b82018360208201111561086457600080fd5b8035906020019184600183028401116401000000008311171561088657600080fd5b9193909290916020810190356401000000008111156108a457600080fd5b8201836020820111156108b657600080fd5b803590602001918460018302840111640100000000831117156108d857600080fd5b919350915073ffffffffffffffffffffffffffffffffffffffff8135811691602081013582169160409091013516612653565b6103b561289f565b610461600480360360e081101561092957600080fd5b5073ffffffffffffffffffffffffffffffffffffffff813581169160208101359091169060408101359060608101359060ff6080820135169060a08101359060c001356128ab565b6104ae6128ef565b6103b56004803603604081101561098f57600080fd5b5073ffffffffffffffffffffffffffffffffffffffff8135811691602001351661290b565b610461612928565b6000805460408051602060026001851615610100027fffffffffffffffffffffffffffffffffffffffffffffffffffffffffffffffff0190941693909304601f81018490048402820184019092528181529291830182828015610a605780601f10610a3557610100808354040283529160200191610a60565b820191906000526020600020905b815481529060010190602001808311610a4357829003601f168201915b505050505081565b6000610a753384846129f6565b5060015b92915050565b670de0b6b3a764000081565b60035481565b600b5460ff16610b0257604080517f08c379a000000000000000000000000000000000000000000000000000000000815260206004820152601360248201527f496d7065726d61783a205245454e544552454400000000000000000000000000604482015290519081900360640190fd5b600b80547fffffffffffffffffffffffffffffffffffffffffffffffffffffffffffffff00169055600a54831115610b9b57604080517f08c379a000000000000000000000000000000000000000000000000000000000815260206004820152601b60248201527f496d7065726d61783a20494e53554646494349454e545f434153480000000000604482015290519081900360640190fd5b610ba58484612a65565b8015610c71576040517facb86cbb0000000000000000000000000000000000000000000000000000000081523360048201818152602483018690526060604484019081526064840185905273ffffffffffffffffffffffffffffffffffffffff88169363acb86cbb93928892889288929190608401848480828437600081840152601f19601f82011690508083019250505095505050505050600060405180830381600087803b158015610c5857600080fd5b505af1158015610c6c573d6000803e3d6000fd5b505050505b3060009081526004602052604081205490610cc26001610cb6610c92610f25565b610caa89670de0b6b3a764000063ffffffff612c7116565b9063ffffffff612ceb16565b9063ffffffff612d2d16565b905080821015610d1d576040517f08c379a0000000000000000000000000000000000000000000000000000000008152600401808060200182810382526024815260200180613ac66024913960400191505060405180910390fd5b610d273083612da1565b6040805186815260208101849052815173ffffffffffffffffffffffffffffffffffffffff89169233927f3f693fff038bb8a046aa76d9516190ac7444f7d69cf952c4cbdc086fdef2d6fc929081900390910190a35050610d86612e65565b5050600b80547fffffffffffffffffffffffffffffffffffffffffffffffffffffffffffffff001660011790555050565b73ffffffffffffffffffffffffffffffffffffffff831660009081526005602090815260408083203384529091528120547fffffffffffffffffffffffffffffffffffffffffffffffffffffffffffffffff14610eb657604080518082018252601e81527f496d7065726d61783a205452414e534645525f4e4f545f414c4c4f574544000060208083019190915273ffffffffffffffffffffffffffffffffffffffff87166000908152600582528381203382529091529190912054610e8491849063ffffffff612f3b16565b73ffffffffffffffffffffffffffffffffffffffff851660009081526005602090815260408083203384529091529020555b610ec1848484612fec565b5060019392505050565b600b54610100900473ffffffffffffffffffffffffffffffffffffffff1681565b7f6e71edae12b1b97f4d1f60370fef10105fa2faae0126114a169c64845d6126c981565b60025460ff1681565b600e5481565b60065481565b600354600a5460009190811580610f3a575080155b15610f5157670de0b6b3a764000092505050610f72565b610f6d82610caa83670de0b6b3a764000063ffffffff612c7116565b925050505b90565b60095473ffffffffffffffffffffffffffffffffffffffff1615610ffa57604080517f08c379a000000000000000000000000000000000000000000000000000000000815260206004820152601d60248201527f496d7065726d61783a20464143544f52595f414c52454144595f534554000000604482015290519081900360640190fd5b600980547fffffffffffffffffffffffff00000000000000000000000000000000000000001633179055565b600b5460ff1661109757604080517f08c379a000000000000000000000000000000000000000000000000000000000815260206004820152601360248201527f496d7065726d61783a205245454e544552454400000000000000000000000000604482015290519081900360640190fd5b600b80547fffffffffffffffffffffffffffffffffffffffffffffffffffffffffffffff001690556110da81670de0b6b3a7640000670e92596fd6290000613071565b600f8190556040805182815290517f8a9bb9067f9ecb13a322b548e6df3dd1bd10a54698834dac43ed8f0e765bf94d9181900360200190a150600b80547fffffffffffffffffffffffffffffffffffffffffffffffffffffffffffffff00166001179055565b60008061116e837fffffffffffffffffffffffffffffffffffffffffffffffffffffffffffffffff80611618565b91509150915091565b600b5460009060ff166111eb57604080517f08c379a000000000000000000000000000000000000000000000000000000000815260206004820152601360248201527f496d7065726d61783a205245454e544552454400000000000000000000000000604482015290519081900360640190fd5b600b80547fffffffffffffffffffffffffffffffffffffffffffffffffffffffffffffff00169055600854604080517f70a08231000000000000000000000000000000000000000000000000000000008152306004820152905160009273ffffffffffffffffffffffffffffffffffffffff16916370a08231916024808301926020929190829003018186803b15801561128457600080fd5b505afa158015611298573d6000803e3d6000fd5b505050506040513d60208110156112ae57600080fd5b5051600a549091506000906112ca90839063ffffffff61315716565b90506112ef6112d7610f25565b610caa83670de0b6b3a764000063ffffffff612c7116565b92506003546000141561131d5761130e836103e863ffffffff61315716565b925061131d60006103e8613199565b6000831161138c57604080517f08c379a000000000000000000000000000000000000000000000000000000000815260206004820152601a60248201527f496d7065726d61783a204d494e545f414d4f554e545f5a45524f000000000000604482015290519081900360640190fd5b6113968484613199565b6040805182815260208101859052815173ffffffffffffffffffffffffffffffffffffffff87169233927f2f00e3cdd69a77be7ed215ec7b2a36784dd158f921fca79ac29deffa353fe6ee929081900390910190a350506113f5612e65565b600b80547fffffffffffffffffffffffffffffffffffffffffffffffffffffffffffffff00166001179055919050565b73ffffffffffffffffffffffffffffffffffffffff82166000908152600460205260408120548083111561145d576000915050610a79565b8281036000611486670de0b6b3a7640000610caa611479610f25565b859063ffffffff612c7116565b90506000600b60019054906101000a900473ffffffffffffffffffffffffffffffffffffffff1673ffffffffffffffffffffffffffffffffffffffff16634d73e9ba886040518263ffffffff1660e01b8152600401808273ffffffffffffffffffffffffffffffffffffffff1673ffffffffffffffffffffffffffffffffffffffff16815260200191505060206040518083038186803b15801561152957600080fd5b505afa15801561153d573d6000803e3d6000fd5b505050506040513d602081101561155357600080fd5b5051600c54604080517f4d73e9ba00000000000000000000000000000000000000000000000000000000815273ffffffffffffffffffffffffffffffffffffffff8b8116600483015291519394506000939190921691634d73e9ba916024808301926020929190829003018186803b1580156115ce57600080fd5b505afa1580156115e2573d6000803e3d6000fd5b505050506040513d60208110156115f857600080fd5b50519050600061160984848461324a565b159a9950505050505050505050565b6000807fffffffffffffffffffffffffffffffffffffffffffffffffffffffffffffffff8414156116eb57600b54604080517f4d73e9ba00000000000000000000000000000000000000000000000000000000815273ffffffffffffffffffffffffffffffffffffffff8881166004830152915161010090930490911691634d73e9ba91602480820192602092909190829003018186803b1580156116bc57600080fd5b505afa1580156116d0573d6000803e3d6000fd5b505050506040513d60208110156116e657600080fd5b505193505b7fffffffffffffffffffffffffffffffffffffffffffffffffffffffffffffffff8314156117b557600c54604080517f4d73e9ba00000000000000000000000000000000000000000000000000000000815273ffffffffffffffffffffffffffffffffffffffff888116600483015291519190921691634d73e9ba916024808301926020929190829003018186803b15801561178657600080fd5b505afa15801561179a573d6000803e3d6000fd5b505050506040513d60208110156117b057600080fd5b505192505b6000611800670de0b6b3a7640000610caa6117ce610f25565b73ffffffffffffffffffffffffffffffffffffffff8a166000908152600460205260409020549063ffffffff612c7116565b905061180d81868661324a565b92509250505b935093915050565b60085473ffffffffffffffffffffffffffffffffffffffff1681565b60046020526000908152604090205481565b600d5473ffffffffffffffffffffffffffffffffffffffff1681565b60076020526000908152604090205481565b600f5481565b600b5460009060ff166118f157604080517f08c379a000000000000000000000000000000000000000000000000000000000815260206004820152601360248201527f496d7065726d61783a205245454e544552454400000000000000000000000000604482015290519081900360640190fd5b600b80547fffffffffffffffffffffffffffffffffffffffffffffffffffffffffffffff001690553060009081526004602052604090205461194d670de0b6b3a7640000610caa611940610f25565b849063ffffffff612c7116565b9150600082116119be57604080517f08c379a000000000000000000000000000000000000000000000000000000000815260206004820152601c60248201527f496d7065726d61783a2052454445454d5f414d4f554e545f5a45524f00000000604482015290519081900360640190fd5b600a54821115611a2f57604080517f08c379a000000000000000000000000000000000000000000000000000000000815260206004820152601b60248201527f496d7065726d61783a20494e53554646494349454e545f434153480000000000604482015290519081900360640190fd5b611a393082612da1565b611a438383612a65565b6040805183815260208101839052815173ffffffffffffffffffffffffffffffffffffffff86169233927f3f693fff038bb8a046aa76d9516190ac7444f7d69cf952c4cbdc086fdef2d6fc929081900390910190a3506113f5612e65565b60018054604080516020600284861615610100027fffffffffffffffffffffffffffffffffffffffffffffffffffffffffffffffff0190941693909304601f81018490048402820184019092528181529291830182828015610a605780601f10610a3557610100808354040283529160200191610a60565b600b54600c5460009173ffffffffffffffffffffffffffffffffffffffff6101009091048116918116908516821480611b7d57508073ffffffffffffffffffffffffffffffffffffffff168573ffffffffffffffffffffffffffffffffffffffff16145b611be857604080517f08c379a000000000000000000000000000000000000000000000000000000000815260206004820152601c60248201527f496d7065726d61783a20494e56414c49445f424f52524f5741424c4500000000604482015290519081900360640190fd5b60008273ffffffffffffffffffffffffffffffffffffffff168673ffffffffffffffffffffffffffffffffffffffff1614611c43577fffffffffffffffffffffffffffffffffffffffffffffffffffffffffffffffff611c45565b845b905060008273ffffffffffffffffffffffffffffffffffffffff168773ffffffffffffffffffffffffffffffffffffffff1614611ca2577fffffffffffffffffffffffffffffffffffffffffffffffffffffffffffffffff611ca4565b855b90506000611609898484611618565b6000610a75338484612fec565b600a5481565b670e92596fd629000081565b600b54600090610100900473ffffffffffffffffffffffffffffffffffffffff16331480611d175750600c5473ffffffffffffffffffffffffffffffffffffffff1633145b611d8257604080517f08c379a000000000000000000000000000000000000000000000000000000000815260206004820152601660248201527f496d7065726d61783a20554e415554484f52495a454400000000000000000000604482015290519081900360640190fd5b6000611d8d84611140565b91505060008111611dff57604080517f08c379a000000000000000000000000000000000000000000000000000000000815260206004820181905260248201527f496d7065726d61783a20494e53554646494349454e545f53484f525446414c4c604482015290519081900360640190fd5b600b54600090610100900473ffffffffffffffffffffffffffffffffffffffff16331415611e3757611e2f61225c565b509050611e43565b611e3f61225c565b9150505b611e7f611e4e610f25565b610caa83611e73670de0b6b3a7640000610caa600f548b612c7190919063ffffffff16565b9063ffffffff612c7116565b9250611f0a836040518060400160405280601e81526020017f496d7065726d61783a204c49515549444154494e475f544f4f5f4d5543480000815250600460008973ffffffffffffffffffffffffffffffffffffffff1673ffffffffffffffffffffffffffffffffffffffff16815260200190815260200160002054612f3b9092919063ffffffff16565b73ffffffffffffffffffffffffffffffffffffffff8087166000908152600460205260408082209390935590881681522054611f4c908463ffffffff612d2d16565b73ffffffffffffffffffffffffffffffffffffffff80881660008181526004602090815260409182902094909455805187815290519193928916927fddf252ad1be2c89b69c2b068fc378daa952ba7f163c4a11628f55a4df523b3ef92918290030190a350509392505050565b6103e881565b600b5460ff1661203057604080517f08c379a000000000000000000000000000000000000000000000000000000000815260206004820152601360248201527f496d7065726d61783a205245454e544552454400000000000000000000000000604482015290519081900360640190fd5b600b80547fffffffffffffffffffffffffffffffffffffffffffffffffffffffffffffff0016905561207381670de0b6b3a76400006715f15565d2c5f000613071565b600e8190556040805182815290517fdff9a61839be6f6ce5ea77311cc351786a39a9f337c507ff35e7b358fd39c0439181900360200190a150600b80547fffffffffffffffffffffffffffffffffffffffffffffffffffffffffffffff00166001179055565b600b5460ff1661214a57604080517f08c379a000000000000000000000000000000000000000000000000000000000815260206004820152601360248201527f496d7065726d61783a205245454e544552454400000000000000000000000000604482015290519081900360640190fd5b600b80547fffffffffffffffffffffffffffffffffffffffffffffffffffffffffffffff00169055600a54600854604080517f70a08231000000000000000000000000000000000000000000000000000000008152306004820152905161222e93859361222993919273ffffffffffffffffffffffffffffffffffffffff909116916370a08231916024808301926020929190829003018186803b1580156121f157600080fd5b505afa158015612205573d6000803e3d6000fd5b505050506040513d602081101561221b57600080fd5b50519063ffffffff61315716565b612a65565b50600b80547fffffffffffffffffffffffffffffffffffffffffffffffffffffffffffffff00166001179055565b600d54600854604080517f446a37e000000000000000000000000000000000000000000000000000000000815273ffffffffffffffffffffffffffffffffffffffff928316600482015281516000948594859491169263446a37e0926024808301939282900301818787803b1580156122d457600080fd5b505af11580156122e8573d6000803e3d6000fd5b505050506040513d60408110156122fe57600080fd5b5051600854604080517f0902f1ac0000000000000000000000000000000000000000000000000000000081529051929350600092839273ffffffffffffffffffffffffffffffffffffffff1691630902f1ac916004808301926060929190829003018186803b15801561237057600080fd5b505afa158015612384573d6000803e3d6000fd5b505050506040513d606081101561239a57600080fd5b508051602091820151600854604080517f18160ddd000000000000000000000000000000000000000000000000000000008152905193965091945060009373ffffffffffffffffffffffffffffffffffffffff909116926318160ddd926004808201939291829003018186803b15801561241357600080fd5b505afa158015612427573d6000803e3d6000fd5b505050506040513d602081101561243d57600080fd5b50519050600061247a846124508561333e565b7bffffffffffffffffffffffffffffffffffffffffffffffffffffffff169063ffffffff61336216565b905060006124b97bffffffffffffffffffffffffffffffffffffffffffffffffffffffff80841690610caa90891664010000000063ffffffff612c7116565b905060006124da6124d58364010000000063ffffffff612c7116565b6133a3565b9050600061250d6dffffffffffffffffffffffffffff6002890216610caa87670de0b6b3a764000063ffffffff612c7116565b905060006125406dffffffffffffffffffffffffffff6002890216610caa88670de0b6b3a764000063ffffffff612c7116565b905061255b640100000000610caa848663ffffffff612c7116565b9a5061257683610caa8364010000000063ffffffff612c7116565b995060648b116125d1576040517f08c379a0000000000000000000000000000000000000000000000000000000008152600401808060200182810382526021815260200180613aea6021913960400191505060405180910390fd5b60648a1161262a576040517f08c379a0000000000000000000000000000000000000000000000000000000008152600401808060200182810382526021815260200180613aea6021913960400191505060405180910390fd5b5050505050505050509091565b60095473ffffffffffffffffffffffffffffffffffffffff1681565b60095473ffffffffffffffffffffffffffffffffffffffff1633146126d957604080517f08c379a000000000000000000000000000000000000000000000000000000000815260206004820152601660248201527f496d7065726d61783a20554e415554484f52495a454400000000000000000000604482015290519081900360640190fd5b61274c87878080601f01602080910402602001604051908101604052809392919081815260200183838082843760009201919091525050604080516020601f8b0181900481028201810190925289815292508991508890819084018382808284376000920191909152506133f592505050565b600880547fffffffffffffffffffffffff000000000000000000000000000000000000000090811673ffffffffffffffffffffffffffffffffffffffff86811691909117909255600b80547fffffffffffffffffffffff0000000000000000000000000000000000000000ff1661010086851602179055600c8054909116838316179055600954604080517f7c6674b500000000000000000000000000000000000000000000000000000000815290519190921691637c6674b5916004808301926020929190829003018186803b15801561282657600080fd5b505afa15801561283a573d6000803e3d6000fd5b505050506040513d602081101561285057600080fd5b5051600d80547fffffffffffffffffffffffff00000000000000000000000000000000000000001673ffffffffffffffffffffffffffffffffffffffff90921691909117905550505050505050565b6715f15565d2c5f00081565b6128db878787878787877f6e71edae12b1b97f4d1f60370fef10105fa2faae0126114a169c64845d6126c96134d9565b6128e68787876129f6565b50505050505050565b600c5473ffffffffffffffffffffffffffffffffffffffff1681565b600560209081526000928352604080842090915290825290205481565b600b5460ff1661299957604080517f08c379a000000000000000000000000000000000000000000000000000000000815260206004820152601360248201527f496d7065726d61783a205245454e544552454400000000000000000000000000604482015290519081900360640190fd5b600b80547fffffffffffffffffffffffffffffffffffffffffffffffffffffffffffffff001690556129c9612e65565b600b80547fffffffffffffffffffffffffffffffffffffffffffffffffffffffffffffff00166001179055565b73ffffffffffffffffffffffffffffffffffffffff808416600081815260056020908152604080832094871680845294825291829020859055815185815291517f8c5be1e5ebec7d5bd14f71427d1e84f3dd0314c0f7b2291e5b200ac8c7c3b9259281900390910190a3505050565b600854604080518082018252601981527f7472616e7366657228616464726573732c75696e743235362900000000000000602091820152815173ffffffffffffffffffffffffffffffffffffffff86811660248301526044808301879052845180840390910181526064909201845291810180517bffffffffffffffffffffffffffffffffffffffffffffffffffffffff167fa9059cbb000000000000000000000000000000000000000000000000000000001781529251815160009560609594169382918083835b60208310612b6b57805182527fffffffffffffffffffffffffffffffffffffffffffffffffffffffffffffffe09092019160209182019101612b2e565b6001836020036101000a0380198251168184511680821785525050505050509050019150506000604051808303816000865af19150503d8060008114612bcd576040519150601f19603f3d011682016040523d82523d6000602084013e612bd2565b606091505b5091509150818015612c00575080511580612c005750808060200190516020811015612bfd57600080fd5b50515b612c6b57604080517f08c379a000000000000000000000000000000000000000000000000000000000815260206004820152601960248201527f496d7065726d61783a205452414e534645525f4641494c454400000000000000604482015290519081900360640190fd5b50505050565b600082612c8057506000610a79565b82820282848281612c8d57fe5b0414612ce4576040517f08c379a0000000000000000000000000000000000000000000000000000000008152600401808060200182810382526021815260200180613b5d6021913960400191505060405180910390fd5b9392505050565b6000612ce483836040518060400160405280601a81526020017f536166654d6174683a206469766973696f6e206279207a65726f00000000000081525061377c565b600082820183811015612ce457604080517f08c379a000000000000000000000000000000000000000000000000000000000815260206004820152601b60248201527f536166654d6174683a206164646974696f6e206f766572666c6f770000000000604482015290519081900360640190fd5b73ffffffffffffffffffffffffffffffffffffffff8216600090815260046020526040902054612dd7908263ffffffff61315716565b73ffffffffffffffffffffffffffffffffffffffff8316600090815260046020526040902055600354612e10908263ffffffff61315716565b60035560408051828152905160009173ffffffffffffffffffffffffffffffffffffffff8516917fddf252ad1be2c89b69c2b068fc378daa952ba7f163c4a11628f55a4df523b3ef9181900360200190a35050565b600854604080517f70a08231000000000000000000000000000000000000000000000000000000008152306004820152905173ffffffffffffffffffffffffffffffffffffffff909216916370a0823191602480820192602092909190829003018186803b158015612ed657600080fd5b505afa158015612eea573d6000803e3d6000fd5b505050506040513d6020811015612f0057600080fd5b5051600a81905560408051918252517f8a0df8ef054fae2c3d2d19a7b322e864870cc9fd3cb07fb9526309c596244bf49181900360200190a1565b60008184841115612fe4576040517f08c379a00000000000000000000000000000000000000000000000000000000081526004018080602001828103825283818151815260200191508051906020019080838360005b83811015612fa9578181015183820152602001612f91565b50505050905090810190601f168015612fd65780820380516001836020036101000a031916815260200191505b509250505060405180910390fd5b505050900390565b612ff68382611425565b61306157604080517f08c379a000000000000000000000000000000000000000000000000000000000815260206004820181905260248201527f496d7065726d61783a20494e53554646494349454e545f4c4951554944495459604482015290519081900360640190fd5b61306c8383836137fb565b505050565b613079613914565b818310156130e857604080517f08c379a000000000000000000000000000000000000000000000000000000000815260206004820152601960248201527f496d7065726d61783a20494e56414c49445f53455454494e4700000000000000604482015290519081900360640190fd5b8083111561306c57604080517f08c379a000000000000000000000000000000000000000000000000000000000815260206004820152601960248201527f496d7065726d61783a20494e56414c49445f53455454494e4700000000000000604482015290519081900360640190fd5b6000612ce483836040518060400160405280601f81526020017f536166654d6174683a207375627472616374696f6e20756e646572666c6f7700815250612f3b565b6003546131ac908263ffffffff612d2d16565b60035573ffffffffffffffffffffffffffffffffffffffff82166000908152600460205260409020546131e5908263ffffffff612d2d16565b73ffffffffffffffffffffffffffffffffffffffff831660008181526004602090815260408083209490945583518581529351929391927fddf252ad1be2c89b69c2b068fc378daa952ba7f163c4a11628f55a4df523b3ef9281900390910190a35050565b600e546000908190818061325c61225c565b9092509050600061327f670de0b6b3a7640000610caa8a8663ffffffff612c7116565b9050600061329f670de0b6b3a7640000610caa8a8663ffffffff612c7116565b9050808210156132ab57905b6132c7670de0b6b3a7640000610caa848863ffffffff612c7116565b91506132e585610caa83670de0b6b3a764000063ffffffff612c7116565b9050600061330e670de0b6b3a7640000610caa600f54611e738688612d2d90919063ffffffff16565b9050808b1061332a578a03965060009550611813945050505050565b600097508a90039550611813945050505050565b6dffffffffffffffffffffffffffff166e0100000000000000000000000000000290565b60006dffffffffffffffffffffffffffff82167bffffffffffffffffffffffffffffffffffffffffffffffffffffffff84168161339b57fe5b049392505050565b600060038211156133e6575080600160028204015b818110156133e0578091506002818285816133cf57fe5b0401816133d857fe5b0490506133b8565b506133f0565b81156133f0575060015b919050565b8151613408906000906020850190613a2d565b50805161341c906001906020840190613a2d565b506040514690806052613b0b82396040805191829003605201822086516020978801208383018352600184527f310000000000000000000000000000000000000000000000000000000000000093880193909352815180880191909152808201929092527fc89efdaa54c0f20c7adf612882df0950f5a951637e0307cdcb4c672f298b8bc6606083015260808201939093523060a0808301919091528351808303909101815260c090910190925250805192019190912060065550565b4285101561354857604080517f08c379a000000000000000000000000000000000000000000000000000000000815260206004820152601160248201527f496d7065726d61783a2045585049524544000000000000000000000000000000604482015290519081900360640190fd5b60065473ffffffffffffffffffffffffffffffffffffffff808a1660008181526007602090815260408083208054600180820190925582518085018a905280840196909652958e166060860152608085018d905260a085019590955260c08085018c90528151808603909101815260e0850182528051908301207f19010000000000000000000000000000000000000000000000000000000000006101008601526101028501969096526101228085019690965280518085039096018652610142840180825286519683019690962095839052610162840180825286905260ff8a166101828501526101a284018990526101c28401889052519193926101e2808201937fffffffffffffffffffffffffffffffffffffffffffffffffffffffffffffffe081019281900390910190855afa15801561368a573d6000803e3d6000fd5b50506040517fffffffffffffffffffffffffffffffffffffffffffffffffffffffffffffffe0015191505073ffffffffffffffffffffffffffffffffffffffff81161580159061370557508973ffffffffffffffffffffffffffffffffffffffff168173ffffffffffffffffffffffffffffffffffffffff16145b61377057604080517f08c379a000000000000000000000000000000000000000000000000000000000815260206004820152601b60248201527f496d7065726d61783a20494e56414c49445f5349474e41545552450000000000604482015290519081900360640190fd5b50505050505050505050565b600081836137e5576040517f08c379a0000000000000000000000000000000000000000000000000000000008152602060048201818152835160248401528351909283926044909101919085019080838360008315612fa9578181015183820152602001612f91565b5060008385816137f157fe5b0495945050505050565b604080518082018252601b81527f496d7065726d61783a205452414e534645525f544f4f5f48494748000000000060208083019190915273ffffffffffffffffffffffffffffffffffffffff861660009081526004909152919091205461386991839063ffffffff612f3b16565b73ffffffffffffffffffffffffffffffffffffffff80851660009081526004602052604080822093909355908416815220546138ab908263ffffffff612d2d16565b73ffffffffffffffffffffffffffffffffffffffff80841660008181526004602090815260409182902094909455805185815290519193928716927fddf252ad1be2c89b69c2b068fc378daa952ba7f163c4a11628f55a4df523b3ef92918290030190a3505050565b600960009054906101000a900473ffffffffffffffffffffffffffffffffffffffff1673ffffffffffffffffffffffffffffffffffffffff1663f851a4406040518163ffffffff1660e01b815260040160206040518083038186803b15801561397c57600080fd5b505afa158015613990573d6000803e3d6000fd5b505050506040513d60208110156139a657600080fd5b505173ffffffffffffffffffffffffffffffffffffffff163314613a2b57604080517f08c379a000000000000000000000000000000000000000000000000000000000815260206004820152601660248201527f496d7065726d61783a20554e415554484f52495a454400000000000000000000604482015290519081900360640190fd5b565b828054600181600116156101000203166002900490600052602060002090601f016020900481019282601f10613a6e57805160ff1916838001178555613a9b565b82800160010185558215613a9b579182015b82811115613a9b578251825591602001919060010190613a80565b50613aa7929150613aab565b5090565b610f7291905b80821115613aa75760008155600101613ab156fe496d7065726d61783a20494e53554646494349454e545f52454445454d5f544f4b454e53496d7065726d61783a2050524943455f43414c43554c4154494f4e5f4552524f52454950373132446f6d61696e28737472696e67206e616d652c737472696e672076657273696f6e2c75696e7432353620636861696e49642c6164647265737320766572696679696e67436f6e747261637429536166654d6174683a206d756c7469706c69636174696f6e206f766572666c6f77a265627a7a72315820924b31b8ae4eaf7fcf65d8d260420e2ea80db1aa56292003758c667e9b0aa01d64736f6c63430005100032",
  "source": "pragma solidity =0.5.16;\r\n\r\nimport \"./PoolToken.sol\";\r\nimport \"./CStorage.sol\";\r\nimport \"./CSetter.sol\";\r\nimport \"./interfaces/IBorrowable.sol\";\r\nimport \"./interfaces/ICollateral.sol\";\r\nimport \"./interfaces/IFactory.sol\";\r\nimport \"./interfaces/ISimpleUniswapOracle.sol\";\r\nimport \"./interfaces/IImpermaxCallee.sol\";\r\nimport \"./interfaces/IUniswapV2Pair.sol\";\r\nimport \"./libraries/UQ112x112.sol\";\r\nimport \"./libraries/Math.sol\";\r\n\r\ncontract Collateral is ICollateral, PoolToken, CStorage, CSetter {\r\n    using UQ112x112 for uint224;\r\n\t\r\n\tconstructor() public {}\r\n\t\r\n\t/*** Collateralization Model ***/\r\n\r\n\t// returns the prices of borrowable0's and borrowable1's underlyings with collateral's underlying as denom\r\n\tfunction getPrices() public returns (uint price0, uint price1) {\r\n\t\t(uint224 twapPrice112x112,) = ISimpleUniswapOracle(simpleUniswapOracle).getResult(underlying);\r\n\t\t(uint112 reserve0, uint112 reserve1,) = IUniswapV2Pair(underlying).getReserves();\r\n\t\tuint256 collateralTotalSupply = IUniswapV2Pair(underlying).totalSupply();\r\n\t\t\r\n\t\tuint224 currentPrice112x112 = UQ112x112.encode(reserve1).uqdiv(reserve0);\r\n\t\tuint256 adjustmentSquared = uint256(twapPrice112x112).mul(2**32).div(currentPrice112x112);\r\n\t\tuint256 adjustment = Math.sqrt(adjustmentSquared.mul(2**32));\r\n\r\n\t\tuint256 currentBorrowable0Price = uint256(collateralTotalSupply).mul(1e18).div(reserve0*2);\r\n\t\tuint256 currentBorrowable1Price = uint256(collateralTotalSupply).mul(1e18).div(reserve1*2);\r\n\t\t\r\n\t\tprice0 = currentBorrowable0Price.mul(adjustment).div(2**32);\r\n\t\tprice1 = currentBorrowable1Price.mul(2**32).div(adjustment);\r\n\t\t\r\n\t\t/*\r\n\t\t * Price calculation errors may happen in some edge pairs where\r\n\t\t * reserve0 / reserve1 is close to 2**112 or 1/2**112\r\n\t\t * We're going to prevent users from using pairs at risk from the UI\r\n\t\t */\r\n\t\trequire(price0 > 100, \"Impermax: PRICE_CALCULATION_ERROR\");\r\n\t\trequire(price1 > 100, \"Impermax: PRICE_CALCULATION_ERROR\");\r\n\t}\r\n\t\r\n\t// returns liquidity in  collateral's underlying\r\n\tfunction _calculateLiquidity(uint amountCollateral, uint amount0, uint amount1) internal returns (uint liquidity, uint shortfall) {\r\n\t\tuint _safetyMarginSqrt = safetyMarginSqrt;\r\n\t\t(uint price0, uint price1) = getPrices();\r\n\t\t\r\n\t\tuint a = amount0.mul(price0).div(1e18);\r\n\t\tuint b = amount1.mul(price1).div(1e18);\r\n\t\tif(a < b) (a, b) = (b, a);\r\n\t\ta = a.mul(_safetyMarginSqrt).div(1e18);\r\n\t\tb = b.mul(1e18).div(_safetyMarginSqrt);\r\n\t\tuint collateralNeeded = a.add(b).mul(liquidationIncentive).div(1e18);\t\t\r\n\r\n\t\tif(amountCollateral >= collateralNeeded){\r\n\t\t\treturn (amountCollateral - collateralNeeded, 0);\r\n\t\t} else {\r\n\t\t\treturn (0, collateralNeeded - amountCollateral);\r\n\t\t}\r\n\t}\r\n\r\n\t/*** ERC20 ***/\r\n\t\r\n\tfunction _transfer(address from, address to, uint value) internal {\r\n\t\trequire(tokensUnlocked(from, value), \"Impermax: INSUFFICIENT_LIQUIDITY\");\r\n\t\tsuper._transfer(from, to, value);\r\n\t}\r\n\t\r\n\tfunction tokensUnlocked(address from, uint value) public returns (bool) {\r\n\t\tuint _balance = balanceOf[from];\r\n\t\tif (value > _balance) return false;\r\n\t\tuint finalBalance = _balance - value;\r\n\t\tuint amountCollateral = finalBalance.mul(exchangeRate()).div(1e18);\r\n\t\tuint amount0 = IBorrowable(borrowable0).borrowBalance(from);\r\n\t\tuint amount1 = IBorrowable(borrowable1).borrowBalance(from);\r\n\t\t(, uint shortfall) = _calculateLiquidity(amountCollateral, amount0, amount1);\r\n\t\treturn shortfall == 0;\r\n\t}\r\n\t\r\n\t/*** Collateral ***/\r\n\t\r\n\tfunction accountLiquidityAmounts(address borrower, uint amount0, uint amount1) public returns (uint liquidity, uint shortfall) {\r\n\t\tif (amount0 == uint(-1)) amount0 = IBorrowable(borrowable0).borrowBalance(borrower);\r\n\t\tif (amount1 == uint(-1)) amount1 = IBorrowable(borrowable1).borrowBalance(borrower);\r\n\t\tuint amountCollateral = balanceOf[borrower].mul(exchangeRate()).div(1e18);\r\n\t\treturn _calculateLiquidity(amountCollateral, amount0, amount1);\r\n\t}\r\n\t\r\n\tfunction accountLiquidity(address borrower) public returns (uint liquidity, uint shortfall) {\r\n\t\treturn accountLiquidityAmounts(borrower, uint(-1), uint(-1));\r\n\t}\r\n\t\r\n\tfunction canBorrow(address borrower, address borrowable, uint accountBorrows) public returns (bool) {\r\n\t\taddress _borrowable0 = borrowable0;\r\n\t\taddress _borrowable1 = borrowable1;\r\n\t\trequire(borrowable == _borrowable0 || borrowable == _borrowable1, \"Impermax: INVALID_BORROWABLE\" );\r\n\t\tuint amount0 = borrowable == _borrowable0 ? accountBorrows : uint(-1);\r\n\t\tuint amount1 = borrowable == _borrowable1 ? accountBorrows : uint(-1);\r\n\t\t(, uint shortfall) = accountLiquidityAmounts(borrower, amount0, amount1);\r\n\t\treturn shortfall == 0;\r\n\t}\r\n\t\r\n\t// this function must be called from borrowable0 or borrowable1\r\n\tfunction seize(address liquidator, address borrower, uint repayAmount) external returns (uint seizeTokens) {\r\n\t\trequire(msg.sender == borrowable0 || msg.sender == borrowable1, \"Impermax: UNAUTHORIZED\");\r\n\t\t\r\n\t\t(, uint shortfall) = accountLiquidity(borrower);\r\n\t\trequire(shortfall > 0, \"Impermax: INSUFFICIENT_SHORTFALL\");\r\n\t\t\r\n\t\tuint price;\r\n\t\tif (msg.sender == borrowable0) (price, ) = getPrices();\r\n\t\telse  (, price) = getPrices();\r\n\t\t\r\n\t\tseizeTokens = repayAmount.mul(liquidationIncentive).div(1e18).mul(price).div( exchangeRate() );\r\n\t\t\r\n\t\tbalanceOf[borrower] = balanceOf[borrower].sub(seizeTokens, \"Impermax: LIQUIDATING_TOO_MUCH\");\r\n\t\tbalanceOf[liquidator] = balanceOf[liquidator].add(seizeTokens);\r\n\t\temit Transfer(borrower, liquidator, seizeTokens);\r\n\t}\r\n\r\n\t// this low-level function should be called from another contract\r\n\tfunction flashRedeem(address redeemer, uint redeemAmount, bytes calldata data) external nonReentrant update {\r\n\t\trequire(redeemAmount <= totalBalance, \"Impermax: INSUFFICIENT_CASH\");\r\n\t\t\r\n\t\t// optimistically transfer funds\r\n\t\t_safeTransfer(redeemer, redeemAmount);\r\n\t\tif (data.length > 0) IImpermaxCallee(redeemer).impermaxRedeem(msg.sender, redeemAmount, data);\r\n\t\t\r\n\t\tuint redeemTokens = balanceOf[address(this)];\r\n\t\tuint declaredRedeemTokens = redeemAmount.mul(1e18).div( exchangeRate() ).add(1); // rounded up\r\n\t\trequire(redeemTokens >= declaredRedeemTokens, \"Impermax: INSUFFICIENT_REDEEM_TOKENS\");\r\n\t\t\r\n\t\t_burn(address(this), redeemTokens);\r\n\t\temit Redeem(msg.sender, redeemer, redeemAmount, redeemTokens);\r\n\t}\r\n}",
  "sourcePath": "C:\\Users\\simor\\Desktop\\impermax-x-uniswapv2-periphery\\test\\Contracts\\imx-univ2-core\\Collateral.sol",
  "compiler": {
    "name": "solc",
    "version": "0.5.16+commit.9c3226ce.Emscripten.clang"
  },
  "schemaVersion": "3.3.2",
  "updatedAt": "2021-02-23T00:00:51.792Z",
  "devdoc": {
    "methods": {}
  },
  "userdoc": {
    "methods": {
      "_setFactory()": {
        "notice": "* Initialize **"
      },
      "accountLiquidityAmounts(address,uint256,uint256)": {
        "notice": "* Collateral **"
      },
      "getPrices()": {
        "notice": "* Collateralization Model **"
      }
    }
  }
}