{
  "contractName": "Factory",
  "abi": [
    {
      "inputs": [
        {
          "internalType": "address",
          "name": "_admin",
          "type": "address"
        },
        {
          "internalType": "address",
          "name": "_reservesAdmin",
          "type": "address"
        },
        {
          "internalType": "contract IBDeployer",
          "name": "_bDeployer",
          "type": "address"
        },
        {
          "internalType": "contract ICDeployer",
          "name": "_cDeployer",
          "type": "address"
        },
        {
          "internalType": "contract IUniswapV2Factory",
          "name": "_uniswapV2Factory",
          "type": "address"
        },
        {
          "internalType": "contract ISimpleUniswapOracle",
          "name": "_simpleUniswapOracle",
          "type": "address"
        }
      ],
      "payable": false,
      "stateMutability": "nonpayable",
      "type": "constructor"
    },
    {
      "anonymous": false,
      "inputs": [
        {
          "indexed": true,
          "internalType": "address",
          "name": "uniswapV2Pair",
          "type": "address"
        },
        {
          "indexed": true,
          "internalType": "address",
          "name": "token0",
          "type": "address"
        },
        {
          "indexed": true,
          "internalType": "address",
          "name": "token1",
          "type": "address"
        },
        {
          "indexed": false,
          "internalType": "address",
          "name": "collateral",
          "type": "address"
        },
        {
          "indexed": false,
          "internalType": "address",
          "name": "borrowable0",
          "type": "address"
        },
        {
          "indexed": false,
          "internalType": "address",
          "name": "borrowable1",
          "type": "address"
        },
        {
          "indexed": false,
          "internalType": "uint256",
          "name": "lendingPoolId",
          "type": "uint256"
        }
      ],
      "name": "LendingPoolInitialized",
      "type": "event"
    },
    {
      "anonymous": false,
      "inputs": [
        {
          "indexed": false,
          "internalType": "address",
          "name": "oldAdmin",
          "type": "address"
        },
        {
          "indexed": false,
          "internalType": "address",
          "name": "newAdmin",
          "type": "address"
        }
      ],
      "name": "NewAdmin",
      "type": "event"
    },
    {
      "anonymous": false,
      "inputs": [
        {
          "indexed": false,
          "internalType": "address",
          "name": "oldPendingAdmin",
          "type": "address"
        },
        {
          "indexed": false,
          "internalType": "address",
          "name": "newPendingAdmin",
          "type": "address"
        }
      ],
      "name": "NewPendingAdmin",
      "type": "event"
    },
    {
      "anonymous": false,
      "inputs": [
        {
          "indexed": false,
          "internalType": "address",
          "name": "oldReservesAdmin",
          "type": "address"
        },
        {
          "indexed": false,
          "internalType": "address",
          "name": "newReservesAdmin",
          "type": "address"
        }
      ],
      "name": "NewReservesAdmin",
      "type": "event"
    },
    {
      "anonymous": false,
      "inputs": [
        {
          "indexed": false,
          "internalType": "address",
          "name": "oldReservesManager",
          "type": "address"
        },
        {
          "indexed": false,
          "internalType": "address",
          "name": "newReservesManager",
          "type": "address"
        }
      ],
      "name": "NewReservesManager",
      "type": "event"
    },
    {
      "anonymous": false,
      "inputs": [
        {
          "indexed": false,
          "internalType": "address",
          "name": "oldReservesPendingAdmin",
          "type": "address"
        },
        {
          "indexed": false,
          "internalType": "address",
          "name": "newReservesPendingAdmin",
          "type": "address"
        }
      ],
      "name": "NewReservesPendingAdmin",
      "type": "event"
    },
    {
      "constant": true,
      "inputs": [],
      "name": "admin",
      "outputs": [
        {
          "internalType": "address",
          "name": "",
          "type": "address"
        }
      ],
      "payable": false,
      "stateMutability": "view",
      "type": "function"
    },
    {
      "constant": true,
      "inputs": [
        {
          "internalType": "uint256",
          "name": "",
          "type": "uint256"
        }
      ],
      "name": "allLendingPools",
      "outputs": [
        {
          "internalType": "address",
          "name": "",
          "type": "address"
        }
      ],
      "payable": false,
      "stateMutability": "view",
      "type": "function"
    },
    {
      "constant": true,
      "inputs": [],
      "name": "bDeployer",
      "outputs": [
        {
          "internalType": "contract IBDeployer",
          "name": "",
          "type": "address"
        }
      ],
      "payable": false,
      "stateMutability": "view",
      "type": "function"
    },
    {
      "constant": true,
      "inputs": [],
      "name": "cDeployer",
      "outputs": [
        {
          "internalType": "contract ICDeployer",
          "name": "",
          "type": "address"
        }
      ],
      "payable": false,
      "stateMutability": "view",
      "type": "function"
    },
    {
      "constant": true,
      "inputs": [
        {
          "internalType": "address",
          "name": "",
          "type": "address"
        }
      ],
      "name": "getLendingPool",
      "outputs": [
        {
          "internalType": "bool",
          "name": "initialized",
          "type": "bool"
        },
        {
          "internalType": "uint24",
          "name": "lendingPoolId",
          "type": "uint24"
        },
        {
          "internalType": "address",
          "name": "collateral",
          "type": "address"
        },
        {
          "internalType": "address",
          "name": "borrowable0",
          "type": "address"
        },
        {
          "internalType": "address",
          "name": "borrowable1",
          "type": "address"
        }
      ],
      "payable": false,
      "stateMutability": "view",
      "type": "function"
    },
    {
      "constant": true,
      "inputs": [],
      "name": "pendingAdmin",
      "outputs": [
        {
          "internalType": "address",
          "name": "",
          "type": "address"
        }
      ],
      "payable": false,
      "stateMutability": "view",
      "type": "function"
    },
    {
      "constant": true,
      "inputs": [],
      "name": "reservesAdmin",
      "outputs": [
        {
          "internalType": "address",
          "name": "",
          "type": "address"
        }
      ],
      "payable": false,
      "stateMutability": "view",
      "type": "function"
    },
    {
      "constant": true,
      "inputs": [],
      "name": "reservesManager",
      "outputs": [
        {
          "internalType": "address",
          "name": "",
          "type": "address"
        }
      ],
      "payable": false,
      "stateMutability": "view",
      "type": "function"
    },
    {
      "constant": true,
      "inputs": [],
      "name": "reservesPendingAdmin",
      "outputs": [
        {
          "internalType": "address",
          "name": "",
          "type": "address"
        }
      ],
      "payable": false,
      "stateMutability": "view",
      "type": "function"
    },
    {
      "constant": true,
      "inputs": [],
      "name": "simpleUniswapOracle",
      "outputs": [
        {
          "internalType": "contract ISimpleUniswapOracle",
          "name": "",
          "type": "address"
        }
      ],
      "payable": false,
      "stateMutability": "view",
      "type": "function"
    },
    {
      "constant": true,
      "inputs": [],
      "name": "uniswapV2Factory",
      "outputs": [
        {
          "internalType": "contract IUniswapV2Factory",
          "name": "",
          "type": "address"
        }
      ],
      "payable": false,
      "stateMutability": "view",
      "type": "function"
    },
    {
      "constant": true,
      "inputs": [],
      "name": "allLendingPoolsLength",
      "outputs": [
        {
          "internalType": "uint256",
          "name": "",
          "type": "uint256"
        }
      ],
      "payable": false,
      "stateMutability": "view",
      "type": "function"
    },
    {
      "constant": false,
      "inputs": [
        {
          "internalType": "address",
          "name": "uniswapV2Pair",
          "type": "address"
        }
      ],
      "name": "createCollateral",
      "outputs": [
        {
          "internalType": "address",
          "name": "collateral",
          "type": "address"
        }
      ],
      "payable": false,
      "stateMutability": "nonpayable",
      "type": "function"
    },
    {
      "constant": false,
      "inputs": [
        {
          "internalType": "address",
          "name": "uniswapV2Pair",
          "type": "address"
        }
      ],
      "name": "createBorrowable0",
      "outputs": [
        {
          "internalType": "address",
          "name": "borrowable0",
          "type": "address"
        }
      ],
      "payable": false,
      "stateMutability": "nonpayable",
      "type": "function"
    },
    {
      "constant": false,
      "inputs": [
        {
          "internalType": "address",
          "name": "uniswapV2Pair",
          "type": "address"
        }
      ],
      "name": "createBorrowable1",
      "outputs": [
        {
          "internalType": "address",
          "name": "borrowable1",
          "type": "address"
        }
      ],
      "payable": false,
      "stateMutability": "nonpayable",
      "type": "function"
    },
    {
      "constant": false,
      "inputs": [
        {
          "internalType": "address",
          "name": "uniswapV2Pair",
          "type": "address"
        }
      ],
      "name": "initializeLendingPool",
      "outputs": [],
      "payable": false,
      "stateMutability": "nonpayable",
      "type": "function"
    },
    {
      "constant": false,
      "inputs": [
        {
          "internalType": "address",
          "name": "newPendingAdmin",
          "type": "address"
        }
      ],
      "name": "_setPendingAdmin",
      "outputs": [],
      "payable": false,
      "stateMutability": "nonpayable",
      "type": "function"
    },
    {
      "constant": false,
      "inputs": [],
      "name": "_acceptAdmin",
      "outputs": [],
      "payable": false,
      "stateMutability": "nonpayable",
      "type": "function"
    },
    {
      "constant": false,
      "inputs": [
        {
          "internalType": "address",
          "name": "newReservesPendingAdmin",
          "type": "address"
        }
      ],
      "name": "_setReservesPendingAdmin",
      "outputs": [],
      "payable": false,
      "stateMutability": "nonpayable",
      "type": "function"
    },
    {
      "constant": false,
      "inputs": [],
      "name": "_acceptReservesAdmin",
      "outputs": [],
      "payable": false,
      "stateMutability": "nonpayable",
      "type": "function"
    },
    {
      "constant": false,
      "inputs": [
        {
          "internalType": "address",
          "name": "newReservesManager",
          "type": "address"
        }
      ],
      "name": "_setReservesManager",
      "outputs": [],
      "payable": false,
      "stateMutability": "nonpayable",
      "type": "function"
    },
    {
      "constant": true,
      "inputs": [
        {
          "internalType": "uint256",
          "name": "_i",
          "type": "uint256"
        }
      ],
      "name": "uint2str",
      "outputs": [
        {
          "internalType": "string",
          "name": "_uintAsString",
          "type": "string"
        }
      ],
      "payable": false,
      "stateMutability": "pure",
      "type": "function"
    }
  ],
  "bytecode": "0x608060405234801561001057600080fd5b50604051612fb6380380612fb6833981810160405260c081101561003357600080fd5b5080516020808301516040808501516060860151608087015160a090970151600080546001600160a01b03199081166001600160a01b03808b169182178455600280548416828b16179055600780548416828916179055600880548416828816179055600980548416828e16179055600a805490931690851617909155855191825296810196909652835196979496929591949390927ff9ffabca9c8276e99321725bcb43fb076a6c66a54b7f21c4e8146d8519b417dc9281900390910190a160408051600081526001600160a01b038716602082015281517fa328ba21363a99cbf330243928bb26a15acf20bf43166ef838e67ff5d84d4ae7929181900390910190a1505050505050612e6a8061014c6000396000f3fe608060405234801561001057600080fd5b50600436106101825760003560e01c80639e1348e3116100d8578063d40711271161008c578063eb5ab75f11610066578063eb5ab75f146103e8578063f76f950e1461041b578063f851a440146104ad57610182565b8063d4071127146103bb578063db5a2690146103d8578063e9c714f2146103e057610182565b8063b658ca75116100bd578063b658ca7514610322578063b71d1a0c14610355578063cbed6d711461038857610182565b80639e1348e3146102e7578063b1ccc03e146102ef57610182565b806359d0f7131161013a5780637c6674b5116101145780637c6674b5146102cd578063822d73b2146102d5578063998c077d146102dd57610182565b806359d0f713146102a3578063714c0206146102ab5780637a4660d5146102c557610182565b8063267822471161016b5780632678224714610260578063345ef9411461026857806349a788381461027057610182565b80630572bf5f1461018757806323c6145d14610204575b600080fd5b6101ba6004803603602081101561019d57600080fd5b503573ffffffffffffffffffffffffffffffffffffffff166104b5565b60408051951515865262ffffff909416602086015273ffffffffffffffffffffffffffffffffffffffff928316858501529082166060850152166080830152519081900360a00190f35b6102376004803603602081101561021a57600080fd5b503573ffffffffffffffffffffffffffffffffffffffff16610509565b6040805173ffffffffffffffffffffffffffffffffffffffff9092168252519081900360200190f35b61023761073f565b61023761075b565b6102376004803603602081101561028657600080fd5b503573ffffffffffffffffffffffffffffffffffffffff16610777565b6102376109ab565b6102b36109c7565b60408051918252519081900360200190f35b6102376109cd565b6102376109e9565b610237610a05565b6102e5610a21565b005b610237610b8c565b6102e56004803603602081101561030557600080fd5b503573ffffffffffffffffffffffffffffffffffffffff16610ba8565b6102e56004803603602081101561033857600080fd5b503573ffffffffffffffffffffffffffffffffffffffff16610cb6565b6102e56004803603602081101561036b57600080fd5b503573ffffffffffffffffffffffffffffffffffffffff1661227a565b6102376004803603602081101561039e57600080fd5b503573ffffffffffffffffffffffffffffffffffffffff16612388565b610237600480360360208110156103d157600080fd5b50356125ba565b6102376125ee565b6102e561260a565b6102e5600480360360208110156103fe57600080fd5b503573ffffffffffffffffffffffffffffffffffffffff16612775565b6104386004803603602081101561043157600080fd5b5035612883565b6040805160208082528351818301528351919283929083019185019080838360005b8381101561047257818101518382015260200161045a565b50505050905090810190601f16801561049f5780820380516001836020036101000a031916815260200191505b509250505060405180910390f35b610237612998565b60056020526000908152604090208054600182015460029092015460ff82169262ffffff6101008404169273ffffffffffffffffffffffffffffffffffffffff640100000000909104811692918116911685565b6000610514826129b4565b505073ffffffffffffffffffffffffffffffffffffffff828116600090815260056020526040902054640100000000900416156105b257604080517f08c379a000000000000000000000000000000000000000000000000000000000815260206004820152601860248201527f496d7065726d61783a20414c52454144595f4558495354530000000000000000604482015290519081900360640190fd5b600854604080517f7924fedd00000000000000000000000000000000000000000000000000000000815273ffffffffffffffffffffffffffffffffffffffff858116600483015291519190921691637924fedd9160248083019260209291908290030181600087803b15801561062757600080fd5b505af115801561063b573d6000803e3d6000fd5b505050506040513d602081101561065157600080fd5b5051604080517f4a5d316c000000000000000000000000000000000000000000000000000000008152905191925073ffffffffffffffffffffffffffffffffffffffff831691634a5d316c9160048082019260009290919082900301818387803b1580156106be57600080fd5b505af11580156106d2573d6000803e3d6000fd5b505050506106df82612bf4565b73ffffffffffffffffffffffffffffffffffffffff91821660009081526005602052604090208054928216640100000000027fffffffffffffffff0000000000000000000000000000000000000000ffffffff9093169290921790915590565b60015473ffffffffffffffffffffffffffffffffffffffff1681565b60045473ffffffffffffffffffffffffffffffffffffffff1681565b6000610782826129b4565b505073ffffffffffffffffffffffffffffffffffffffff828116600090815260056020526040902060010154161561081b57604080517f08c379a000000000000000000000000000000000000000000000000000000000815260206004820152601860248201527f496d7065726d61783a20414c52454144595f4558495354530000000000000000604482015290519081900360640190fd5b600754604080517f54bcd7ad00000000000000000000000000000000000000000000000000000000815273ffffffffffffffffffffffffffffffffffffffff858116600483015260006024830181905292519316926354bcd7ad92604480840193602093929083900390910190829087803b15801561089957600080fd5b505af11580156108ad573d6000803e3d6000fd5b505050506040513d60208110156108c357600080fd5b5051604080517f4a5d316c000000000000000000000000000000000000000000000000000000008152905191925073ffffffffffffffffffffffffffffffffffffffff831691634a5d316c9160048082019260009290919082900301818387803b15801561093057600080fd5b505af1158015610944573d6000803e3d6000fd5b5050505061095182612bf4565b73ffffffffffffffffffffffffffffffffffffffff918216600090815260056020526040902060010180547fffffffffffffffffffffffff0000000000000000000000000000000000000000169282169290921790915590565b60095473ffffffffffffffffffffffffffffffffffffffff1681565b60065490565b60085473ffffffffffffffffffffffffffffffffffffffff1681565b600a5473ffffffffffffffffffffffffffffffffffffffff1681565b60025473ffffffffffffffffffffffffffffffffffffffff1681565b60035473ffffffffffffffffffffffffffffffffffffffff163314610aa757604080517f08c379a000000000000000000000000000000000000000000000000000000000815260206004820152601660248201527f496d7065726d61783a20554e415554484f52495a454400000000000000000000604482015290519081900360640190fd5b600280546003805473ffffffffffffffffffffffffffffffffffffffff8082167fffffffffffffffffffffffff000000000000000000000000000000000000000080861682179687905590921690925560408051938316808552949092166020840152815190927fa328ba21363a99cbf330243928bb26a15acf20bf43166ef838e67ff5d84d4ae792908290030190a16040805173ffffffffffffffffffffffffffffffffffffffff831681526000602082015281517f01d5e27ed5584d16c62ba1a14cfde0783f979d4797a3fc41342aff17d8ef5b41929181900390910190a15050565b60035473ffffffffffffffffffffffffffffffffffffffff1681565b60025473ffffffffffffffffffffffffffffffffffffffff163314610c2e57604080517f08c379a000000000000000000000000000000000000000000000000000000000815260206004820152601660248201527f496d7065726d61783a20554e415554484f52495a454400000000000000000000604482015290519081900360640190fd5b6003805473ffffffffffffffffffffffffffffffffffffffff8381167fffffffffffffffffffffffff0000000000000000000000000000000000000000831681179093556040805191909216808252602082019390935281517f01d5e27ed5584d16c62ba1a14cfde0783f979d4797a3fc41342aff17d8ef5b41929181900390910190a15050565b600080610cc2836129b4565b91509150610cce612d9f565b5073ffffffffffffffffffffffffffffffffffffffff808416600090815260056020908152604091829020825160a081018452815460ff8116158015835262ffffff61010083041694830194909452640100000000900485169381019390935260018101548416606084015260020154909216608082015290610db257604080517f08c379a000000000000000000000000000000000000000000000000000000000815260206004820152601d60248201527f496d7065726d61783a20414c52454144595f494e495449414c495a4544000000604482015290519081900360640190fd5b604081015173ffffffffffffffffffffffffffffffffffffffff16610e22576040517f08c379a0000000000000000000000000000000000000000000000000000000008152600401808060200182810382526026815260200180612def6026913960400191505060405180910390fd5b606081015173ffffffffffffffffffffffffffffffffffffffff16610e92576040517f08c379a0000000000000000000000000000000000000000000000000000000008152600401808060200182810382526021815260200180612e156021913960400191505060405180910390fd5b608081015173ffffffffffffffffffffffffffffffffffffffff16610f02576040517f08c379a0000000000000000000000000000000000000000000000000000000008152600401808060200182810382526021815260200180612dce6021913960400191505060405180910390fd5b600a54604080517f1a788a0200000000000000000000000000000000000000000000000000000000815273ffffffffffffffffffffffffffffffffffffffff878116600483015291516000939290921691631a788a029160248082019260c092909190829003018186803b158015610f7957600080fd5b505afa158015610f8d573d6000803e3d6000fd5b505050506040513d60c0811015610fa357600080fd5b5060a0015190508061103c57600a54604080517fc4d66de800000000000000000000000000000000000000000000000000000000815273ffffffffffffffffffffffffffffffffffffffff88811660048301529151919092169163c4d66de891602480830192600092919082900301818387803b15801561102357600080fd5b505af1158015611037573d6000803e3d6000fd5b505050505b60608473ffffffffffffffffffffffffffffffffffffffff166395d89b416040518163ffffffff1660e01b815260040160006040518083038186803b15801561108457600080fd5b505afa158015611098573d6000803e3d6000fd5b505050506040513d6000823e601f3d9081017fffffffffffffffffffffffffffffffffffffffffffffffffffffffffffffffe016820160405260208110156110df57600080fd5b81019080805160405193929190846401000000008211156110ff57600080fd5b90830190602082018581111561111457600080fd5b825164010000000081118282018810171561112e57600080fd5b82525081516020918201929091019080838360005b8381101561115b578181015183820152602001611143565b50505050905090810190601f1680156111885780820380516001836020036101000a031916815260200191505b50604052505050905060608473ffffffffffffffffffffffffffffffffffffffff166395d89b416040518163ffffffff1660e01b815260040160006040518083038186803b1580156111d957600080fd5b505afa1580156111ed573d6000803e3d6000fd5b505050506040513d6000823e601f3d9081017fffffffffffffffffffffffffffffffffffffffffffffffffffffffffffffffe0168201604052602081101561123457600080fd5b810190808051604051939291908464010000000082111561125457600080fd5b90830190602082018581111561126957600080fd5b825164010000000081118282018810171561128357600080fd5b82525081516020918201929091019080838360005b838110156112b0578181015183820152602001611298565b50505050905090810190601f1680156112dd5780820380516001836020036101000a031916815260200191505b50604052505050905060606112fa856020015162ffffff16612883565b9050606083838360405160200180807f496d7065726d617820556e6956323a200000000000000000000000000000000081525060100184805190602001908083835b6020831061137957805182527fffffffffffffffffffffffffffffffffffffffffffffffffffffffffffffffe0909201916020918201910161133c565b6001836020036101000a038019825116818451168082178552505050505050905001807f2d0000000000000000000000000000000000000000000000000000000000000081525060010183805190602001908083835b6020831061140c57805182527fffffffffffffffffffffffffffffffffffffffffffffffffffffffffffffffe090920191602091820191016113cf565b6001836020036101000a038019825116818451168082178552505050505050905001807f2d0000000000000000000000000000000000000000000000000000000000000081525060010182805190602001908083835b6020831061149f57805182527fffffffffffffffffffffffffffffffffffffffffffffffffffffffffffffffe09092019160209182019101611462565b6001836020036101000a03801982511681845116808217855250505050505090500193505050506040516020818303038152906040529050606084848460405160200180807f690000000000000000000000000000000000000000000000000000000000000081525060010184805190602001908083835b6020831061155457805182527fffffffffffffffffffffffffffffffffffffffffffffffffffffffffffffffe09092019160209182019101611517565b6001836020036101000a038019825116818451168082178552505050505050905001807f2d0000000000000000000000000000000000000000000000000000000000000081525060010183805190602001908083835b602083106115e757805182527fffffffffffffffffffffffffffffffffffffffffffffffffffffffffffffffe090920191602091820191016115aa565b6001836020036101000a038019825116818451168082178552505050505050905001807f2d0000000000000000000000000000000000000000000000000000000000000081525060010182805190602001908083835b6020831061167a57805182527fffffffffffffffffffffffffffffffffffffffffffffffffffffffffffffffe0909201916020918201910161163d565b6001836020036101000a03801982511681845116808217855250505050505090500193505050506040516020818303038152906040529050866040015173ffffffffffffffffffffffffffffffffffffffff1663c548e3c583838d8b606001518c608001516040518663ffffffff1660e01b81526004018080602001806020018673ffffffffffffffffffffffffffffffffffffffff1673ffffffffffffffffffffffffffffffffffffffff1681526020018573ffffffffffffffffffffffffffffffffffffffff1673ffffffffffffffffffffffffffffffffffffffff1681526020018473ffffffffffffffffffffffffffffffffffffffff1673ffffffffffffffffffffffffffffffffffffffff168152602001838103835288818151815260200191508051906020019080838360005b838110156117c55781810151838201526020016117ad565b50505050905090810190601f1680156117f25780820380516001836020036101000a031916815260200191505b50838103825287518152875160209182019189019080838360005b8381101561182557818101518382015260200161180d565b50505050905090810190601f1680156118525780820380516001836020036101000a031916815260200191505b50975050505050505050600060405180830381600087803b15801561187657600080fd5b505af115801561188a573d6000803e3d6000fd5b50505050848360405160200180807f496d7065726d617820556e6956323a200000000000000000000000000000000081525060100183805190602001908083835b6020831061190857805182527fffffffffffffffffffffffffffffffffffffffffffffffffffffffffffffffe090920191602091820191016118cb565b6001836020036101000a038019825116818451168082178552505050505050905001807f2d0000000000000000000000000000000000000000000000000000000000000081525060010182805190602001908083835b6020831061199b57805182527fffffffffffffffffffffffffffffffffffffffffffffffffffffffffffffffe0909201916020918201910161195e565b6001836020036101000a038019825116818451168082178552505050505050905001925050506040516020818303038152906040529150848360405160200180807f690000000000000000000000000000000000000000000000000000000000000081525060010183805190602001908083835b60208310611a4c57805182527fffffffffffffffffffffffffffffffffffffffffffffffffffffffffffffffe09092019160209182019101611a0f565b6001836020036101000a038019825116818451168082178552505050505050905001807f2d0000000000000000000000000000000000000000000000000000000000000081525060010182805190602001908083835b60208310611adf57805182527fffffffffffffffffffffffffffffffffffffffffffffffffffffffffffffffe09092019160209182019101611aa2565b6001836020036101000a038019825116818451168082178552505050505050905001925050506040516020818303038152906040529050866060015173ffffffffffffffffffffffffffffffffffffffff16636a030c1183838c8b604001516040518563ffffffff1660e01b81526004018080602001806020018573ffffffffffffffffffffffffffffffffffffffff1673ffffffffffffffffffffffffffffffffffffffff1681526020018473ffffffffffffffffffffffffffffffffffffffff1673ffffffffffffffffffffffffffffffffffffffff168152602001838103835287818151815260200191508051906020019080838360005b83811015611bf2578181015183820152602001611bda565b50505050905090810190601f168015611c1f5780820380516001836020036101000a031916815260200191505b50838103825286518152865160209182019188019080838360005b83811015611c52578181015183820152602001611c3a565b50505050905090810190601f168015611c7f5780820380516001836020036101000a031916815260200191505b509650505050505050600060405180830381600087803b158015611ca257600080fd5b505af1158015611cb6573d6000803e3d6000fd5b50505050838360405160200180807f496d7065726d617820556e6956323a200000000000000000000000000000000081525060100183805190602001908083835b60208310611d3457805182527fffffffffffffffffffffffffffffffffffffffffffffffffffffffffffffffe09092019160209182019101611cf7565b6001836020036101000a038019825116818451168082178552505050505050905001807f2d0000000000000000000000000000000000000000000000000000000000000081525060010182805190602001908083835b60208310611dc757805182527fffffffffffffffffffffffffffffffffffffffffffffffffffffffffffffffe09092019160209182019101611d8a565b6001836020036101000a038019825116818451168082178552505050505050905001925050506040516020818303038152906040529150838360405160200180807f690000000000000000000000000000000000000000000000000000000000000081525060010183805190602001908083835b60208310611e7857805182527fffffffffffffffffffffffffffffffffffffffffffffffffffffffffffffffe09092019160209182019101611e3b565b6001836020036101000a038019825116818451168082178552505050505050905001807f2d0000000000000000000000000000000000000000000000000000000000000081525060010182805190602001908083835b60208310611f0b57805182527fffffffffffffffffffffffffffffffffffffffffffffffffffffffffffffffe09092019160209182019101611ece565b6001836020036101000a038019825116818451168082178552505050505050905001925050506040516020818303038152906040529050866080015173ffffffffffffffffffffffffffffffffffffffff16636a030c1183838b8b604001516040518563ffffffff1660e01b81526004018080602001806020018573ffffffffffffffffffffffffffffffffffffffff1673ffffffffffffffffffffffffffffffffffffffff1681526020018473ffffffffffffffffffffffffffffffffffffffff1673ffffffffffffffffffffffffffffffffffffffff168152602001838103835287818151815260200191508051906020019080838360005b8381101561201e578181015183820152602001612006565b50505050905090810190601f16801561204b5780820380516001836020036101000a031916815260200191505b50838103825286518152865160209182019188019080838360005b8381101561207e578181015183820152602001612066565b50505050905090810190601f1680156120ab5780820380516001836020036101000a031916815260200191505b509650505050505050600060405180830381600087803b1580156120ce57600080fd5b505af11580156120e2573d6000803e3d6000fd5b505050506001600560008c73ffffffffffffffffffffffffffffffffffffffff1673ffffffffffffffffffffffffffffffffffffffff16815260200190815260200160002060000160006101000a81548160ff0219169083151502179055508773ffffffffffffffffffffffffffffffffffffffff168973ffffffffffffffffffffffffffffffffffffffff168b73ffffffffffffffffffffffffffffffffffffffff167f4c3ab495dc8ebd1b2f3232d7632e54411bc7e4d111475e7fbbd5547d9a28c4958a604001518b606001518c608001518d60200151604051808573ffffffffffffffffffffffffffffffffffffffff1673ffffffffffffffffffffffffffffffffffffffff1681526020018473ffffffffffffffffffffffffffffffffffffffff1673ffffffffffffffffffffffffffffffffffffffff1681526020018373ffffffffffffffffffffffffffffffffffffffff1673ffffffffffffffffffffffffffffffffffffffff1681526020018262ffffff16815260200194505050505060405180910390a450505050505050505050565b60005473ffffffffffffffffffffffffffffffffffffffff16331461230057604080517f08c379a000000000000000000000000000000000000000000000000000000000815260206004820152601660248201527f496d7065726d61783a20554e415554484f52495a454400000000000000000000604482015290519081900360640190fd5b6001805473ffffffffffffffffffffffffffffffffffffffff8381167fffffffffffffffffffffffff0000000000000000000000000000000000000000831681179093556040805191909216808252602082019390935281517fca4f2f25d0898edd99413412fb94012f9e54ec8142f9b093e7720646a95b16a9929181900390910190a15050565b6000612393826129b4565b505073ffffffffffffffffffffffffffffffffffffffff828116600090815260056020526040902060020154161561242c57604080517f08c379a000000000000000000000000000000000000000000000000000000000815260206004820152601860248201527f496d7065726d61783a20414c52454144595f4558495354530000000000000000604482015290519081900360640190fd5b600754604080517f54bcd7ad00000000000000000000000000000000000000000000000000000000815273ffffffffffffffffffffffffffffffffffffffff858116600483015260016024830152915191909216916354bcd7ad9160448083019260209291908290030181600087803b1580156124a857600080fd5b505af11580156124bc573d6000803e3d6000fd5b505050506040513d60208110156124d257600080fd5b5051604080517f4a5d316c000000000000000000000000000000000000000000000000000000008152905191925073ffffffffffffffffffffffffffffffffffffffff831691634a5d316c9160048082019260009290919082900301818387803b15801561253f57600080fd5b505af1158015612553573d6000803e3d6000fd5b5050505061256082612bf4565b73ffffffffffffffffffffffffffffffffffffffff918216600090815260056020526040902060020180547fffffffffffffffffffffffff0000000000000000000000000000000000000000169282169290921790915590565b600681815481106125c757fe5b60009182526020909120015473ffffffffffffffffffffffffffffffffffffffff16905081565b60075473ffffffffffffffffffffffffffffffffffffffff1681565b60015473ffffffffffffffffffffffffffffffffffffffff16331461269057604080517f08c379a000000000000000000000000000000000000000000000000000000000815260206004820152601660248201527f496d7065726d61783a20554e415554484f52495a454400000000000000000000604482015290519081900360640190fd5b600080546001805473ffffffffffffffffffffffffffffffffffffffff8082167fffffffffffffffffffffffff000000000000000000000000000000000000000080861682179687905590921690925560408051938316808552949092166020840152815190927ff9ffabca9c8276e99321725bcb43fb076a6c66a54b7f21c4e8146d8519b417dc92908290030190a16040805173ffffffffffffffffffffffffffffffffffffffff831681526000602082015281517fca4f2f25d0898edd99413412fb94012f9e54ec8142f9b093e7720646a95b16a9929181900390910190a15050565b60025473ffffffffffffffffffffffffffffffffffffffff1633146127fb57604080517f08c379a000000000000000000000000000000000000000000000000000000000815260206004820152601660248201527f496d7065726d61783a20554e415554484f52495a454400000000000000000000604482015290519081900360640190fd5b6004805473ffffffffffffffffffffffffffffffffffffffff8381167fffffffffffffffffffffffff0000000000000000000000000000000000000000831681179093556040805191909216808252602082019390935281517f324bacfad26225895fcf55780481bec4ce49013c92500fa1c25626ff43fbf661929181900390910190a15050565b6060816128c4575060408051808201909152600181527f30000000000000000000000000000000000000000000000000000000000000006020820152612993565b8160005b81156128dc57600101600a820491506128c8565b6060816040519080825280601f01601f191660200182016040528015612909576020820181803883390190505b5090507fffffffffffffffffffffffffffffffffffffffffffffffffffffffffffffffff82015b851561298d57600a860660300160f81b8282806001900393508151811061295357fe5b60200101907effffffffffffffffffffffffffffffffffffffffffffffffffffffffffffff1916908160001a905350600a86049550612930565b50925050505b919050565b60005473ffffffffffffffffffffffffffffffffffffffff1681565b6000808273ffffffffffffffffffffffffffffffffffffffff16630dfe16816040518163ffffffff1660e01b815260040160206040518083038186803b1580156129fd57600080fd5b505afa158015612a11573d6000803e3d6000fd5b505050506040513d6020811015612a2757600080fd5b5051604080517fd21220a7000000000000000000000000000000000000000000000000000000008152905191935073ffffffffffffffffffffffffffffffffffffffff85169163d21220a791600480820192602092909190829003018186803b158015612a9357600080fd5b505afa158015612aa7573d6000803e3d6000fd5b505050506040513d6020811015612abd57600080fd5b5051600954604080517fe6a4390500000000000000000000000000000000000000000000000000000000815273ffffffffffffffffffffffffffffffffffffffff86811660048301528085166024830152915193945086821693919092169163e6a43905916044808301926020929190829003018186803b158015612b4157600080fd5b505afa158015612b55573d6000803e3d6000fd5b505050506040513d6020811015612b6b57600080fd5b505173ffffffffffffffffffffffffffffffffffffffff1614612bef57604080517f08c379a000000000000000000000000000000000000000000000000000000000815260206004820152601860248201527f496d7065726d61783a204e4f545f554e4956325f504149520000000000000000604482015290519081900360640190fd5b915091565b73ffffffffffffffffffffffffffffffffffffffff8116600090815260056020526040902054610100900462ffffff1615612c2e57612d9c565b60068054600181810183557ff652222313e28459528d920b65115c16c04f3efc82aaedc97be59f3f377c0d3f909101805473ffffffffffffffffffffffffffffffffffffffff8086167fffffffffffffffffffffffff000000000000000000000000000000000000000092831681179093556040805160a0810182526000808252965462ffffff90811660208381019182528385018a8152606085018b8152608086018c8152998c5260059092529490992092518354915194518616640100000000027fffffffffffffffff0000000000000000000000000000000000000000ffffffff95909316610100027fffffffffffffffffffffffffffffffffffffffffffffffffffffffff000000ff9115157fffffffffffffffffffffffffffffffffffffffffffffffffffffffffffffff009093169290921716179290921691909117815594519385018054948216948316949094179093559051600290930180549390921692169190911790555b50565b6040805160a0810182526000808252602082018190529181018290526060810182905260808101919091529056fe496d7065726d61783a20424f52524f5741424c45315f4e4f545f43524541544544496d7065726d61783a20434f4c4c41544552414c495a41424c455f4e4f545f43524541544544496d7065726d61783a20424f52524f5741424c45305f4e4f545f43524541544544a265627a7a72315820d4524a2264a0465a9aba2dfdfcd457a749930d8b94d20194b376010ae31312b264736f6c63430005100032",
  "source": "pragma solidity =0.5.16;\r\n\r\nimport \"./interfaces/IFactory.sol\";\r\nimport \"./interfaces/IBDeployer.sol\";\r\nimport \"./interfaces/IBorrowable.sol\";\r\nimport \"./interfaces/ICDeployer.sol\";\r\nimport \"./interfaces/ICollateral.sol\";\r\nimport \"./interfaces/IERC20.sol\";\r\nimport \"./interfaces/IUniswapV2Pair.sol\";\r\nimport \"./interfaces/IUniswapV2Factory.sol\";\r\nimport \"./interfaces/ISimpleUniswapOracle.sol\";\r\n\r\ncontract Factory is IFactory {\r\n\taddress public admin;\r\n\taddress public pendingAdmin;\r\n\taddress public reservesAdmin;\r\n\taddress public reservesPendingAdmin;\r\n\taddress public reservesManager;\r\n\t\t\r\n\tstruct LendingPool {\r\n\t\tbool initialized;\r\n\t\tuint24 lendingPoolId;\r\n\t\taddress collateral;\r\n\t\taddress borrowable0;\r\n\t\taddress borrowable1;\r\n\t}\r\n\tmapping(address => LendingPool) public getLendingPool; // get by UniswapV2Pair\r\n\taddress[] public allLendingPools; // address of the UniswapV2Pair\r\n\tfunction allLendingPoolsLength() external view returns (uint) {\r\n\t\treturn allLendingPools.length;\r\n\t}\r\n\t\r\n\tIBDeployer public bDeployer;\r\n\tICDeployer public cDeployer;\r\n\tIUniswapV2Factory public uniswapV2Factory;\r\n\tISimpleUniswapOracle public simpleUniswapOracle;\r\n\t\r\n\tevent LendingPoolInitialized(address indexed uniswapV2Pair, address indexed token0, address indexed token1,\r\n\t\taddress collateral, address borrowable0, address borrowable1, uint lendingPoolId);\r\n\tevent NewPendingAdmin(address oldPendingAdmin, address newPendingAdmin);\r\n\tevent NewAdmin(address oldAdmin, address newAdmin);\r\n\tevent NewReservesPendingAdmin(address oldReservesPendingAdmin, address newReservesPendingAdmin);\r\n\tevent NewReservesAdmin(address oldReservesAdmin, address newReservesAdmin);\r\n\tevent NewReservesManager(address oldReservesManager, address newReservesManager);\r\n\t\r\n\tconstructor(address _admin, address _reservesAdmin, IBDeployer _bDeployer, ICDeployer _cDeployer, IUniswapV2Factory _uniswapV2Factory, ISimpleUniswapOracle _simpleUniswapOracle) public {\r\n\t\tadmin = _admin;\r\n\t\treservesAdmin = _reservesAdmin;\r\n\t\tbDeployer = _bDeployer;\r\n\t\tcDeployer = _cDeployer;\r\n\t\tuniswapV2Factory = _uniswapV2Factory;\r\n\t\tsimpleUniswapOracle = _simpleUniswapOracle;\r\n\t\temit NewAdmin(address(0), _admin);\r\n\t\temit NewReservesAdmin(address(0), _reservesAdmin);\r\n\t}\r\n\t\r\n\tfunction _getTokens(address uniswapV2Pair) private view returns (address token0, address token1) {\r\n\t\ttoken0 = IUniswapV2Pair(uniswapV2Pair).token0();\r\n\t\ttoken1 = IUniswapV2Pair(uniswapV2Pair).token1();\r\n\t\trequire(uniswapV2Factory.getPair(token0, token1) == uniswapV2Pair, \"Impermax: NOT_UNIV2_PAIR\");\r\n\t}\r\n\t\r\n\tfunction _createLendingPool(address uniswapV2Pair) private {\r\n\t\tif (getLendingPool[uniswapV2Pair].lendingPoolId != 0) return;\r\n\t\tallLendingPools.push(uniswapV2Pair);\t\t\r\n\t\tgetLendingPool[uniswapV2Pair] = LendingPool(false, uint24(allLendingPools.length), address(0), address(0), address(0));\r\n\t}\r\n\t\r\n\tfunction createCollateral(address uniswapV2Pair) external returns (address collateral) {\r\n\t\t_getTokens(uniswapV2Pair);\r\n\t\trequire(getLendingPool[uniswapV2Pair].collateral == address(0), \"Impermax: ALREADY_EXISTS\");\t\t\r\n\t\tcollateral = cDeployer.deployCollateral(uniswapV2Pair);\r\n\t\tICollateral(collateral)._setFactory();\r\n\t\t_createLendingPool(uniswapV2Pair);\r\n\t\tgetLendingPool[uniswapV2Pair].collateral = collateral;\r\n\t}\r\n\t\r\n\tfunction createBorrowable0(address uniswapV2Pair) external returns (address borrowable0) {\r\n\t\t_getTokens(uniswapV2Pair);\r\n\t\trequire(getLendingPool[uniswapV2Pair].borrowable0 == address(0), \"Impermax: ALREADY_EXISTS\");\t\t\r\n\t\tborrowable0 = bDeployer.deployBorrowable(uniswapV2Pair, 0);\r\n\t\tIBorrowable(borrowable0)._setFactory();\r\n\t\t_createLendingPool(uniswapV2Pair);\r\n\t\tgetLendingPool[uniswapV2Pair].borrowable0 = borrowable0;\r\n\t}\r\n\t\r\n\tfunction createBorrowable1(address uniswapV2Pair) external returns (address borrowable1) {\r\n\t\t_getTokens(uniswapV2Pair);\r\n\t\trequire(getLendingPool[uniswapV2Pair].borrowable1 == address(0), \"Impermax: ALREADY_EXISTS\");\t\t\r\n\t\tborrowable1 = bDeployer.deployBorrowable(uniswapV2Pair, 1);\r\n\t\tIBorrowable(borrowable1)._setFactory();\r\n\t\t_createLendingPool(uniswapV2Pair);\r\n\t\tgetLendingPool[uniswapV2Pair].borrowable1 = borrowable1;\r\n\t}\r\n\t\r\n\tfunction initializeLendingPool(address uniswapV2Pair) external {\r\n\t\t(address token0, address token1) = _getTokens(uniswapV2Pair);\r\n\t\tLendingPool memory lPool = getLendingPool[uniswapV2Pair];\r\n\t\trequire(!lPool.initialized, \"Impermax: ALREADY_INITIALIZED\");\r\n\t\t\r\n\t\trequire(lPool.collateral != address(0), \"Impermax: COLLATERALIZABLE_NOT_CREATED\");\r\n\t\trequire(lPool.borrowable0 != address(0), \"Impermax: BORROWABLE0_NOT_CREATED\");\r\n\t\trequire(lPool.borrowable1 != address(0), \"Impermax: BORROWABLE1_NOT_CREATED\");\r\n\t\t\r\n\t\t(,,,,,bool oracleInitialized) = simpleUniswapOracle.getPair(uniswapV2Pair);\r\n\t\tif (!oracleInitialized) simpleUniswapOracle.initialize(uniswapV2Pair);\r\n\t\t\r\n\t\tstring memory token0Symbol = IERC20(token0).symbol();\r\n\t\tstring memory token1Symbol = IERC20(token1).symbol();\r\n\t\tstring memory lendingPoolId = uint2str(lPool.lendingPoolId);\r\n\t\t\r\n\t\tstring memory name = string(abi.encodePacked(\"Impermax UniV2: \", token0Symbol, \"-\", token1Symbol, \"-\", lendingPoolId));\r\n\t\tstring memory symbol = string(abi.encodePacked(\"i\", token0Symbol, \"-\", token1Symbol, \"-\", lendingPoolId));\r\n\t\tICollateral(lPool.collateral)._initialize(name, symbol, uniswapV2Pair, lPool.borrowable0, lPool.borrowable1);\r\n\t\t\r\n\t\tname = string(abi.encodePacked(\"Impermax UniV2: \", token0Symbol, \"-\", lendingPoolId));\r\n\t\tsymbol = string(abi.encodePacked(\"i\", token0Symbol, \"-\", lendingPoolId));\r\n\t\tIBorrowable(lPool.borrowable0)._initialize(name, symbol, token0, lPool.collateral);\r\n\t\t\r\n\t\tname = string(abi.encodePacked(\"Impermax UniV2: \", token1Symbol, \"-\", lendingPoolId));\r\n\t\tsymbol = string(abi.encodePacked(\"i\", token1Symbol, \"-\", lendingPoolId));\r\n\t\tIBorrowable(lPool.borrowable1)._initialize(name, symbol, token1, lPool.collateral);\r\n\t\t\r\n\t\tgetLendingPool[uniswapV2Pair].initialized = true;\r\n\t\temit LendingPoolInitialized(uniswapV2Pair, token0, token1, lPool.collateral, lPool.borrowable0, lPool.borrowable1, lPool.lendingPoolId);\r\n\t}\r\n\t\r\n\tfunction _setPendingAdmin(address newPendingAdmin) external {\r\n\t\trequire(msg.sender == admin, \"Impermax: UNAUTHORIZED\");\r\n\t\taddress oldPendingAdmin = pendingAdmin;\r\n\t\tpendingAdmin = newPendingAdmin;\r\n\t\temit NewPendingAdmin(oldPendingAdmin, newPendingAdmin);\r\n\t}\r\n\r\n\tfunction _acceptAdmin() external {\r\n\t\trequire(msg.sender == pendingAdmin, \"Impermax: UNAUTHORIZED\");\r\n\t\taddress oldAdmin = admin;\r\n\t\taddress oldPendingAdmin = pendingAdmin;\r\n\t\tadmin = pendingAdmin;\r\n\t\tpendingAdmin = address(0);\r\n\t\temit NewAdmin(oldAdmin, admin);\r\n\t\temit NewPendingAdmin(oldPendingAdmin, address(0));\r\n\t}\r\n\t\r\n\tfunction _setReservesPendingAdmin(address newReservesPendingAdmin) external {\r\n\t\trequire(msg.sender == reservesAdmin, \"Impermax: UNAUTHORIZED\");\r\n\t\taddress oldReservesPendingAdmin = reservesPendingAdmin;\r\n\t\treservesPendingAdmin = newReservesPendingAdmin;\r\n\t\temit NewReservesPendingAdmin(oldReservesPendingAdmin, newReservesPendingAdmin);\r\n\t}\r\n\r\n\tfunction _acceptReservesAdmin() external {\r\n\t\trequire(msg.sender == reservesPendingAdmin, \"Impermax: UNAUTHORIZED\");\r\n\t\taddress oldReservesAdmin = reservesAdmin;\r\n\t\taddress oldReservesPendingAdmin = reservesPendingAdmin;\r\n\t\treservesAdmin = reservesPendingAdmin;\r\n\t\treservesPendingAdmin = address(0);\r\n\t\temit NewReservesAdmin(oldReservesAdmin, reservesAdmin);\r\n\t\temit NewReservesPendingAdmin(oldReservesPendingAdmin, address(0));\r\n\t}\r\n\r\n\tfunction _setReservesManager(address newReservesManager) external {\r\n\t\trequire(msg.sender == reservesAdmin, \"Impermax: UNAUTHORIZED\");\r\n\t\taddress oldReservesManager = reservesManager;\r\n\t\treservesManager = newReservesManager;\r\n\t\temit NewReservesManager(oldReservesManager, newReservesManager);\r\n\t}\r\n\t\r\n\tfunction uint2str(uint _i) public pure returns (string memory _uintAsString) {\r\n\t\tif (_i == 0) return \"0\";\r\n\t\tuint j = _i;\r\n\t\tuint len;\r\n\t\twhile (j != 0) {\r\n\t\t\tlen++;\r\n\t\t\tj /= 10;\r\n\t\t}\r\n\t\tbytes memory bstr = new bytes(len);\r\n\t\tuint k = len - 1;\r\n\t\twhile (_i != 0) {\r\n\t\t\tbstr[k--] = byte(uint8(48 + _i % 10));\r\n\t\t\t_i /= 10;\r\n\t\t}\r\n\t\treturn string(bstr);\r\n\t}\r\n}\r\n",
  "sourcePath": "C:/Users/simor/Desktop/impermax-x-uniswapv2-periphery/test/Contracts/imx-univ2-core/Factory.sol",
  "compiler": {
    "name": "solc",
    "version": "0.5.16+commit.9c3226ce.Emscripten.clang"
  },
  "schemaVersion": "3.3.2",
  "updatedAt": "2021-02-23T13:50:05.438Z",
  "networkType": "ethereum",
  "devdoc": {
    "methods": {}
  },
  "userdoc": {
    "methods": {}
  }
}