{
  "contractName": "PoolToken",
  "abi": [
    {
      "anonymous": false,
      "inputs": [
        {
          "indexed": true,
          "internalType": "address",
          "name": "owner",
          "type": "address"
        },
        {
          "indexed": true,
          "internalType": "address",
          "name": "spender",
          "type": "address"
        },
        {
          "indexed": false,
          "internalType": "uint256",
          "name": "value",
          "type": "uint256"
        }
      ],
      "name": "Approval",
      "type": "event"
    },
    {
      "anonymous": false,
      "inputs": [
        {
          "indexed": true,
          "internalType": "address",
          "name": "sender",
          "type": "address"
        },
        {
          "indexed": true,
          "internalType": "address",
          "name": "minter",
          "type": "address"
        },
        {
          "indexed": false,
          "internalType": "uint256",
          "name": "mintAmount",
          "type": "uint256"
        },
        {
          "indexed": false,
          "internalType": "uint256",
          "name": "mintTokens",
          "type": "uint256"
        }
      ],
      "name": "Mint",
      "type": "event"
    },
    {
      "anonymous": false,
      "inputs": [
        {
          "indexed": true,
          "internalType": "address",
          "name": "sender",
          "type": "address"
        },
        {
          "indexed": true,
          "internalType": "address",
          "name": "redeemer",
          "type": "address"
        },
        {
          "indexed": false,
          "internalType": "uint256",
          "name": "redeemAmount",
          "type": "uint256"
        },
        {
          "indexed": false,
          "internalType": "uint256",
          "name": "redeemTokens",
          "type": "uint256"
        }
      ],
      "name": "Redeem",
      "type": "event"
    },
    {
      "anonymous": false,
      "inputs": [
        {
          "indexed": false,
          "internalType": "uint256",
          "name": "totalBalance",
          "type": "uint256"
        }
      ],
      "name": "Sync",
      "type": "event"
    },
    {
      "anonymous": false,
      "inputs": [
        {
          "indexed": true,
          "internalType": "address",
          "name": "from",
          "type": "address"
        },
        {
          "indexed": true,
          "internalType": "address",
          "name": "to",
          "type": "address"
        },
        {
          "indexed": false,
          "internalType": "uint256",
          "name": "value",
          "type": "uint256"
        }
      ],
      "name": "Transfer",
      "type": "event"
    },
    {
      "constant": true,
      "inputs": [],
      "name": "DOMAIN_SEPARATOR",
      "outputs": [
        {
          "internalType": "bytes32",
          "name": "",
          "type": "bytes32"
        }
      ],
      "payable": false,
      "stateMutability": "view",
      "type": "function"
    },
    {
      "constant": true,
      "inputs": [],
      "name": "MINIMUM_LIQUIDITY",
      "outputs": [
        {
          "internalType": "uint256",
          "name": "",
          "type": "uint256"
        }
      ],
      "payable": false,
      "stateMutability": "view",
      "type": "function"
    },
    {
      "constant": true,
      "inputs": [],
      "name": "PERMIT_TYPEHASH",
      "outputs": [
        {
          "internalType": "bytes32",
          "name": "",
          "type": "bytes32"
        }
      ],
      "payable": false,
      "stateMutability": "view",
      "type": "function"
    },
    {
      "constant": true,
      "inputs": [
        {
          "internalType": "address",
          "name": "",
          "type": "address"
        },
        {
          "internalType": "address",
          "name": "",
          "type": "address"
        }
      ],
      "name": "allowance",
      "outputs": [
        {
          "internalType": "uint256",
          "name": "",
          "type": "uint256"
        }
      ],
      "payable": false,
      "stateMutability": "view",
      "type": "function"
    },
    {
      "constant": false,
      "inputs": [
        {
          "internalType": "address",
          "name": "spender",
          "type": "address"
        },
        {
          "internalType": "uint256",
          "name": "value",
          "type": "uint256"
        }
      ],
      "name": "approve",
      "outputs": [
        {
          "internalType": "bool",
          "name": "",
          "type": "bool"
        }
      ],
      "payable": false,
      "stateMutability": "nonpayable",
      "type": "function"
    },
    {
      "constant": true,
      "inputs": [
        {
          "internalType": "address",
          "name": "",
          "type": "address"
        }
      ],
      "name": "balanceOf",
      "outputs": [
        {
          "internalType": "uint256",
          "name": "",
          "type": "uint256"
        }
      ],
      "payable": false,
      "stateMutability": "view",
      "type": "function"
    },
    {
      "constant": true,
      "inputs": [],
      "name": "decimals",
      "outputs": [
        {
          "internalType": "uint8",
          "name": "",
          "type": "uint8"
        }
      ],
      "payable": false,
      "stateMutability": "view",
      "type": "function"
    },
    {
      "constant": true,
      "inputs": [],
      "name": "factory",
      "outputs": [
        {
          "internalType": "address",
          "name": "",
          "type": "address"
        }
      ],
      "payable": false,
      "stateMutability": "view",
      "type": "function"
    },
    {
      "constant": true,
      "inputs": [],
      "name": "name",
      "outputs": [
        {
          "internalType": "string",
          "name": "",
          "type": "string"
        }
      ],
      "payable": false,
      "stateMutability": "view",
      "type": "function"
    },
    {
      "constant": true,
      "inputs": [
        {
          "internalType": "address",
          "name": "",
          "type": "address"
        }
      ],
      "name": "nonces",
      "outputs": [
        {
          "internalType": "uint256",
          "name": "",
          "type": "uint256"
        }
      ],
      "payable": false,
      "stateMutability": "view",
      "type": "function"
    },
    {
      "constant": false,
      "inputs": [
        {
          "internalType": "address",
          "name": "owner",
          "type": "address"
        },
        {
          "internalType": "address",
          "name": "spender",
          "type": "address"
        },
        {
          "internalType": "uint256",
          "name": "value",
          "type": "uint256"
        },
        {
          "internalType": "uint256",
          "name": "deadline",
          "type": "uint256"
        },
        {
          "internalType": "uint8",
          "name": "v",
          "type": "uint8"
        },
        {
          "internalType": "bytes32",
          "name": "r",
          "type": "bytes32"
        },
        {
          "internalType": "bytes32",
          "name": "s",
          "type": "bytes32"
        }
      ],
      "name": "permit",
      "outputs": [],
      "payable": false,
      "stateMutability": "nonpayable",
      "type": "function"
    },
    {
      "constant": true,
      "inputs": [],
      "name": "symbol",
      "outputs": [
        {
          "internalType": "string",
          "name": "",
          "type": "string"
        }
      ],
      "payable": false,
      "stateMutability": "view",
      "type": "function"
    },
    {
      "constant": true,
      "inputs": [],
      "name": "totalBalance",
      "outputs": [
        {
          "internalType": "uint256",
          "name": "",
          "type": "uint256"
        }
      ],
      "payable": false,
      "stateMutability": "view",
      "type": "function"
    },
    {
      "constant": true,
      "inputs": [],
      "name": "totalSupply",
      "outputs": [
        {
          "internalType": "uint256",
          "name": "",
          "type": "uint256"
        }
      ],
      "payable": false,
      "stateMutability": "view",
      "type": "function"
    },
    {
      "constant": false,
      "inputs": [
        {
          "internalType": "address",
          "name": "to",
          "type": "address"
        },
        {
          "internalType": "uint256",
          "name": "value",
          "type": "uint256"
        }
      ],
      "name": "transfer",
      "outputs": [
        {
          "internalType": "bool",
          "name": "",
          "type": "bool"
        }
      ],
      "payable": false,
      "stateMutability": "nonpayable",
      "type": "function"
    },
    {
      "constant": false,
      "inputs": [
        {
          "internalType": "address",
          "name": "from",
          "type": "address"
        },
        {
          "internalType": "address",
          "name": "to",
          "type": "address"
        },
        {
          "internalType": "uint256",
          "name": "value",
          "type": "uint256"
        }
      ],
      "name": "transferFrom",
      "outputs": [
        {
          "internalType": "bool",
          "name": "",
          "type": "bool"
        }
      ],
      "payable": false,
      "stateMutability": "nonpayable",
      "type": "function"
    },
    {
      "constant": true,
      "inputs": [],
      "name": "underlying",
      "outputs": [
        {
          "internalType": "address",
          "name": "",
          "type": "address"
        }
      ],
      "payable": false,
      "stateMutability": "view",
      "type": "function"
    },
    {
      "constant": false,
      "inputs": [],
      "name": "_setFactory",
      "outputs": [],
      "payable": false,
      "stateMutability": "nonpayable",
      "type": "function"
    },
    {
      "constant": false,
      "inputs": [],
      "name": "exchangeRate",
      "outputs": [
        {
          "internalType": "uint256",
          "name": "",
          "type": "uint256"
        }
      ],
      "payable": false,
      "stateMutability": "nonpayable",
      "type": "function"
    },
    {
      "constant": false,
      "inputs": [
        {
          "internalType": "address",
          "name": "minter",
          "type": "address"
        }
      ],
      "name": "mint",
      "outputs": [
        {
          "internalType": "uint256",
          "name": "mintTokens",
          "type": "uint256"
        }
      ],
      "payable": false,
      "stateMutability": "nonpayable",
      "type": "function"
    },
    {
      "constant": false,
      "inputs": [
        {
          "internalType": "address",
          "name": "redeemer",
          "type": "address"
        }
      ],
      "name": "redeem",
      "outputs": [
        {
          "internalType": "uint256",
          "name": "redeemAmount",
          "type": "uint256"
        }
      ],
      "payable": false,
      "stateMutability": "nonpayable",
      "type": "function"
    },
    {
      "constant": false,
      "inputs": [
        {
          "internalType": "address",
          "name": "to",
          "type": "address"
        }
      ],
      "name": "skim",
      "outputs": [],
      "payable": false,
      "stateMutability": "nonpayable",
      "type": "function"
    },
    {
      "constant": false,
      "inputs": [],
      "name": "sync",
      "outputs": [],
      "payable": false,
      "stateMutability": "nonpayable",
      "type": "function"
    }
  ],
  "bytecode": "0x60806040526002805460ff19908116601217909155600b80549091166001179055611c2b8061002f6000396000f3fe608060405234801561001057600080fd5b506004361061018d5760003560e01c806370a08231116100e3578063ba9a7a561161008c578063d505accf11610066578063d505accf14610482578063dd62ed3e146104e0578063fff6cae91461051b5761018d565b8063ba9a7a561461043f578063bc25cf7714610447578063c45a01551461047a5761018d565b806395d89b41116100bd57806395d89b41146103f6578063a9059cbb146103fe578063ad7a672f146104375761018d565b806370a082311461035d5780637ecebe001461039057806395a2251f146103c35761018d565b8063313ce567116101455780634a5d316c1161011f5780634a5d316c146102ef5780636a627842146102f95780636f307dc31461032c5761018d565b8063313ce567146102c15780633644e515146102df5780633ba0b9a9146102e75761018d565b806318160ddd1161017657806318160ddd1461025c57806323b872dd1461027657806330adf81f146102b95761018d565b806306fdde0314610192578063095ea7b31461020f575b600080fd5b61019a610523565b6040805160208082528351818301528351919283929083019185019080838360005b838110156101d45781810151838201526020016101bc565b50505050905090810190601f1680156102015780820380516001836020036101000a031916815260200191505b509250505060405180910390f35b6102486004803603604081101561022557600080fd5b5073ffffffffffffffffffffffffffffffffffffffff81351690602001356105cf565b604080519115158252519081900360200190f35b6102646105e6565b60408051918252519081900360200190f35b6102486004803603606081101561028c57600080fd5b5073ffffffffffffffffffffffffffffffffffffffff8135811691602081013590911690604001356105ec565b610264610700565b6102c9610724565b6040805160ff9092168252519081900360200190f35b61026461072d565b610264610733565b6102f761078f565b005b6102646004803603602081101561030f57600080fd5b503573ffffffffffffffffffffffffffffffffffffffff16610840565b610334610aee565b6040805173ffffffffffffffffffffffffffffffffffffffff9092168252519081900360200190f35b6102646004803603602081101561037357600080fd5b503573ffffffffffffffffffffffffffffffffffffffff16610b0a565b610264600480360360208110156103a657600080fd5b503573ffffffffffffffffffffffffffffffffffffffff16610b1c565b610264600480360360208110156103d957600080fd5b503573ffffffffffffffffffffffffffffffffffffffff16610b2e565b61019a610d52565b6102486004803603604081101561041457600080fd5b5073ffffffffffffffffffffffffffffffffffffffff8135169060200135610dca565b610264610dd7565b610264610ddd565b6102f76004803603602081101561045d57600080fd5b503573ffffffffffffffffffffffffffffffffffffffff16610de3565b610334610f66565b6102f7600480360360e081101561049857600080fd5b5073ffffffffffffffffffffffffffffffffffffffff813581169160208101359091169060408101359060608101359060ff6080820135169060a08101359060c00135610f82565b610264600480360360408110156104f657600080fd5b5073ffffffffffffffffffffffffffffffffffffffff81358116916020013516610fc6565b6102f7610fe3565b6000805460408051602060026001851615610100027fffffffffffffffffffffffffffffffffffffffffffffffffffffffffffffffff0190941693909304601f810184900484028201840190925281815292918301828280156105c75780601f1061059c576101008083540402835291602001916105c7565b820191906000526020600020905b8154815290600101906020018083116105aa57829003601f168201915b505050505081565b60006105dc3384846110b1565b5060015b92915050565b60035481565b73ffffffffffffffffffffffffffffffffffffffff831660009081526005602090815260408083203384529091528120547fffffffffffffffffffffffffffffffffffffffffffffffffffffffffffffffff146106eb57604080518082018252601e81527f496d7065726d61783a205452414e534645525f4e4f545f414c4c4f574544000060208083019190915273ffffffffffffffffffffffffffffffffffffffff871660009081526005825283812033825290915291909120546106b991849063ffffffff61112016565b73ffffffffffffffffffffffffffffffffffffffff851660009081526005602090815260408083203384529091529020555b6106f68484846111d1565b5060019392505050565b7f6e71edae12b1b97f4d1f60370fef10105fa2faae0126114a169c64845d6126c981565b60025460ff1681565b60065481565b600354600a5460009190811580610748575080155b1561075f57670de0b6b3a76400009250505061078c565b6107878261077b83670de0b6b3a764000063ffffffff6112ea16565b9063ffffffff61136416565b925050505b90565b60095473ffffffffffffffffffffffffffffffffffffffff161561081457604080517f08c379a000000000000000000000000000000000000000000000000000000000815260206004820152601d60248201527f496d7065726d61783a20464143544f52595f414c52454144595f534554000000604482015290519081900360640190fd5b600980547fffffffffffffffffffffffff00000000000000000000000000000000000000001633179055565b600b5460009060ff166108b457604080517f08c379a000000000000000000000000000000000000000000000000000000000815260206004820152601360248201527f496d7065726d61783a205245454e544552454400000000000000000000000000604482015290519081900360640190fd5b600b80547fffffffffffffffffffffffffffffffffffffffffffffffffffffffffffffff00169055600854604080517f70a08231000000000000000000000000000000000000000000000000000000008152306004820152905160009273ffffffffffffffffffffffffffffffffffffffff16916370a08231916024808301926020929190829003018186803b15801561094d57600080fd5b505afa158015610961573d6000803e3d6000fd5b505050506040513d602081101561097757600080fd5b5051600a5490915060009061099390839063ffffffff6113a616565b90506109b86109a0610733565b61077b83670de0b6b3a764000063ffffffff6112ea16565b9250600354600014156109e6576109d7836103e863ffffffff6113a616565b92506109e660006103e86113e8565b60008311610a5557604080517f08c379a000000000000000000000000000000000000000000000000000000000815260206004820152601a60248201527f496d7065726d61783a204d494e545f414d4f554e545f5a45524f000000000000604482015290519081900360640190fd5b610a5f84846113e8565b6040805182815260208101859052815173ffffffffffffffffffffffffffffffffffffffff87169233927f2f00e3cdd69a77be7ed215ec7b2a36784dd158f921fca79ac29deffa353fe6ee929081900390910190a35050610abe611499565b600b80547fffffffffffffffffffffffffffffffffffffffffffffffffffffffffffffff00166001179055919050565b60085473ffffffffffffffffffffffffffffffffffffffff1681565b60046020526000908152604090205481565b60076020526000908152604090205481565b600b5460009060ff16610ba257604080517f08c379a000000000000000000000000000000000000000000000000000000000815260206004820152601360248201527f496d7065726d61783a205245454e544552454400000000000000000000000000604482015290519081900360640190fd5b600b80547fffffffffffffffffffffffffffffffffffffffffffffffffffffffffffffff0016905530600090815260046020526040902054610bfe670de0b6b3a764000061077b610bf1610733565b849063ffffffff6112ea16565b915060008211610c6f57604080517f08c379a000000000000000000000000000000000000000000000000000000000815260206004820152601c60248201527f496d7065726d61783a2052454445454d5f414d4f554e545f5a45524f00000000604482015290519081900360640190fd5b600a54821115610ce057604080517f08c379a000000000000000000000000000000000000000000000000000000000815260206004820152601b60248201527f496d7065726d61783a20494e53554646494349454e545f434153480000000000604482015290519081900360640190fd5b610cea308261156f565b610cf48383611633565b6040805183815260208101839052815173ffffffffffffffffffffffffffffffffffffffff86169233927f3f693fff038bb8a046aa76d9516190ac7444f7d69cf952c4cbdc086fdef2d6fc929081900390910190a350610abe611499565b60018054604080516020600284861615610100027fffffffffffffffffffffffffffffffffffffffffffffffffffffffffffffffff0190941693909304601f810184900484028201840190925281815292918301828280156105c75780601f1061059c576101008083540402835291602001916105c7565b60006105dc3384846111d1565b600a5481565b6103e881565b600b5460ff16610e5457604080517f08c379a000000000000000000000000000000000000000000000000000000000815260206004820152601360248201527f496d7065726d61783a205245454e544552454400000000000000000000000000604482015290519081900360640190fd5b600b80547fffffffffffffffffffffffffffffffffffffffffffffffffffffffffffffff00169055600a54600854604080517f70a082310000000000000000000000000000000000000000000000000000000081523060048201529051610f38938593610f3393919273ffffffffffffffffffffffffffffffffffffffff909116916370a08231916024808301926020929190829003018186803b158015610efb57600080fd5b505afa158015610f0f573d6000803e3d6000fd5b505050506040513d6020811015610f2557600080fd5b50519063ffffffff6113a616565b611633565b50600b80547fffffffffffffffffffffffffffffffffffffffffffffffffffffffffffffff00166001179055565b60095473ffffffffffffffffffffffffffffffffffffffff1681565b610fb2878787878787877f6e71edae12b1b97f4d1f60370fef10105fa2faae0126114a169c64845d6126c961183f565b610fbd8787876110b1565b50505050505050565b600560209081526000928352604080842090915290825290205481565b600b5460ff1661105457604080517f08c379a000000000000000000000000000000000000000000000000000000000815260206004820152601360248201527f496d7065726d61783a205245454e544552454400000000000000000000000000604482015290519081900360640190fd5b600b80547fffffffffffffffffffffffffffffffffffffffffffffffffffffffffffffff00169055611084611499565b600b80547fffffffffffffffffffffffffffffffffffffffffffffffffffffffffffffff00166001179055565b73ffffffffffffffffffffffffffffffffffffffff808416600081815260056020908152604080832094871680845294825291829020859055815185815291517f8c5be1e5ebec7d5bd14f71427d1e84f3dd0314c0f7b2291e5b200ac8c7c3b9259281900390910190a3505050565b600081848411156111c9576040517f08c379a00000000000000000000000000000000000000000000000000000000081526004018080602001828103825283818151815260200191508051906020019080838360005b8381101561118e578181015183820152602001611176565b50505050905090810190601f1680156111bb5780820380516001836020036101000a031916815260200191505b509250505060405180910390fd5b505050900390565b604080518082018252601b81527f496d7065726d61783a205452414e534645525f544f4f5f48494748000000000060208083019190915273ffffffffffffffffffffffffffffffffffffffff861660009081526004909152919091205461123f91839063ffffffff61112016565b73ffffffffffffffffffffffffffffffffffffffff8085166000908152600460205260408082209390935590841681522054611281908263ffffffff611ae216565b73ffffffffffffffffffffffffffffffffffffffff80841660008181526004602090815260409182902094909455805185815290519193928716927fddf252ad1be2c89b69c2b068fc378daa952ba7f163c4a11628f55a4df523b3ef92918290030190a3505050565b6000826112f9575060006105e0565b8282028284828161130657fe5b041461135d576040517f08c379a0000000000000000000000000000000000000000000000000000000008152600401808060200182810382526021815260200180611bd66021913960400191505060405180910390fd5b9392505050565b600061135d83836040518060400160405280601a81526020017f536166654d6174683a206469766973696f6e206279207a65726f000000000000815250611b56565b600061135d83836040518060400160405280601f81526020017f536166654d6174683a207375627472616374696f6e20756e646572666c6f7700815250611120565b6003546113fb908263ffffffff611ae216565b60035573ffffffffffffffffffffffffffffffffffffffff8216600090815260046020526040902054611434908263ffffffff611ae216565b73ffffffffffffffffffffffffffffffffffffffff831660008181526004602090815260408083209490945583518581529351929391927fddf252ad1be2c89b69c2b068fc378daa952ba7f163c4a11628f55a4df523b3ef9281900390910190a35050565b600854604080517f70a08231000000000000000000000000000000000000000000000000000000008152306004820152905173ffffffffffffffffffffffffffffffffffffffff909216916370a0823191602480820192602092909190829003018186803b15801561150a57600080fd5b505afa15801561151e573d6000803e3d6000fd5b505050506040513d602081101561153457600080fd5b5051600a81905560408051918252517f8a0df8ef054fae2c3d2d19a7b322e864870cc9fd3cb07fb9526309c596244bf49181900360200190a1565b73ffffffffffffffffffffffffffffffffffffffff82166000908152600460205260409020546115a5908263ffffffff6113a616565b73ffffffffffffffffffffffffffffffffffffffff83166000908152600460205260409020556003546115de908263ffffffff6113a616565b60035560408051828152905160009173ffffffffffffffffffffffffffffffffffffffff8516917fddf252ad1be2c89b69c2b068fc378daa952ba7f163c4a11628f55a4df523b3ef9181900360200190a35050565b600854604080518082018252601981527f7472616e7366657228616464726573732c75696e743235362900000000000000602091820152815173ffffffffffffffffffffffffffffffffffffffff86811660248301526044808301879052845180840390910181526064909201845291810180517bffffffffffffffffffffffffffffffffffffffffffffffffffffffff167fa9059cbb000000000000000000000000000000000000000000000000000000001781529251815160009560609594169382918083835b6020831061173957805182527fffffffffffffffffffffffffffffffffffffffffffffffffffffffffffffffe090920191602091820191016116fc565b6001836020036101000a0380198251168184511680821785525050505050509050019150506000604051808303816000865af19150503d806000811461179b576040519150601f19603f3d011682016040523d82523d6000602084013e6117a0565b606091505b50915091508180156117ce5750805115806117ce57508080602001905160208110156117cb57600080fd5b50515b61183957604080517f08c379a000000000000000000000000000000000000000000000000000000000815260206004820152601960248201527f496d7065726d61783a205452414e534645525f4641494c454400000000000000604482015290519081900360640190fd5b50505050565b428510156118ae57604080517f08c379a000000000000000000000000000000000000000000000000000000000815260206004820152601160248201527f496d7065726d61783a2045585049524544000000000000000000000000000000604482015290519081900360640190fd5b60065473ffffffffffffffffffffffffffffffffffffffff808a1660008181526007602090815260408083208054600180820190925582518085018a905280840196909652958e166060860152608085018d905260a085019590955260c08085018c90528151808603909101815260e0850182528051908301207f19010000000000000000000000000000000000000000000000000000000000006101008601526101028501969096526101228085019690965280518085039096018652610142840180825286519683019690962095839052610162840180825286905260ff8a166101828501526101a284018990526101c28401889052519193926101e2808201937fffffffffffffffffffffffffffffffffffffffffffffffffffffffffffffffe081019281900390910190855afa1580156119f0573d6000803e3d6000fd5b50506040517fffffffffffffffffffffffffffffffffffffffffffffffffffffffffffffffe0015191505073ffffffffffffffffffffffffffffffffffffffff811615801590611a6b57508973ffffffffffffffffffffffffffffffffffffffff168173ffffffffffffffffffffffffffffffffffffffff16145b611ad657604080517f08c379a000000000000000000000000000000000000000000000000000000000815260206004820152601b60248201527f496d7065726d61783a20494e56414c49445f5349474e41545552450000000000604482015290519081900360640190fd5b50505050505050505050565b60008282018381101561135d57604080517f08c379a000000000000000000000000000000000000000000000000000000000815260206004820152601b60248201527f536166654d6174683a206164646974696f6e206f766572666c6f770000000000604482015290519081900360640190fd5b60008183611bbf576040517f08c379a000000000000000000000000000000000000000000000000000000000815260206004820181815283516024840152835190928392604490910191908501908083836000831561118e578181015183820152602001611176565b506000838581611bcb57fe5b049594505050505056fe536166654d6174683a206d756c7469706c69636174696f6e206f766572666c6f77a265627a7a723158202265d7ef9260e4665d241adb24a62d1a923924b08110bbee8bb818baa670464264736f6c63430005100032",
  "source": "pragma solidity =0.5.16;\r\n\r\nimport \"./ImpermaxERC20.sol\";\r\nimport \"./interfaces/IERC20.sol\";\r\nimport \"./interfaces/IPoolToken.sol\";\r\nimport \"./libraries/SafeMath.sol\";\r\n\r\ncontract PoolToken is IPoolToken, ImpermaxERC20 {\r\n   \tuint internal constant initialExchangeRate = 1e18;\r\n\taddress public underlying;\r\n\taddress public factory;\r\n\tuint public totalBalance;\r\n\tuint public constant MINIMUM_LIQUIDITY = 1000;\r\n\t\r\n\tevent Mint(address indexed sender, address indexed minter, uint mintAmount, uint mintTokens);\r\n\tevent Redeem(address indexed sender, address indexed redeemer, uint redeemAmount, uint redeemTokens);\r\n\tevent Sync(uint totalBalance);\r\n\t\r\n\t/*** Initialize ***/\r\n\t\r\n\t// called once by the factory\r\n\tfunction _setFactory() external {\r\n\t\trequire(factory == address(0), \"Impermax: FACTORY_ALREADY_SET\");\r\n\t\tfactory = msg.sender;\r\n\t}\r\n\t\r\n\t/*** PoolToken ***/\r\n\t\r\n\tfunction _update() internal {\r\n\t\ttotalBalance = IERC20(underlying).balanceOf(address(this));\r\n\t\temit Sync(totalBalance);\r\n\t}\r\n\r\n\tfunction exchangeRate() public returns (uint) \r\n\t{\r\n\t\tuint _totalSupply = totalSupply; // gas savings\r\n\t\tuint _totalBalance = totalBalance; // gas savings\r\n\t\tif (_totalSupply == 0 || _totalBalance == 0) return initialExchangeRate;\r\n\t\treturn _totalBalance.mul(1e18).div(_totalSupply);\r\n\t}\r\n\t\r\n\t// this low-level function should be called from another contract\r\n\tfunction mint(address minter) external nonReentrant update returns (uint mintTokens) {\r\n\t\tuint balance = IERC20(underlying).balanceOf(address(this));\r\n\t\tuint mintAmount = balance.sub(totalBalance);\r\n\t\tmintTokens = mintAmount.mul(1e18).div(exchangeRate());\r\n\r\n\t\tif(totalSupply == 0) {\r\n\t\t\t// permanently lock the first MINIMUM_LIQUIDITY tokens\r\n\t\t\tmintTokens = mintTokens.sub(MINIMUM_LIQUIDITY);\r\n\t\t\t_mint(address(0), MINIMUM_LIQUIDITY);\r\n\t\t}\r\n\t\trequire(mintTokens > 0, \"Impermax: MINT_AMOUNT_ZERO\");\r\n\t\t_mint(minter, mintTokens);\r\n\t\temit Mint(msg.sender, minter, mintAmount, mintTokens);\r\n\t}\r\n\r\n\t// this low-level function should be called from another contract\r\n\tfunction redeem(address redeemer) external nonReentrant update returns (uint redeemAmount) {\r\n\t\tuint redeemTokens = balanceOf[address(this)];\r\n\t\tredeemAmount = redeemTokens.mul(exchangeRate()).div(1e18);\r\n\r\n\t\trequire(redeemAmount > 0, \"Impermax: REDEEM_AMOUNT_ZERO\");\r\n\t\trequire(redeemAmount <= totalBalance, \"Impermax: INSUFFICIENT_CASH\");\r\n\t\t_burn(address(this), redeemTokens);\r\n\t\t_safeTransfer(redeemer, redeemAmount);\r\n\t\temit Redeem(msg.sender, redeemer, redeemAmount, redeemTokens);\t\t\r\n\t}\r\n\r\n\t// force real balance to match totalBalance\r\n\tfunction skim(address to) external nonReentrant {\r\n\t\t_safeTransfer(to, IERC20(underlying).balanceOf(address(this)).sub(totalBalance));\r\n\t}\r\n\r\n\t// force totalBalance to match real balance\r\n\tfunction sync() external nonReentrant update {}\r\n\t\r\n\t/*** Utilities ***/\r\n\t\r\n\t// same safe transfer function used by UniSwapV2 (with fixed underlying)\r\n\tbytes4 private constant SELECTOR = bytes4(keccak256(bytes(\"transfer(address,uint256)\")));\r\n\tfunction _safeTransfer(address to, uint amount) internal {\r\n\t\t(bool success, bytes memory data) = underlying.call(abi.encodeWithSelector(SELECTOR, to, amount));\r\n\t\trequire(success && (data.length == 0 || abi.decode(data, (bool))), \"Impermax: TRANSFER_FAILED\");\r\n\t}\r\n\t\r\n\t// prevents a contract from calling itself, directly or indirectly.\r\n\tbool internal _notEntered = true;\r\n\tmodifier nonReentrant() {\r\n\t\trequire(_notEntered, \"Impermax: REENTERED\");\r\n\t\t_notEntered = false;\r\n\t\t_;\r\n\t\t_notEntered = true;\r\n\t}\r\n\t\r\n\t// update totalBalance with current balance\r\n\tmodifier update() {\r\n\t\t_;\r\n\t\t_update();\r\n\t}\r\n}",
  "sourcePath": "C:\\Users\\simor\\Desktop\\impermax-x-uniswapv2-periphery\\test\\Contracts\\staked-lp-token\\PoolToken.sol",
  "compiler": {
    "name": "solc",
    "version": "0.5.16+commit.9c3226ce.Emscripten.clang"
  },
  "schemaVersion": "3.3.2",
  "updatedAt": "2021-05-26T17:31:38.888Z",
  "devdoc": {
    "methods": {}
  },
  "userdoc": {
    "methods": {
      "_setFactory()": {
        "notice": "* Initialize **"
      }
    }
  }
}