{
  "contractName": "QuickToken",
  "abi": [
    {
      "inputs": [
        {
          "internalType": "address",
          "name": "account",
          "type": "address"
        },
        {
          "internalType": "address",
          "name": "minter_",
          "type": "address"
        },
        {
          "internalType": "uint256",
          "name": "mintingAllowedAfter_",
          "type": "uint256"
        }
      ],
      "payable": false,
      "stateMutability": "nonpayable",
      "type": "constructor"
    },
    {
      "anonymous": false,
      "inputs": [
        {
          "indexed": true,
          "internalType": "address",
          "name": "owner",
          "type": "address"
        },
        {
          "indexed": true,
          "internalType": "address",
          "name": "spender",
          "type": "address"
        },
        {
          "indexed": false,
          "internalType": "uint256",
          "name": "amount",
          "type": "uint256"
        }
      ],
      "name": "Approval",
      "type": "event"
    },
    {
      "anonymous": false,
      "inputs": [
        {
          "indexed": false,
          "internalType": "address",
          "name": "minter",
          "type": "address"
        },
        {
          "indexed": false,
          "internalType": "address",
          "name": "newMinter",
          "type": "address"
        }
      ],
      "name": "MinterChanged",
      "type": "event"
    },
    {
      "anonymous": false,
      "inputs": [
        {
          "indexed": true,
          "internalType": "address",
          "name": "from",
          "type": "address"
        },
        {
          "indexed": true,
          "internalType": "address",
          "name": "to",
          "type": "address"
        },
        {
          "indexed": false,
          "internalType": "uint256",
          "name": "amount",
          "type": "uint256"
        }
      ],
      "name": "Transfer",
      "type": "event"
    },
    {
      "constant": true,
      "inputs": [],
      "name": "decimals",
      "outputs": [
        {
          "internalType": "uint8",
          "name": "",
          "type": "uint8"
        }
      ],
      "payable": false,
      "stateMutability": "view",
      "type": "function"
    },
    {
      "constant": true,
      "inputs": [],
      "name": "minimumTimeBetweenMints",
      "outputs": [
        {
          "internalType": "uint32",
          "name": "",
          "type": "uint32"
        }
      ],
      "payable": false,
      "stateMutability": "view",
      "type": "function"
    },
    {
      "constant": true,
      "inputs": [],
      "name": "mintCap",
      "outputs": [
        {
          "internalType": "uint8",
          "name": "",
          "type": "uint8"
        }
      ],
      "payable": false,
      "stateMutability": "view",
      "type": "function"
    },
    {
      "constant": true,
      "inputs": [],
      "name": "minter",
      "outputs": [
        {
          "internalType": "address",
          "name": "",
          "type": "address"
        }
      ],
      "payable": false,
      "stateMutability": "view",
      "type": "function"
    },
    {
      "constant": true,
      "inputs": [],
      "name": "mintingAllowedAfter",
      "outputs": [
        {
          "internalType": "uint256",
          "name": "",
          "type": "uint256"
        }
      ],
      "payable": false,
      "stateMutability": "view",
      "type": "function"
    },
    {
      "constant": true,
      "inputs": [],
      "name": "name",
      "outputs": [
        {
          "internalType": "string",
          "name": "",
          "type": "string"
        }
      ],
      "payable": false,
      "stateMutability": "view",
      "type": "function"
    },
    {
      "constant": true,
      "inputs": [],
      "name": "symbol",
      "outputs": [
        {
          "internalType": "string",
          "name": "",
          "type": "string"
        }
      ],
      "payable": false,
      "stateMutability": "view",
      "type": "function"
    },
    {
      "constant": true,
      "inputs": [],
      "name": "totalSupply",
      "outputs": [
        {
          "internalType": "uint256",
          "name": "",
          "type": "uint256"
        }
      ],
      "payable": false,
      "stateMutability": "view",
      "type": "function"
    },
    {
      "constant": false,
      "inputs": [
        {
          "internalType": "address",
          "name": "minter_",
          "type": "address"
        }
      ],
      "name": "setMinter",
      "outputs": [],
      "payable": false,
      "stateMutability": "nonpayable",
      "type": "function"
    },
    {
      "constant": false,
      "inputs": [
        {
          "internalType": "address",
          "name": "dst",
          "type": "address"
        },
        {
          "internalType": "uint256",
          "name": "rawAmount",
          "type": "uint256"
        }
      ],
      "name": "mint",
      "outputs": [],
      "payable": false,
      "stateMutability": "nonpayable",
      "type": "function"
    },
    {
      "constant": true,
      "inputs": [
        {
          "internalType": "address",
          "name": "account",
          "type": "address"
        },
        {
          "internalType": "address",
          "name": "spender",
          "type": "address"
        }
      ],
      "name": "allowance",
      "outputs": [
        {
          "internalType": "uint256",
          "name": "",
          "type": "uint256"
        }
      ],
      "payable": false,
      "stateMutability": "view",
      "type": "function"
    },
    {
      "constant": false,
      "inputs": [
        {
          "internalType": "address",
          "name": "spender",
          "type": "address"
        },
        {
          "internalType": "uint256",
          "name": "rawAmount",
          "type": "uint256"
        }
      ],
      "name": "approve",
      "outputs": [
        {
          "internalType": "bool",
          "name": "",
          "type": "bool"
        }
      ],
      "payable": false,
      "stateMutability": "nonpayable",
      "type": "function"
    },
    {
      "constant": true,
      "inputs": [
        {
          "internalType": "address",
          "name": "account",
          "type": "address"
        }
      ],
      "name": "balanceOf",
      "outputs": [
        {
          "internalType": "uint256",
          "name": "",
          "type": "uint256"
        }
      ],
      "payable": false,
      "stateMutability": "view",
      "type": "function"
    },
    {
      "constant": false,
      "inputs": [
        {
          "internalType": "address",
          "name": "dst",
          "type": "address"
        },
        {
          "internalType": "uint256",
          "name": "rawAmount",
          "type": "uint256"
        }
      ],
      "name": "transfer",
      "outputs": [
        {
          "internalType": "bool",
          "name": "",
          "type": "bool"
        }
      ],
      "payable": false,
      "stateMutability": "nonpayable",
      "type": "function"
    },
    {
      "constant": false,
      "inputs": [
        {
          "internalType": "address",
          "name": "src",
          "type": "address"
        },
        {
          "internalType": "address",
          "name": "dst",
          "type": "address"
        },
        {
          "internalType": "uint256",
          "name": "rawAmount",
          "type": "uint256"
        }
      ],
      "name": "transferFrom",
      "outputs": [
        {
          "internalType": "bool",
          "name": "",
          "type": "bool"
        }
      ],
      "payable": false,
      "stateMutability": "nonpayable",
      "type": "function"
    }
  ],
  "bytecode": "0x60806040526a084595161401484a0000006000553480156200002057600080fd5b506040516200189d3803806200189d833981016040819052620000439162000144565b600080546001600160a01b0385168083526004602052604080842080546001600160601b0319166001600160601b0390941693909317909255825491519092917fddf252ad1be2c89b69c2b068fc378daa952ba7f163c4a11628f55a4df523b3ef91620000b19190620001e5565b60405180910390a3600180546001600160a01b0319166001600160a01b0384811691909117918290556040517f3b0007eb941cf645526cbb3a4fdaecda9d28ce4843167d9263b536a1f1edc0f6926200011092600092911690620001bf565b60405180910390a160025550620002439050565b805162000131816200021e565b92915050565b8051620001318162000238565b6000806000606084860312156200015a57600080fd5b600062000168868662000124565b93505060206200017b8682870162000124565b92505060406200018e8682870162000137565b9150509250925092565b620001a3816200020a565b82525050565b620001a381620001f5565b620001a38162000207565b60408101620001cf828562000198565b620001de6020830184620001a9565b9392505050565b60208101620001318284620001b4565b60006001600160a01b03821662000131565b90565b6000620001318260006200013182620001f5565b6200022981620001f5565b81146200023557600080fd5b50565b620002298162000207565b61164a80620002536000396000f3fe608060405234801561001057600080fd5b50600436106100f55760003560e01c806340c10f191161009757806395d89b411161006657806395d89b41146101d7578063a9059cbb146101df578063dd62ed3e146101f2578063fca3b5aa14610205576100f5565b806340c10f19146101925780635c11d62f146101a757806370a08231146101bc57806376c71ca1146101cf576100f5565b806318160ddd116100d357806318160ddd1461014d57806323b872dd1461016257806330b36cef14610175578063313ce5671461017d576100f5565b806306fdde03146100fa5780630754617214610118578063095ea7b31461012d575b600080fd5b610102610218565b60405161010f91906112ee565b60405180910390f35b610120610251565b60405161010f91906112b7565b61014061013b366004610f08565b61026d565b60405161010f91906112e0565b610155610392565b60405161010f919061138f565b610140610170366004610ebb565b610398565b61015561053c565b610185610542565b60405161010f91906113ab565b6101a56101a0366004610f08565b610547565b005b6101af610805565b60405161010f919061139d565b6101556101ca366004610e5b565b61080d565b610185610843565b610102610848565b6101406101ed366004610f08565b610881565b610155610200366004610e81565b6108bd565b6101a5610213366004610e5b565b610903565b6040518060400160405280600981526020017f517569636b73776170000000000000000000000000000000000000000000000081525081565b60015473ffffffffffffffffffffffffffffffffffffffff1681565b6000807fffffffffffffffffffffffffffffffffffffffffffffffffffffffffffffffff8314156102bf57507fffffffffffffffffffffffffffffffffffffffffffffffffffffffffffffffff6102e4565b6102e1836040518060600160405280602681526020016114f8602691396109ef565b90505b33600081815260036020908152604080832073ffffffffffffffffffffffffffffffffffffffff891680855292529182902080547fffffffffffffffffffffffffffffffffffffffff000000000000000000000000166bffffffffffffffffffffffff861617905590519091907f8c5be1e5ebec7d5bd14f71427d1e84f3dd0314c0f7b2291e5b200ac8c7c3b9259061037e9085906113b9565b60405180910390a360019150505b92915050565b60005481565b73ffffffffffffffffffffffffffffffffffffffff831660009081526003602090815260408083203380855290835281842054825160608101909352602680845291936bffffffffffffffffffffffff90911692859261040292889291906114f8908301396109ef565b90508673ffffffffffffffffffffffffffffffffffffffff168373ffffffffffffffffffffffffffffffffffffffff161415801561044e57506bffffffffffffffffffffffff82811614155b1561052257600061047883836040518060600160405280603e815260200161156d603e9139610a41565b73ffffffffffffffffffffffffffffffffffffffff8981166000818152600360209081526040808320948a16808452949091529081902080547fffffffffffffffffffffffffffffffffffffffff000000000000000000000000166bffffffffffffffffffffffff86161790555192935090917f8c5be1e5ebec7d5bd14f71427d1e84f3dd0314c0f7b2291e5b200ac8c7c3b925906105189085906113b9565b60405180910390a3505b61052d878783610aa4565b600193505050505b9392505050565b60025481565b601281565b60015473ffffffffffffffffffffffffffffffffffffffff1633146105a1576040517f08c379a00000000000000000000000000000000000000000000000000000000081526004016105989061132f565b60405180910390fd5b6002544210156105dd576040517f08c379a00000000000000000000000000000000000000000000000000000000081526004016105989061134f565b73ffffffffffffffffffffffffffffffffffffffff821661062a576040517f08c379a00000000000000000000000000000000000000000000000000000000081526004016105989061130f565b610638426301e13380610cc4565b6002819055506000610662826040518060600160405280602381526020016114d5602391396109ef565b905061067e610677600054600260ff16610d03565b6064610d57565b816bffffffffffffffffffffffff1611156106c5576040517f08c379a00000000000000000000000000000000000000000000000000000000081526004016105989061133f565b6107006106e2600054836bffffffffffffffffffffffff16610cc4565b60405180606001604052806028815260200161151e602891396109ef565b6bffffffffffffffffffffffff908116600090815573ffffffffffffffffffffffffffffffffffffffff851681526004602090815260409182902054825160608101909352602680845261076494919091169285929091906115ab90830139610d99565b73ffffffffffffffffffffffffffffffffffffffff841660008181526004602052604080822080547fffffffffffffffffffffffffffffffffffffffff000000000000000000000000166bffffffffffffffffffffffff959095169490941790935591519091907fddf252ad1be2c89b69c2b068fc378daa952ba7f163c4a11628f55a4df523b3ef906107f89085906113b9565b60405180910390a3505050565b6301e1338081565b73ffffffffffffffffffffffffffffffffffffffff166000908152600460205260409020546bffffffffffffffffffffffff1690565b600281565b6040518060400160405280600581526020017f515549434b00000000000000000000000000000000000000000000000000000081525081565b6000806108a683604051806060016040528060278152602001611546602791396109ef565b90506108b3338583610aa4565b5060019392505050565b73ffffffffffffffffffffffffffffffffffffffff91821660009081526003602090815260408083209390941682529190915220546bffffffffffffffffffffffff1690565b60015473ffffffffffffffffffffffffffffffffffffffff163314610954576040517f08c379a0000000000000000000000000000000000000000000000000000000008152600401610598906112ff565b6001546040517f3b0007eb941cf645526cbb3a4fdaecda9d28ce4843167d9263b536a1f1edc0f6916109a09173ffffffffffffffffffffffffffffffffffffffff9091169084906112c5565b60405180910390a1600180547fffffffffffffffffffffffff00000000000000000000000000000000000000001673ffffffffffffffffffffffffffffffffffffffff92909216919091179055565b6000816c010000000000000000000000008410610a39576040517f08c379a000000000000000000000000000000000000000000000000000000000815260040161059891906112ee565b509192915050565b6000836bffffffffffffffffffffffff16836bffffffffffffffffffffffff1611158290610a9c576040517f08c379a000000000000000000000000000000000000000000000000000000000815260040161059891906112ee565b505050900390565b73ffffffffffffffffffffffffffffffffffffffff8316610af1576040517f08c379a00000000000000000000000000000000000000000000000000000000081526004016105989061135f565b73ffffffffffffffffffffffffffffffffffffffff8216610b3e576040517f08c379a00000000000000000000000000000000000000000000000000000000081526004016105989061137f565b73ffffffffffffffffffffffffffffffffffffffff8316600090815260046020908152604091829020548251606081019093526037808452610b9b936bffffffffffffffffffffffff90921692859291906115d190830139610a41565b73ffffffffffffffffffffffffffffffffffffffff848116600090815260046020908152604080832080547fffffffffffffffffffffffffffffffffffffffff000000000000000000000000166bffffffffffffffffffffffff968716179055928616825290829020548251606081019093526031808452610c2d94919091169285929091906114a490830139610d99565b73ffffffffffffffffffffffffffffffffffffffff8381166000818152600460205260409081902080547fffffffffffffffffffffffffffffffffffffffff000000000000000000000000166bffffffffffffffffffffffff95909516949094179093559151908516907fddf252ad1be2c89b69c2b068fc378daa952ba7f163c4a11628f55a4df523b3ef906107f89085906113b9565b600082820183811015610535576040517f08c379a00000000000000000000000000000000000000000000000000000000081526004016105989061131f565b600082610d125750600061038c565b82820282848281610d1f57fe5b0414610535576040517f08c379a00000000000000000000000000000000000000000000000000000000081526004016105989061136f565b600061053583836040518060400160405280601a81526020017f536166654d6174683a206469766973696f6e206279207a65726f000000000000815250610df4565b6000838301826bffffffffffffffffffffffff8087169083161015610deb576040517f08c379a000000000000000000000000000000000000000000000000000000000815260040161059891906112ee565b50949350505050565b60008183610e2f576040517f08c379a000000000000000000000000000000000000000000000000000000000815260040161059891906112ee565b506000838581610e3b57fe5b0495945050505050565b803561038c81611483565b803561038c8161149a565b600060208284031215610e6d57600080fd5b6000610e798484610e45565b949350505050565b60008060408385031215610e9457600080fd5b6000610ea08585610e45565b9250506020610eb185828601610e45565b9150509250929050565b600080600060608486031215610ed057600080fd5b6000610edc8686610e45565b9350506020610eed86828701610e45565b9250506040610efe86828701610e50565b9150509250925092565b60008060408385031215610f1b57600080fd5b6000610f278585610e45565b9250506020610eb185828601610e50565b610f41816113d4565b82525050565b610f41816113df565b6000610f5b826113c7565b610f6581856113cb565b9350610f7581856020860161142b565b610f7e8161145b565b9093019392505050565b6000610f95603f836113cb565b7f517569636b3a3a7365744d696e7465723a206f6e6c7920746865206d696e746581527f722063616e206368616e676520746865206d696e746572206164647265737300602082015260400192915050565b6000610ff46030836113cb565b7f517569636b3a3a6d696e743a2063616e6e6f74207472616e7366657220746f2081527f746865207a65726f206164647265737300000000000000000000000000000000602082015260400192915050565b6000611053601b836113cb565b7f536166654d6174683a206164646974696f6e206f766572666c6f770000000000815260200192915050565b600061108c6025836113cb565b7f517569636b3a3a6d696e743a206f6e6c7920746865206d696e7465722063616e81527f206d696e74000000000000000000000000000000000000000000000000000000602082015260400192915050565b60006110eb601e836113cb565b7f517569636b3a3a6d696e743a206578636565646564206d696e74206361700000815260200192915050565b60006111246024836113cb565b7f517569636b3a3a6d696e743a206d696e74696e67206e6f7420616c6c6f77656481527f2079657400000000000000000000000000000000000000000000000000000000602082015260400192915050565b6000611183603d836113cb565b7f517569636b3a3a5f7472616e73666572546f6b656e733a2063616e6e6f74207481527f72616e736665722066726f6d20746865207a65726f2061646472657373000000602082015260400192915050565b60006111e26021836113cb565b7f536166654d6174683a206d756c7469706c69636174696f6e206f766572666c6f81527f7700000000000000000000000000000000000000000000000000000000000000602082015260400192915050565b6000611241603b836113cb565b7f517569636b3a3a5f7472616e73666572546f6b656e733a2063616e6e6f74207481527f72616e7366657220746f20746865207a65726f20616464726573730000000000602082015260400192915050565b610f41816113fd565b610f4181611400565b610f4181611409565b610f4181611420565b6020810161038c8284610f38565b604081016112d38285610f38565b6105356020830184610f38565b6020810161038c8284610f47565b602080825281016105358184610f50565b6020808252810161038c81610f88565b6020808252810161038c81610fe7565b6020808252810161038c81611046565b6020808252810161038c8161107f565b6020808252810161038c816110de565b6020808252810161038c81611117565b6020808252810161038c81611176565b6020808252810161038c816111d5565b6020808252810161038c81611234565b6020810161038c8284611293565b6020810161038c828461129c565b6020810161038c82846112a5565b6020810161038c82846112ae565b5190565b90815260200190565b600061038c826113e4565b151590565b73ffffffffffffffffffffffffffffffffffffffff1690565b90565b63ffffffff1690565b60ff1690565b6bffffffffffffffffffffffff1690565b600061038c8261140f565b60005b8381101561144657818101518382015260200161142e565b83811115611455576000848401525b50505050565b601f017fffffffffffffffffffffffffffffffffffffffffffffffffffffffffffffffe01690565b61148c816113d4565b811461149757600080fd5b50565b61148c816113fd56fe517569636b3a3a5f7472616e73666572546f6b656e733a207472616e7366657220616d6f756e74206f766572666c6f7773517569636b3a3a6d696e743a20616d6f756e7420657863656564732039362062697473517569636b3a3a617070726f76653a20616d6f756e7420657863656564732039362062697473517569636b3a3a6d696e743a20746f74616c537570706c7920657863656564732039362062697473517569636b3a3a7472616e736665723a20616d6f756e7420657863656564732039362062697473517569636b3a3a7472616e7366657246726f6d3a207472616e7366657220616d6f756e742065786365656473207370656e64657220616c6c6f77616e6365517569636b3a3a6d696e743a207472616e7366657220616d6f756e74206f766572666c6f7773517569636b3a3a5f7472616e73666572546f6b656e733a207472616e7366657220616d6f756e7420657863656564732062616c616e6365a365627a7a72315820bd1ae30133ac3e80327d292995e4fea36532e30575001ed4888f3595ce687c706c6578706572696d656e74616cf564736f6c63430005100040",
  "source": "pragma solidity ^0.5.16;\npragma experimental ABIEncoderV2;\n\n// From https://github.com/OpenZeppelin/openzeppelin-contracts/blob/master/contracts/math/Math.sol\n// Subject to the MIT license.\n\n/**\n * @dev Wrappers over Solidity's arithmetic operations with added overflow\n * checks.\n *\n * Arithmetic operations in Solidity wrap on overflow. This can easily result\n * in bugs, because programmers usually assume that an overflow raises an\n * error, which is the standard behavior in high level programming languages.\n * `SafeMath` restores this intuition by reverting the transaction when an\n * operation overflows.\n *\n * Using this library instead of the unchecked operations eliminates an entire\n * class of bugs, so it's recommended to use it always.\n */\nlibrary SafeMath {\n    /**\n     * @dev Returns the addition of two unsigned integers, reverting on overflow.\n     *\n     * Counterpart to Solidity's `+` operator.\n     *\n     * Requirements:\n     * - Addition cannot overflow.\n     */\n    function add(uint256 a, uint256 b) internal pure returns (uint256) {\n        uint256 c = a + b;\n        require(c >= a, \"SafeMath: addition overflow\");\n\n        return c;\n    }\n\n    /**\n     * @dev Returns the addition of two unsigned integers, reverting with custom message on overflow.\n     *\n     * Counterpart to Solidity's `+` operator.\n     *\n     * Requirements:\n     * - Addition cannot overflow.\n     */\n    function add(uint256 a, uint256 b, string memory errorMessage) internal pure returns (uint256) {\n        uint256 c = a + b;\n        require(c >= a, errorMessage);\n\n        return c;\n    }\n\n    /**\n     * @dev Returns the subtraction of two unsigned integers, reverting on underflow (when the result is negative).\n     *\n     * Counterpart to Solidity's `-` operator.\n     *\n     * Requirements:\n     * - Subtraction cannot underflow.\n     */\n    function sub(uint256 a, uint256 b) internal pure returns (uint256) {\n        return sub(a, b, \"SafeMath: subtraction underflow\");\n    }\n\n    /**\n     * @dev Returns the subtraction of two unsigned integers, reverting with custom message on underflow (when the result is negative).\n     *\n     * Counterpart to Solidity's `-` operator.\n     *\n     * Requirements:\n     * - Subtraction cannot underflow.\n     */\n    function sub(uint256 a, uint256 b, string memory errorMessage) internal pure returns (uint256) {\n        require(b <= a, errorMessage);\n        uint256 c = a - b;\n\n        return c;\n    }\n\n    /**\n     * @dev Returns the multiplication of two unsigned integers, reverting on overflow.\n     *\n     * Counterpart to Solidity's `*` operator.\n     *\n     * Requirements:\n     * - Multiplication cannot overflow.\n     */\n    function mul(uint256 a, uint256 b) internal pure returns (uint256) {\n        // Gas optimization: this is cheaper than requiring 'a' not being zero, but the\n        // benefit is lost if 'b' is also tested.\n        // See: https://github.com/OpenZeppelin/openzeppelin-contracts/pull/522\n        if (a == 0) {\n            return 0;\n        }\n\n        uint256 c = a * b;\n        require(c / a == b, \"SafeMath: multiplication overflow\");\n\n        return c;\n    }\n\n    /**\n     * @dev Returns the multiplication of two unsigned integers, reverting on overflow.\n     *\n     * Counterpart to Solidity's `*` operator.\n     *\n     * Requirements:\n     * - Multiplication cannot overflow.\n     */\n    function mul(uint256 a, uint256 b, string memory errorMessage) internal pure returns (uint256) {\n        // Gas optimization: this is cheaper than requiring 'a' not being zero, but the\n        // benefit is lost if 'b' is also tested.\n        // See: https://github.com/OpenZeppelin/openzeppelin-contracts/pull/522\n        if (a == 0) {\n            return 0;\n        }\n\n        uint256 c = a * b;\n        require(c / a == b, errorMessage);\n\n        return c;\n    }\n\n    /**\n     * @dev Returns the integer division of two unsigned integers.\n     * Reverts on division by zero. The result is rounded towards zero.\n     *\n     * Counterpart to Solidity's `/` operator. Note: this function uses a\n     * `revert` opcode (which leaves remaining gas untouched) while Solidity\n     * uses an invalid opcode to revert (consuming all remaining gas).\n     *\n     * Requirements:\n     * - The divisor cannot be zero.\n     */\n    function div(uint256 a, uint256 b) internal pure returns (uint256) {\n        return div(a, b, \"SafeMath: division by zero\");\n    }\n\n    /**\n     * @dev Returns the integer division of two unsigned integers.\n     * Reverts with custom message on division by zero. The result is rounded towards zero.\n     *\n     * Counterpart to Solidity's `/` operator. Note: this function uses a\n     * `revert` opcode (which leaves remaining gas untouched) while Solidity\n     * uses an invalid opcode to revert (consuming all remaining gas).\n     *\n     * Requirements:\n     * - The divisor cannot be zero.\n     */\n    function div(uint256 a, uint256 b, string memory errorMessage) internal pure returns (uint256) {\n        // Solidity only automatically asserts when dividing by 0\n        require(b > 0, errorMessage);\n        uint256 c = a / b;\n        // assert(a == b * c + a % b); // There is no case in which this doesn't hold\n\n        return c;\n    }\n\n    /**\n     * @dev Returns the remainder of dividing two unsigned integers. (unsigned integer modulo),\n     * Reverts when dividing by zero.\n     *\n     * Counterpart to Solidity's `%` operator. This function uses a `revert`\n     * opcode (which leaves remaining gas untouched) while Solidity uses an\n     * invalid opcode to revert (consuming all remaining gas).\n     *\n     * Requirements:\n     * - The divisor cannot be zero.\n     */\n    function mod(uint256 a, uint256 b) internal pure returns (uint256) {\n        return mod(a, b, \"SafeMath: modulo by zero\");\n    }\n\n    /**\n     * @dev Returns the remainder of dividing two unsigned integers. (unsigned integer modulo),\n     * Reverts with custom message when dividing by zero.\n     *\n     * Counterpart to Solidity's `%` operator. This function uses a `revert`\n     * opcode (which leaves remaining gas untouched) while Solidity uses an\n     * invalid opcode to revert (consuming all remaining gas).\n     *\n     * Requirements:\n     * - The divisor cannot be zero.\n     */\n    function mod(uint256 a, uint256 b, string memory errorMessage) internal pure returns (uint256) {\n        require(b != 0, errorMessage);\n        return a % b;\n    }\n}\n\ncontract QuickToken {\n    /// @notice EIP-20 token name for this token\n    string public constant name = \"Quickswap\";\n\n    /// @notice EIP-20 token symbol for this token\n    string public constant symbol = \"QUICK\";\n\n    /// @notice EIP-20 token decimals for this token\n    uint8 public constant decimals = 18;\n\n    /// @notice Total number of tokens in circulation\n    uint public totalSupply = 10000000000000000000000000; // 1 million QUICK\n\n    /// @notice Address which may mint new tokens\n    address public minter;\n\n    /// @notice The timestamp after which minting may occur\n    uint public mintingAllowedAfter;\n\n    /// @notice Minimum time between mints\n    uint32 public constant minimumTimeBetweenMints = 1 days * 365;\n\n    /// @notice Cap on the percentage of totalSupply that can be minted at each mint\n    uint8 public constant mintCap = 2;\n\n    /// @notice Allowance amounts on behalf of others\n    mapping (address => mapping (address => uint96)) internal allowances;\n\n    /// @notice Official record of token balances for each account\n    mapping (address => uint96) internal balances;\n\n\n    /// @notice An event thats emitted when the minter address is changed\n    event MinterChanged(address minter, address newMinter);\n\n    /// @notice The standard EIP-20 transfer event\n    event Transfer(address indexed from, address indexed to, uint256 amount);\n\n    /// @notice The standard EIP-20 approval event\n    event Approval(address indexed owner, address indexed spender, uint256 amount);\n\n    /**\n     * @notice Construct a new Quick token\n     * @param account The initial account to grant all the tokens\n     * @param minter_ The account with minting ability\n     * @param mintingAllowedAfter_ The timestamp after which minting may occur\n     */\n    constructor(address account, address minter_, uint mintingAllowedAfter_) public {\n        balances[account] = uint96(totalSupply);\n        emit Transfer(address(0), account, totalSupply);\n        minter = minter_;\n        emit MinterChanged(address(0), minter);\n        mintingAllowedAfter = mintingAllowedAfter_;\n    }\n\n    /**\n     * @notice Change the minter address\n     * @param minter_ The address of the new minter\n     */\n    function setMinter(address minter_) external {\n        require(msg.sender == minter, \"Quick::setMinter: only the minter can change the minter address\");\n        emit MinterChanged(minter, minter_);\n        minter = minter_;\n    }\n\n    /**\n     * @notice Mint new tokens\n     * @param dst The address of the destination account\n     * @param rawAmount The number of tokens to be minted\n     */\n    function mint(address dst, uint rawAmount) external {\n        require(msg.sender == minter, \"Quick::mint: only the minter can mint\");\n        require(block.timestamp >= mintingAllowedAfter, \"Quick::mint: minting not allowed yet\");\n        require(dst != address(0), \"Quick::mint: cannot transfer to the zero address\");\n\n        // record the mint\n        mintingAllowedAfter = SafeMath.add(block.timestamp, minimumTimeBetweenMints);\n\n        // mint the amount\n        uint96 amount = safe96(rawAmount, \"Quick::mint: amount exceeds 96 bits\");\n        require(amount <= SafeMath.div(SafeMath.mul(totalSupply, mintCap), 100), \"Quick::mint: exceeded mint cap\");\n        totalSupply = safe96(SafeMath.add(totalSupply, amount), \"Quick::mint: totalSupply exceeds 96 bits\");\n\n        // transfer the amount to the recipient\n        balances[dst] = add96(balances[dst], amount, \"Quick::mint: transfer amount overflows\");\n        emit Transfer(address(0), dst, amount);\n\n    }\n\n    /**\n     * @notice Get the number of tokens `spender` is approved to spend on behalf of `account`\n     * @param account The address of the account holding the funds\n     * @param spender The address of the account spending the funds\n     * @return The number of tokens approved\n     */\n    function allowance(address account, address spender) external view returns (uint) {\n        return allowances[account][spender];\n    }\n\n    /**\n     * @notice Approve `spender` to transfer up to `amount` from `src`\n     * @dev This will overwrite the approval amount for `spender`\n     *  and is subject to issues noted [here](https://eips.ethereum.org/EIPS/eip-20#approve)\n     * @param spender The address of the account which may transfer tokens\n     * @param rawAmount The number of tokens that are approved (2^256-1 means infinite)\n     * @return Whether or not the approval succeeded\n     */\n    function approve(address spender, uint rawAmount) external returns (bool) {\n        uint96 amount;\n        if (rawAmount == uint(-1)) {\n            amount = uint96(-1);\n        } else {\n            amount = safe96(rawAmount, \"Quick::approve: amount exceeds 96 bits\");\n        }\n\n        allowances[msg.sender][spender] = amount;\n\n        emit Approval(msg.sender, spender, amount);\n        return true;\n    }\n\n    /**\n     * @notice Get the number of tokens held by the `account`\n     * @param account The address of the account to get the balance of\n     * @return The number of tokens held\n     */\n    function balanceOf(address account) external view returns (uint) {\n        return balances[account];\n    }\n\n    /**\n     * @notice Transfer `amount` tokens from `msg.sender` to `dst`\n     * @param dst The address of the destination account\n     * @param rawAmount The number of tokens to transfer\n     * @return Whether or not the transfer succeeded\n     */\n    function transfer(address dst, uint rawAmount) external returns (bool) {\n        uint96 amount = safe96(rawAmount, \"Quick::transfer: amount exceeds 96 bits\");\n        _transferTokens(msg.sender, dst, amount);\n        return true;\n    }\n\n    /**\n     * @notice Transfer `amount` tokens from `src` to `dst`\n     * @param src The address of the source account\n     * @param dst The address of the destination account\n     * @param rawAmount The number of tokens to transfer\n     * @return Whether or not the transfer succeeded\n     */\n    function transferFrom(address src, address dst, uint rawAmount) external returns (bool) {\n        address spender = msg.sender;\n        uint96 spenderAllowance = allowances[src][spender];\n        uint96 amount = safe96(rawAmount, \"Quick::approve: amount exceeds 96 bits\");\n\n        if (spender != src && spenderAllowance != uint96(-1)) {\n            uint96 newAllowance = sub96(spenderAllowance, amount, \"Quick::transferFrom: transfer amount exceeds spender allowance\");\n            allowances[src][spender] = newAllowance;\n\n            emit Approval(src, spender, newAllowance);\n        }\n\n        _transferTokens(src, dst, amount);\n        return true;\n    }\n\n    function _transferTokens(address src, address dst, uint96 amount) internal {\n        require(src != address(0), \"Quick::_transferTokens: cannot transfer from the zero address\");\n        require(dst != address(0), \"Quick::_transferTokens: cannot transfer to the zero address\");\n\n        balances[src] = sub96(balances[src], amount, \"Quick::_transferTokens: transfer amount exceeds balance\");\n        balances[dst] = add96(balances[dst], amount, \"Quick::_transferTokens: transfer amount overflows\");\n        emit Transfer(src, dst, amount);\n\n    }\n\n    function safe32(uint n, string memory errorMessage) internal pure returns (uint32) {\n        require(n < 2**32, errorMessage);\n        return uint32(n);\n    }\n\n    function safe96(uint n, string memory errorMessage) internal pure returns (uint96) {\n        require(n < 2**96, errorMessage);\n        return uint96(n);\n    }\n\n    function add96(uint96 a, uint96 b, string memory errorMessage) internal pure returns (uint96) {\n        uint96 c = a + b;\n        require(c >= a, errorMessage);\n        return c;\n    }\n\n    function sub96(uint96 a, uint96 b, string memory errorMessage) internal pure returns (uint96) {\n        require(b <= a, errorMessage);\n        return a - b;\n    }\n}",
  "sourcePath": "C:/Users/simor/Desktop/impermax-x-uniswapv2-periphery/test/Contracts/QuickEthereum.sol",
  "compiler": {
    "name": "solc",
    "version": "0.5.16+commit.9c3226ce.Emscripten.clang"
  },
  "schemaVersion": "3.3.2",
  "updatedAt": "2021-05-21T14:47:52.896Z",
  "devdoc": {
    "methods": {
      "allowance(address,address)": {
        "params": {
          "account": "The address of the account holding the funds",
          "spender": "The address of the account spending the funds"
        },
        "return": "The number of tokens approved"
      },
      "approve(address,uint256)": {
        "details": "This will overwrite the approval amount for `spender` and is subject to issues noted [here](https://eips.ethereum.org/EIPS/eip-20#approve)",
        "params": {
          "rawAmount": "The number of tokens that are approved (2^256-1 means infinite)",
          "spender": "The address of the account which may transfer tokens"
        },
        "return": "Whether or not the approval succeeded"
      },
      "balanceOf(address)": {
        "params": {
          "account": "The address of the account to get the balance of"
        },
        "return": "The number of tokens held"
      },
      "constructor": {
        "params": {
          "account": "The initial account to grant all the tokens",
          "minter_": "The account with minting ability",
          "mintingAllowedAfter_": "The timestamp after which minting may occur"
        }
      },
      "mint(address,uint256)": {
        "params": {
          "dst": "The address of the destination account",
          "rawAmount": "The number of tokens to be minted"
        }
      },
      "setMinter(address)": {
        "params": {
          "minter_": "The address of the new minter"
        }
      },
      "transfer(address,uint256)": {
        "params": {
          "dst": "The address of the destination account",
          "rawAmount": "The number of tokens to transfer"
        },
        "return": "Whether or not the transfer succeeded"
      },
      "transferFrom(address,address,uint256)": {
        "params": {
          "dst": "The address of the destination account",
          "rawAmount": "The number of tokens to transfer",
          "src": "The address of the source account"
        },
        "return": "Whether or not the transfer succeeded"
      }
    }
  },
  "userdoc": {
    "methods": {
      "allowance(address,address)": {
        "notice": "Get the number of tokens `spender` is approved to spend on behalf of `account`"
      },
      "approve(address,uint256)": {
        "notice": "Approve `spender` to transfer up to `amount` from `src`"
      },
      "balanceOf(address)": {
        "notice": "Get the number of tokens held by the `account`"
      },
      "constructor": "Construct a new Quick token",
      "mint(address,uint256)": {
        "notice": "Mint new tokens"
      },
      "setMinter(address)": {
        "notice": "Change the minter address"
      },
      "transfer(address,uint256)": {
        "notice": "Transfer `amount` tokens from `msg.sender` to `dst`"
      },
      "transferFrom(address,address,uint256)": {
        "notice": "Transfer `amount` tokens from `src` to `dst`"
      }
    }
  }
}