{
  "contractName": "Quick",
  "abi": [
    {
      "inputs": [
        {
          "internalType": "address",
          "name": "gateway_",
          "type": "address"
        }
      ],
      "payable": false,
      "stateMutability": "nonpayable",
      "type": "constructor"
    },
    {
      "anonymous": false,
      "inputs": [
        {
          "indexed": true,
          "internalType": "address",
          "name": "owner",
          "type": "address"
        },
        {
          "indexed": true,
          "internalType": "address",
          "name": "spender",
          "type": "address"
        },
        {
          "indexed": false,
          "internalType": "uint256",
          "name": "amount",
          "type": "uint256"
        }
      ],
      "name": "Approval",
      "type": "event"
    },
    {
      "anonymous": false,
      "inputs": [
        {
          "indexed": true,
          "internalType": "address",
          "name": "delegator",
          "type": "address"
        },
        {
          "indexed": true,
          "internalType": "address",
          "name": "fromDelegate",
          "type": "address"
        },
        {
          "indexed": true,
          "internalType": "address",
          "name": "toDelegate",
          "type": "address"
        }
      ],
      "name": "DelegateChanged",
      "type": "event"
    },
    {
      "anonymous": false,
      "inputs": [
        {
          "indexed": true,
          "internalType": "address",
          "name": "delegate",
          "type": "address"
        },
        {
          "indexed": false,
          "internalType": "uint256",
          "name": "previousBalance",
          "type": "uint256"
        },
        {
          "indexed": false,
          "internalType": "uint256",
          "name": "newBalance",
          "type": "uint256"
        }
      ],
      "name": "DelegateVotesChanged",
      "type": "event"
    },
    {
      "anonymous": false,
      "inputs": [
        {
          "indexed": true,
          "internalType": "address",
          "name": "from",
          "type": "address"
        },
        {
          "indexed": true,
          "internalType": "address",
          "name": "to",
          "type": "address"
        },
        {
          "indexed": false,
          "internalType": "uint256",
          "name": "amount",
          "type": "uint256"
        }
      ],
      "name": "Transfer",
      "type": "event"
    },
    {
      "constant": true,
      "inputs": [],
      "name": "DELEGATION_TYPEHASH",
      "outputs": [
        {
          "internalType": "bytes32",
          "name": "",
          "type": "bytes32"
        }
      ],
      "payable": false,
      "stateMutability": "view",
      "type": "function"
    },
    {
      "constant": true,
      "inputs": [],
      "name": "DOMAIN_TYPEHASH",
      "outputs": [
        {
          "internalType": "bytes32",
          "name": "",
          "type": "bytes32"
        }
      ],
      "payable": false,
      "stateMutability": "view",
      "type": "function"
    },
    {
      "constant": true,
      "inputs": [],
      "name": "PERMIT_TYPEHASH",
      "outputs": [
        {
          "internalType": "bytes32",
          "name": "",
          "type": "bytes32"
        }
      ],
      "payable": false,
      "stateMutability": "view",
      "type": "function"
    },
    {
      "constant": true,
      "inputs": [
        {
          "internalType": "address",
          "name": "",
          "type": "address"
        },
        {
          "internalType": "uint32",
          "name": "",
          "type": "uint32"
        }
      ],
      "name": "checkpoints",
      "outputs": [
        {
          "internalType": "uint32",
          "name": "fromBlock",
          "type": "uint32"
        },
        {
          "internalType": "uint96",
          "name": "votes",
          "type": "uint96"
        }
      ],
      "payable": false,
      "stateMutability": "view",
      "type": "function"
    },
    {
      "constant": true,
      "inputs": [],
      "name": "decimals",
      "outputs": [
        {
          "internalType": "uint8",
          "name": "",
          "type": "uint8"
        }
      ],
      "payable": false,
      "stateMutability": "view",
      "type": "function"
    },
    {
      "constant": true,
      "inputs": [
        {
          "internalType": "address",
          "name": "",
          "type": "address"
        }
      ],
      "name": "delegates",
      "outputs": [
        {
          "internalType": "address",
          "name": "",
          "type": "address"
        }
      ],
      "payable": false,
      "stateMutability": "view",
      "type": "function"
    },
    {
      "constant": true,
      "inputs": [],
      "name": "gateway",
      "outputs": [
        {
          "internalType": "address",
          "name": "",
          "type": "address"
        }
      ],
      "payable": false,
      "stateMutability": "view",
      "type": "function"
    },
    {
      "constant": true,
      "inputs": [],
      "name": "name",
      "outputs": [
        {
          "internalType": "string",
          "name": "",
          "type": "string"
        }
      ],
      "payable": false,
      "stateMutability": "view",
      "type": "function"
    },
    {
      "constant": true,
      "inputs": [
        {
          "internalType": "address",
          "name": "",
          "type": "address"
        }
      ],
      "name": "nonces",
      "outputs": [
        {
          "internalType": "uint256",
          "name": "",
          "type": "uint256"
        }
      ],
      "payable": false,
      "stateMutability": "view",
      "type": "function"
    },
    {
      "constant": true,
      "inputs": [
        {
          "internalType": "address",
          "name": "",
          "type": "address"
        }
      ],
      "name": "numCheckpoints",
      "outputs": [
        {
          "internalType": "uint32",
          "name": "",
          "type": "uint32"
        }
      ],
      "payable": false,
      "stateMutability": "view",
      "type": "function"
    },
    {
      "constant": true,
      "inputs": [],
      "name": "symbol",
      "outputs": [
        {
          "internalType": "string",
          "name": "",
          "type": "string"
        }
      ],
      "payable": false,
      "stateMutability": "view",
      "type": "function"
    },
    {
      "constant": true,
      "inputs": [],
      "name": "totalSupply",
      "outputs": [
        {
          "internalType": "uint256",
          "name": "",
          "type": "uint256"
        }
      ],
      "payable": false,
      "stateMutability": "view",
      "type": "function"
    },
    {
      "constant": false,
      "inputs": [
        {
          "internalType": "address",
          "name": "user",
          "type": "address"
        },
        {
          "internalType": "bytes",
          "name": "depositData",
          "type": "bytes"
        }
      ],
      "name": "deposit",
      "outputs": [],
      "payable": false,
      "stateMutability": "nonpayable",
      "type": "function"
    },
    {
      "constant": false,
      "inputs": [
        {
          "internalType": "uint256",
          "name": "rawAmount",
          "type": "uint256"
        }
      ],
      "name": "withdraw",
      "outputs": [],
      "payable": false,
      "stateMutability": "nonpayable",
      "type": "function"
    },
    {
      "constant": true,
      "inputs": [
        {
          "internalType": "address",
          "name": "account",
          "type": "address"
        },
        {
          "internalType": "address",
          "name": "spender",
          "type": "address"
        }
      ],
      "name": "allowance",
      "outputs": [
        {
          "internalType": "uint256",
          "name": "",
          "type": "uint256"
        }
      ],
      "payable": false,
      "stateMutability": "view",
      "type": "function"
    },
    {
      "constant": false,
      "inputs": [
        {
          "internalType": "address",
          "name": "spender",
          "type": "address"
        },
        {
          "internalType": "uint256",
          "name": "rawAmount",
          "type": "uint256"
        }
      ],
      "name": "approve",
      "outputs": [
        {
          "internalType": "bool",
          "name": "",
          "type": "bool"
        }
      ],
      "payable": false,
      "stateMutability": "nonpayable",
      "type": "function"
    },
    {
      "constant": false,
      "inputs": [
        {
          "internalType": "address",
          "name": "owner",
          "type": "address"
        },
        {
          "internalType": "address",
          "name": "spender",
          "type": "address"
        },
        {
          "internalType": "uint256",
          "name": "rawAmount",
          "type": "uint256"
        },
        {
          "internalType": "uint256",
          "name": "deadline",
          "type": "uint256"
        },
        {
          "internalType": "uint8",
          "name": "v",
          "type": "uint8"
        },
        {
          "internalType": "bytes32",
          "name": "r",
          "type": "bytes32"
        },
        {
          "internalType": "bytes32",
          "name": "s",
          "type": "bytes32"
        }
      ],
      "name": "permit",
      "outputs": [],
      "payable": false,
      "stateMutability": "nonpayable",
      "type": "function"
    },
    {
      "constant": true,
      "inputs": [
        {
          "internalType": "address",
          "name": "account",
          "type": "address"
        }
      ],
      "name": "balanceOf",
      "outputs": [
        {
          "internalType": "uint256",
          "name": "",
          "type": "uint256"
        }
      ],
      "payable": false,
      "stateMutability": "view",
      "type": "function"
    },
    {
      "constant": false,
      "inputs": [
        {
          "internalType": "address",
          "name": "dst",
          "type": "address"
        },
        {
          "internalType": "uint256",
          "name": "rawAmount",
          "type": "uint256"
        }
      ],
      "name": "transfer",
      "outputs": [
        {
          "internalType": "bool",
          "name": "",
          "type": "bool"
        }
      ],
      "payable": false,
      "stateMutability": "nonpayable",
      "type": "function"
    },
    {
      "constant": false,
      "inputs": [
        {
          "internalType": "address",
          "name": "src",
          "type": "address"
        },
        {
          "internalType": "address",
          "name": "dst",
          "type": "address"
        },
        {
          "internalType": "uint256",
          "name": "rawAmount",
          "type": "uint256"
        }
      ],
      "name": "transferFrom",
      "outputs": [
        {
          "internalType": "bool",
          "name": "",
          "type": "bool"
        }
      ],
      "payable": false,
      "stateMutability": "nonpayable",
      "type": "function"
    },
    {
      "constant": false,
      "inputs": [
        {
          "internalType": "address",
          "name": "delegatee",
          "type": "address"
        }
      ],
      "name": "delegate",
      "outputs": [],
      "payable": false,
      "stateMutability": "nonpayable",
      "type": "function"
    },
    {
      "constant": false,
      "inputs": [
        {
          "internalType": "address",
          "name": "delegatee",
          "type": "address"
        },
        {
          "internalType": "uint256",
          "name": "nonce",
          "type": "uint256"
        },
        {
          "internalType": "uint256",
          "name": "expiry",
          "type": "uint256"
        },
        {
          "internalType": "uint8",
          "name": "v",
          "type": "uint8"
        },
        {
          "internalType": "bytes32",
          "name": "r",
          "type": "bytes32"
        },
        {
          "internalType": "bytes32",
          "name": "s",
          "type": "bytes32"
        }
      ],
      "name": "delegateBySig",
      "outputs": [],
      "payable": false,
      "stateMutability": "nonpayable",
      "type": "function"
    },
    {
      "constant": true,
      "inputs": [
        {
          "internalType": "address",
          "name": "account",
          "type": "address"
        }
      ],
      "name": "getCurrentVotes",
      "outputs": [
        {
          "internalType": "uint96",
          "name": "",
          "type": "uint96"
        }
      ],
      "payable": false,
      "stateMutability": "view",
      "type": "function"
    },
    {
      "constant": true,
      "inputs": [
        {
          "internalType": "address",
          "name": "account",
          "type": "address"
        },
        {
          "internalType": "uint256",
          "name": "blockNumber",
          "type": "uint256"
        }
      ],
      "name": "getPriorVotes",
      "outputs": [
        {
          "internalType": "uint96",
          "name": "",
          "type": "uint96"
        }
      ],
      "payable": false,
      "stateMutability": "view",
      "type": "function"
    }
  ],
  "bytecode": "0x6080604052600080553480156200001557600080fd5b506040516200316538038062003165833981016040819052620000389162000071565b600780546001600160a01b0319166001600160a01b0392909216919091179055620000c6565b80516200006b81620000ac565b92915050565b6000602082840312156200008457600080fd5b60006200009284846200005e565b949350505050565b60006001600160a01b0382166200006b565b620000b7816200009a565b8114620000c357600080fd5b50565b61308f80620000d66000396000f3fe608060405234801561001057600080fd5b50600436106101985760003560e01c806370a08231116100e3578063c3cda5201161008c578063dd62ed3e11610066578063dd62ed3e14610345578063e7a324dc14610358578063f1127ed81461036057610198565b8063c3cda5201461030c578063cf2c52cb1461031f578063d505accf1461033257610198565b806395d89b41116100bd57806395d89b41146102de578063a9059cbb146102e6578063b4b5ea57146102f957610198565b806370a0823114610298578063782d6fe1146102ab5780637ecebe00146102cb57610198565b80632e1a7d4d11610145578063587cde1e1161011f578063587cde1e146102525780635c19a95c146102655780636fcfff451461027857610198565b80632e1a7d4d1461022057806330adf81f14610235578063313ce5671461023d57610198565b806318160ddd1161017657806318160ddd146101f057806320606b701461020557806323b872dd1461020d57610198565b806306fdde031461019d578063095ea7b3146101bb578063116191b6146101db575b600080fd5b6101a5610381565b6040516101b29190612b47565b60405180910390f35b6101ce6101c9366004612299565b6103ba565b6040516101b29190612a43565b6101e36104df565b6040516101b29190612a35565b6101f86104fb565b6040516101b29190612a51565b6101f8610501565b6101ce61021b36600461215a565b610518565b61023361022e366004612380565b6106bc565b005b6101f86106f0565b6102456106fc565b6040516101b29190612c51565b6101e36102603660046120fa565b610701565b6102336102733660046120fa565b610729565b61028b6102863660046120fa565b610736565b6040516101b29190612c28565b6101f86102a63660046120fa565b61074e565b6102be6102b9366004612299565b610784565b6040516101b29190612c6d565b6101f86102d93660046120fa565b610a6f565b6101a5610a81565b6101ce6102f4366004612299565b610aba565b6102be6103073660046120fa565b610af6565b61023361031a3660046122c9565b610ba4565b61023361032d366004612243565b610e29565b6102336103403660046121a7565b610ecf565b6101f8610353366004612120565b611304565b6101f861134a565b61037361036e366004612350565b611356565b6040516101b2929190612c36565b6040518060400160405280600981526020017f517569636b73776170000000000000000000000000000000000000000000000081525081565b6000807fffffffffffffffffffffffffffffffffffffffffffffffffffffffffffffffff83141561040c57507fffffffffffffffffffffffffffffffffffffffffffffffffffffffffffffffff610431565b61042e83604051806060016040528060268152602001612e2660269139611391565b90505b33600081815260016020908152604080832073ffffffffffffffffffffffffffffffffffffffff891680855292529182902080547fffffffffffffffffffffffffffffffffffffffff000000000000000000000000166bffffffffffffffffffffffff861617905590519091907f8c5be1e5ebec7d5bd14f71427d1e84f3dd0314c0f7b2291e5b200ac8c7c3b925906104cb908590612c5f565b60405180910390a360019150505b92915050565b60075473ffffffffffffffffffffffffffffffffffffffff1681565b60005481565b60405161050d90612a1f565b604051809103902081565b73ffffffffffffffffffffffffffffffffffffffff831660009081526001602090815260408083203380855290835281842054825160608101909352602680845291936bffffffffffffffffffffffff9091169285926105829288929190612e2690830139611391565b90508673ffffffffffffffffffffffffffffffffffffffff168373ffffffffffffffffffffffffffffffffffffffff16141580156105ce57506bffffffffffffffffffffffff82811614155b156106a25760006105f883836040518060600160405280603e8152602001612ef8603e91396113e3565b73ffffffffffffffffffffffffffffffffffffffff8981166000818152600160209081526040808320948a16808452949091529081902080547fffffffffffffffffffffffffffffffffffffffff000000000000000000000000166bffffffffffffffffffffffff86161790555192935090917f8c5be1e5ebec7d5bd14f71427d1e84f3dd0314c0f7b2291e5b200ac8c7c3b92590610698908590612c5f565b60405180910390a3505b6106ad878783611446565b600193505050505b9392505050565b60006106e082604051806060016040528060278152602001612dab60279139611391565b90506106ec33826116b2565b5050565b60405161050d90612a14565b601281565b60036020526000908152604090205473ffffffffffffffffffffffffffffffffffffffff1681565b6107333382611876565b50565b60056020526000908152604090205463ffffffff1681565b73ffffffffffffffffffffffffffffffffffffffff166000908152600260205260409020546bffffffffffffffffffffffff1690565b60004382106107c8576040517f08c379a00000000000000000000000000000000000000000000000000000000081526004016107bf90612bc8565b60405180910390fd5b73ffffffffffffffffffffffffffffffffffffffff831660009081526005602052604090205463ffffffff16806108035760009150506104d9565b73ffffffffffffffffffffffffffffffffffffffff8416600090815260046020908152604080832063ffffffff7fffffffffffffffffffffffffffffffffffffffffffffffffffffffffffffffff8601811685529252909120541683106108db5773ffffffffffffffffffffffffffffffffffffffff841660009081526004602090815260408083207fffffffffffffffffffffffffffffffffffffffffffffffffffffffffffffffff9490940163ffffffff168352929052205464010000000090046bffffffffffffffffffffffff1690506104d9565b73ffffffffffffffffffffffffffffffffffffffff8416600090815260046020908152604080832083805290915290205463ffffffff168310156109235760009150506104d9565b60007fffffffffffffffffffffffffffffffffffffffffffffffffffffffffffffffff82015b8163ffffffff168163ffffffff161115610a1757600282820363ffffffff1604810361097361206e565b5073ffffffffffffffffffffffffffffffffffffffff8716600090815260046020908152604080832063ffffffff8581168552908352928190208151808301909252549283168082526401000000009093046bffffffffffffffffffffffff1691810191909152908714156109f2576020015194506104d99350505050565b805163ffffffff16871115610a0957819350610a10565b6001820392505b5050610949565b5073ffffffffffffffffffffffffffffffffffffffff8516600090815260046020908152604080832063ffffffff909416835292905220546bffffffffffffffffffffffff6401000000009091041691505092915050565b60066020526000908152604090205481565b6040518060400160405280600581526020017f515549434b00000000000000000000000000000000000000000000000000000081525081565b600080610adf83604051806060016040528060278152602001612ed160279139611391565b9050610aec338583611446565b5060019392505050565b73ffffffffffffffffffffffffffffffffffffffff811660009081526005602052604081205463ffffffff1680610b2e5760006106b5565b73ffffffffffffffffffffffffffffffffffffffff831660009081526004602090815260408083207fffffffffffffffffffffffffffffffffffffffffffffffffffffffffffffffff850163ffffffff16845290915290205464010000000090046bffffffffffffffffffffffff169392505050565b6000604051610bb290612a1f565b60408051918290038220828201909152600982527f517569636b7377617000000000000000000000000000000000000000000000006020909201919091527f84356cec62b4776fab815ae779598e1a4af2765a01721362a1125b8fe66ddb3c610c1961192a565b30604051602001610c2d9493929190612af7565b6040516020818303038152906040528051906020012090506000604051610c5390612a2a565b604051908190038120610c6e918a908a908a90602001612ab9565b60405160208183030381529060405280519060200120905060008282604051602001610c9b9291906129e3565b604051602081830303815290604052805190602001209050600060018288888860405160008152602001604052604051610cd89493929190612b2c565b6020604051602081039080840390855afa158015610cfa573d6000803e3d6000fd5b50506040517fffffffffffffffffffffffffffffffffffffffffffffffffffffffffffffffe0015191505073ffffffffffffffffffffffffffffffffffffffff8116610d72576040517f08c379a00000000000000000000000000000000000000000000000000000000081526004016107bf90612b78565b73ffffffffffffffffffffffffffffffffffffffff811660009081526006602052604090208054600181019091558914610dd8576040517f08c379a00000000000000000000000000000000000000000000000000000000081526004016107bf90612b98565b87421115610e12576040517f08c379a00000000000000000000000000000000000000000000000000000000081526004016107bf90612bb8565b610e1c818b611876565b505050505b505050505050565b60075473ffffffffffffffffffffffffffffffffffffffff163314610e7a576040517f08c379a00000000000000000000000000000000000000000000000000000000081526004016107bf90612bf8565b6000610e8882840184612380565b90506000610eae8260405180606001604052806026815260200161302760269139611391565b9050610ec885826bffffffffffffffffffffffff1661192e565b5050505050565b60007fffffffffffffffffffffffffffffffffffffffffffffffffffffffffffffffff861415610f2057507fffffffffffffffffffffffffffffffffffffffffffffffffffffffffffffffff610f45565b610f4286604051806060016040528060258152602001612fcb60259139611391565b90505b6000604051610f5390612a1f565b60408051918290038220828201909152600982527f517569636b7377617000000000000000000000000000000000000000000000006020909201919091527f84356cec62b4776fab815ae779598e1a4af2765a01721362a1125b8fe66ddb3c610fba61192a565b30604051602001610fce9493929190612af7565b6040516020818303038152906040528051906020012090506000604051610ff490612a14565b6040805191829003822073ffffffffffffffffffffffffffffffffffffffff8d166000908152600660209081529290208054600181019091556110439391928e928e928e9290918e9101612a5f565b604051602081830303815290604052805190602001209050600082826040516020016110709291906129e3565b6040516020818303038152906040528051906020012090506000600182898989604051600081526020016040526040516110ad9493929190612b2c565b6020604051602081039080840390855afa1580156110cf573d6000803e3d6000fd5b50506040517fffffffffffffffffffffffffffffffffffffffffffffffffffffffffffffffe0015191505073ffffffffffffffffffffffffffffffffffffffff8116611147576040517f08c379a00000000000000000000000000000000000000000000000000000000081526004016107bf90612be8565b8b73ffffffffffffffffffffffffffffffffffffffff168173ffffffffffffffffffffffffffffffffffffffff16146111ac576040517f08c379a00000000000000000000000000000000000000000000000000000000081526004016107bf90612ba8565b884211156111e6576040517f08c379a00000000000000000000000000000000000000000000000000000000081526004016107bf90612b88565b84600160008e73ffffffffffffffffffffffffffffffffffffffff1673ffffffffffffffffffffffffffffffffffffffff16815260200190815260200160002060008d73ffffffffffffffffffffffffffffffffffffffff1673ffffffffffffffffffffffffffffffffffffffff16815260200190815260200160002060006101000a8154816bffffffffffffffffffffffff02191690836bffffffffffffffffffffffff1602179055508a73ffffffffffffffffffffffffffffffffffffffff168c73ffffffffffffffffffffffffffffffffffffffff167f8c5be1e5ebec7d5bd14f71427d1e84f3dd0314c0f7b2291e5b200ac8c7c3b925876040516112ee9190612c5f565b60405180910390a3505050505050505050505050565b73ffffffffffffffffffffffffffffffffffffffff91821660009081526001602090815260408083209390941682529190915220546bffffffffffffffffffffffff1690565b60405161050d90612a2a565b600460209081526000928352604080842090915290825290205463ffffffff81169064010000000090046bffffffffffffffffffffffff1682565b6000816c0100000000000000000000000084106113db576040517f08c379a00000000000000000000000000000000000000000000000000000000081526004016107bf9190612b47565b509192915050565b6000836bffffffffffffffffffffffff16836bffffffffffffffffffffffff161115829061143e576040517f08c379a00000000000000000000000000000000000000000000000000000000081526004016107bf9190612b47565b505050900390565b73ffffffffffffffffffffffffffffffffffffffff8316611493576040517f08c379a00000000000000000000000000000000000000000000000000000000081526004016107bf90612bd8565b73ffffffffffffffffffffffffffffffffffffffff82166114e0576040517f08c379a00000000000000000000000000000000000000000000000000000000081526004016107bf90612c08565b73ffffffffffffffffffffffffffffffffffffffff831660009081526002602090815260409182902054825160608101909352603780845261153d936bffffffffffffffffffffffff9092169285929190612ff0908301396113e3565b73ffffffffffffffffffffffffffffffffffffffff848116600090815260026020908152604080832080547fffffffffffffffffffffffffffffffffffffffff000000000000000000000000166bffffffffffffffffffffffff9687161790559286168252908290205482516060810190935260318084526115cf9491909116928592909190612dd290830139611ae1565b73ffffffffffffffffffffffffffffffffffffffff8381166000818152600260205260409081902080547fffffffffffffffffffffffffffffffffffffffff000000000000000000000000166bffffffffffffffffffffffff95909516949094179093559151908516907fddf252ad1be2c89b69c2b068fc378daa952ba7f163c4a11628f55a4df523b3ef90611666908590612c5f565b60405180910390a373ffffffffffffffffffffffffffffffffffffffff8084166000908152600360205260408082205485841683529120546116ad92918216911683611b3c565b505050565b73ffffffffffffffffffffffffffffffffffffffff82166116ff576040517f08c379a00000000000000000000000000000000000000000000000000000000081526004016107bf90612c18565b73ffffffffffffffffffffffffffffffffffffffff821660009081526002602090815260409182902054825160608101909352602380845261175c936bffffffffffffffffffffffff9092169285929190612fa8908301396113e3565b600260008473ffffffffffffffffffffffffffffffffffffffff1673ffffffffffffffffffffffffffffffffffffffff16815260200190815260200160002060006101000a8154816bffffffffffffffffffffffff02191690836bffffffffffffffffffffffff16021790555061180f6117f0600054604051806060016040528060238152602001612f8560239139611391565b82604051806060016040528060288152602001612e81602891396113e3565b6bffffffffffffffffffffffff16600090815560405173ffffffffffffffffffffffffffffffffffffffff8416907fddf252ad1be2c89b69c2b068fc378daa952ba7f163c4a11628f55a4df523b3ef9061186a908590612c5f565b60405180910390a35050565b73ffffffffffffffffffffffffffffffffffffffff808316600081815260036020818152604080842080546002845282862054949093528787167fffffffffffffffffffffffff000000000000000000000000000000000000000084168117909155905191909516946bffffffffffffffffffffffff9092169391928592917f3134e8a2e6d97e929a7e54011ea5485d7d196dd5f0ba4d4ef95803e8e3fc257f9190a4611924828483611b3c565b50505050565b4690565b73ffffffffffffffffffffffffffffffffffffffff821661197b576040517f08c379a00000000000000000000000000000000000000000000000000000000081526004016107bf90612b58565b600061199f82604051806060016040528060238152602001612e0360239139611391565b90506119dc6119be600054836bffffffffffffffffffffffff16611d83565b604051806060016040528060288152602001612ea960289139611391565b6bffffffffffffffffffffffff908116600090815573ffffffffffffffffffffffffffffffffffffffff8516815260026020908152604091829020548251606081019093526026808452611a409491909116928592909190612f5f90830139611ae1565b73ffffffffffffffffffffffffffffffffffffffff841660008181526002602052604080822080547fffffffffffffffffffffffffffffffffffffffff000000000000000000000000166bffffffffffffffffffffffff959095169490941790935591519091907fddf252ad1be2c89b69c2b068fc378daa952ba7f163c4a11628f55a4df523b3ef90611ad4908590612c5f565b60405180910390a3505050565b6000838301826bffffffffffffffffffffffff8087169083161015611b33576040517f08c379a00000000000000000000000000000000000000000000000000000000081526004016107bf9190612b47565b50949350505050565b8173ffffffffffffffffffffffffffffffffffffffff168373ffffffffffffffffffffffffffffffffffffffff1614158015611b8657506000816bffffffffffffffffffffffff16115b156116ad5773ffffffffffffffffffffffffffffffffffffffff831615611c895773ffffffffffffffffffffffffffffffffffffffff831660009081526005602052604081205463ffffffff169081611be0576000611c50565b73ffffffffffffffffffffffffffffffffffffffff851660009081526004602090815260408083207fffffffffffffffffffffffffffffffffffffffffffffffffffffffffffffffff860163ffffffff16845290915290205464010000000090046bffffffffffffffffffffffff165b90506000611c778285604051806060016040528060298152602001612f36602991396113e3565b9050611c8586848484611dc2565b5050505b73ffffffffffffffffffffffffffffffffffffffff8216156116ad5773ffffffffffffffffffffffffffffffffffffffff821660009081526005602052604081205463ffffffff169081611cde576000611d4e565b73ffffffffffffffffffffffffffffffffffffffff841660009081526004602090815260408083207fffffffffffffffffffffffffffffffffffffffffffffffffffffffffffffffff860163ffffffff16845290915290205464010000000090046bffffffffffffffffffffffff165b90506000611d758285604051806060016040528060288152602001612d8360289139611ae1565b9050610e2185848484611dc2565b6000828201838110156106b5576040517f08c379a00000000000000000000000000000000000000000000000000000000081526004016107bf90612b68565b6000611de643604051806060016040528060358152602001612e4c6035913961202c565b905060008463ffffffff16118015611e5a575073ffffffffffffffffffffffffffffffffffffffff8516600090815260046020908152604080832063ffffffff7fffffffffffffffffffffffffffffffffffffffffffffffffffffffffffffffff8901811685529252909120548282169116145b15611ef95773ffffffffffffffffffffffffffffffffffffffff851660009081526004602090815260408083207fffffffffffffffffffffffffffffffffffffffffffffffffffffffffffffffff880163ffffffff168452909152902080547fffffffffffffffffffffffffffffffff000000000000000000000000ffffffff166401000000006bffffffffffffffffffffffff851602179055611fd5565b60408051808201825263ffffffff80841682526bffffffffffffffffffffffff808616602080850191825273ffffffffffffffffffffffffffffffffffffffff8b166000818152600483528781208c871682528352878120965187549451909516640100000000027fffffffffffffffffffffffffffffffff000000000000000000000000ffffffff9587167fffffffffffffffffffffffffffffffffffffffffffffffffffffffff00000000958616179590951694909417909555938252600590935292909220805460018801909316929091169190911790555b8473ffffffffffffffffffffffffffffffffffffffff167fdec2bacdd2f05b59de34da9b523dff8be42e5e38e818c82fdb0bae774387a724848460405161201d929190612c7b565b60405180910390a25050505050565b60008164010000000084106113db576040517f08c379a00000000000000000000000000000000000000000000000000000000081526004016107bf9190612b47565b604080518082019091526000808252602082015290565b80356104d981612d53565b80356104d981612d67565b60008083601f8401126120ad57600080fd5b50813567ffffffffffffffff8111156120c557600080fd5b6020830191508360018202830111156120dd57600080fd5b9250929050565b80356104d981612d70565b80356104d981612d79565b60006020828403121561210c57600080fd5b60006121188484612085565b949350505050565b6000806040838503121561213357600080fd5b600061213f8585612085565b925050602061215085828601612085565b9150509250929050565b60008060006060848603121561216f57600080fd5b600061217b8686612085565b935050602061218c86828701612085565b925050604061219d86828701612090565b9150509250925092565b600080600080600080600060e0888a0312156121c257600080fd5b60006121ce8a8a612085565b97505060206121df8a828b01612085565b96505060406121f08a828b01612090565b95505060606122018a828b01612090565b94505060806122128a828b016120ef565b93505060a06122238a828b01612090565b92505060c06122348a828b01612090565b91505092959891949750929550565b60008060006040848603121561225857600080fd5b60006122648686612085565b935050602084013567ffffffffffffffff81111561228157600080fd5b61228d8682870161209b565b92509250509250925092565b600080604083850312156122ac57600080fd5b60006122b88585612085565b925050602061215085828601612090565b60008060008060008060c087890312156122e257600080fd5b60006122ee8989612085565b96505060206122ff89828a01612090565b955050604061231089828a01612090565b945050606061232189828a016120ef565b935050608061233289828a01612090565b92505060a061234389828a01612090565b9150509295509295509295565b6000806040838503121561236357600080fd5b600061236f8585612085565b9250506020612150858286016120e4565b60006020828403121561239257600080fd5b60006121188484612090565b6123a781612ca8565b82525050565b6123a781612cb3565b6123a781612cb8565b6123a76123cb82612cb8565b612cb8565b60006123db82612c96565b6123e58185612c9a565b93506123f5818560208601612cff565b6123fe81612d2b565b9093019392505050565b6000612415603083612c9a565b7f517569636b3a3a6d696e743a2063616e6e6f74207472616e7366657220746f2081527f746865207a65726f206164647265737300000000000000000000000000000000602082015260400192915050565b6000612474600283612ca3565b7f1901000000000000000000000000000000000000000000000000000000000000815260020192915050565b60006124ad601b83612c9a565b7f536166654d6174683a206164646974696f6e206f766572666c6f770000000000815260200192915050565b60006124e6602783612c9a565b7f517569636b3a3a64656c656761746542795369673a20696e76616c696420736981527f676e617475726500000000000000000000000000000000000000000000000000602082015260400192915050565b6000612545602083612c9a565b7f517569636b3a3a7065726d69743a207369676e61747572652065787069726564815260200192915050565b600061257e602383612c9a565b7f517569636b3a3a64656c656761746542795369673a20696e76616c6964206e6f81527f6e63650000000000000000000000000000000000000000000000000000000000602082015260400192915050565b60006125dd601b83612c9a565b7f517569636b3a3a7065726d69743a20756e617574686f72697a65640000000000815260200192915050565b6000612616602783612c9a565b7f517569636b3a3a64656c656761746542795369673a207369676e61747572652081527f6578706972656400000000000000000000000000000000000000000000000000602082015260400192915050565b6000612675605283612ca3565b7f5065726d69742861646472657373206f776e65722c616464726573732073706581527f6e6465722c75696e743235362076616c75652c75696e74323536206e6f6e636560208201527f2c75696e7432353620646561646c696e65290000000000000000000000000000604082015260520192915050565b60006126fa602883612c9a565b7f517569636b3a3a6765745072696f72566f7465733a206e6f742079657420646581527f7465726d696e6564000000000000000000000000000000000000000000000000602082015260400192915050565b6000612759604383612ca3565b7f454950373132446f6d61696e28737472696e67206e616d652c75696e7432353681527f20636861696e49642c6164647265737320766572696679696e67436f6e74726160208201527f6374290000000000000000000000000000000000000000000000000000000000604082015260430192915050565b60006127de603d83612c9a565b7f517569636b3a3a5f7472616e73666572546f6b656e733a2063616e6e6f74207481527f72616e736665722066726f6d20746865207a65726f2061646472657373000000602082015260400192915050565b600061283d602083612c9a565b7f517569636b3a3a7065726d69743a20696e76616c6964207369676e6174757265815260200192915050565b6000612876600e83612c9a565b7f496e76616c696420616363657373000000000000000000000000000000000000815260200192915050565b60006128af603b83612c9a565b7f517569636b3a3a5f7472616e73666572546f6b656e733a2063616e6e6f74207481527f72616e7366657220746f20746865207a65726f20616464726573730000000000602082015260400192915050565b600061290e602283612c9a565b7f517569636b3a3a206275726e2066726f6d20746865207a65726f20616464726581527f7373000000000000000000000000000000000000000000000000000000000000602082015260400192915050565b600061296d603a83612ca3565b7f44656c65676174696f6e28616464726573732064656c6567617465652c75696e81527f74323536206e6f6e63652c75696e7432353620657870697279290000000000006020820152603a0192915050565b6123a781612cd4565b6123a781612cdd565b6123a781612cf4565b6123a781612ce3565b60006129ee82612467565b91506129fa82856123bf565b602082019150612a0a82846123bf565b5060200192915050565b60006104d982612668565b60006104d98261274c565b60006104d982612960565b602081016104d9828461239e565b602081016104d982846123ad565b602081016104d982846123b6565b60c08101612a6d82896123b6565b612a7a602083018861239e565b612a87604083018761239e565b612a9460608301866123b6565b612aa160808301856123b6565b612aae60a08301846123b6565b979650505050505050565b60808101612ac782876123b6565b612ad4602083018661239e565b612ae160408301856123b6565b612aee60608301846123b6565b95945050505050565b60808101612b0582876123b6565b612b1260208301866123b6565b612b1f60408301856123b6565b612aee606083018461239e565b60808101612b3a82876123b6565b612ad460208301866129c8565b602080825281016106b581846123d0565b602080825281016104d981612408565b602080825281016104d9816124a0565b602080825281016104d9816124d9565b602080825281016104d981612538565b602080825281016104d981612571565b602080825281016104d9816125d0565b602080825281016104d981612609565b602080825281016104d9816126ed565b602080825281016104d9816127d1565b602080825281016104d981612830565b602080825281016104d981612869565b602080825281016104d9816128a2565b602080825281016104d981612901565b602081016104d982846129bf565b60408101612c4482856129bf565b6106b560208301846129da565b602081016104d982846129c8565b602081016104d982846129d1565b602081016104d982846129da565b60408101612c8982856129d1565b6106b560208301846129d1565b5190565b90815260200190565b919050565b60006104d982612cbb565b151590565b90565b73ffffffffffffffffffffffffffffffffffffffff1690565b63ffffffff1690565b60ff1690565b6bffffffffffffffffffffffff1690565b60006104d982612ce3565b60005b83811015612d1a578181015183820152602001612d02565b838111156119245750506000910152565b601f017fffffffffffffffffffffffffffffffffffffffffffffffffffffffffffffffe01690565b612d5c81612ca8565b811461073357600080fd5b612d5c81612cb8565b612d5c81612cd4565b612d5c81612cdd56fe517569636b3a3a5f6d6f7665566f7465733a20766f746520616d6f756e74206f766572666c6f7773517569636b3a3a77697468647261773a20616d6f756e7420657863656564732039362062697473517569636b3a3a5f7472616e73666572546f6b656e733a207472616e7366657220616d6f756e74206f766572666c6f7773517569636b3a3a6d696e743a20616d6f756e7420657863656564732039362062697473517569636b3a3a617070726f76653a20616d6f756e7420657863656564732039362062697473517569636b3a3a5f7772697465436865636b706f696e743a20626c6f636b206e756d62657220657863656564732033322062697473517569636b3a3a206275726e20616d6f756e74206578636565647320746f74616c20737570706c79517569636b3a3a6d696e743a20746f74616c537570706c7920657863656564732039362062697473517569636b3a3a7472616e736665723a20616d6f756e7420657863656564732039362062697473517569636b3a3a7472616e7366657246726f6d3a207472616e7366657220616d6f756e742065786365656473207370656e64657220616c6c6f77616e6365517569636b3a3a5f6d6f7665566f7465733a20766f746520616d6f756e7420756e646572666c6f7773517569636b3a3a6d696e743a207472616e7366657220616d6f756e74206f766572666c6f7773517569636b3a3a20746f74616c537570706c7920657863656564732039362062697473517569636b3a3a206275726e20616d6f756e7420657863656564732062616c616e6365517569636b3a3a7065726d69743a20616d6f756e7420657863656564732039362062697473517569636b3a3a5f7472616e73666572546f6b656e733a207472616e7366657220616d6f756e7420657863656564732062616c616e6365517569636b3a3a6465706f7369743a20616d6f756e7420657863656564732039362062697473a365627a7a72315820e4ccd9c9d52540e96490228ae211e120342a5d65ddbe3dfe158b53cdb8f658306c6578706572696d656e74616cf564736f6c63430005100040",
  "source": "/**\n *Submitted for verification at Etherscan.io on 2020-09-16\n*/\n\n/**\n *Submitted for verification at Etherscan.io on 2020-09-15\n*/\n\npragma solidity ^0.5.16;\npragma experimental ABIEncoderV2;\n\n// From https://github.com/OpenZeppelin/openzeppelin-contracts/blob/master/contracts/math/Math.sol\n// Subject to the MIT license.\n\n/**\n * @dev Wrappers over Solidity's arithmetic operations with added overflow\n * checks.\n *\n * Arithmetic operations in Solidity wrap on overflow. This can easily result\n * in bugs, because programmers usually assume that an overflow raises an\n * error, which is the standard behavior in high level programming languages.\n * `SafeMath` restores this intuition by reverting the transaction when an\n * operation overflows.\n *\n * Using this library instead of the unchecked operations eliminates an entire\n * class of bugs, so it's recommended to use it always.\n */\nlibrary SafeMath {\n    /**\n     * @dev Returns the addition of two unsigned integers, reverting on overflow.\n     *\n     * Counterpart to Solidity's `+` operator.\n     *\n     * Requirements:\n     * - Addition cannot overflow.\n     */\n    function add(uint256 a, uint256 b) internal pure returns (uint256) {\n        uint256 c = a + b;\n        require(c >= a, \"SafeMath: addition overflow\");\n\n        return c;\n    }\n\n    /**\n     * @dev Returns the addition of two unsigned integers, reverting with custom message on overflow.\n     *\n     * Counterpart to Solidity's `+` operator.\n     *\n     * Requirements:\n     * - Addition cannot overflow.\n     */\n    function add(uint256 a, uint256 b, string memory errorMessage) internal pure returns (uint256) {\n        uint256 c = a + b;\n        require(c >= a, errorMessage);\n\n        return c;\n    }\n\n    /**\n     * @dev Returns the subtraction of two unsigned integers, reverting on underflow (when the result is negative).\n     *\n     * Counterpart to Solidity's `-` operator.\n     *\n     * Requirements:\n     * - Subtraction cannot underflow.\n     */\n    function sub(uint256 a, uint256 b) internal pure returns (uint256) {\n        return sub(a, b, \"SafeMath: subtraction underflow\");\n    }\n\n    /**\n     * @dev Returns the subtraction of two unsigned integers, reverting with custom message on underflow (when the result is negative).\n     *\n     * Counterpart to Solidity's `-` operator.\n     *\n     * Requirements:\n     * - Subtraction cannot underflow.\n     */\n    function sub(uint256 a, uint256 b, string memory errorMessage) internal pure returns (uint256) {\n        require(b <= a, errorMessage);\n        uint256 c = a - b;\n\n        return c;\n    }\n\n    /**\n     * @dev Returns the multiplication of two unsigned integers, reverting on overflow.\n     *\n     * Counterpart to Solidity's `*` operator.\n     *\n     * Requirements:\n     * - Multiplication cannot overflow.\n     */\n    function mul(uint256 a, uint256 b) internal pure returns (uint256) {\n        // Gas optimization: this is cheaper than requiring 'a' not being zero, but the\n        // benefit is lost if 'b' is also tested.\n        // See: https://github.com/OpenZeppelin/openzeppelin-contracts/pull/522\n        if (a == 0) {\n            return 0;\n        }\n\n        uint256 c = a * b;\n        require(c / a == b, \"SafeMath: multiplication overflow\");\n\n        return c;\n    }\n\n    /**\n     * @dev Returns the multiplication of two unsigned integers, reverting on overflow.\n     *\n     * Counterpart to Solidity's `*` operator.\n     *\n     * Requirements:\n     * - Multiplication cannot overflow.\n     */\n    function mul(uint256 a, uint256 b, string memory errorMessage) internal pure returns (uint256) {\n        // Gas optimization: this is cheaper than requiring 'a' not being zero, but the\n        // benefit is lost if 'b' is also tested.\n        // See: https://github.com/OpenZeppelin/openzeppelin-contracts/pull/522\n        if (a == 0) {\n            return 0;\n        }\n\n        uint256 c = a * b;\n        require(c / a == b, errorMessage);\n\n        return c;\n    }\n\n    /**\n     * @dev Returns the integer division of two unsigned integers.\n     * Reverts on division by zero. The result is rounded towards zero.\n     *\n     * Counterpart to Solidity's `/` operator. Note: this function uses a\n     * `revert` opcode (which leaves remaining gas untouched) while Solidity\n     * uses an invalid opcode to revert (consuming all remaining gas).\n     *\n     * Requirements:\n     * - The divisor cannot be zero.\n     */\n    function div(uint256 a, uint256 b) internal pure returns (uint256) {\n        return div(a, b, \"SafeMath: division by zero\");\n    }\n\n    /**\n     * @dev Returns the integer division of two unsigned integers.\n     * Reverts with custom message on division by zero. The result is rounded towards zero.\n     *\n     * Counterpart to Solidity's `/` operator. Note: this function uses a\n     * `revert` opcode (which leaves remaining gas untouched) while Solidity\n     * uses an invalid opcode to revert (consuming all remaining gas).\n     *\n     * Requirements:\n     * - The divisor cannot be zero.\n     */\n    function div(uint256 a, uint256 b, string memory errorMessage) internal pure returns (uint256) {\n        // Solidity only automatically asserts when dividing by 0\n        require(b > 0, errorMessage);\n        uint256 c = a / b;\n        // assert(a == b * c + a % b); // There is no case in which this doesn't hold\n\n        return c;\n    }\n\n    /**\n     * @dev Returns the remainder of dividing two unsigned integers. (unsigned integer modulo),\n     * Reverts when dividing by zero.\n     *\n     * Counterpart to Solidity's `%` operator. This function uses a `revert`\n     * opcode (which leaves remaining gas untouched) while Solidity uses an\n     * invalid opcode to revert (consuming all remaining gas).\n     *\n     * Requirements:\n     * - The divisor cannot be zero.\n     */\n    function mod(uint256 a, uint256 b) internal pure returns (uint256) {\n        return mod(a, b, \"SafeMath: modulo by zero\");\n    }\n\n    /**\n     * @dev Returns the remainder of dividing two unsigned integers. (unsigned integer modulo),\n     * Reverts with custom message when dividing by zero.\n     *\n     * Counterpart to Solidity's `%` operator. This function uses a `revert`\n     * opcode (which leaves remaining gas untouched) while Solidity uses an\n     * invalid opcode to revert (consuming all remaining gas).\n     *\n     * Requirements:\n     * - The divisor cannot be zero.\n     */\n    function mod(uint256 a, uint256 b, string memory errorMessage) internal pure returns (uint256) {\n        require(b != 0, errorMessage);\n        return a % b;\n    }\n}\n\ncontract Quick {\n    /// @notice EIP-20 token name for this token\n    string public constant name = \"Quickswap\";\n\n    /// @notice EIP-20 token symbol for this token\n    string public constant symbol = \"QUICK\";\n\n    /// @notice EIP-20 token decimals for this token\n    uint8 public constant decimals = 18;\n\n    /// @notice Total number of tokens in circulation\n    uint public totalSupply = 0; // QUICK\n\n    /// @notice Allowance amounts on behalf of others\n    mapping (address => mapping (address => uint96)) internal allowances;\n\n    /// @notice Official record of token balances for each account\n    mapping (address => uint96) internal balances;\n\n    /// @notice A record of each accounts delegate\n    mapping (address => address) public delegates;\n\n    /// @notice A checkpoint for marking number of votes from a given block\n    struct Checkpoint {\n        uint32 fromBlock;\n        uint96 votes;\n    }\n\n    /// @notice A record of votes checkpoints for each account, by index\n    mapping (address => mapping (uint32 => Checkpoint)) public checkpoints;\n\n    /// @notice The number of checkpoints for each account\n    mapping (address => uint32) public numCheckpoints;\n\n    /// @notice The EIP-712 typehash for the contract's domain\n    bytes32 public constant DOMAIN_TYPEHASH = keccak256(\"EIP712Domain(string name,uint256 chainId,address verifyingContract)\");\n\n    /// @notice The EIP-712 typehash for the delegation struct used by the contract\n    bytes32 public constant DELEGATION_TYPEHASH = keccak256(\"Delegation(address delegatee,uint256 nonce,uint256 expiry)\");\n\n    /// @notice The EIP-712 typehash for the permit struct used by the contract\n    bytes32 public constant PERMIT_TYPEHASH = keccak256(\"Permit(address owner,address spender,uint256 value,uint256 nonce,uint256 deadline)\");\n\n    /// @notice A record of states for signing / validating signatures\n    mapping (address => uint) public nonces;\n\n    address public gateway;\n\n    /// @notice An event thats emitted when an account changes its delegate\n    event DelegateChanged(address indexed delegator, address indexed fromDelegate, address indexed toDelegate);\n\n    /// @notice An event thats emitted when a delegate account's vote balance changes\n    event DelegateVotesChanged(address indexed delegate, uint previousBalance, uint newBalance);\n\n    /// @notice The standard EIP-20 transfer event\n    event Transfer(address indexed from, address indexed to, uint256 amount);\n\n    /// @notice The standard EIP-20 approval event\n    event Approval(address indexed owner, address indexed spender, uint256 amount);\n\n    /**\n     * @notice Construct a new Quick token\n     * @param gateway_ The gateway contract address\n     */\n    constructor(address gateway_) public {\n\n        gateway = gateway_;\n    }\n\n    /**\n     * @notice called when token is deposited on root chain\n     * @dev Should be callable only by ChildChainManager\n     * Should handle deposit by minting the required amount for user\n     * Make sure minting is done only by this function\n     * @param user user address for whom deposit is being done\n     * @param depositData abi encoded amount\n     */\n    function deposit(address user, bytes calldata depositData)\n        external\n    {\n        require(msg.sender == gateway,  \"Invalid access\");\n        uint256 rawAmount = abi.decode(depositData, (uint256));\n        uint96 amount = safe96(rawAmount, \"Quick::deposit: amount exceeds 96 bits\");\n\n        _mint(user, amount);\n    }\n\n    /**\n     * @notice called when user wants to withdraw tokens back to root chain\n     * @dev Should burn user's tokens. This transaction will be verified when exiting on root chain\n     * @param rawAmount amount of tokens to withdraw\n     */\n    function withdraw(uint256 rawAmount) external {\n        uint96 amount = safe96(rawAmount, \"Quick::withdraw: amount exceeds 96 bits\");\n        _burn(msg.sender, amount);\n    }\n\n    /**\n     * @notice Get the number of tokens `spender` is approved to spend on behalf of `account`\n     * @param account The address of the account holding the funds\n     * @param spender The address of the account spending the funds\n     * @return The number of tokens approved\n     */\n    function allowance(address account, address spender) external view returns (uint) {\n        return allowances[account][spender];\n    }\n\n    /**\n     * @notice Approve `spender` to transfer up to `amount` from `src`\n     * @dev This will overwrite the approval amount for `spender`\n     *  and is subject to issues noted [here](https://eips.ethereum.org/EIPS/eip-20#approve)\n     * @param spender The address of the account which may transfer tokens\n     * @param rawAmount The number of tokens that are approved (2^256-1 means infinite)\n     * @return Whether or not the approval succeeded\n     */\n    function approve(address spender, uint rawAmount) external returns (bool) {\n        uint96 amount;\n        if (rawAmount == uint(-1)) {\n            amount = uint96(-1);\n        } else {\n            amount = safe96(rawAmount, \"Quick::approve: amount exceeds 96 bits\");\n        }\n\n        allowances[msg.sender][spender] = amount;\n\n        emit Approval(msg.sender, spender, amount);\n        return true;\n    }\n\n    /**\n     * @notice Triggers an approval from owner to spends\n     * @param owner The address to approve from\n     * @param spender The address to be approved\n     * @param rawAmount The number of tokens that are approved (2^256-1 means infinite)\n     * @param deadline The time at which to expire the signature\n     * @param v The recovery byte of the signature\n     * @param r Half of the ECDSA signature pair\n     * @param s Half of the ECDSA signature pair\n     */\n    function permit(address owner, address spender, uint rawAmount, uint deadline, uint8 v, bytes32 r, bytes32 s) external {\n        uint96 amount;\n        if (rawAmount == uint(-1)) {\n            amount = uint96(-1);\n        } else {\n            amount = safe96(rawAmount, \"Quick::permit: amount exceeds 96 bits\");\n        }\n\n        bytes32 domainSeparator = keccak256(abi.encode(DOMAIN_TYPEHASH, keccak256(bytes(name)), getChainId(), address(this)));\n        bytes32 structHash = keccak256(abi.encode(PERMIT_TYPEHASH, owner, spender, rawAmount, nonces[owner]++, deadline));\n        bytes32 digest = keccak256(abi.encodePacked(\"\\x19\\x01\", domainSeparator, structHash));\n        address signatory = ecrecover(digest, v, r, s);\n        require(signatory != address(0), \"Quick::permit: invalid signature\");\n        require(signatory == owner, \"Quick::permit: unauthorized\");\n        require(now <= deadline, \"Quick::permit: signature expired\");\n\n        allowances[owner][spender] = amount;\n\n        emit Approval(owner, spender, amount);\n    }\n\n    /**\n     * @notice Get the number of tokens held by the `account`\n     * @param account The address of the account to get the balance of\n     * @return The number of tokens held\n     */\n    function balanceOf(address account) external view returns (uint) {\n        return balances[account];\n    }\n\n    /**\n     * @notice Transfer `amount` tokens from `msg.sender` to `dst`\n     * @param dst The address of the destination account\n     * @param rawAmount The number of tokens to transfer\n     * @return Whether or not the transfer succeeded\n     */\n    function transfer(address dst, uint rawAmount) external returns (bool) {\n        uint96 amount = safe96(rawAmount, \"Quick::transfer: amount exceeds 96 bits\");\n        _transferTokens(msg.sender, dst, amount);\n        return true;\n    }\n\n    /**\n     * @notice Transfer `amount` tokens from `src` to `dst`\n     * @param src The address of the source account\n     * @param dst The address of the destination account\n     * @param rawAmount The number of tokens to transfer\n     * @return Whether or not the transfer succeeded\n     */\n    function transferFrom(address src, address dst, uint rawAmount) external returns (bool) {\n        address spender = msg.sender;\n        uint96 spenderAllowance = allowances[src][spender];\n        uint96 amount = safe96(rawAmount, \"Quick::approve: amount exceeds 96 bits\");\n\n        if (spender != src && spenderAllowance != uint96(-1)) {\n            uint96 newAllowance = sub96(spenderAllowance, amount, \"Quick::transferFrom: transfer amount exceeds spender allowance\");\n            allowances[src][spender] = newAllowance;\n\n            emit Approval(src, spender, newAllowance);\n        }\n\n        _transferTokens(src, dst, amount);\n        return true;\n    }\n\n    /**\n     * @notice Delegate votes from `msg.sender` to `delegatee`\n     * @param delegatee The address to delegate votes to\n     */\n    function delegate(address delegatee) public {\n        return _delegate(msg.sender, delegatee);\n    }\n\n    /**\n     * @notice Delegates votes from signatory to `delegatee`\n     * @param delegatee The address to delegate votes to\n     * @param nonce The contract state required to match the signature\n     * @param expiry The time at which to expire the signature\n     * @param v The recovery byte of the signature\n     * @param r Half of the ECDSA signature pair\n     * @param s Half of the ECDSA signature pair\n     */\n    function delegateBySig(address delegatee, uint nonce, uint expiry, uint8 v, bytes32 r, bytes32 s) public {\n        bytes32 domainSeparator = keccak256(abi.encode(DOMAIN_TYPEHASH, keccak256(bytes(name)), getChainId(), address(this)));\n        bytes32 structHash = keccak256(abi.encode(DELEGATION_TYPEHASH, delegatee, nonce, expiry));\n        bytes32 digest = keccak256(abi.encodePacked(\"\\x19\\x01\", domainSeparator, structHash));\n        address signatory = ecrecover(digest, v, r, s);\n        require(signatory != address(0), \"Quick::delegateBySig: invalid signature\");\n        require(nonce == nonces[signatory]++, \"Quick::delegateBySig: invalid nonce\");\n        require(now <= expiry, \"Quick::delegateBySig: signature expired\");\n        return _delegate(signatory, delegatee);\n    }\n\n    /**\n     * @notice Gets the current votes balance for `account`\n     * @param account The address to get votes balance\n     * @return The number of current votes for `account`\n     */\n    function getCurrentVotes(address account) external view returns (uint96) {\n        uint32 nCheckpoints = numCheckpoints[account];\n        return nCheckpoints > 0 ? checkpoints[account][nCheckpoints - 1].votes : 0;\n    }\n\n    /**\n     * @notice Determine the prior number of votes for an account as of a block number\n     * @dev Block number must be a finalized block or else this function will revert to prevent misinformation.\n     * @param account The address of the account to check\n     * @param blockNumber The block number to get the vote balance at\n     * @return The number of votes the account had as of the given block\n     */\n    function getPriorVotes(address account, uint blockNumber) public view returns (uint96) {\n        require(blockNumber < block.number, \"Quick::getPriorVotes: not yet determined\");\n\n        uint32 nCheckpoints = numCheckpoints[account];\n        if (nCheckpoints == 0) {\n            return 0;\n        }\n\n        // First check most recent balance\n        if (checkpoints[account][nCheckpoints - 1].fromBlock <= blockNumber) {\n            return checkpoints[account][nCheckpoints - 1].votes;\n        }\n\n        // Next check implicit zero balance\n        if (checkpoints[account][0].fromBlock > blockNumber) {\n            return 0;\n        }\n\n        uint32 lower = 0;\n        uint32 upper = nCheckpoints - 1;\n        while (upper > lower) {\n            uint32 center = upper - (upper - lower) / 2; // ceil, avoiding overflow\n            Checkpoint memory cp = checkpoints[account][center];\n            if (cp.fromBlock == blockNumber) {\n                return cp.votes;\n            } else if (cp.fromBlock < blockNumber) {\n                lower = center;\n            } else {\n                upper = center - 1;\n            }\n        }\n        return checkpoints[account][lower].votes;\n    }\n\n    function _delegate(address delegator, address delegatee) internal {\n        address currentDelegate = delegates[delegator];\n        uint96 delegatorBalance = balances[delegator];\n        delegates[delegator] = delegatee;\n\n        emit DelegateChanged(delegator, currentDelegate, delegatee);\n\n        _moveDelegates(currentDelegate, delegatee, delegatorBalance);\n    }\n\n    function _transferTokens(address src, address dst, uint96 amount) internal {\n        require(src != address(0), \"Quick::_transferTokens: cannot transfer from the zero address\");\n        require(dst != address(0), \"Quick::_transferTokens: cannot transfer to the zero address\");\n\n        balances[src] = sub96(balances[src], amount, \"Quick::_transferTokens: transfer amount exceeds balance\");\n        balances[dst] = add96(balances[dst], amount, \"Quick::_transferTokens: transfer amount overflows\");\n        emit Transfer(src, dst, amount);\n\n        _moveDelegates(delegates[src], delegates[dst], amount);\n    }\n\n    function _moveDelegates(address srcRep, address dstRep, uint96 amount) internal {\n        if (srcRep != dstRep && amount > 0) {\n            if (srcRep != address(0)) {\n                uint32 srcRepNum = numCheckpoints[srcRep];\n                uint96 srcRepOld = srcRepNum > 0 ? checkpoints[srcRep][srcRepNum - 1].votes : 0;\n                uint96 srcRepNew = sub96(srcRepOld, amount, \"Quick::_moveVotes: vote amount underflows\");\n                _writeCheckpoint(srcRep, srcRepNum, srcRepOld, srcRepNew);\n            }\n\n            if (dstRep != address(0)) {\n                uint32 dstRepNum = numCheckpoints[dstRep];\n                uint96 dstRepOld = dstRepNum > 0 ? checkpoints[dstRep][dstRepNum - 1].votes : 0;\n                uint96 dstRepNew = add96(dstRepOld, amount, \"Quick::_moveVotes: vote amount overflows\");\n                _writeCheckpoint(dstRep, dstRepNum, dstRepOld, dstRepNew);\n            }\n        }\n    }\n\n    function _writeCheckpoint(address delegatee, uint32 nCheckpoints, uint96 oldVotes, uint96 newVotes) internal {\n      uint32 blockNumber = safe32(block.number, \"Quick::_writeCheckpoint: block number exceeds 32 bits\");\n\n      if (nCheckpoints > 0 && checkpoints[delegatee][nCheckpoints - 1].fromBlock == blockNumber) {\n          checkpoints[delegatee][nCheckpoints - 1].votes = newVotes;\n      } else {\n          checkpoints[delegatee][nCheckpoints] = Checkpoint(blockNumber, newVotes);\n          numCheckpoints[delegatee] = nCheckpoints + 1;\n      }\n\n      emit DelegateVotesChanged(delegatee, oldVotes, newVotes);\n    }\n\n    function safe32(uint n, string memory errorMessage) internal pure returns (uint32) {\n        require(n < 2**32, errorMessage);\n        return uint32(n);\n    }\n\n    function safe96(uint n, string memory errorMessage) internal pure returns (uint96) {\n        require(n < 2**96, errorMessage);\n        return uint96(n);\n    }\n\n    function add96(uint96 a, uint96 b, string memory errorMessage) internal pure returns (uint96) {\n        uint96 c = a + b;\n        require(c >= a, errorMessage);\n        return c;\n    }\n\n    function sub96(uint96 a, uint96 b, string memory errorMessage) internal pure returns (uint96) {\n        require(b <= a, errorMessage);\n        return a - b;\n    }\n\n    function getChainId() internal pure returns (uint) {\n        uint256 chainId;\n        assembly { chainId := chainid() }\n        return chainId;\n    }\n\n    function _mint(address dst, uint rawAmount) internal {\n        require(dst != address(0), \"Quick::mint: cannot transfer to the zero address\");\n\n        // mint the amount\n        uint96 amount = safe96(rawAmount, \"Quick::mint: amount exceeds 96 bits\");\n        totalSupply = safe96(SafeMath.add(totalSupply, amount), \"Quick::mint: totalSupply exceeds 96 bits\");\n\n        // transfer the amount to the recipient\n        balances[dst] = add96(balances[dst], amount, \"Quick::mint: transfer amount overflows\");\n        emit Transfer(address(0), dst, amount);\n\n    }\n\n    function _burn(address account, uint96 amount) internal {\n        require(account != address(0), \"Quick:: burn from the zero address\");\n\n        balances[account] = sub96(balances[account], amount, \"Quick:: burn amount exceeds balance\");\n        totalSupply = sub96(safe96(totalSupply, \"Quick:: totalSupply exceeds 96 bits\"), amount, \"Quick:: burn amount exceeds total supply\");\n        emit Transfer(account, address(0), amount);\n    }\n}",
  "sourcePath": "C:/Users/simor/Desktop/impermax-x-uniswapv2-periphery/test/Contracts/Quick.sol",
  "compiler": {
    "name": "solc",
    "version": "0.5.16+commit.9c3226ce.Emscripten.clang"
  },
  "schemaVersion": "3.3.2",
  "updatedAt": "2021-05-21T13:36:47.622Z",
  "devdoc": {
    "methods": {
      "allowance(address,address)": {
        "params": {
          "account": "The address of the account holding the funds",
          "spender": "The address of the account spending the funds"
        },
        "return": "The number of tokens approved"
      },
      "approve(address,uint256)": {
        "details": "This will overwrite the approval amount for `spender` and is subject to issues noted [here](https://eips.ethereum.org/EIPS/eip-20#approve)",
        "params": {
          "rawAmount": "The number of tokens that are approved (2^256-1 means infinite)",
          "spender": "The address of the account which may transfer tokens"
        },
        "return": "Whether or not the approval succeeded"
      },
      "balanceOf(address)": {
        "params": {
          "account": "The address of the account to get the balance of"
        },
        "return": "The number of tokens held"
      },
      "constructor": {
        "params": {
          "gateway_": "The gateway contract address"
        }
      },
      "delegate(address)": {
        "params": {
          "delegatee": "The address to delegate votes to"
        }
      },
      "delegateBySig(address,uint256,uint256,uint8,bytes32,bytes32)": {
        "params": {
          "delegatee": "The address to delegate votes to",
          "expiry": "The time at which to expire the signature",
          "nonce": "The contract state required to match the signature",
          "r": "Half of the ECDSA signature pair",
          "s": "Half of the ECDSA signature pair",
          "v": "The recovery byte of the signature"
        }
      },
      "deposit(address,bytes)": {
        "details": "Should be callable only by ChildChainManager Should handle deposit by minting the required amount for user Make sure minting is done only by this function",
        "params": {
          "depositData": "abi encoded amount",
          "user": "user address for whom deposit is being done"
        }
      },
      "getCurrentVotes(address)": {
        "params": {
          "account": "The address to get votes balance"
        },
        "return": "The number of current votes for `account`"
      },
      "getPriorVotes(address,uint256)": {
        "details": "Block number must be a finalized block or else this function will revert to prevent misinformation.",
        "params": {
          "account": "The address of the account to check",
          "blockNumber": "The block number to get the vote balance at"
        },
        "return": "The number of votes the account had as of the given block"
      },
      "permit(address,address,uint256,uint256,uint8,bytes32,bytes32)": {
        "params": {
          "deadline": "The time at which to expire the signature",
          "owner": "The address to approve from",
          "r": "Half of the ECDSA signature pair",
          "rawAmount": "The number of tokens that are approved (2^256-1 means infinite)",
          "s": "Half of the ECDSA signature pair",
          "spender": "The address to be approved",
          "v": "The recovery byte of the signature"
        }
      },
      "transfer(address,uint256)": {
        "params": {
          "dst": "The address of the destination account",
          "rawAmount": "The number of tokens to transfer"
        },
        "return": "Whether or not the transfer succeeded"
      },
      "transferFrom(address,address,uint256)": {
        "params": {
          "dst": "The address of the destination account",
          "rawAmount": "The number of tokens to transfer",
          "src": "The address of the source account"
        },
        "return": "Whether or not the transfer succeeded"
      },
      "withdraw(uint256)": {
        "details": "Should burn user's tokens. This transaction will be verified when exiting on root chain",
        "params": {
          "rawAmount": "amount of tokens to withdraw"
        }
      }
    }
  },
  "userdoc": {
    "methods": {
      "allowance(address,address)": {
        "notice": "Get the number of tokens `spender` is approved to spend on behalf of `account`"
      },
      "approve(address,uint256)": {
        "notice": "Approve `spender` to transfer up to `amount` from `src`"
      },
      "balanceOf(address)": {
        "notice": "Get the number of tokens held by the `account`"
      },
      "constructor": "Construct a new Quick token",
      "delegate(address)": {
        "notice": "Delegate votes from `msg.sender` to `delegatee`"
      },
      "delegateBySig(address,uint256,uint256,uint8,bytes32,bytes32)": {
        "notice": "Delegates votes from signatory to `delegatee`"
      },
      "deposit(address,bytes)": {
        "notice": "called when token is deposited on root chain"
      },
      "getCurrentVotes(address)": {
        "notice": "Gets the current votes balance for `account`"
      },
      "getPriorVotes(address,uint256)": {
        "notice": "Determine the prior number of votes for an account as of a block number"
      },
      "permit(address,address,uint256,uint256,uint8,bytes32,bytes32)": {
        "notice": "Triggers an approval from owner to spends"
      },
      "transfer(address,uint256)": {
        "notice": "Transfer `amount` tokens from `msg.sender` to `dst`"
      },
      "transferFrom(address,address,uint256)": {
        "notice": "Transfer `amount` tokens from `src` to `dst`"
      },
      "withdraw(uint256)": {
        "notice": "called when user wants to withdraw tokens back to root chain"
      }
    }
  }
}