{
  "contractName": "Router02",
  "abi": [
    {
      "inputs": [
        {
          "internalType": "address",
          "name": "_factory",
          "type": "address"
        },
        {
          "internalType": "address",
          "name": "_bDeployer",
          "type": "address"
        },
        {
          "internalType": "address",
          "name": "_cDeployer",
          "type": "address"
        },
        {
          "internalType": "address",
          "name": "_WETH",
          "type": "address"
        }
      ],
      "stateMutability": "nonpayable",
      "type": "constructor"
    },
    {
      "inputs": [],
      "name": "WETH",
      "outputs": [
        {
          "internalType": "address",
          "name": "",
          "type": "address"
        }
      ],
      "stateMutability": "view",
      "type": "function"
    },
    {
      "inputs": [],
      "name": "bDeployer",
      "outputs": [
        {
          "internalType": "address",
          "name": "",
          "type": "address"
        }
      ],
      "stateMutability": "view",
      "type": "function"
    },
    {
      "inputs": [],
      "name": "cDeployer",
      "outputs": [
        {
          "internalType": "address",
          "name": "",
          "type": "address"
        }
      ],
      "stateMutability": "view",
      "type": "function"
    },
    {
      "inputs": [],
      "name": "factory",
      "outputs": [
        {
          "internalType": "address",
          "name": "",
          "type": "address"
        }
      ],
      "stateMutability": "view",
      "type": "function"
    },
    {
      "stateMutability": "payable",
      "type": "receive"
    },
    {
      "inputs": [
        {
          "internalType": "address",
          "name": "poolToken",
          "type": "address"
        },
        {
          "internalType": "uint256",
          "name": "amount",
          "type": "uint256"
        },
        {
          "internalType": "address",
          "name": "to",
          "type": "address"
        },
        {
          "internalType": "uint256",
          "name": "deadline",
          "type": "uint256"
        }
      ],
      "name": "mint",
      "outputs": [
        {
          "internalType": "uint256",
          "name": "tokens",
          "type": "uint256"
        }
      ],
      "stateMutability": "nonpayable",
      "type": "function"
    },
    {
      "inputs": [
        {
          "internalType": "address",
          "name": "poolToken",
          "type": "address"
        },
        {
          "internalType": "address",
          "name": "to",
          "type": "address"
        },
        {
          "internalType": "uint256",
          "name": "deadline",
          "type": "uint256"
        }
      ],
      "name": "mintETH",
      "outputs": [
        {
          "internalType": "uint256",
          "name": "tokens",
          "type": "uint256"
        }
      ],
      "stateMutability": "payable",
      "type": "function"
    },
    {
      "inputs": [
        {
          "internalType": "address",
          "name": "poolToken",
          "type": "address"
        },
        {
          "internalType": "uint256",
          "name": "amount",
          "type": "uint256"
        },
        {
          "internalType": "address",
          "name": "to",
          "type": "address"
        },
        {
          "internalType": "uint256",
          "name": "deadline",
          "type": "uint256"
        },
        {
          "internalType": "bytes",
          "name": "permitData",
          "type": "bytes"
        }
      ],
      "name": "mintCollateral",
      "outputs": [
        {
          "internalType": "uint256",
          "name": "tokens",
          "type": "uint256"
        }
      ],
      "stateMutability": "nonpayable",
      "type": "function"
    },
    {
      "inputs": [
        {
          "internalType": "address",
          "name": "poolToken",
          "type": "address"
        },
        {
          "internalType": "uint256",
          "name": "tokens",
          "type": "uint256"
        },
        {
          "internalType": "address",
          "name": "to",
          "type": "address"
        },
        {
          "internalType": "uint256",
          "name": "deadline",
          "type": "uint256"
        },
        {
          "internalType": "bytes",
          "name": "permitData",
          "type": "bytes"
        }
      ],
      "name": "redeem",
      "outputs": [
        {
          "internalType": "uint256",
          "name": "amount",
          "type": "uint256"
        }
      ],
      "stateMutability": "nonpayable",
      "type": "function"
    },
    {
      "inputs": [
        {
          "internalType": "address",
          "name": "poolToken",
          "type": "address"
        },
        {
          "internalType": "uint256",
          "name": "tokens",
          "type": "uint256"
        },
        {
          "internalType": "address",
          "name": "to",
          "type": "address"
        },
        {
          "internalType": "uint256",
          "name": "deadline",
          "type": "uint256"
        },
        {
          "internalType": "bytes",
          "name": "permitData",
          "type": "bytes"
        }
      ],
      "name": "redeemETH",
      "outputs": [
        {
          "internalType": "uint256",
          "name": "amountETH",
          "type": "uint256"
        }
      ],
      "stateMutability": "nonpayable",
      "type": "function"
    },
    {
      "inputs": [
        {
          "internalType": "address",
          "name": "borrowable",
          "type": "address"
        },
        {
          "internalType": "uint256",
          "name": "amount",
          "type": "uint256"
        },
        {
          "internalType": "address",
          "name": "to",
          "type": "address"
        },
        {
          "internalType": "uint256",
          "name": "deadline",
          "type": "uint256"
        },
        {
          "internalType": "bytes",
          "name": "permitData",
          "type": "bytes"
        }
      ],
      "name": "borrow",
      "outputs": [],
      "stateMutability": "nonpayable",
      "type": "function"
    },
    {
      "inputs": [
        {
          "internalType": "address",
          "name": "borrowable",
          "type": "address"
        },
        {
          "internalType": "uint256",
          "name": "amountETH",
          "type": "uint256"
        },
        {
          "internalType": "address",
          "name": "to",
          "type": "address"
        },
        {
          "internalType": "uint256",
          "name": "deadline",
          "type": "uint256"
        },
        {
          "internalType": "bytes",
          "name": "permitData",
          "type": "bytes"
        }
      ],
      "name": "borrowETH",
      "outputs": [],
      "stateMutability": "nonpayable",
      "type": "function"
    },
    {
      "inputs": [
        {
          "internalType": "address",
          "name": "borrowable",
          "type": "address"
        },
        {
          "internalType": "uint256",
          "name": "amountMax",
          "type": "uint256"
        },
        {
          "internalType": "address",
          "name": "borrower",
          "type": "address"
        },
        {
          "internalType": "uint256",
          "name": "deadline",
          "type": "uint256"
        }
      ],
      "name": "repay",
      "outputs": [
        {
          "internalType": "uint256",
          "name": "amount",
          "type": "uint256"
        }
      ],
      "stateMutability": "nonpayable",
      "type": "function"
    },
    {
      "inputs": [
        {
          "internalType": "address",
          "name": "borrowable",
          "type": "address"
        },
        {
          "internalType": "address",
          "name": "borrower",
          "type": "address"
        },
        {
          "internalType": "uint256",
          "name": "deadline",
          "type": "uint256"
        }
      ],
      "name": "repayETH",
      "outputs": [
        {
          "internalType": "uint256",
          "name": "amountETH",
          "type": "uint256"
        }
      ],
      "stateMutability": "payable",
      "type": "function"
    },
    {
      "inputs": [
        {
          "internalType": "address",
          "name": "borrowable",
          "type": "address"
        },
        {
          "internalType": "uint256",
          "name": "amountMax",
          "type": "uint256"
        },
        {
          "internalType": "address",
          "name": "borrower",
          "type": "address"
        },
        {
          "internalType": "address",
          "name": "to",
          "type": "address"
        },
        {
          "internalType": "uint256",
          "name": "deadline",
          "type": "uint256"
        }
      ],
      "name": "liquidate",
      "outputs": [
        {
          "internalType": "uint256",
          "name": "amount",
          "type": "uint256"
        },
        {
          "internalType": "uint256",
          "name": "seizeTokens",
          "type": "uint256"
        }
      ],
      "stateMutability": "nonpayable",
      "type": "function"
    },
    {
      "inputs": [
        {
          "internalType": "address",
          "name": "borrowable",
          "type": "address"
        },
        {
          "internalType": "address",
          "name": "borrower",
          "type": "address"
        },
        {
          "internalType": "address",
          "name": "to",
          "type": "address"
        },
        {
          "internalType": "uint256",
          "name": "deadline",
          "type": "uint256"
        }
      ],
      "name": "liquidateETH",
      "outputs": [
        {
          "internalType": "uint256",
          "name": "amountETH",
          "type": "uint256"
        },
        {
          "internalType": "uint256",
          "name": "seizeTokens",
          "type": "uint256"
        }
      ],
      "stateMutability": "payable",
      "type": "function"
    },
    {
      "inputs": [
        {
          "internalType": "address",
          "name": "underlying",
          "type": "address"
        },
        {
          "internalType": "uint256",
          "name": "amountADesired",
          "type": "uint256"
        },
        {
          "internalType": "uint256",
          "name": "amountBDesired",
          "type": "uint256"
        },
        {
          "internalType": "uint256",
          "name": "amountAMin",
          "type": "uint256"
        },
        {
          "internalType": "uint256",
          "name": "amountBMin",
          "type": "uint256"
        },
        {
          "internalType": "address",
          "name": "to",
          "type": "address"
        },
        {
          "internalType": "uint256",
          "name": "deadline",
          "type": "uint256"
        },
        {
          "internalType": "bytes",
          "name": "permitDataA",
          "type": "bytes"
        },
        {
          "internalType": "bytes",
          "name": "permitDataB",
          "type": "bytes"
        }
      ],
      "name": "leverage",
      "outputs": [],
      "stateMutability": "nonpayable",
      "type": "function"
    },
    {
      "inputs": [
        {
          "internalType": "address",
          "name": "underlying",
          "type": "address"
        },
        {
          "internalType": "uint256",
          "name": "redeemTokens",
          "type": "uint256"
        },
        {
          "internalType": "uint256",
          "name": "amountAMin",
          "type": "uint256"
        },
        {
          "internalType": "uint256",
          "name": "amountBMin",
          "type": "uint256"
        },
        {
          "internalType": "uint256",
          "name": "deadline",
          "type": "uint256"
        },
        {
          "internalType": "bytes",
          "name": "permitData",
          "type": "bytes"
        }
      ],
      "name": "deleverage",
      "outputs": [],
      "stateMutability": "nonpayable",
      "type": "function"
    },
    {
      "inputs": [
        {
          "internalType": "address",
          "name": "sender",
          "type": "address"
        },
        {
          "internalType": "address",
          "name": "borrower",
          "type": "address"
        },
        {
          "internalType": "uint256",
          "name": "borrowAmount",
          "type": "uint256"
        },
        {
          "internalType": "bytes",
          "name": "data",
          "type": "bytes"
        }
      ],
      "name": "impermaxBorrow",
      "outputs": [],
      "stateMutability": "nonpayable",
      "type": "function"
    },
    {
      "inputs": [
        {
          "internalType": "address",
          "name": "sender",
          "type": "address"
        },
        {
          "internalType": "uint256",
          "name": "redeemAmount",
          "type": "uint256"
        },
        {
          "internalType": "bytes",
          "name": "data",
          "type": "bytes"
        }
      ],
      "name": "impermaxRedeem",
      "outputs": [],
      "stateMutability": "nonpayable",
      "type": "function"
    },
    {
      "inputs": [
        {
          "internalType": "address",
          "name": "uniswapV2Pair",
          "type": "address"
        },
        {
          "internalType": "uint256",
          "name": "amountADesired",
          "type": "uint256"
        },
        {
          "internalType": "uint256",
          "name": "amountBDesired",
          "type": "uint256"
        },
        {
          "internalType": "uint256",
          "name": "amountAMin",
          "type": "uint256"
        },
        {
          "internalType": "uint256",
          "name": "amountBMin",
          "type": "uint256"
        }
      ],
      "name": "_optimalLiquidity",
      "outputs": [
        {
          "internalType": "uint256",
          "name": "amountA",
          "type": "uint256"
        },
        {
          "internalType": "uint256",
          "name": "amountB",
          "type": "uint256"
        }
      ],
      "stateMutability": "view",
      "type": "function"
    },
    {
      "inputs": [
        {
          "internalType": "address",
          "name": "underlying",
          "type": "address"
        }
      ],
      "name": "isStakedLPToken",
      "outputs": [
        {
          "internalType": "bool",
          "name": "",
          "type": "bool"
        }
      ],
      "stateMutability": "view",
      "type": "function"
    },
    {
      "inputs": [
        {
          "internalType": "address",
          "name": "underlying",
          "type": "address"
        }
      ],
      "name": "getUniswapV2Pair",
      "outputs": [
        {
          "internalType": "address",
          "name": "",
          "type": "address"
        }
      ],
      "stateMutability": "view",
      "type": "function"
    },
    {
      "inputs": [
        {
          "internalType": "address",
          "name": "underlying",
          "type": "address"
        },
        {
          "internalType": "uint8",
          "name": "index",
          "type": "uint8"
        }
      ],
      "name": "getBorrowable",
      "outputs": [
        {
          "internalType": "address",
          "name": "borrowable",
          "type": "address"
        }
      ],
      "stateMutability": "view",
      "type": "function"
    },
    {
      "inputs": [
        {
          "internalType": "address",
          "name": "underlying",
          "type": "address"
        }
      ],
      "name": "getCollateral",
      "outputs": [
        {
          "internalType": "address",
          "name": "collateral",
          "type": "address"
        }
      ],
      "stateMutability": "view",
      "type": "function"
    },
    {
      "inputs": [
        {
          "internalType": "address",
          "name": "underlying",
          "type": "address"
        }
      ],
      "name": "getLendingPool",
      "outputs": [
        {
          "internalType": "address",
          "name": "collateral",
          "type": "address"
        },
        {
          "internalType": "address",
          "name": "borrowableA",
          "type": "address"
        },
        {
          "internalType": "address",
          "name": "borrowableB",
          "type": "address"
        }
      ],
      "stateMutability": "view",
      "type": "function"
    }
  ],
  "bytecode": "0x6101006040523480156200001257600080fd5b506040516200532b3803806200532b833981016040819052620000359162000083565b6001600160601b0319606094851b811660805292841b831660a05290831b821660c05290911b1660e052620000e3565b80516001600160a01b03811681146200007d57600080fd5b92915050565b6000806000806080858703121562000099578384fd5b620000a5868662000065565b9350620000b6866020870162000065565b9250620000c7866040870162000065565b9150620000d8866060870162000065565b905092959194509250565b60805160601c60a05160601c60c05160601c60e05160601c6151a262000189600039806101b7528061093d52806109f65280610b395280610bef5280610d3d5280610db85280610e71528061198052806119ee5280611a73528061227a528061249f528061251a52806125d35280613c9d5280613d2c525080611dbd5280611ff05250806122c2528061276d525080612011528061229e528061278e52506151a26000f3fe60806040526004361061019a5760003560e01c806377370d62116100e1578063ad5c46481161008a578063dbe5f2fb11610064578063dbe5f2fb1461048c578063eb03419a146104ac578063ef974e9c146104bf578063fcb2a895146104df576101e0565b8063ad5c46481461044d578063c45a015514610462578063db5a269014610477576101e0565b80639b56d6c9116100bb5780639b56d6c9146103e0578063a3c252a014610400578063acb86cbb1461042d576101e0565b806377370d621461038b5780637a4660d5146103ab578063876d9d9e146103c0576101e0565b80633c173a4f1161014357806367bf252f1161011d57806367bf252f146103385780636aee7c1e14610358578063703de94c14610378576101e0565b80633c173a4f146102ca57806343e26448146102ea5780635c1e64041461030a576101e0565b80632c344504116101745780632c3445041461026a57806335bb10591461028a5780633970036a1461029d576101e0565b80630572bf5f146101e55780631f1cc5bc1461021d5780632b005cfc1461024a576101e0565b366101e0573373ffffffffffffffffffffffffffffffffffffffff7f000000000000000000000000000000000000000000000000000000000000000016146101de57fe5b005b600080fd5b3480156101f157600080fd5b50610205610200366004613f10565b6104ff565b60405161021493929190614a3e565b60405180910390f35b34801561022957600080fd5b5061023d610238366004614154565b61052f565b6040516102149190615070565b34801561025657600080fd5b5061023d610265366004614154565b610869565b34801561027657600080fd5b506101de610285366004614154565b610a67565b61023d610298366004613f98565b610c69565b3480156102a957600080fd5b506102bd6102b8366004613f10565b610fb6565b6040516102149190614903565b3480156102d657600080fd5b5061023d6102e53660046140a3565b611084565b3480156102f657600080fd5b5061023d6103053660046140da565b611155565b34801561031657600080fd5b5061032a610325366004614049565b6114a2565b604051610214929190615079565b34801561034457600080fd5b506101de610353366004614265565b611629565b34801561036457600080fd5b5061023d6103733660046140a3565b61173a565b61023d610386366004613f98565b6118ac565b34801561039757600080fd5b506101de6103a6366004614334565b611a9a565b3480156103b757600080fd5b506102bd611dbb565b3480156103cc57600080fd5b506101de6103db366004613fd8565b611ddf565b3480156103ec57600080fd5b506102bd6103fb366004613f10565b611fec565b34801561040c57600080fd5b5061042061041b366004613f10565b6120a5565b6040516102149190614a94565b34801561043957600080fd5b506101de6104483660046141c8565b61214e565b34801561045957600080fd5b506102bd612278565b34801561046e57600080fd5b506102bd61229c565b34801561048357600080fd5b506102bd6122c0565b34801561049857600080fd5b506101de6104a7366004614154565b6122e4565b61032a6104ba366004613f48565b6123ca565b3480156104cb57600080fd5b506102bd6104da3660046143af565b61272c565b3480156104eb57600080fd5b5061032a6104fa366004614222565b612825565b600080600061050d84611fec565b925061051a84600061272c565b915061052784600161272c565b929491935050565b60008242811015610575576040517f08c379a000000000000000000000000000000000000000000000000000000000815260040161056c90614c83565b60405180910390fd5b6105818787868661298f565b6040517f23b872dd00000000000000000000000000000000000000000000000000000000815273ffffffffffffffffffffffffffffffffffffffff8816906323b872dd906105d79033908b908b906004016149b1565b602060405180830381600087803b1580156105f157600080fd5b505af1158015610605573d6000803e3d6000fd5b505050506040513d601f19601f8201168201806040525081019061062991906143e7565b5060008773ffffffffffffffffffffffffffffffffffffffff16636f307dc36040518163ffffffff1660e01b815260040160206040518083038186803b15801561067257600080fd5b505afa158015610686573d6000803e3d6000fd5b505050506040513d601f19601f820116820180604052508101906106aa9190613f2c565b90506106b5816120a5565b1561080b576040517f95a2251f00000000000000000000000000000000000000000000000000000000815273ffffffffffffffffffffffffffffffffffffffff8916906395a2251f9061070c908490600401614903565b602060405180830381600087803b15801561072657600080fd5b505af115801561073a573d6000803e3d6000fd5b505050506040513d601f19601f8201168201806040525081019061075e91906146bf565b506040517f95a2251f00000000000000000000000000000000000000000000000000000000815273ffffffffffffffffffffffffffffffffffffffff8216906395a2251f906107b1908990600401614903565b602060405180830381600087803b1580156107cb57600080fd5b505af11580156107df573d6000803e3d6000fd5b505050506040513d601f19601f8201168201806040525081019061080391906146bf565b92505061085f565b6040517f95a2251f00000000000000000000000000000000000000000000000000000000815273ffffffffffffffffffffffffffffffffffffffff8916906395a2251f906107b1908990600401614903565b505b5095945050505050565b600082428110156108a6576040517f08c379a000000000000000000000000000000000000000000000000000000000815260040161056c90614c83565b868073ffffffffffffffffffffffffffffffffffffffff16636f307dc36040518163ffffffff1660e01b815260040160206040518083038186803b1580156108ed57600080fd5b505afa158015610901573d6000803e3d6000fd5b505050506040513d601f19601f820116820180604052508101906109259190613f2c565b73ffffffffffffffffffffffffffffffffffffffff167f000000000000000000000000000000000000000000000000000000000000000073ffffffffffffffffffffffffffffffffffffffff16146109a9576040517f08c379a000000000000000000000000000000000000000000000000000000000815260040161056c90614e3f565b6109b6888830888861052f565b6040517f2e1a7d4d00000000000000000000000000000000000000000000000000000000815290935073ffffffffffffffffffffffffffffffffffffffff7f00000000000000000000000000000000000000000000000000000000000000001690632e1a7d4d90610a2b908690600401615070565b600060405180830381600087803b158015610a4557600080fd5b505af1158015610a59573d6000803e3d6000fd5b5050505061085d8684612a8a565b8142811015610aa2576040517f08c379a000000000000000000000000000000000000000000000000000000000815260040161056c90614c83565b858073ffffffffffffffffffffffffffffffffffffffff16636f307dc36040518163ffffffff1660e01b815260040160206040518083038186803b158015610ae957600080fd5b505afa158015610afd573d6000803e3d6000fd5b505050506040513d601f19601f82011682018060405250810190610b219190613f2c565b73ffffffffffffffffffffffffffffffffffffffff167f000000000000000000000000000000000000000000000000000000000000000073ffffffffffffffffffffffffffffffffffffffff1614610ba5576040517f08c379a000000000000000000000000000000000000000000000000000000000815260040161056c90614e3f565b610bb287873087876122e4565b6040517f2e1a7d4d00000000000000000000000000000000000000000000000000000000815273ffffffffffffffffffffffffffffffffffffffff7f00000000000000000000000000000000000000000000000000000000000000001690632e1a7d4d90610c24908990600401615070565b600060405180830381600087803b158015610c3e57600080fd5b505af1158015610c52573d6000803e3d6000fd5b50505050610c608587612a8a565b50505050505050565b60008142811015610ca6576040517f08c379a000000000000000000000000000000000000000000000000000000000815260040161056c90614c83565b848073ffffffffffffffffffffffffffffffffffffffff16636f307dc36040518163ffffffff1660e01b815260040160206040518083038186803b158015610ced57600080fd5b505afa158015610d01573d6000803e3d6000fd5b505050506040513d601f19601f82011682018060405250810190610d259190613f2c565b73ffffffffffffffffffffffffffffffffffffffff167f000000000000000000000000000000000000000000000000000000000000000073ffffffffffffffffffffffffffffffffffffffff1614610da9576040517f08c379a000000000000000000000000000000000000000000000000000000000815260040161056c90614e3f565b610db4863487612b43565b92507f000000000000000000000000000000000000000000000000000000000000000073ffffffffffffffffffffffffffffffffffffffff1663d0e30db0846040518263ffffffff1660e01b81526004016000604051808303818588803b158015610e1e57600080fd5b505af1158015610e32573d6000803e3d6000fd5b50506040517fa9059cbb00000000000000000000000000000000000000000000000000000000815273ffffffffffffffffffffffffffffffffffffffff7f000000000000000000000000000000000000000000000000000000000000000016935063a9059cbb9250610eab915089908790600401614a6e565b602060405180830381600087803b158015610ec557600080fd5b505af1158015610ed9573d6000803e3d6000fd5b505050506040513d601f19601f82011682018060405250810190610efd91906143e7565b610f0357fe5b60408051600080825260208201928390527f1e7dcc0d0000000000000000000000000000000000000000000000000000000090925273ffffffffffffffffffffffffffffffffffffffff881691631e7dcc0d91610f67918991819060248101614924565b600060405180830381600087803b158015610f8157600080fd5b505af1158015610f95573d6000803e3d6000fd5b5050505082341115610fad57610fad33843403612a8a565b50509392505050565b60008173ffffffffffffffffffffffffffffffffffffffff16636f307dc36040518163ffffffff1660e01b815260040160206040518083038186803b158015610ffe57600080fd5b505afa92505050801561104c575060408051601f3d9081017fffffffffffffffffffffffffffffffffffffffffffffffffffffffffffffffe016820190925261104991810190613f2c565b60015b61105757508061107f565b73ffffffffffffffffffffffffffffffffffffffff81161561107a57905061107f565b829150505b919050565b600081428110156110c1576040517f08c379a000000000000000000000000000000000000000000000000000000000815260040161056c90614c83565b61114b868773ffffffffffffffffffffffffffffffffffffffff16636f307dc36040518163ffffffff1660e01b815260040160206040518083038186803b15801561110b57600080fd5b505afa15801561111f573d6000803e3d6000fd5b505050506040513d601f19601f820116820180604052508101906111439190613f2c565b873388612c64565b9695505050505050565b60008342811015611192576040517f08c379a000000000000000000000000000000000000000000000000000000000815260040161056c90614c83565b60008873ffffffffffffffffffffffffffffffffffffffff16636f307dc36040518163ffffffff1660e01b815260040160206040518083038186803b1580156111da57600080fd5b505afa1580156111ee573d6000803e3d6000fd5b505050506040513d601f19601f820116820180604052508101906112129190613f2c565b905061121d816120a5565b156114445760008173ffffffffffffffffffffffffffffffffffffffff16636f307dc36040518163ffffffff1660e01b815260040160206040518083038186803b15801561126a57600080fd5b505afa15801561127e573d6000803e3d6000fd5b505050506040513d601f19601f820116820180604052508101906112a29190613f2c565b90506112e6818a8989898080601f01602080910402602001604051908101604052809392919081815260200183838082843760009201919091525061298f92505050565b6112f28133848c612d44565b6040517f6a62784200000000000000000000000000000000000000000000000000000000815273ffffffffffffffffffffffffffffffffffffffff831690636a62784290611344908d90600401614903565b602060405180830381600087803b15801561135e57600080fd5b505af1158015611372573d6000803e3d6000fd5b505050506040513d601f19601f8201168201806040525081019061139691906146bf565b506040517f6a62784200000000000000000000000000000000000000000000000000000000815273ffffffffffffffffffffffffffffffffffffffff8b1690636a627842906113e9908b90600401614903565b602060405180830381600087803b15801561140357600080fd5b505af1158015611417573d6000803e3d6000fd5b505050506040513d601f19601f8201168201806040525081019061143b91906146bf565b93505050611497565b61148681898888888080601f01602080910402602001604051908101604052809392919081815260200183838082843760009201919091525061298f92505050565b61149389828a338b612c64565b9250505b509695505050505050565b60008082428110156114e0576040517f08c379a000000000000000000000000000000000000000000000000000000000815260040161056c90614c83565b6114eb888888612b43565b92506115768873ffffffffffffffffffffffffffffffffffffffff16636f307dc36040518163ffffffff1660e01b815260040160206040518083038186803b15801561153657600080fd5b505afa15801561154a573d6000803e3d6000fd5b505050506040513d601f19601f8201168201806040525081019061156e9190613f2c565b338a86612d44565b6040517f86b9d81f00000000000000000000000000000000000000000000000000000000815273ffffffffffffffffffffffffffffffffffffffff8916906386b9d81f906115ca9089908990600401614a17565b602060405180830381600087803b1580156115e457600080fd5b505af11580156115f8573d6000803e3d6000fd5b505050506040513d601f19601f8201168201806040525081019061161c91906146bf565b9150509550959350505050565b8442811015611664576040517f08c379a000000000000000000000000000000000000000000000000000000000815260040161056c90614c83565b6116b06116728d600061272c565b8c8888888080601f016020809104026020016040519081016040528093929190818152602001838380828437600092019190915250612e6992505050565b6116fc6116be8d600161272c565b8b8886868080601f016020809104026020016040519081016040528093929190818152602001838380828437600092019190915250612e6992505050565b60006117078d610fb6565b9050600080611719838f8f8f8f612825565b915091506117298f83838d612f26565b505050505050505050505050505050565b60008142811015611777576040517f08c379a000000000000000000000000000000000000000000000000000000000815260040161056c90614c83565b611782868686612b43565b915061180d8673ffffffffffffffffffffffffffffffffffffffff16636f307dc36040518163ffffffff1660e01b815260040160206040518083038186803b1580156117cd57600080fd5b505afa1580156117e1573d6000803e3d6000fd5b505050506040513d601f19601f820116820180604052508101906118059190613f2c565b338885612d44565b60408051600080825260208201928390527f1e7dcc0d0000000000000000000000000000000000000000000000000000000090925273ffffffffffffffffffffffffffffffffffffffff881691631e7dcc0d91611871918891819060248101614924565b600060405180830381600087803b15801561188b57600080fd5b505af115801561189f573d6000803e3d6000fd5b5050505050949350505050565b600081428110156118e9576040517f08c379a000000000000000000000000000000000000000000000000000000000815260040161056c90614c83565b848073ffffffffffffffffffffffffffffffffffffffff16636f307dc36040518163ffffffff1660e01b815260040160206040518083038186803b15801561193057600080fd5b505afa158015611944573d6000803e3d6000fd5b505050506040513d601f19601f820116820180604052508101906119689190613f2c565b73ffffffffffffffffffffffffffffffffffffffff167f000000000000000000000000000000000000000000000000000000000000000073ffffffffffffffffffffffffffffffffffffffff16146119ec576040517f08c379a000000000000000000000000000000000000000000000000000000000815260040161056c90614e3f565b7f000000000000000000000000000000000000000000000000000000000000000073ffffffffffffffffffffffffffffffffffffffff1663d0e30db0346040518263ffffffff1660e01b81526004016000604051808303818588803b158015611a5457600080fd5b505af1158015611a68573d6000803e3d6000fd5b505050505061114b867f0000000000000000000000000000000000000000000000000000000000000000343089612c64565b8242811015611ad5576040517f08c379a000000000000000000000000000000000000000000000000000000000815260040161056c90614c83565b6000611ae089611fec565b905060008173ffffffffffffffffffffffffffffffffffffffff16633ba0b9a96040518163ffffffff1660e01b8152600401602060405180830381600087803b158015611b2c57600080fd5b505af1158015611b40573d6000803e3d6000fd5b505050506040513d601f19601f82011682018060405250810190611b6491906146bf565b905060008911611ba0576040517f08c379a000000000000000000000000000000000000000000000000000000000815260040161056c90614dab565b6000611bec670de0b6b3a7640000611be07fffffffffffffffffffffffffffffffffffffffffffffffffffffffffffffffff8d018563ffffffff6131ba16565b9063ffffffff61321716565b9050611c30838b8989898080601f01602080910402602001604051908101604052809392919081815260200183838082843760009201919091525061298f92505050565b604080516080810190915260609080600281526020018d73ffffffffffffffffffffffffffffffffffffffff168152602001600060ff1681526020016040518060a001604052803373ffffffffffffffffffffffffffffffffffffffff1681526020018e81526020018581526020018d81526020018c815250604051602001611cb99190615020565b604080517fffffffffffffffffffffffffffffffffffffffffffffffffffffffffffffffe0818403018152918152915251611cf79190602001614fc2565b604080517fffffffffffffffffffffffffffffffffffffffffffffffffffffffffffffffe0818403018152908290527f19f3400d000000000000000000000000000000000000000000000000000000008252915073ffffffffffffffffffffffffffffffffffffffff8516906319f3400d90611d7b903090869086906004016149e2565b600060405180830381600087803b158015611d9557600080fd5b505af1158015611da9573d6000803e3d6000fd5b50505050505050505050505050505050565b7f000000000000000000000000000000000000000000000000000000000000000081565b611de7613dad565b611df382840184614566565b90506000611e098260200151836040015161272c565b905073ffffffffffffffffffffffffffffffffffffffff87163014611e5a576040517f08c379a000000000000000000000000000000000000000000000000000000000815260040161056c90614c26565b3373ffffffffffffffffffffffffffffffffffffffff821614611ea9576040517f08c379a000000000000000000000000000000000000000000000000000000000815260040161056c90614ab2565b600082516002811115611eb857fe5b1415611f0257611ec6613dd4565b8260600151806020019051810190611ede9190614452565b9050611efc8360200151826000015183602001518460400151613259565b50610c60565b600182516002811115611f1157fe5b14156101e057611f1f613e0b565b8260600151806020019051810190611f379190614495565b90506000611f4a8460200151600161272c565b82516020840151604080860151606087015191517f1e7dcc0d00000000000000000000000000000000000000000000000000000000815294955073ffffffffffffffffffffffffffffffffffffffff861694631e7dcc0d94611fb3949093909291600401614924565b600060405180830381600087803b158015611fcd57600080fd5b505af1158015611fe1573d6000803e3d6000fd5b505050505050610c60565b60007f00000000000000000000000000000000000000000000000000000000000000007f000000000000000000000000000000000000000000000000000000000000000083604051602001612042929190614744565b60405160208183030381529060405280519060200120604051602001612069929190614801565b604080517fffffffffffffffffffffffffffffffffffffffffffffffffffffffffffffffe0818403018152919052805160209091012092915050565b60008173ffffffffffffffffffffffffffffffffffffffff16630a6410636040518163ffffffff1660e01b815260040160206040518083038186803b1580156120ed57600080fd5b505afa92505050801561213b575060408051601f3d9081017fffffffffffffffffffffffffffffffffffffffffffffffffffffffffffffffe0168201909252612138918101906143e7565b60015b6121475750600061107f565b905061107f565b612156613dad565b61216282840184614566565b905060006121738260200151611fec565b905073ffffffffffffffffffffffffffffffffffffffff861630146121c4576040517f08c379a000000000000000000000000000000000000000000000000000000000815260040161056c90614c26565b3373ffffffffffffffffffffffffffffffffffffffff821614612213576040517f08c379a000000000000000000000000000000000000000000000000000000000815260040161056c90614ab2565b60028251600281111561222257fe5b14156101e057612230613e31565b8260600151806020019051810190612248919061460f565b9050610c60836020015182600001518360200151846040015185606001518660800151613592565b505050505050565b7f000000000000000000000000000000000000000000000000000000000000000081565b7f000000000000000000000000000000000000000000000000000000000000000081565b7f000000000000000000000000000000000000000000000000000000000000000081565b814281101561231f576040517f08c379a000000000000000000000000000000000000000000000000000000000815260040161056c90614c83565b61232b86868585612e69565b604080516000815260208101918290527f1e7dcc0d0000000000000000000000000000000000000000000000000000000090915273ffffffffffffffffffffffffffffffffffffffff871690631e7dcc0d9061239090339088908a9060248101614924565b600060405180830381600087803b1580156123aa57600080fd5b505af11580156123be573d6000803e3d6000fd5b50505050505050505050565b6000808242811015612408576040517f08c379a000000000000000000000000000000000000000000000000000000000815260040161056c90614c83565b868073ffffffffffffffffffffffffffffffffffffffff16636f307dc36040518163ffffffff1660e01b815260040160206040518083038186803b15801561244f57600080fd5b505afa158015612463573d6000803e3d6000fd5b505050506040513d601f19601f820116820180604052508101906124879190613f2c565b73ffffffffffffffffffffffffffffffffffffffff167f000000000000000000000000000000000000000000000000000000000000000073ffffffffffffffffffffffffffffffffffffffff161461250b576040517f08c379a000000000000000000000000000000000000000000000000000000000815260040161056c90614e3f565b612516883489612b43565b93507f000000000000000000000000000000000000000000000000000000000000000073ffffffffffffffffffffffffffffffffffffffff1663d0e30db0856040518263ffffffff1660e01b81526004016000604051808303818588803b15801561258057600080fd5b505af1158015612594573d6000803e3d6000fd5b50506040517fa9059cbb00000000000000000000000000000000000000000000000000000000815273ffffffffffffffffffffffffffffffffffffffff7f000000000000000000000000000000000000000000000000000000000000000016935063a9059cbb925061260d91508b908890600401614a6e565b602060405180830381600087803b15801561262757600080fd5b505af115801561263b573d6000803e3d6000fd5b505050506040513d601f19601f8201168201806040525081019061265f91906143e7565b61266557fe5b6040517f86b9d81f00000000000000000000000000000000000000000000000000000000815273ffffffffffffffffffffffffffffffffffffffff8916906386b9d81f906126b9908a908a90600401614a17565b602060405180830381600087803b1580156126d357600080fd5b505af11580156126e7573d6000803e3d6000fd5b505050506040513d601f19601f8201168201806040525081019061270b91906146bf565b9250833411156127215761272133853403612a8a565b505094509492505050565b600060028260ff161061276b576040517f08c379a000000000000000000000000000000000000000000000000000000000815260040161056c90614cba565b7f00000000000000000000000000000000000000000000000000000000000000007f000000000000000000000000000000000000000000000000000000000000000084846040516020016127c19392919061477e565b604051602081830303815290604052805190602001206040516020016127e8929190614882565b604080517fffffffffffffffffffffffffffffffffffffffffffffffffffffffffffffffe081840301815291905280516020909101209392505050565b6000806000808873ffffffffffffffffffffffffffffffffffffffff16630902f1ac6040518163ffffffff1660e01b815260040160606040518083038186803b15801561287157600080fd5b505afa158015612885573d6000803e3d6000fd5b505050506040513d601f19601f820116820180604052508101906128a9919061466b565b506dffffffffffffffffffffffffffff1691506dffffffffffffffffffffffffffff16915060006128db8984846139bf565b9050878111612929578581101561291e576040517f08c379a000000000000000000000000000000000000000000000000000000000815260040161056c90614ed3565b889450925082612982565b60006129368984866139bf565b90508981111561294257fe5b8781101561297c576040517f08c379a000000000000000000000000000000000000000000000000000000000815260040161056c90614b0f565b94508793505b5050509550959350505050565b805161299a57612a84565b600080600080848060200190518101906129b49190614407565b93509350935093506000846129c957876129eb565b7fffffffffffffffffffffffffffffffffffffffffffffffffffffffffffffffff5b6040517fd505accf00000000000000000000000000000000000000000000000000000000815290915073ffffffffffffffffffffffffffffffffffffffff8a169063d505accf90612a4c903390309086908d908b908b908b90600401614963565b600060405180830381600087803b158015612a6657600080fd5b505af1158015612a7a573d6000803e3d6000fd5b5050505050505050505b50505050565b6040805160008082526020820190925273ffffffffffffffffffffffffffffffffffffffff8416908390604051612ac191906147e5565b60006040518083038185875af1925050503d8060008114612afe576040519150601f19603f3d011682016040523d82523d6000602084013e612b03565b606091505b5050905080612b3e576040517f08c379a000000000000000000000000000000000000000000000000000000000815260040161056c90614bc9565b505050565b60008373ffffffffffffffffffffffffffffffffffffffff1663a6afed956040518163ffffffff1660e01b8152600401600060405180830381600087803b158015612b8d57600080fd5b505af1158015612ba1573d6000803e3d6000fd5b50506040517f4d73e9ba0000000000000000000000000000000000000000000000000000000081526000925073ffffffffffffffffffffffffffffffffffffffff87169150634d73e9ba90612bfa908690600401614903565b60206040518083038186803b158015612c1257600080fd5b505afa158015612c26573d6000803e3d6000fd5b505050506040513d601f19601f82011682018060405250810190612c4a91906146bf565b9050808410612c595780612c5b565b835b95945050505050565b600073ffffffffffffffffffffffffffffffffffffffff8316301415612c9457612c8f858786613a61565b612ca0565b612ca085848887612d44565b6040517f6a62784200000000000000000000000000000000000000000000000000000000815273ffffffffffffffffffffffffffffffffffffffff871690636a62784290612cf2908590600401614903565b602060405180830381600087803b158015612d0c57600080fd5b505af1158015612d20573d6000803e3d6000fd5b505050506040513d601f19601f8201168201806040525081019061114b91906146bf565b600060608573ffffffffffffffffffffffffffffffffffffffff166323b872dd868686604051602401612d79939291906149b1565b6040516020818303038152906040529060e01b6020820180517bffffffffffffffffffffffffffffffffffffffffffffffffffffffff8381831617835250505050604051612dc791906147e5565b6000604051808303816000865af19150503d8060008114612e04576040519150601f19603f3d011682016040523d82523d6000602084013e612e09565b606091505b5091509150818015612e33575080511580612e33575080806020019051810190612e3391906143e7565b612270576040517f08c379a000000000000000000000000000000000000000000000000000000000815260040161056c90614b6c565b8051612e7457612a84565b60008060008084806020019051810190612e8e9190614407565b9350935093509350600084612ea35787612ec5565b7fffffffffffffffffffffffffffffffffffffffffffffffffffffffffffffffff5b6040517f9e79b55c00000000000000000000000000000000000000000000000000000000815290915073ffffffffffffffffffffffffffffffffffffffff8a1690639e79b55c90612a4c903390309086908d908b908b908b90600401614963565b6000612f3385600061272c565b90506060604051806080016040528060006002811115612f4f57fe5b81526020018773ffffffffffffffffffffffffffffffffffffffff168152602001600160ff16815260200160405180606001604052808881526020018781526020018673ffffffffffffffffffffffffffffffffffffffff16815250604051602001612fbb9190614f30565b604080517fffffffffffffffffffffffffffffffffffffffffffffffffffffffffffffffe0818403018152918152915251612ff99190602001614fc2565b604080517fffffffffffffffffffffffffffffffffffffffffffffffffffffffffffffffe081840301815260808301909152915060609080600181526020018873ffffffffffffffffffffffffffffffffffffffff168152602001600060ff16815260200160405180608001604052803373ffffffffffffffffffffffffffffffffffffffff1681526020013073ffffffffffffffffffffffffffffffffffffffff168152602001888152602001858152506040516020016130bb9190614f67565b604080517fffffffffffffffffffffffffffffffffffffffffffffffffffffffffffffffe08184030181529181529152516130f99190602001614fc2565b604080517fffffffffffffffffffffffffffffffffffffffffffffffffffffffffffffffe0818403018152908290527f1e7dcc0d000000000000000000000000000000000000000000000000000000008252915073ffffffffffffffffffffffffffffffffffffffff841690631e7dcc0d9061317f90339030908b908790600401614924565b600060405180830381600087803b15801561319957600080fd5b505af11580156131ad573d6000803e3d6000fd5b5050505050505050505050565b6000826131c957506000613211565b828202828482816131d657fe5b041461320e576040517f08c379a000000000000000000000000000000000000000000000000000000000815260040161056c90614d4e565b90505b92915050565b600061320e83836040518060400160405280601a81526020017f536166654d6174683a206469766973696f6e206279207a65726f000000000000815250613b8b565b6000806000613267876104ff565b925092509250600061327888610fb6565b90506133028373ffffffffffffffffffffffffffffffffffffffff16636f307dc36040518163ffffffff1660e01b815260040160206040518083038186803b1580156132c357600080fd5b505afa1580156132d7573d6000803e3d6000fd5b505050506040513d601f19601f820116820180604052508101906132fb9190613f2c565b8289613a61565b61338a8273ffffffffffffffffffffffffffffffffffffffff16636f307dc36040518163ffffffff1660e01b815260040160206040518083038186803b15801561334b57600080fd5b505afa15801561335f573d6000803e3d6000fd5b505050506040513d601f19601f820116820180604052508101906133839190613f2c565b8288613a61565b613393886120a5565b1561343e576040517f6a62784200000000000000000000000000000000000000000000000000000000815273ffffffffffffffffffffffffffffffffffffffff821690636a627842906133ea908b90600401614903565b602060405180830381600087803b15801561340457600080fd5b505af1158015613418573d6000803e3d6000fd5b505050506040513d601f19601f8201168201806040525081019061343c91906146bf565b505b6040517f6a62784200000000000000000000000000000000000000000000000000000000815273ffffffffffffffffffffffffffffffffffffffff891690636a62784290613490908790600401614903565b602060405180830381600087803b1580156134aa57600080fd5b505af11580156134be573d6000803e3d6000fd5b505050506040513d601f19601f820116820180604052508101906134e291906146bf565b506040517f6a62784200000000000000000000000000000000000000000000000000000000815273ffffffffffffffffffffffffffffffffffffffff851690636a62784290613535908890600401614903565b602060405180830381600087803b15801561354f57600080fd5b505af1158015613563573d6000803e3d6000fd5b505050506040513d601f19601f8201168201806040525081019061358791906146bf565b505050505050505050565b60008060006135a0896104ff565b92509250925060008273ffffffffffffffffffffffffffffffffffffffff16636f307dc36040518163ffffffff1660e01b815260040160206040518083038186803b1580156135ee57600080fd5b505afa158015613602573d6000803e3d6000fd5b505050506040513d601f19601f820116820180604052508101906136269190613f2c565b905060008273ffffffffffffffffffffffffffffffffffffffff16636f307dc36040518163ffffffff1660e01b815260040160206040518083038186803b15801561367057600080fd5b505afa158015613684573d6000803e3d6000fd5b505050506040513d601f19601f820116820180604052508101906136a89190613f2c565b905060006136b58c610fb6565b6040517fa9059cbb00000000000000000000000000000000000000000000000000000000815290915073ffffffffffffffffffffffffffffffffffffffff8d169063a9059cbb9061370c908f908d90600401614a6e565b602060405180830381600087803b15801561372657600080fd5b505af115801561373a573d6000803e3d6000fd5b505050506040513d601f19601f8201168201806040525081019061375e91906143e7565b506137688c6120a5565b15613813576040517f95a2251f00000000000000000000000000000000000000000000000000000000815273ffffffffffffffffffffffffffffffffffffffff8d16906395a2251f906137bf908490600401614903565b602060405180830381600087803b1580156137d957600080fd5b505af11580156137ed573d6000803e3d6000fd5b505050506040513d601f19601f8201168201806040525081019061381191906146bf565b505b6000808273ffffffffffffffffffffffffffffffffffffffff166389afcb44306040518263ffffffff1660e01b815260040161384f9190614903565b6040805180830381600087803b15801561386857600080fd5b505af115801561387c573d6000803e3d6000fd5b505050506040513d601f19601f820116820180604052508101906138a091906146d7565b91509150898210156138de576040517f08c379a000000000000000000000000000000000000000000000000000000000815260040161056c90614b0f565b88811015613918576040517f08c379a000000000000000000000000000000000000000000000000000000000815260040161056c90614ed3565b61392487868f85613bdc565b61393086858f84613bdc565b8773ffffffffffffffffffffffffffffffffffffffff166323b872dd8e8a8f6040518463ffffffff1660e01b815260040161396d939291906149b1565b602060405180830381600087803b15801561398757600080fd5b505af115801561399b573d6000803e3d6000fd5b505050506040513d601f19601f8201168201806040525081019061172991906143e7565b60008084116139fa576040517f08c379a000000000000000000000000000000000000000000000000000000000815260040161056c90614de2565b600083118015613a0a5750600082115b613a40576040517f08c379a000000000000000000000000000000000000000000000000000000000815260040161056c90614cf1565b82613a51858463ffffffff6131ba16565b81613a5857fe5b04949350505050565b600060608473ffffffffffffffffffffffffffffffffffffffff1663a9059cbb8585604051602401613a94929190614a6e565b6040516020818303038152906040529060e01b6020820180517bffffffffffffffffffffffffffffffffffffffffffffffffffffffff8381831617835250505050604051613ae291906147e5565b6000604051808303816000865af19150503d8060008114613b1f576040519150601f19603f3d011682016040523d82523d6000602084013e613b24565b606091505b5091509150818015613b4e575080511580613b4e575080806020019051810190613b4e91906143e7565b613b84576040517f08c379a000000000000000000000000000000000000000000000000000000000815260040161056c90614e76565b5050505050565b60008183613bc6576040517f08c379a000000000000000000000000000000000000000000000000000000000815260040161056c9190614a9f565b506000838581613bd257fe5b0495945050505050565b6000613be9858385612b43565b9050613bf6848683613a61565b60408051600080825260208201928390527f1e7dcc0d0000000000000000000000000000000000000000000000000000000090925273ffffffffffffffffffffffffffffffffffffffff871691631e7dcc0d91613c5a918791819060248101614924565b600060405180830381600087803b158015613c7457600080fd5b505af1158015613c88573d6000803e3d6000fd5b5050505080821115613b8457600081830390507f000000000000000000000000000000000000000000000000000000000000000073ffffffffffffffffffffffffffffffffffffffff168573ffffffffffffffffffffffffffffffffffffffff161415613da2576040517f2e1a7d4d00000000000000000000000000000000000000000000000000000000815273ffffffffffffffffffffffffffffffffffffffff7f00000000000000000000000000000000000000000000000000000000000000001690632e1a7d4d90613d61908490600401615070565b600060405180830381600087803b158015613d7b57600080fd5b505af1158015613d8f573d6000803e3d6000fd5b50505050613d9d8482612a8a565b612270565b612270858583613a61565b60408051608081019091528060008152600060208201819052604082015260609081015290565b60405180606001604052806000815260200160008152602001600073ffffffffffffffffffffffffffffffffffffffff1681525090565b604080516080810182526000808252602082018190529181019190915260608082015290565b6040518060a00160405280600073ffffffffffffffffffffffffffffffffffffffff168152602001600081526020016000815260200160008152602001600081525090565b60008083601f840112613e87578182fd5b50813567ffffffffffffffff811115613e9e578182fd5b602083019150836020828501011115613eb657600080fd5b9250929050565b600082601f830112613ecd578081fd5b8135613ee0613edb826150ae565b615087565b9150808252836020828501011115613ef757600080fd5b8060208401602084013760009082016020015292915050565b600060208284031215613f21578081fd5b813561320e8161511c565b600060208284031215613f3d578081fd5b815161320e8161511c565b60008060008060808587031215613f5d578283fd5b8435613f688161511c565b93506020850135613f788161511c565b92506040850135613f888161511c565b9396929550929360600135925050565b600080600060608486031215613fac578283fd5b8335613fb78161511c565b92506020840135613fc78161511c565b929592945050506040919091013590565b600080600080600060808688031215613fef578081fd5b8535613ffa8161511c565b9450602086013561400a8161511c565b935060408601359250606086013567ffffffffffffffff81111561402c578182fd5b61403888828901613e76565b969995985093965092949392505050565b600080600080600060a08688031215614060578283fd5b853561406b8161511c565b94506020860135935060408601356140828161511c565b925060608601356140928161511c565b949793965091946080013592915050565b600080600080608085870312156140b8578182fd5b84356140c38161511c565b9350602085013592506040850135613f888161511c565b60008060008060008060a087890312156140f2578384fd5b86356140fd8161511c565b95506020870135945060408701356141148161511c565b935060608701359250608087013567ffffffffffffffff811115614136578182fd5b61414289828a01613e76565b979a9699509497509295939492505050565b600080600080600060a0868803121561416b578283fd5b85356141768161511c565b945060208601359350604086013561418d8161511c565b925060608601359150608086013567ffffffffffffffff8111156141af578182fd5b6141bb88828901613ebd565b9150509295509295909350565b600080600080606085870312156141dd578182fd5b84356141e88161511c565b935060208501359250604085013567ffffffffffffffff81111561420a578283fd5b61421687828801613e76565b95989497509550505050565b600080600080600060a08688031215614239578283fd5b85356142448161511c565b97602087013597506040870135966060810135965060800135945092505050565b60008060008060008060008060008060006101208c8e031215614286578889fd5b6142908c3561511c565b8b359a5060208c0135995060408c0135985060608c0135975060808c013596506142bd60a08d013561511c565b60a08c0135955060c08c0135945067ffffffffffffffff8060e08e013511156142e4578485fd5b6142f48e60e08f01358f01613e76565b90955093506101008d013581101561430a578283fd5b5061431c8d6101008e01358e01613e76565b81935080925050509295989b509295989b9093969950565b600080600080600080600060c0888a03121561434e578081fd5b87356143598161511c565b96506020880135955060408801359450606088013593506080880135925060a088013567ffffffffffffffff811115614390578182fd5b61439c8a828b01613e76565b989b979a50959850939692959293505050565b600080604083850312156143c1578182fd5b82356143cc8161511c565b915060208301356143dc8161515d565b809150509250929050565b6000602082840312156143f8578081fd5b8151801515811461320e578182fd5b6000806000806080858703121561441c578182fd5b8451801515811461442b578283fd5b602086015190945061443c8161515d565b6040860151606090960151949790965092505050565b600060608284031215614463578081fd5b61446d6060615087565b825181526020830151602082015260408301516144898161511c565b60408201529392505050565b600060208083850312156144a7578182fd5b825167ffffffffffffffff808211156144be578384fd5b818501608081880312156144d0578485fd5b6144da6080615087565b925080516144e78161511c565b8352808401516144f68161511c565b8385015260408181015190840152606081015182811115614515578586fd5b019050601f81018613614526578384fd5b8051614534613edb826150ae565b8181528785838501011115614547578586fd5b614556828683018786016150f0565b6060840152509095945050505050565b600060208284031215614577578081fd5b813567ffffffffffffffff8082111561458e578283fd5b818401608081870312156145a0578384fd5b6145aa6080615087565b92508035600381106145ba578485fd5b835260208101356145ca8161511c565b602084015260408101356145dd8161515d565b60408401526060810135828111156145f3578485fd5b6145ff87828401613ebd565b6060850152509195945050505050565b600060a08284031215614620578081fd5b61462a60a0615087565b82516146358161511c565b80825250602083015160208201526040830151604082015260608301516060820152608083015160808201528091505092915050565b60008060006060848603121561467f578081fd5b835161468a81615141565b602085015190935061469b81615141565b604085015190925063ffffffff811681146146b4578182fd5b809150509250925092565b6000602082840312156146d0578081fd5b5051919050565b600080604083850312156146e9578182fd5b505080516020909101519092909150565b600081518084526147128160208601602086016150f0565b601f017fffffffffffffffffffffffffffffffffffffffffffffffffffffffffffffffe0169290920160200192915050565b7fffffffffffffffffffffffffffffffffffffffff000000000000000000000000606093841b811682529190921b16601482015260280190565b606093841b7fffffffffffffffffffffffffffffffffffffffff00000000000000000000000090811682529290931b909116601483015260f81b7fff0000000000000000000000000000000000000000000000000000000000000016602882015260290190565b600082516147f78184602087016150f0565b9190910192915050565b7fff00000000000000000000000000000000000000000000000000000000000000815260609290921b7fffffffffffffffffffffffffffffffffffffffff00000000000000000000000016600183015260158201527f4b8788d8761647e6330407671d3c6c80afaed3d047800dba0e0e3befde047767603582015260550190565b7fff00000000000000000000000000000000000000000000000000000000000000815260609290921b7fffffffffffffffffffffffffffffffffffffffff00000000000000000000000016600183015260158201527f605ba1db56496978613939baf0ae31dccceea3f5ca53dfaa76512bc880d7bb8f603582015260550190565b73ffffffffffffffffffffffffffffffffffffffff91909116815260200190565b600073ffffffffffffffffffffffffffffffffffffffff80871683528086166020840152508360408301526080606083015261114b60808301846146fa565b73ffffffffffffffffffffffffffffffffffffffff97881681529590961660208601526040850193909352606084019190915260ff16608083015260a082015260c081019190915260e00190565b73ffffffffffffffffffffffffffffffffffffffff9384168152919092166020820152604081019190915260600190565b600073ffffffffffffffffffffffffffffffffffffffff8516825283602083015260606040830152612c5b60608301846146fa565b73ffffffffffffffffffffffffffffffffffffffff92831681529116602082015260400190565b73ffffffffffffffffffffffffffffffffffffffff93841681529183166020830152909116604082015260600190565b73ffffffffffffffffffffffffffffffffffffffff929092168252602082015260400190565b901515815260200190565b60006020825261320e60208301846146fa565b60208082526023908201527f496d7065726d6178526f757465723a20554e415554484f52495a45445f43414c60408201527f4c45520000000000000000000000000000000000000000000000000000000000606082015260800190565b60208082526025908201527f496d7065726d6178526f757465723a20494e53554646494349454e545f415f4160408201527f4d4f554e54000000000000000000000000000000000000000000000000000000606082015260800190565b60208082526031908201527f5472616e7366657248656c7065723a3a7472616e7366657246726f6d3a20747260408201527f616e7366657246726f6d206661696c6564000000000000000000000000000000606082015260800190565b60208082526034908201527f5472616e7366657248656c7065723a3a736166655472616e736665724554483a60408201527f20455448207472616e73666572206661696c6564000000000000000000000000606082015260800190565b60208082526021908201527f496d7065726d6178526f757465723a2053454e4445525f4e4f545f524f55544560408201527f5200000000000000000000000000000000000000000000000000000000000000606082015260800190565b60208082526017908201527f496d7065726d6178526f757465723a2045585049524544000000000000000000604082015260600190565b6020808252601e908201527f496d7065726d6178526f757465723a20494e4445585f544f4f5f484947480000604082015260600190565b60208082526028908201527f556e697377617056324c6962726172793a20494e53554646494349454e545f4c60408201527f4951554944495459000000000000000000000000000000000000000000000000606082015260800190565b60208082526021908201527f536166654d6174683a206d756c7469706c69636174696f6e206f766572666c6f60408201527f7700000000000000000000000000000000000000000000000000000000000000606082015260800190565b6020808252601b908201527f496d7065726d6178526f757465723a2052454445454d5f5a45524f0000000000604082015260600190565b60208082526025908201527f556e697377617056324c6962726172793a20494e53554646494349454e545f4160408201527f4d4f554e54000000000000000000000000000000000000000000000000000000606082015260800190565b60208082526018908201527f496d7065726d6178526f757465723a204e4f545f574554480000000000000000604082015260600190565b6020808252602d908201527f5472616e7366657248656c7065723a3a736166655472616e736665723a20747260408201527f616e73666572206661696c656400000000000000000000000000000000000000606082015260800190565b60208082526025908201527f496d7065726d6178526f757465723a20494e53554646494349454e545f425f4160408201527f4d4f554e54000000000000000000000000000000000000000000000000000000606082015260800190565b815181526020808301519082015260409182015173ffffffffffffffffffffffffffffffffffffffff169181019190915260600190565b60006020825273ffffffffffffffffffffffffffffffffffffffff80845116602084015280602085015116604084015250604083015160608301526060830151608080840152614fba60a08401826146fa565b949350505050565b600060208252825160038110614fd457fe5b8060208401525073ffffffffffffffffffffffffffffffffffffffff602084015116604083015260ff60408401511660608301526060830151608080840152614fba60a08401826146fa565b600060a08201905073ffffffffffffffffffffffffffffffffffffffff83511682526020830151602083015260408301516040830152606083015160608301526080830151608083015292915050565b90815260200190565b918252602082015260400190565b60405181810167ffffffffffffffff811182821017156150a657600080fd5b604052919050565b600067ffffffffffffffff8211156150c4578081fd5b50601f017fffffffffffffffffffffffffffffffffffffffffffffffffffffffffffffffe01660200190565b60005b8381101561510b5781810151838201526020016150f3565b83811115612a845750506000910152565b73ffffffffffffffffffffffffffffffffffffffff8116811461513e57600080fd5b50565b6dffffffffffffffffffffffffffff8116811461513e57600080fd5b60ff8116811461513e57600080fdfea264697066735822122042fa2e576ccca58ddc305c2078c6491967a0d329280891f74e6f800fe19187ff64736f6c63430006060033",
  "immutableReferences": {
    "2837": [
      {
        "length": 32,
        "start": 8209
      },
      {
        "length": 32,
        "start": 8862
      },
      {
        "length": 32,
        "start": 10126
      }
    ],
    "2840": [
      {
        "length": 32,
        "start": 8898
      },
      {
        "length": 32,
        "start": 10093
      }
    ],
    "2843": [
      {
        "length": 32,
        "start": 7613
      },
      {
        "length": 32,
        "start": 8176
      }
    ],
    "2846": [
      {
        "length": 32,
        "start": 439
      },
      {
        "length": 32,
        "start": 2365
      },
      {
        "length": 32,
        "start": 2550
      },
      {
        "length": 32,
        "start": 2873
      },
      {
        "length": 32,
        "start": 3055
      },
      {
        "length": 32,
        "start": 3389
      },
      {
        "length": 32,
        "start": 3512
      },
      {
        "length": 32,
        "start": 3697
      },
      {
        "length": 32,
        "start": 6528
      },
      {
        "length": 32,
        "start": 6638
      },
      {
        "length": 32,
        "start": 6771
      },
      {
        "length": 32,
        "start": 8826
      },
      {
        "length": 32,
        "start": 9375
      },
      {
        "length": 32,
        "start": 9498
      },
      {
        "length": 32,
        "start": 9683
      },
      {
        "length": 32,
        "start": 15517
      },
      {
        "length": 32,
        "start": 15660
      }
    ]
  },
  "source": "pragma solidity =0.6.6;\npragma experimental ABIEncoderV2;\n\nimport \"./interfaces/IRouter02.sol\";\nimport \"./interfaces/IPoolToken.sol\";\nimport \"./interfaces/IBorrowable.sol\";\nimport \"./interfaces/ICollateral.sol\";\nimport \"./interfaces/IImpermaxCallee.sol\";\nimport \"./interfaces/IERC20.sol\";\nimport \"./interfaces/IStakedLPToken01.sol\";\nimport \"./interfaces/IWETH.sol\";\nimport \"./interfaces/IUniswapV2Pair.sol\";\nimport \"./libraries/SafeMath.sol\";\nimport \"./libraries/TransferHelper.sol\";\nimport \"./libraries/UniswapV2Library.sol\";\n\ncontract Router02 is IRouter02, IImpermaxCallee {\n\tusing SafeMath for uint;\n\n\taddress public immutable override factory;\n\taddress public immutable override bDeployer;\n\taddress public immutable override cDeployer;\n\taddress public immutable override WETH;\n\n\tmodifier ensure(uint deadline) {\n\t\trequire(deadline >= block.timestamp, \"ImpermaxRouter: EXPIRED\");\n\t\t_;\n\t}\n\n\tmodifier checkETH(address poolToken) {\n\t\trequire(WETH == IPoolToken(poolToken).underlying(), \"ImpermaxRouter: NOT_WETH\");\n\t\t_;\n\t}\n\n\tconstructor(address _factory, address _bDeployer, address _cDeployer, address _WETH) public {\n\t\tfactory = _factory;\n\t\tbDeployer = _bDeployer;\n\t\tcDeployer = _cDeployer;\n\t\tWETH = _WETH;\n\t}\n\n\treceive() external payable {\n\t\tassert(msg.sender == WETH); // only accept ETH via fallback from the WETH contract\n\t}\n\n\t/*** Mint ***/\n\t\n\tfunction _mint(\n\t\taddress poolToken, \n\t\taddress token, \n\t\tuint amount,\n\t\taddress from,\n\t\taddress to\n\t) internal virtual returns (uint tokens) {\n\t\tif (from == address(this)) TransferHelper.safeTransfer(token, poolToken, amount);\n\t\telse TransferHelper.safeTransferFrom(token, from, poolToken, amount);\n\t\ttokens = IPoolToken(poolToken).mint(to);\n\t}\n\tfunction mint(\n\t\taddress poolToken, \n\t\tuint amount,\n\t\taddress to,\n\t\tuint deadline\n\t) external virtual override ensure(deadline) returns (uint tokens) {\n\t\treturn _mint(poolToken, IPoolToken(poolToken).underlying(), amount, msg.sender, to);\n\t}\n\tfunction mintETH(\n\t\taddress poolToken, \n\t\taddress to,\n\t\tuint deadline\n\t) external virtual override payable ensure(deadline) checkETH(poolToken) returns (uint tokens) {\n\t\tIWETH(WETH).deposit{value: msg.value}();\n\t\treturn _mint(poolToken, WETH, msg.value, address(this), to);\n\t}\n\tfunction mintCollateral(\n\t\taddress poolToken, \n\t\tuint amount,\n\t\taddress to,\n\t\tuint deadline,\n\t\tbytes calldata permitData\n\t) external virtual override ensure(deadline) returns (uint tokens) {\n\t\taddress underlying = IPoolToken(poolToken).underlying();\n\t\tif (isStakedLPToken(underlying)) {\n\t\t\taddress uniswapV2Pair = IStakedLPToken01(underlying).underlying();\n\t\t\t_permit(uniswapV2Pair, amount, deadline, permitData);\n\t\t\tTransferHelper.safeTransferFrom(uniswapV2Pair, msg.sender, underlying, amount);\n\t\t\tIStakedLPToken01(underlying).mint(poolToken);\n\t\t\treturn IPoolToken(poolToken).mint(to);\n\t\t} else {\n\t\t\t_permit(underlying, amount, deadline, permitData);\n\t\t\treturn _mint(poolToken, underlying, amount, msg.sender, to);\n\t\t}\n\t}\n\t\n\t/*** Redeem ***/\n\t\n\tfunction redeem(\n\t\taddress poolToken,\n\t\tuint tokens,\n\t\taddress to,\n\t\tuint deadline,\n\t\tbytes memory permitData\n\t) public virtual override ensure(deadline) returns (uint amount) {\n\t\t_permit(poolToken, tokens, deadline, permitData);\n\t\tIPoolToken(poolToken).transferFrom(msg.sender, poolToken, tokens);\n\t\taddress underlying = IPoolToken(poolToken).underlying();\n\t\tif (isStakedLPToken(underlying)) {\n\t\t\tIPoolToken(poolToken).redeem(underlying);\n\t\t\treturn IStakedLPToken01(underlying).redeem(to);\n\t\t} else {\n\t\t\treturn IPoolToken(poolToken).redeem(to);\n\t\t}\n\t}\n\tfunction redeemETH(\n\t\taddress poolToken, \n\t\tuint tokens,\n\t\taddress to,\n\t\tuint deadline,\n\t\tbytes memory permitData\n\t) public virtual override ensure(deadline) checkETH(poolToken) returns (uint amountETH) {\n\t\tamountETH = redeem(poolToken, tokens, address(this), deadline, permitData);\n\t\tIWETH(WETH).withdraw(amountETH);\n\t\tTransferHelper.safeTransferETH(to, amountETH);\n\t}\n\t\t\t\n\t/*** Borrow ***/\n\n\tfunction borrow(\n\t\taddress borrowable, \n\t\tuint amount,\n\t\taddress to,\n\t\tuint deadline,\n\t\tbytes memory permitData\n\t) public virtual override ensure(deadline) {\n\t\t_borrowPermit(borrowable, amount, deadline, permitData);\n\t\tIBorrowable(borrowable).borrow(msg.sender, to, amount, new bytes(0));\n\t}\n\tfunction borrowETH(\n\t\taddress borrowable, \n\t\tuint amountETH,\n\t\taddress to,\n\t\tuint deadline,\n\t\tbytes memory permitData\n\t) public virtual override ensure(deadline) checkETH(borrowable) {\n\t\tborrow(borrowable, amountETH, address(this), deadline, permitData);\n\t\tIWETH(WETH).withdraw(amountETH);\n\t\tTransferHelper.safeTransferETH(to, amountETH);\n\t}\n\t\n\t/*** Repay ***/\n\t\n\tfunction _repayAmount(\n\t\taddress borrowable, \n\t\tuint amountMax,\n\t\taddress borrower\n\t) internal virtual returns (uint amount) {\n\t\tIBorrowable(borrowable).accrueInterest();\n\t\tuint borrowedAmount = IBorrowable(borrowable).borrowBalance(borrower);\n\t\tamount = amountMax < borrowedAmount ? amountMax : borrowedAmount;\n\t}\n\tfunction repay(\n\t\taddress borrowable, \n\t\tuint amountMax,\n\t\taddress borrower,\n\t\tuint deadline\n\t) external virtual override ensure(deadline) returns (uint amount) {\n\t\tamount = _repayAmount(borrowable, amountMax, borrower);\n\t\tTransferHelper.safeTransferFrom(IBorrowable(borrowable).underlying(), msg.sender, borrowable, amount);\n\t\tIBorrowable(borrowable).borrow(borrower, address(0), 0, new bytes(0));\n\t}\n\tfunction repayETH(\n\t\taddress borrowable, \n\t\taddress borrower,\n\t\tuint deadline\n\t) external virtual override payable ensure(deadline) checkETH(borrowable) returns (uint amountETH) {\n\t\tamountETH = _repayAmount(borrowable, msg.value, borrower);\n\t\tIWETH(WETH).deposit{value: amountETH}();\n\t\tassert(IWETH(WETH).transfer(borrowable, amountETH));\n\t\tIBorrowable(borrowable).borrow(borrower, address(0), 0, new bytes(0));\n\t\t// refund surpluss eth, if any\n\t\tif (msg.value > amountETH) TransferHelper.safeTransferETH(msg.sender, msg.value - amountETH);\n\t}\n\t\n\t/*** Liquidate ***/\n\n\tfunction liquidate(\n\t\taddress borrowable, \n\t\tuint amountMax,\n\t\taddress borrower,\n\t\taddress to,\n\t\tuint deadline\n\t) external virtual override ensure(deadline) returns (uint amount, uint seizeTokens) {\n\t\tamount = _repayAmount(borrowable, amountMax, borrower);\n\t\tTransferHelper.safeTransferFrom(IBorrowable(borrowable).underlying(), msg.sender, borrowable, amount);\n\t\tseizeTokens = IBorrowable(borrowable).liquidate(borrower, to);\n\t}\n\tfunction liquidateETH(\n\t\taddress borrowable, \n\t\taddress borrower,\n\t\taddress to,\n\t\tuint deadline\n\t) external virtual override payable ensure(deadline) checkETH(borrowable) returns (uint amountETH, uint seizeTokens) {\n\t\tamountETH = _repayAmount(borrowable, msg.value, borrower);\n\t\tIWETH(WETH).deposit{value: amountETH}();\n\t\tassert(IWETH(WETH).transfer(borrowable, amountETH));\n\t\tseizeTokens = IBorrowable(borrowable).liquidate(borrower, to);\n\t\t// refund surpluss eth, if any\n\t\tif (msg.value > amountETH) TransferHelper.safeTransferETH(msg.sender, msg.value - amountETH);\n\t}\n\t\t\n\t/*** Leverage LP Token ***/\n\t\n\tfunction _leverage(\n\t\taddress underlying, \n\t\tuint amountA,\n\t\tuint amountB,\n\t\taddress to\n\t) internal virtual {\n\t\taddress borrowableA = getBorrowable(underlying, 0);\n\t\t// mint collateral\n\t\tbytes memory borrowBData = abi.encode(CalleeData({\n\t\t\tcallType: CallType.ADD_LIQUIDITY_AND_MINT,\n\t\t\tunderlying: underlying,\n\t\t\tborrowableIndex: 1,\n\t\t\tdata: abi.encode(AddLiquidityAndMintCalldata({\n\t\t\t\tamountA: amountA,\n\t\t\t\tamountB: amountB,\n\t\t\t\tto: to\n\t\t\t}))\n\t\t}));\t\n\t\t// borrow borrowableB\n\t\tbytes memory borrowAData = abi.encode(CalleeData({\n\t\t\tcallType: CallType.BORROWB,\n\t\t\tunderlying: underlying,\n\t\t\tborrowableIndex: 0,\n\t\t\tdata: abi.encode(BorrowBCalldata({\n\t\t\t\tborrower: msg.sender,\n\t\t\t\treceiver: address(this),\n\t\t\t\tborrowAmount: amountB,\n\t\t\t\tdata: borrowBData\n\t\t\t}))\n\t\t}));\n\t\t// borrow borrowableA\n\t\tIBorrowable(borrowableA).borrow(msg.sender, address(this), amountA, borrowAData);\t\n\t}\n\tfunction leverage(\n\t\taddress underlying,  \n\t\tuint amountADesired,\n\t\tuint amountBDesired,\n\t\tuint amountAMin,\n\t\tuint amountBMin,\n\t\taddress to,\n\t\tuint deadline,\n\t\tbytes calldata permitDataA,\n\t\tbytes calldata permitDataB\n\t) external virtual override ensure(deadline) {\n\t\t_borrowPermit(getBorrowable(underlying, 0), amountADesired, deadline, permitDataA);\n\t\t_borrowPermit(getBorrowable(underlying, 1), amountBDesired, deadline, permitDataB);\n\t\taddress uniswapV2Pair = getUniswapV2Pair(underlying);\n\t\t(uint amountA, uint amountB) = _optimalLiquidity(uniswapV2Pair, amountADesired, amountBDesired, amountAMin, amountBMin);\n\t\t_leverage(underlying, amountA, amountB, to);\n\t}\n\n\tfunction _addLiquidityAndMint(\n\t\taddress underlying, \n\t\tuint amountA,\n\t\tuint amountB,\n\t\taddress to\n\t) internal virtual {\n\t\t(address collateral, address borrowableA, address borrowableB) = getLendingPool(underlying);\n\t\taddress uniswapV2Pair = getUniswapV2Pair(underlying);\n\t\t// add liquidity to uniswap pair\n\t\tTransferHelper.safeTransfer(IBorrowable(borrowableA).underlying(), uniswapV2Pair, amountA);\n\t\tTransferHelper.safeTransfer(IBorrowable(borrowableB).underlying(), uniswapV2Pair, amountB);\n\t\t// mint LP token\n\t\tif (isStakedLPToken(underlying)) IUniswapV2Pair(uniswapV2Pair).mint(underlying);\n\t\tIUniswapV2Pair(underlying).mint(collateral);\n\t\t// mint collateral\n\t\tICollateral(collateral).mint(to);\n\t}\n\t\t\n\t/*** Deleverage LP Token ***/\n\t\n\tfunction deleverage(\n\t\taddress underlying,  \n\t\tuint redeemTokens,\n\t\tuint amountAMin,\n\t\tuint amountBMin,\n\t\tuint deadline,\n\t\tbytes calldata permitData\n\t) external virtual override ensure(deadline) {\n\t\taddress collateral = getCollateral(underlying);\n\t\tuint exchangeRate = ICollateral(collateral).exchangeRate();\n\t\trequire(redeemTokens > 0, \"ImpermaxRouter: REDEEM_ZERO\");\t\t\n\t\tuint redeemAmount = (redeemTokens - 1).mul(exchangeRate).div(1e18);\n\t\t_permit(collateral, redeemTokens, deadline, permitData);\n\t\tbytes memory redeemData = abi.encode(CalleeData({\n\t\t\tcallType: CallType.REMOVE_LIQ_AND_REPAY,\n\t\t\tunderlying: underlying,\n\t\t\tborrowableIndex: 0,\n\t\t\tdata: abi.encode(RemoveLiqAndRepayCalldata({\n\t\t\t\tborrower: msg.sender,\n\t\t\t\tredeemTokens: redeemTokens,\n\t\t\t\tredeemAmount: redeemAmount,\n\t\t\t\tamountAMin: amountAMin,\n\t\t\t\tamountBMin: amountBMin\n\t\t\t}))\n\t\t}));\n\t\t// flashRedeem\n\t\tICollateral(collateral).flashRedeem(address(this), redeemAmount, redeemData);\n\t}\n\n\tfunction _removeLiqAndRepay(\n\t\taddress underlying,\n\t\taddress borrower,\n\t\tuint redeemTokens,\n\t\tuint redeemAmount,\n\t\tuint amountAMin,\n\t\tuint amountBMin\n\t) internal virtual {\n\t\t(address collateral, address borrowableA, address borrowableB) = getLendingPool(underlying);\n\t\taddress tokenA = IBorrowable(borrowableA).underlying();\n\t\taddress tokenB = IBorrowable(borrowableB).underlying();\n\t\taddress uniswapV2Pair = getUniswapV2Pair(underlying);\n\t\t// removeLiquidity\n\t\tIUniswapV2Pair(underlying).transfer(underlying, redeemAmount);\n\t\t//TransferHelper.safeTransfer(underlying, underlying, redeemAmount);\n\t\tif (isStakedLPToken(underlying)) IStakedLPToken01(underlying).redeem(uniswapV2Pair);\n\t\t(uint amountAMax, uint amountBMax) = IUniswapV2Pair(uniswapV2Pair).burn(address(this));\n\t\trequire(amountAMax >= amountAMin, \"ImpermaxRouter: INSUFFICIENT_A_AMOUNT\");\n\t\trequire(amountBMax >= amountBMin, \"ImpermaxRouter: INSUFFICIENT_B_AMOUNT\");\n\t\t// repay and refund\n\t\t_repayAndRefund(borrowableA, tokenA, borrower, amountAMax);\n\t\t_repayAndRefund(borrowableB, tokenB, borrower, amountBMax);\n\t\t// repay flash redeem\n\t\tICollateral(collateral).transferFrom(borrower, collateral, redeemTokens);\n\t}\n\t\n\tfunction _repayAndRefund(\n\t\taddress borrowable,\n\t\taddress token,\n\t\taddress borrower,\n\t\tuint amountMax\n\t) internal virtual {\n\t\t//repay\n\t\tuint amount = _repayAmount(borrowable, amountMax, borrower);\n\t\tTransferHelper.safeTransfer(token, borrowable, amount);\n\t\tIBorrowable(borrowable).borrow(borrower, address(0), 0, new bytes(0));\t\t\n\t\t// refund excess\n\t\tif (amountMax > amount) {\n\t\t\tuint refundAmount = amountMax - amount;\n\t\t\tif (token == WETH) {\t\t\n\t\t\t\tIWETH(WETH).withdraw(refundAmount);\n\t\t\t\tTransferHelper.safeTransferETH(borrower, refundAmount);\n\t\t\t}\n\t\t\telse TransferHelper.safeTransfer(token, borrower, refundAmount);\n\t\t}\n\t}\n\t\n\t/*** Impermax Callee ***/\n\t\t\n\tenum CallType {ADD_LIQUIDITY_AND_MINT, BORROWB, REMOVE_LIQ_AND_REPAY}\n\tstruct CalleeData {\n\t\tCallType callType;\n\t\taddress underlying;\n\t\tuint8 borrowableIndex;\n\t\tbytes data;\t\t\n\t}\n\tstruct AddLiquidityAndMintCalldata {\n\t\tuint amountA;\n\t\tuint amountB;\n\t\taddress to;\n\t}\n\tstruct BorrowBCalldata {\n\t\taddress borrower; \n\t\taddress receiver;\n\t\tuint borrowAmount;\n\t\tbytes data;\n\t}\n\tstruct RemoveLiqAndRepayCalldata {\n\t\taddress borrower;\n\t\tuint redeemTokens;\n\t\tuint redeemAmount;\n\t\tuint amountAMin;\n\t\tuint amountBMin;\n\t}\n\t\n\tfunction impermaxBorrow(address sender, address borrower, uint borrowAmount, bytes calldata data) external virtual override {\n\t\tborrower; borrowAmount;\n\t\tCalleeData memory calleeData = abi.decode(data, (CalleeData));\n\t\taddress declaredCaller = getBorrowable(calleeData.underlying, calleeData.borrowableIndex);\n\t\t// only succeeds if called by a borrowable and if that borrowable has been called by the router\n\t\trequire(sender == address(this), \"ImpermaxRouter: SENDER_NOT_ROUTER\");\n\t\trequire(msg.sender == declaredCaller, \"ImpermaxRouter: UNAUTHORIZED_CALLER\");\n\t\tif (calleeData.callType == CallType.ADD_LIQUIDITY_AND_MINT) {\n\t\t\tAddLiquidityAndMintCalldata memory d = abi.decode(calleeData.data, (AddLiquidityAndMintCalldata));\n\t\t\t_addLiquidityAndMint(calleeData.underlying, d.amountA, d.amountB, d.to);\n\t\t}\n\t\telse if (calleeData.callType == CallType.BORROWB) {\n\t\t\tBorrowBCalldata memory d = abi.decode(calleeData.data, (BorrowBCalldata));\n\t\t\taddress borrowableB = getBorrowable(calleeData.underlying, 1);\n\t\t\tIBorrowable(borrowableB).borrow(d.borrower, d.receiver, d.borrowAmount, d.data);\n\t\t}\n\t\telse revert();\n\t}\n\t\n\tfunction impermaxRedeem(address sender, uint redeemAmount, bytes calldata data) external virtual override {\n\t\tredeemAmount;\n\t\tCalleeData memory calleeData = abi.decode(data, (CalleeData));\n\t\taddress declaredCaller = getCollateral(calleeData.underlying);\n\t\t// only succeeds if called by a collateral and if that collateral has been called by the router\n\t\trequire(sender == address(this), \"ImpermaxRouter: SENDER_NOT_ROUTER\");\n\t\trequire(msg.sender == declaredCaller, \"ImpermaxRouter: UNAUTHORIZED_CALLER\");\n\t\tif (calleeData.callType == CallType.REMOVE_LIQ_AND_REPAY) {\n\t\t\tRemoveLiqAndRepayCalldata memory d = abi.decode(calleeData.data, (RemoveLiqAndRepayCalldata));\n\t\t\t_removeLiqAndRepay(calleeData.underlying, d.borrower, d.redeemTokens, d.redeemAmount, d.amountAMin, d.amountBMin);\n\t\t}\n\t\telse revert();\n\t}\n\t\t\n\t/*** Utilities ***/\n\t\n\tfunction _permit(\n\t\taddress poolToken, \n\t\tuint amount, \n\t\tuint deadline,\n\t\tbytes memory permitData\n\t) internal virtual {\n\t\tif (permitData.length == 0) return;\n\t\t(bool approveMax, uint8 v, bytes32 r, bytes32 s) = abi.decode(permitData, (bool, uint8, bytes32, bytes32));\n\t\tuint value = approveMax ? uint(-1) : amount;\n\t\tIPoolToken(poolToken).permit(msg.sender, address(this), value, deadline, v, r, s);\n\t}\n\tfunction _borrowPermit(\n\t\taddress borrowable, \n\t\tuint amount, \n\t\tuint deadline,\n\t\tbytes memory permitData\n\t) internal virtual {\n\t\tif (permitData.length == 0) return;\n\t\t(bool approveMax, uint8 v, bytes32 r, bytes32 s) = abi.decode(permitData, (bool, uint8, bytes32, bytes32));\n\t\tuint value = approveMax ? uint(-1) : amount;\n\t\tIBorrowable(borrowable).borrowPermit(msg.sender, address(this), value, deadline, v, r, s);\n\t}\n\t\n\tfunction _optimalLiquidity(\n\t\taddress uniswapV2Pair,\n\t\tuint amountADesired,\n\t\tuint amountBDesired,\n\t\tuint amountAMin,\n\t\tuint amountBMin\n\t) public virtual view returns (uint amountA, uint amountB) {\n\t\t(uint reserveA, uint reserveB,) = IUniswapV2Pair(uniswapV2Pair).getReserves();\n\t\tuint amountBOptimal = UniswapV2Library.quote(amountADesired, reserveA, reserveB);\n\t\tif (amountBOptimal <= amountBDesired) {\n\t\t\trequire(amountBOptimal >= amountBMin, \"ImpermaxRouter: INSUFFICIENT_B_AMOUNT\");\n\t\t\t(amountA, amountB) = (amountADesired, amountBOptimal);\n\t\t} else {\n\t\t\tuint amountAOptimal = UniswapV2Library.quote(amountBDesired, reserveB, reserveA);\n\t\t\tassert(amountAOptimal <= amountADesired);\n\t\t\trequire(amountAOptimal >= amountAMin, \"ImpermaxRouter: INSUFFICIENT_A_AMOUNT\");\n\t\t\t(amountA, amountB) = (amountAOptimal, amountBDesired);\n\t\t}\n\t}\n\t\n\tfunction isStakedLPToken(address underlying) public virtual override view returns(bool) {\n\t\ttry IStakedLPToken01(underlying).isStakedLPToken() returns (bool result) {\n\t\t\treturn result;\n\t\t} catch {\n\t\t\treturn false;\n\t\t}\n\t}\n\tfunction getUniswapV2Pair(address underlying) public virtual override view returns (address) {\n\t\ttry IStakedLPToken01(underlying).underlying() returns (address u) {\n\t\t\tif (u != address(0)) return u;\n\t\t\treturn underlying;\n\t\t} catch {\n\t\t\treturn underlying;\n\t\t}\n\t}\n\t\n\tfunction getBorrowable(address underlying, uint8 index) public virtual override view returns (address borrowable) {\n\t\trequire(index < 2, \"ImpermaxRouter: INDEX_TOO_HIGH\");\n\t\tborrowable = address(uint(keccak256(abi.encodePacked(\n\t\t\thex\"ff\",\n\t\t\tbDeployer,\n\t\t\tkeccak256(abi.encodePacked(factory, underlying, index)),\n\t\t\thex\"605ba1db56496978613939baf0ae31dccceea3f5ca53dfaa76512bc880d7bb8f\" // Borrowable bytecode keccak256\n\t\t))));\n\t}\n\tfunction getCollateral(address underlying) public virtual override view returns (address collateral) {\n\t\tcollateral = address(uint(keccak256(abi.encodePacked(\n\t\t\thex\"ff\",\n\t\t\tcDeployer,\n\t\t\tkeccak256(abi.encodePacked(factory, underlying)),\n\t\t\thex\"4b8788d8761647e6330407671d3c6c80afaed3d047800dba0e0e3befde047767\" // Collateral bytecode keccak256\n\t\t))));\n\t}\n\tfunction getLendingPool(address underlying) public virtual override view returns (address collateral, address borrowableA, address borrowableB) {\n\t\tcollateral = getCollateral(underlying);\n\t\tborrowableA = getBorrowable(underlying, 0);\n\t\tborrowableB = getBorrowable(underlying, 1);\n\t}\n}\n",
  "sourcePath": "C:/Users/simor/Desktop/impermax-x-uniswapv2-periphery/contracts/Router02.sol",
  "compiler": {
    "name": "solc",
    "version": "0.6.6+commit.6c089d02.Emscripten.clang"
  },
  "schemaVersion": "3.3.2",
  "updatedAt": "2021-05-26T17:30:36.629Z",
  "devdoc": {
    "methods": {}
  },
  "userdoc": {
    "methods": {
      "borrow(address,uint256,address,uint256,bytes)": {
        "notice": "* Borrow **"
      },
      "deleverage(address,uint256,uint256,uint256,uint256,bytes)": {
        "notice": "* Deleverage LP Token **"
      },
      "liquidate(address,uint256,address,address,uint256)": {
        "notice": "* Liquidate **"
      },
      "redeem(address,uint256,address,uint256,bytes)": {
        "notice": "* Redeem **"
      }
    }
  }
}