{
  "contractName": "Router03",
  "abi": [
    {
      "inputs": [
        {
          "internalType": "address",
          "name": "_factory",
          "type": "address"
        },
        {
          "internalType": "address",
          "name": "_bDeployer",
          "type": "address"
        },
        {
          "internalType": "address",
          "name": "_cDeployer",
          "type": "address"
        },
        {
          "internalType": "address",
          "name": "_WETH",
          "type": "address"
        }
      ],
      "stateMutability": "nonpayable",
      "type": "constructor"
    },
    {
      "inputs": [],
      "name": "WETH",
      "outputs": [
        {
          "internalType": "address",
          "name": "",
          "type": "address"
        }
      ],
      "stateMutability": "view",
      "type": "function"
    },
    {
      "inputs": [],
      "name": "bDeployer",
      "outputs": [
        {
          "internalType": "address",
          "name": "",
          "type": "address"
        }
      ],
      "stateMutability": "view",
      "type": "function"
    },
    {
      "inputs": [],
      "name": "cDeployer",
      "outputs": [
        {
          "internalType": "address",
          "name": "",
          "type": "address"
        }
      ],
      "stateMutability": "view",
      "type": "function"
    },
    {
      "inputs": [],
      "name": "factory",
      "outputs": [
        {
          "internalType": "address",
          "name": "",
          "type": "address"
        }
      ],
      "stateMutability": "view",
      "type": "function"
    },
    {
      "stateMutability": "payable",
      "type": "receive"
    },
    {
      "inputs": [
        {
          "internalType": "address",
          "name": "poolToken",
          "type": "address"
        },
        {
          "internalType": "uint256",
          "name": "amount",
          "type": "uint256"
        },
        {
          "internalType": "address",
          "name": "to",
          "type": "address"
        },
        {
          "internalType": "uint256",
          "name": "deadline",
          "type": "uint256"
        }
      ],
      "name": "mint",
      "outputs": [
        {
          "internalType": "uint256",
          "name": "tokens",
          "type": "uint256"
        }
      ],
      "stateMutability": "nonpayable",
      "type": "function"
    },
    {
      "inputs": [
        {
          "internalType": "address",
          "name": "poolToken",
          "type": "address"
        },
        {
          "internalType": "address",
          "name": "to",
          "type": "address"
        },
        {
          "internalType": "uint256",
          "name": "deadline",
          "type": "uint256"
        }
      ],
      "name": "mintETH",
      "outputs": [
        {
          "internalType": "uint256",
          "name": "tokens",
          "type": "uint256"
        }
      ],
      "stateMutability": "payable",
      "type": "function"
    },
    {
      "inputs": [
        {
          "internalType": "address",
          "name": "poolToken",
          "type": "address"
        },
        {
          "internalType": "uint256",
          "name": "amount",
          "type": "uint256"
        },
        {
          "internalType": "address",
          "name": "to",
          "type": "address"
        },
        {
          "internalType": "uint256",
          "name": "deadline",
          "type": "uint256"
        },
        {
          "internalType": "bytes",
          "name": "permitData",
          "type": "bytes"
        }
      ],
      "name": "mintCollateral",
      "outputs": [
        {
          "internalType": "uint256",
          "name": "tokens",
          "type": "uint256"
        }
      ],
      "stateMutability": "nonpayable",
      "type": "function"
    },
    {
      "inputs": [
        {
          "internalType": "address",
          "name": "poolToken",
          "type": "address"
        },
        {
          "internalType": "uint256",
          "name": "tokens",
          "type": "uint256"
        },
        {
          "internalType": "address",
          "name": "to",
          "type": "address"
        },
        {
          "internalType": "uint256",
          "name": "deadline",
          "type": "uint256"
        },
        {
          "internalType": "bytes",
          "name": "permitData",
          "type": "bytes"
        }
      ],
      "name": "redeem",
      "outputs": [
        {
          "internalType": "uint256",
          "name": "amount",
          "type": "uint256"
        }
      ],
      "stateMutability": "nonpayable",
      "type": "function"
    },
    {
      "inputs": [
        {
          "internalType": "address",
          "name": "poolToken",
          "type": "address"
        },
        {
          "internalType": "uint256",
          "name": "tokens",
          "type": "uint256"
        },
        {
          "internalType": "address",
          "name": "to",
          "type": "address"
        },
        {
          "internalType": "uint256",
          "name": "deadline",
          "type": "uint256"
        },
        {
          "internalType": "bytes",
          "name": "permitData",
          "type": "bytes"
        }
      ],
      "name": "redeemETH",
      "outputs": [
        {
          "internalType": "uint256",
          "name": "amountETH",
          "type": "uint256"
        }
      ],
      "stateMutability": "nonpayable",
      "type": "function"
    },
    {
      "inputs": [
        {
          "internalType": "address",
          "name": "borrowable",
          "type": "address"
        },
        {
          "internalType": "uint256",
          "name": "amount",
          "type": "uint256"
        },
        {
          "internalType": "address",
          "name": "to",
          "type": "address"
        },
        {
          "internalType": "uint256",
          "name": "deadline",
          "type": "uint256"
        },
        {
          "internalType": "bytes",
          "name": "permitData",
          "type": "bytes"
        }
      ],
      "name": "borrow",
      "outputs": [],
      "stateMutability": "nonpayable",
      "type": "function"
    },
    {
      "inputs": [
        {
          "internalType": "address",
          "name": "borrowable",
          "type": "address"
        },
        {
          "internalType": "uint256",
          "name": "amountETH",
          "type": "uint256"
        },
        {
          "internalType": "address",
          "name": "to",
          "type": "address"
        },
        {
          "internalType": "uint256",
          "name": "deadline",
          "type": "uint256"
        },
        {
          "internalType": "bytes",
          "name": "permitData",
          "type": "bytes"
        }
      ],
      "name": "borrowETH",
      "outputs": [],
      "stateMutability": "nonpayable",
      "type": "function"
    },
    {
      "inputs": [
        {
          "internalType": "address",
          "name": "borrowable",
          "type": "address"
        },
        {
          "internalType": "uint256",
          "name": "amountMax",
          "type": "uint256"
        },
        {
          "internalType": "address",
          "name": "borrower",
          "type": "address"
        },
        {
          "internalType": "uint256",
          "name": "deadline",
          "type": "uint256"
        }
      ],
      "name": "repay",
      "outputs": [
        {
          "internalType": "uint256",
          "name": "amount",
          "type": "uint256"
        }
      ],
      "stateMutability": "nonpayable",
      "type": "function"
    },
    {
      "inputs": [
        {
          "internalType": "address",
          "name": "borrowable",
          "type": "address"
        },
        {
          "internalType": "address",
          "name": "borrower",
          "type": "address"
        },
        {
          "internalType": "uint256",
          "name": "deadline",
          "type": "uint256"
        }
      ],
      "name": "repayETH",
      "outputs": [
        {
          "internalType": "uint256",
          "name": "amountETH",
          "type": "uint256"
        }
      ],
      "stateMutability": "payable",
      "type": "function"
    },
    {
      "inputs": [
        {
          "internalType": "address",
          "name": "borrowable",
          "type": "address"
        },
        {
          "internalType": "uint256",
          "name": "amountMax",
          "type": "uint256"
        },
        {
          "internalType": "address",
          "name": "borrower",
          "type": "address"
        },
        {
          "internalType": "address",
          "name": "to",
          "type": "address"
        },
        {
          "internalType": "uint256",
          "name": "deadline",
          "type": "uint256"
        }
      ],
      "name": "liquidate",
      "outputs": [
        {
          "internalType": "uint256",
          "name": "amount",
          "type": "uint256"
        },
        {
          "internalType": "uint256",
          "name": "seizeTokens",
          "type": "uint256"
        }
      ],
      "stateMutability": "nonpayable",
      "type": "function"
    },
    {
      "inputs": [
        {
          "internalType": "address",
          "name": "borrowable",
          "type": "address"
        },
        {
          "internalType": "address",
          "name": "borrower",
          "type": "address"
        },
        {
          "internalType": "address",
          "name": "to",
          "type": "address"
        },
        {
          "internalType": "uint256",
          "name": "deadline",
          "type": "uint256"
        }
      ],
      "name": "liquidateETH",
      "outputs": [
        {
          "internalType": "uint256",
          "name": "amountETH",
          "type": "uint256"
        },
        {
          "internalType": "uint256",
          "name": "seizeTokens",
          "type": "uint256"
        }
      ],
      "stateMutability": "payable",
      "type": "function"
    },
    {
      "inputs": [
        {
          "internalType": "address",
          "name": "underlying",
          "type": "address"
        },
        {
          "internalType": "uint256",
          "name": "amountADesired",
          "type": "uint256"
        },
        {
          "internalType": "uint256",
          "name": "amountBDesired",
          "type": "uint256"
        },
        {
          "internalType": "uint256",
          "name": "amountAMin",
          "type": "uint256"
        },
        {
          "internalType": "uint256",
          "name": "amountBMin",
          "type": "uint256"
        },
        {
          "internalType": "address",
          "name": "to",
          "type": "address"
        },
        {
          "internalType": "uint256",
          "name": "deadline",
          "type": "uint256"
        },
        {
          "internalType": "bytes",
          "name": "permitDataA",
          "type": "bytes"
        },
        {
          "internalType": "bytes",
          "name": "permitDataB",
          "type": "bytes"
        }
      ],
      "name": "leverage",
      "outputs": [],
      "stateMutability": "nonpayable",
      "type": "function"
    },
    {
      "inputs": [
        {
          "internalType": "address",
          "name": "underlying",
          "type": "address"
        },
        {
          "internalType": "uint256",
          "name": "redeemTokens",
          "type": "uint256"
        },
        {
          "internalType": "uint256",
          "name": "amountAMin",
          "type": "uint256"
        },
        {
          "internalType": "uint256",
          "name": "amountBMin",
          "type": "uint256"
        },
        {
          "internalType": "uint256",
          "name": "deadline",
          "type": "uint256"
        },
        {
          "internalType": "bytes",
          "name": "permitData",
          "type": "bytes"
        }
      ],
      "name": "deleverage",
      "outputs": [],
      "stateMutability": "nonpayable",
      "type": "function"
    },
    {
      "inputs": [
        {
          "internalType": "address",
          "name": "sender",
          "type": "address"
        },
        {
          "internalType": "address",
          "name": "borrower",
          "type": "address"
        },
        {
          "internalType": "uint256",
          "name": "borrowAmount",
          "type": "uint256"
        },
        {
          "internalType": "bytes",
          "name": "data",
          "type": "bytes"
        }
      ],
      "name": "impermaxBorrow",
      "outputs": [],
      "stateMutability": "nonpayable",
      "type": "function"
    },
    {
      "inputs": [
        {
          "internalType": "address",
          "name": "sender",
          "type": "address"
        },
        {
          "internalType": "uint256",
          "name": "redeemAmount",
          "type": "uint256"
        },
        {
          "internalType": "bytes",
          "name": "data",
          "type": "bytes"
        }
      ],
      "name": "impermaxRedeem",
      "outputs": [],
      "stateMutability": "nonpayable",
      "type": "function"
    },
    {
      "inputs": [
        {
          "internalType": "address",
          "name": "uniswapV2Pair",
          "type": "address"
        },
        {
          "internalType": "uint256",
          "name": "amountADesired",
          "type": "uint256"
        },
        {
          "internalType": "uint256",
          "name": "amountBDesired",
          "type": "uint256"
        },
        {
          "internalType": "uint256",
          "name": "amountAMin",
          "type": "uint256"
        },
        {
          "internalType": "uint256",
          "name": "amountBMin",
          "type": "uint256"
        }
      ],
      "name": "_optimalLiquidity",
      "outputs": [
        {
          "internalType": "uint256",
          "name": "amountA",
          "type": "uint256"
        },
        {
          "internalType": "uint256",
          "name": "amountB",
          "type": "uint256"
        }
      ],
      "stateMutability": "view",
      "type": "function"
    },
    {
      "inputs": [
        {
          "internalType": "address",
          "name": "underlying",
          "type": "address"
        }
      ],
      "name": "isStakedLPToken",
      "outputs": [
        {
          "internalType": "bool",
          "name": "",
          "type": "bool"
        }
      ],
      "stateMutability": "view",
      "type": "function"
    },
    {
      "inputs": [
        {
          "internalType": "address",
          "name": "underlying",
          "type": "address"
        }
      ],
      "name": "getUniswapV2Pair",
      "outputs": [
        {
          "internalType": "address",
          "name": "",
          "type": "address"
        }
      ],
      "stateMutability": "view",
      "type": "function"
    },
    {
      "inputs": [
        {
          "internalType": "address",
          "name": "underlying",
          "type": "address"
        },
        {
          "internalType": "uint8",
          "name": "index",
          "type": "uint8"
        }
      ],
      "name": "getBorrowable",
      "outputs": [
        {
          "internalType": "address",
          "name": "borrowable",
          "type": "address"
        }
      ],
      "stateMutability": "view",
      "type": "function"
    },
    {
      "inputs": [
        {
          "internalType": "address",
          "name": "underlying",
          "type": "address"
        }
      ],
      "name": "getCollateral",
      "outputs": [
        {
          "internalType": "address",
          "name": "collateral",
          "type": "address"
        }
      ],
      "stateMutability": "view",
      "type": "function"
    },
    {
      "inputs": [
        {
          "internalType": "address",
          "name": "underlying",
          "type": "address"
        }
      ],
      "name": "getLendingPool",
      "outputs": [
        {
          "internalType": "address",
          "name": "collateral",
          "type": "address"
        },
        {
          "internalType": "address",
          "name": "borrowableA",
          "type": "address"
        },
        {
          "internalType": "address",
          "name": "borrowableB",
          "type": "address"
        }
      ],
      "stateMutability": "view",
      "type": "function"
    },
    {
      "inputs": [
        {
          "components": [
            {
              "internalType": "address",
              "name": "router",
              "type": "address"
            },
            {
              "internalType": "address",
              "name": "tokenA",
              "type": "address"
            },
            {
              "internalType": "address",
              "name": "tokenB",
              "type": "address"
            },
            {
              "internalType": "uint256",
              "name": "amountADesired",
              "type": "uint256"
            },
            {
              "internalType": "uint256",
              "name": "amountBDesired",
              "type": "uint256"
            },
            {
              "internalType": "uint256",
              "name": "amountAMin",
              "type": "uint256"
            },
            {
              "internalType": "uint256",
              "name": "amountBMin",
              "type": "uint256"
            },
            {
              "internalType": "uint256",
              "name": "deadline",
              "type": "uint256"
            },
            {
              "internalType": "address",
              "name": "poolToken",
              "type": "address"
            },
            {
              "internalType": "address",
              "name": "to",
              "type": "address"
            },
            {
              "internalType": "bytes",
              "name": "permitData",
              "type": "bytes"
            }
          ],
          "internalType": "struct Router03.addLiquidityAndMintCollateralParams",
          "name": "params",
          "type": "tuple"
        }
      ],
      "name": "addLiquidityAndMintCollateral",
      "outputs": [
        {
          "internalType": "uint256",
          "name": "tokens",
          "type": "uint256"
        }
      ],
      "stateMutability": "nonpayable",
      "type": "function"
    }
  ],
  "bytecode": "0x6101006040523480156200001257600080fd5b5060405162005c5d38038062005c5d833981016040819052620000359162000083565b6001600160601b0319606094851b811660805292841b831660a05290831b821660c05290911b1660e052620000e3565b80516001600160a01b03811681146200007d57600080fd5b92915050565b6000806000806080858703121562000099578384fd5b620000a5868662000065565b9350620000b6866020870162000065565b9250620000c7866040870162000065565b9150620000d8866060870162000065565b905092959194509250565b60805160601c60a05160601c60c05160601c60e05160601c615ad462000189600039806101c25280610eaf52806110b452806111f752806112ad52806113fb5280611476528061152f528061203e52806120ac528061213152806129385280612b5d5280612bd85280612c91528061451252806145a152508061247b52806126ae5250806129805280612e2b5250806126cf528061295c5280612e4c5250615ad46000f3fe6080604052600436106101a55760003560e01c806377370d62116100e1578063ad5c46481161008a578063dbe5f2fb11610064578063dbe5f2fb146104b7578063eb03419a146104d7578063ef974e9c146104ea578063fcb2a8951461050a576101eb565b8063ad5c464814610478578063c45a01551461048d578063db5a2690146104a2576101eb565b80639b56d6c9116100bb5780639b56d6c91461040b578063a3c252a01461042b578063acb86cbb14610458576101eb565b806377370d62146103b65780637a4660d5146103d6578063876d9d9e146103eb576101eb565b80633970036a1161014e5780635c1e6404116101285780635c1e64041461033557806367bf252f146103635780636aee7c1e14610383578063703de94c146103a3576101eb565b80633970036a146102c85780633c173a4f146102f557806343e2644814610315576101eb565b80632b005cfc1161017f5780632b005cfc146102755780632c3445041461029557806335bb1059146102b5576101eb565b80630572bf5f146101f05780631f1cc5bc1461022857806326a7890f14610255576101eb565b366101eb573373ffffffffffffffffffffffffffffffffffffffff7f000000000000000000000000000000000000000000000000000000000000000016146101e957fe5b005b600080fd5b3480156101fc57600080fd5b5061021061020b366004614785565b61052a565b60405161021f93929190615348565b60405180910390f35b34801561023457600080fd5b506102486102433660046149c9565b61055a565b60405161021f91906159a2565b34801561026157600080fd5b50610248610270366004614ee0565b610894565b34801561028157600080fd5b506102486102903660046149c9565b610ddb565b3480156102a157600080fd5b506101e96102b03660046149c9565b611125565b6102486102c336600461480d565b611327565b3480156102d457600080fd5b506102e86102e3366004614785565b611674565b60405161021f91906151e7565b34801561030157600080fd5b50610248610310366004614918565b611742565b34801561032157600080fd5b5061024861033036600461494f565b611813565b34801561034157600080fd5b506103556103503660046148be565b611b60565b60405161021f9291906159ab565b34801561036f57600080fd5b506101e961037e366004614ada565b611ce7565b34801561038f57600080fd5b5061024861039e366004614918565b611df8565b6102486103b136600461480d565b611f6a565b3480156103c257600080fd5b506101e96103d1366004614ba9565b612158565b3480156103e257600080fd5b506102e8612479565b3480156103f757600080fd5b506101e961040636600461484d565b61249d565b34801561041757600080fd5b506102e8610426366004614785565b6126aa565b34801561043757600080fd5b5061044b610446366004614785565b612763565b60405161021f91906153ce565b34801561046457600080fd5b506101e9610473366004614a3d565b61280c565b34801561048457600080fd5b506102e8612936565b34801561049957600080fd5b506102e861295a565b3480156104ae57600080fd5b506102e861297e565b3480156104c357600080fd5b506101e96104d23660046149c9565b6129a2565b6103556104e53660046147bd565b612a88565b3480156104f657600080fd5b506102e8610505366004614c24565b612dea565b34801561051657600080fd5b50610355610525366004614a97565b612ee3565b6000806000610538846126aa565b9250610545846000612dea565b9150610552846001612dea565b929491935050565b600082428110156105a0576040517f08c379a0000000000000000000000000000000000000000000000000000000008152600401610597906155bd565b60405180910390fd5b6105ac8787868661304d565b6040517f23b872dd00000000000000000000000000000000000000000000000000000000815273ffffffffffffffffffffffffffffffffffffffff8816906323b872dd906106029033908b908b90600401615295565b602060405180830381600087803b15801561061c57600080fd5b505af1158015610630573d6000803e3d6000fd5b505050506040513d601f19601f820116820180604052508101906106549190614c5c565b5060008773ffffffffffffffffffffffffffffffffffffffff16636f307dc36040518163ffffffff1660e01b815260040160206040518083038186803b15801561069d57600080fd5b505afa1580156106b1573d6000803e3d6000fd5b505050506040513d601f19601f820116820180604052508101906106d591906147a1565b90506106e081612763565b15610836576040517f95a2251f00000000000000000000000000000000000000000000000000000000815273ffffffffffffffffffffffffffffffffffffffff8916906395a2251f906107379084906004016151e7565b602060405180830381600087803b15801561075157600080fd5b505af1158015610765573d6000803e3d6000fd5b505050506040513d601f19601f820116820180604052508101906107899190614f76565b506040517f95a2251f00000000000000000000000000000000000000000000000000000000815273ffffffffffffffffffffffffffffffffffffffff8216906395a2251f906107dc9089906004016151e7565b602060405180830381600087803b1580156107f657600080fd5b505af115801561080a573d6000803e3d6000fd5b505050506040513d601f19601f8201168201806040525081019061082e9190614f76565b92505061088a565b6040517f95a2251f00000000000000000000000000000000000000000000000000000000815273ffffffffffffffffffffffffffffffffffffffff8916906395a2251f906107dc9089906004016151e7565b505b5095945050505050565b60008160e00135428110156108d5576040517f08c379a0000000000000000000000000000000000000000000000000000000008152600401610597906155bd565b6108f46108e86040850160208601614785565b33308660600135613148565b6109136109076060850160408601614785565b33308660800135613148565b600080806109246020870187614785565b73ffffffffffffffffffffffffffffffffffffffff1663e8e3370061094f6040890160208a01614785565b61095f60608a0160408b01614785565b89606001358a608001358b60a001358c60c00135308e60e001356040518963ffffffff1660e01b815260040161099c989796959493929190615378565b606060405180830381600087803b1580156109b657600080fd5b505af11580156109ca573d6000803e3d6000fd5b505050506040513d601f19601f820116820180604052508101906109ee9190614fb1565b91945092509050610a26610a0a61012088016101008901614785565b610a1c61014089016101208a01614785565b8860e0013561326d565b94506000610a3a6040880160208901614785565b73ffffffffffffffffffffffffffffffffffffffff166370a08231306040518263ffffffff1660e01b8152600401610a7291906151e7565b60206040518083038186803b158015610a8a57600080fd5b505afa158015610a9e573d6000803e3d6000fd5b505050506040513d601f19601f82011682018060405250810190610ac29190614f76565b1115610bfd57610ad86040870160208801614785565b73ffffffffffffffffffffffffffffffffffffffff1663a9059cbb33610b0460408a0160208b01614785565b73ffffffffffffffffffffffffffffffffffffffff166370a08231306040518263ffffffff1660e01b8152600401610b3c91906151e7565b60206040518083038186803b158015610b5457600080fd5b505afa158015610b68573d6000803e3d6000fd5b505050506040513d601f19601f82011682018060405250810190610b8c9190614f76565b6040518363ffffffff1660e01b8152600401610ba99291906152c6565b602060405180830381600087803b158015610bc357600080fd5b505af1158015610bd7573d6000803e3d6000fd5b505050506040513d601f19601f82011682018060405250810190610bfb9190614c5c565b505b6000610c0f6060880160408901614785565b73ffffffffffffffffffffffffffffffffffffffff166370a08231306040518263ffffffff1660e01b8152600401610c4791906151e7565b60206040518083038186803b158015610c5f57600080fd5b505afa158015610c73573d6000803e3d6000fd5b505050506040513d601f19601f82011682018060405250810190610c979190614f76565b1115610dd257610cad6060870160408801614785565b73ffffffffffffffffffffffffffffffffffffffff1663a9059cbb33610cd960608a0160408b01614785565b73ffffffffffffffffffffffffffffffffffffffff166370a08231306040518263ffffffff1660e01b8152600401610d1191906151e7565b60206040518083038186803b158015610d2957600080fd5b505afa158015610d3d573d6000803e3d6000fd5b505050506040513d601f19601f82011682018060405250810190610d619190614f76565b6040518363ffffffff1660e01b8152600401610d7e9291906152c6565b602060405180830381600087803b158015610d9857600080fd5b505af1158015610dac573d6000803e3d6000fd5b505050506040513d601f19601f82011682018060405250810190610dd09190614c5c565b505b50505050919050565b60008242811015610e18576040517f08c379a0000000000000000000000000000000000000000000000000000000008152600401610597906155bd565b868073ffffffffffffffffffffffffffffffffffffffff16636f307dc36040518163ffffffff1660e01b815260040160206040518083038186803b158015610e5f57600080fd5b505afa158015610e73573d6000803e3d6000fd5b505050506040513d601f19601f82011682018060405250810190610e9791906147a1565b73ffffffffffffffffffffffffffffffffffffffff167f000000000000000000000000000000000000000000000000000000000000000073ffffffffffffffffffffffffffffffffffffffff1614610f1b576040517f08c379a000000000000000000000000000000000000000000000000000000000815260040161059790615779565b610f278888878761304d565b6040517f23b872dd00000000000000000000000000000000000000000000000000000000815273ffffffffffffffffffffffffffffffffffffffff8916906323b872dd90610f7d9033908c908c90600401615295565b602060405180830381600087803b158015610f9757600080fd5b505af1158015610fab573d6000803e3d6000fd5b505050506040513d601f19601f82011682018060405250810190610fcf9190614c5c565b506040517f95a2251f00000000000000000000000000000000000000000000000000000000815273ffffffffffffffffffffffffffffffffffffffff8916906395a2251f906110229030906004016151e7565b602060405180830381600087803b15801561103c57600080fd5b505af1158015611050573d6000803e3d6000fd5b505050506040513d601f19601f820116820180604052508101906110749190614f76565b6040517f2e1a7d4d00000000000000000000000000000000000000000000000000000000815290935073ffffffffffffffffffffffffffffffffffffffff7f00000000000000000000000000000000000000000000000000000000000000001690632e1a7d4d906110e99086906004016159a2565b600060405180830381600087803b15801561110357600080fd5b505af1158015611117573d6000803e3d6000fd5b505050506108888684613476565b8142811015611160576040517f08c379a0000000000000000000000000000000000000000000000000000000008152600401610597906155bd565b858073ffffffffffffffffffffffffffffffffffffffff16636f307dc36040518163ffffffff1660e01b815260040160206040518083038186803b1580156111a757600080fd5b505afa1580156111bb573d6000803e3d6000fd5b505050506040513d601f19601f820116820180604052508101906111df91906147a1565b73ffffffffffffffffffffffffffffffffffffffff167f000000000000000000000000000000000000000000000000000000000000000073ffffffffffffffffffffffffffffffffffffffff1614611263576040517f08c379a000000000000000000000000000000000000000000000000000000000815260040161059790615779565b61127087873087876129a2565b6040517f2e1a7d4d00000000000000000000000000000000000000000000000000000000815273ffffffffffffffffffffffffffffffffffffffff7f00000000000000000000000000000000000000000000000000000000000000001690632e1a7d4d906112e29089906004016159a2565b600060405180830381600087803b1580156112fc57600080fd5b505af1158015611310573d6000803e3d6000fd5b5050505061131e8587613476565b50505050505050565b60008142811015611364576040517f08c379a0000000000000000000000000000000000000000000000000000000008152600401610597906155bd565b848073ffffffffffffffffffffffffffffffffffffffff16636f307dc36040518163ffffffff1660e01b815260040160206040518083038186803b1580156113ab57600080fd5b505afa1580156113bf573d6000803e3d6000fd5b505050506040513d601f19601f820116820180604052508101906113e391906147a1565b73ffffffffffffffffffffffffffffffffffffffff167f000000000000000000000000000000000000000000000000000000000000000073ffffffffffffffffffffffffffffffffffffffff1614611467576040517f08c379a000000000000000000000000000000000000000000000000000000000815260040161059790615779565b61147286348761352f565b92507f000000000000000000000000000000000000000000000000000000000000000073ffffffffffffffffffffffffffffffffffffffff1663d0e30db0846040518263ffffffff1660e01b81526004016000604051808303818588803b1580156114dc57600080fd5b505af11580156114f0573d6000803e3d6000fd5b50506040517fa9059cbb00000000000000000000000000000000000000000000000000000000815273ffffffffffffffffffffffffffffffffffffffff7f000000000000000000000000000000000000000000000000000000000000000016935063a9059cbb92506115699150899087906004016152c6565b602060405180830381600087803b15801561158357600080fd5b505af1158015611597573d6000803e3d6000fd5b505050506040513d601f19601f820116820180604052508101906115bb9190614c5c565b6115c157fe5b60408051600080825260208201928390527f1e7dcc0d0000000000000000000000000000000000000000000000000000000090925273ffffffffffffffffffffffffffffffffffffffff881691631e7dcc0d91611625918991819060248101615208565b600060405180830381600087803b15801561163f57600080fd5b505af1158015611653573d6000803e3d6000fd5b505050508234111561166b5761166b33843403613476565b50509392505050565b60008173ffffffffffffffffffffffffffffffffffffffff16636f307dc36040518163ffffffff1660e01b815260040160206040518083038186803b1580156116bc57600080fd5b505afa92505050801561170a575060408051601f3d9081017fffffffffffffffffffffffffffffffffffffffffffffffffffffffffffffffe0168201909252611707918101906147a1565b60015b61171557508061173d565b73ffffffffffffffffffffffffffffffffffffffff81161561173857905061173d565b829150505b919050565b6000814281101561177f576040517f08c379a0000000000000000000000000000000000000000000000000000000008152600401610597906155bd565b611809868773ffffffffffffffffffffffffffffffffffffffff16636f307dc36040518163ffffffff1660e01b815260040160206040518083038186803b1580156117c957600080fd5b505afa1580156117dd573d6000803e3d6000fd5b505050506040513d601f19601f8201168201806040525081019061180191906147a1565b873388613650565b9695505050505050565b60008342811015611850576040517f08c379a0000000000000000000000000000000000000000000000000000000008152600401610597906155bd565b60008873ffffffffffffffffffffffffffffffffffffffff16636f307dc36040518163ffffffff1660e01b815260040160206040518083038186803b15801561189857600080fd5b505afa1580156118ac573d6000803e3d6000fd5b505050506040513d601f19601f820116820180604052508101906118d091906147a1565b90506118db81612763565b15611b025760008173ffffffffffffffffffffffffffffffffffffffff16636f307dc36040518163ffffffff1660e01b815260040160206040518083038186803b15801561192857600080fd5b505afa15801561193c573d6000803e3d6000fd5b505050506040513d601f19601f8201168201806040525081019061196091906147a1565b90506119a4818a8989898080601f01602080910402602001604051908101604052809392919081815260200183838082843760009201919091525061304d92505050565b6119b08133848c613148565b6040517f6a62784200000000000000000000000000000000000000000000000000000000815273ffffffffffffffffffffffffffffffffffffffff831690636a62784290611a02908d906004016151e7565b602060405180830381600087803b158015611a1c57600080fd5b505af1158015611a30573d6000803e3d6000fd5b505050506040513d601f19601f82011682018060405250810190611a549190614f76565b506040517f6a62784200000000000000000000000000000000000000000000000000000000815273ffffffffffffffffffffffffffffffffffffffff8b1690636a62784290611aa7908b906004016151e7565b602060405180830381600087803b158015611ac157600080fd5b505af1158015611ad5573d6000803e3d6000fd5b505050506040513d601f19601f82011682018060405250810190611af99190614f76565b93505050611b55565b611b4481898888888080601f01602080910402602001604051908101604052809392919081815260200183838082843760009201919091525061304d92505050565b611b5189828a338b613650565b9250505b509695505050505050565b6000808242811015611b9e576040517f08c379a0000000000000000000000000000000000000000000000000000000008152600401610597906155bd565b611ba988888861352f565b9250611c348873ffffffffffffffffffffffffffffffffffffffff16636f307dc36040518163ffffffff1660e01b815260040160206040518083038186803b158015611bf457600080fd5b505afa158015611c08573d6000803e3d6000fd5b505050506040513d601f19601f82011682018060405250810190611c2c91906147a1565b338a86613148565b6040517f86b9d81f00000000000000000000000000000000000000000000000000000000815273ffffffffffffffffffffffffffffffffffffffff8916906386b9d81f90611c889089908990600401615321565b602060405180830381600087803b158015611ca257600080fd5b505af1158015611cb6573d6000803e3d6000fd5b505050506040513d601f19601f82011682018060405250810190611cda9190614f76565b9150509550959350505050565b8442811015611d22576040517f08c379a0000000000000000000000000000000000000000000000000000000008152600401610597906155bd565b611d6e611d308d6000612dea565b8c8888888080601f0160208091040260200160405190810160405280939291908181526020018383808284376000920191909152506136de92505050565b611dba611d7c8d6001612dea565b8b8886868080601f0160208091040260200160405190810160405280939291908181526020018383808284376000920191909152506136de92505050565b6000611dc58d611674565b9050600080611dd7838f8f8f8f612ee3565b91509150611de78f83838d61379b565b505050505050505050505050505050565b60008142811015611e35576040517f08c379a0000000000000000000000000000000000000000000000000000000008152600401610597906155bd565b611e4086868661352f565b9150611ecb8673ffffffffffffffffffffffffffffffffffffffff16636f307dc36040518163ffffffff1660e01b815260040160206040518083038186803b158015611e8b57600080fd5b505afa158015611e9f573d6000803e3d6000fd5b505050506040513d601f19601f82011682018060405250810190611ec391906147a1565b338885613148565b60408051600080825260208201928390527f1e7dcc0d0000000000000000000000000000000000000000000000000000000090925273ffffffffffffffffffffffffffffffffffffffff881691631e7dcc0d91611f2f918891819060248101615208565b600060405180830381600087803b158015611f4957600080fd5b505af1158015611f5d573d6000803e3d6000fd5b5050505050949350505050565b60008142811015611fa7576040517f08c379a0000000000000000000000000000000000000000000000000000000008152600401610597906155bd565b848073ffffffffffffffffffffffffffffffffffffffff16636f307dc36040518163ffffffff1660e01b815260040160206040518083038186803b158015611fee57600080fd5b505afa158015612002573d6000803e3d6000fd5b505050506040513d601f19601f8201168201806040525081019061202691906147a1565b73ffffffffffffffffffffffffffffffffffffffff167f000000000000000000000000000000000000000000000000000000000000000073ffffffffffffffffffffffffffffffffffffffff16146120aa576040517f08c379a000000000000000000000000000000000000000000000000000000000815260040161059790615779565b7f000000000000000000000000000000000000000000000000000000000000000073ffffffffffffffffffffffffffffffffffffffff1663d0e30db0346040518263ffffffff1660e01b81526004016000604051808303818588803b15801561211257600080fd5b505af1158015612126573d6000803e3d6000fd5b5050505050611809867f0000000000000000000000000000000000000000000000000000000000000000343089613650565b8242811015612193576040517f08c379a0000000000000000000000000000000000000000000000000000000008152600401610597906155bd565b600061219e896126aa565b905060008173ffffffffffffffffffffffffffffffffffffffff16633ba0b9a96040518163ffffffff1660e01b8152600401602060405180830381600087803b1580156121ea57600080fd5b505af11580156121fe573d6000803e3d6000fd5b505050506040513d601f19601f820116820180604052508101906122229190614f76565b90506000891161225e576040517f08c379a0000000000000000000000000000000000000000000000000000000008152600401610597906156e5565b60006122aa670de0b6b3a764000061229e7fffffffffffffffffffffffffffffffffffffffffffffffffffffffffffffffff8d018563ffffffff613a2f16565b9063ffffffff613a8c16565b90506122ee838b8989898080601f01602080910402602001604051908101604052809392919081815260200183838082843760009201919091525061304d92505050565b604080516080810190915260609080600281526020018d73ffffffffffffffffffffffffffffffffffffffff168152602001600060ff1681526020016040518060a001604052803373ffffffffffffffffffffffffffffffffffffffff1681526020018e81526020018581526020018d81526020018c8152506040516020016123779190615952565b604080517fffffffffffffffffffffffffffffffffffffffffffffffffffffffffffffffe08184030181529181529152516123b591906020016158f4565b604080517fffffffffffffffffffffffffffffffffffffffffffffffffffffffffffffffe0818403018152908290527f19f3400d000000000000000000000000000000000000000000000000000000008252915073ffffffffffffffffffffffffffffffffffffffff8516906319f3400d90612439903090869086906004016152ec565b600060405180830381600087803b15801561245357600080fd5b505af1158015612467573d6000803e3d6000fd5b50505050505050505050505050505050565b7f000000000000000000000000000000000000000000000000000000000000000081565b6124a5614622565b6124b182840184614ddb565b905060006124c782602001518360400151612dea565b905073ffffffffffffffffffffffffffffffffffffffff87163014612518576040517f08c379a000000000000000000000000000000000000000000000000000000000815260040161059790615560565b3373ffffffffffffffffffffffffffffffffffffffff821614612567576040517f08c379a0000000000000000000000000000000000000000000000000000000008152600401610597906153ec565b60008251600281111561257657fe5b14156125c057612584614649565b826060015180602001905181019061259c9190614cc7565b90506125ba8360200151826000015183602001518460400151613ace565b5061131e565b6001825160028111156125cf57fe5b14156101eb576125dd614680565b82606001518060200190518101906125f59190614d0a565b9050600061260884602001516001612dea565b82516020840151604080860151606087015191517f1e7dcc0d00000000000000000000000000000000000000000000000000000000815294955073ffffffffffffffffffffffffffffffffffffffff861694631e7dcc0d94612671949093909291600401615208565b600060405180830381600087803b15801561268b57600080fd5b505af115801561269f573d6000803e3d6000fd5b50505050505061131e565b60007f00000000000000000000000000000000000000000000000000000000000000007f000000000000000000000000000000000000000000000000000000000000000083604051602001612700929190615028565b604051602081830303815290604052805190602001206040516020016127279291906150e5565b604080517fffffffffffffffffffffffffffffffffffffffffffffffffffffffffffffffe0818403018152919052805160209091012092915050565b60008173ffffffffffffffffffffffffffffffffffffffff16630a6410636040518163ffffffff1660e01b815260040160206040518083038186803b1580156127ab57600080fd5b505afa9250505080156127f9575060408051601f3d9081017fffffffffffffffffffffffffffffffffffffffffffffffffffffffffffffffe01682019092526127f691810190614c5c565b60015b6128055750600061173d565b905061173d565b612814614622565b61282082840184614ddb565b9050600061283182602001516126aa565b905073ffffffffffffffffffffffffffffffffffffffff86163014612882576040517f08c379a000000000000000000000000000000000000000000000000000000000815260040161059790615560565b3373ffffffffffffffffffffffffffffffffffffffff8216146128d1576040517f08c379a0000000000000000000000000000000000000000000000000000000008152600401610597906153ec565b6002825160028111156128e057fe5b14156101eb576128ee6146a6565b82606001518060200190518101906129069190614e84565b905061131e836020015182600001518360200151846040015185606001518660800151613e07565b505050505050565b7f000000000000000000000000000000000000000000000000000000000000000081565b7f000000000000000000000000000000000000000000000000000000000000000081565b7f000000000000000000000000000000000000000000000000000000000000000081565b81428110156129dd576040517f08c379a0000000000000000000000000000000000000000000000000000000008152600401610597906155bd565b6129e9868685856136de565b604080516000815260208101918290527f1e7dcc0d0000000000000000000000000000000000000000000000000000000090915273ffffffffffffffffffffffffffffffffffffffff871690631e7dcc0d90612a4e90339088908a9060248101615208565b600060405180830381600087803b158015612a6857600080fd5b505af1158015612a7c573d6000803e3d6000fd5b50505050505050505050565b6000808242811015612ac6576040517f08c379a0000000000000000000000000000000000000000000000000000000008152600401610597906155bd565b868073ffffffffffffffffffffffffffffffffffffffff16636f307dc36040518163ffffffff1660e01b815260040160206040518083038186803b158015612b0d57600080fd5b505afa158015612b21573d6000803e3d6000fd5b505050506040513d601f19601f82011682018060405250810190612b4591906147a1565b73ffffffffffffffffffffffffffffffffffffffff167f000000000000000000000000000000000000000000000000000000000000000073ffffffffffffffffffffffffffffffffffffffff1614612bc9576040517f08c379a000000000000000000000000000000000000000000000000000000000815260040161059790615779565b612bd488348961352f565b93507f000000000000000000000000000000000000000000000000000000000000000073ffffffffffffffffffffffffffffffffffffffff1663d0e30db0856040518263ffffffff1660e01b81526004016000604051808303818588803b158015612c3e57600080fd5b505af1158015612c52573d6000803e3d6000fd5b50506040517fa9059cbb00000000000000000000000000000000000000000000000000000000815273ffffffffffffffffffffffffffffffffffffffff7f000000000000000000000000000000000000000000000000000000000000000016935063a9059cbb9250612ccb91508b9088906004016152c6565b602060405180830381600087803b158015612ce557600080fd5b505af1158015612cf9573d6000803e3d6000fd5b505050506040513d601f19601f82011682018060405250810190612d1d9190614c5c565b612d2357fe5b6040517f86b9d81f00000000000000000000000000000000000000000000000000000000815273ffffffffffffffffffffffffffffffffffffffff8916906386b9d81f90612d77908a908a90600401615321565b602060405180830381600087803b158015612d9157600080fd5b505af1158015612da5573d6000803e3d6000fd5b505050506040513d601f19601f82011682018060405250810190612dc99190614f76565b925083341115612ddf57612ddf33853403613476565b505094509492505050565b600060028260ff1610612e29576040517f08c379a0000000000000000000000000000000000000000000000000000000008152600401610597906155f4565b7f00000000000000000000000000000000000000000000000000000000000000007f00000000000000000000000000000000000000000000000000000000000000008484604051602001612e7f93929190615062565b60405160208183030381529060405280519060200120604051602001612ea6929190615166565b604080517fffffffffffffffffffffffffffffffffffffffffffffffffffffffffffffffe081840301815291905280516020909101209392505050565b6000806000808873ffffffffffffffffffffffffffffffffffffffff16630902f1ac6040518163ffffffff1660e01b815260040160606040518083038186803b158015612f2f57600080fd5b505afa158015612f43573d6000803e3d6000fd5b505050506040513d601f19601f82011682018060405250810190612f679190614f22565b506dffffffffffffffffffffffffffff1691506dffffffffffffffffffffffffffff1691506000612f99898484614234565b9050878111612fe75785811015612fdc576040517f08c379a00000000000000000000000000000000000000000000000000000000081526004016105979061580d565b889450925082613040565b6000612ff4898486614234565b90508981111561300057fe5b8781101561303a576040517f08c379a000000000000000000000000000000000000000000000000000000000815260040161059790615449565b94508793505b5050509550959350505050565b805161305857613142565b600080600080848060200190518101906130729190614c7c565b935093509350935060008461308757876130a9565b7fffffffffffffffffffffffffffffffffffffffffffffffffffffffffffffffff5b6040517fd505accf00000000000000000000000000000000000000000000000000000000815290915073ffffffffffffffffffffffffffffffffffffffff8a169063d505accf9061310a903390309086908d908b908b908b90600401615247565b600060405180830381600087803b15801561312457600080fd5b505af1158015613138573d6000803e3d6000fd5b5050505050505050505b50505050565b600060608573ffffffffffffffffffffffffffffffffffffffff166323b872dd86868660405160240161317d93929190615295565b6040516020818303038152906040529060e01b6020820180517bffffffffffffffffffffffffffffffffffffffffffffffffffffffff83818316178352505050506040516131cb91906150c9565b6000604051808303816000865af19150503d8060008114613208576040519150601f19603f3d011682016040523d82523d6000602084013e61320d565b606091505b50915091508180156132375750805115806132375750808060200190518101906132379190614c5c565b61292e576040517f08c379a0000000000000000000000000000000000000000000000000000000008152600401610597906154a6565b600081428110156132aa576040517f08c379a0000000000000000000000000000000000000000000000000000000008152600401610597906155bd565b60008573ffffffffffffffffffffffffffffffffffffffff16636f307dc36040518163ffffffff1660e01b815260040160206040518083038186803b1580156132f257600080fd5b505afa158015613306573d6000803e3d6000fd5b505050506040513d601f19601f8201168201806040525081019061332a91906147a1565b6040517f6a62784200000000000000000000000000000000000000000000000000000000815290915073ffffffffffffffffffffffffffffffffffffffff821690636a6278429061337f9089906004016151e7565b602060405180830381600087803b15801561339957600080fd5b505af11580156133ad573d6000803e3d6000fd5b505050506040513d601f19601f820116820180604052508101906133d19190614f76565b506040517f6a62784200000000000000000000000000000000000000000000000000000000815273ffffffffffffffffffffffffffffffffffffffff871690636a627842906134249088906004016151e7565b602060405180830381600087803b15801561343e57600080fd5b505af1158015613452573d6000803e3d6000fd5b505050506040513d601f19601f820116820180604052508101906118099190614f76565b6040805160008082526020820190925273ffffffffffffffffffffffffffffffffffffffff84169083906040516134ad91906150c9565b60006040518083038185875af1925050503d80600081146134ea576040519150601f19603f3d011682016040523d82523d6000602084013e6134ef565b606091505b505090508061352a576040517f08c379a000000000000000000000000000000000000000000000000000000000815260040161059790615503565b505050565b60008373ffffffffffffffffffffffffffffffffffffffff1663a6afed956040518163ffffffff1660e01b8152600401600060405180830381600087803b15801561357957600080fd5b505af115801561358d573d6000803e3d6000fd5b50506040517f4d73e9ba0000000000000000000000000000000000000000000000000000000081526000925073ffffffffffffffffffffffffffffffffffffffff87169150634d73e9ba906135e69086906004016151e7565b60206040518083038186803b1580156135fe57600080fd5b505afa158015613612573d6000803e3d6000fd5b505050506040513d601f19601f820116820180604052508101906136369190614f76565b90508084106136455780613647565b835b95945050505050565b600073ffffffffffffffffffffffffffffffffffffffff83163014156136805761367b8587866142d6565b61368c565b61368c85848887613148565b6040517f6a62784200000000000000000000000000000000000000000000000000000000815273ffffffffffffffffffffffffffffffffffffffff871690636a627842906134249085906004016151e7565b80516136e957613142565b600080600080848060200190518101906137039190614c7c565b9350935093509350600084613718578761373a565b7fffffffffffffffffffffffffffffffffffffffffffffffffffffffffffffffff5b6040517f9e79b55c00000000000000000000000000000000000000000000000000000000815290915073ffffffffffffffffffffffffffffffffffffffff8a1690639e79b55c9061310a903390309086908d908b908b908b90600401615247565b60006137a8856000612dea565b905060606040518060800160405280600060028111156137c457fe5b81526020018773ffffffffffffffffffffffffffffffffffffffff168152602001600160ff16815260200160405180606001604052808881526020018781526020018673ffffffffffffffffffffffffffffffffffffffff16815250604051602001613830919061586a565b604080517fffffffffffffffffffffffffffffffffffffffffffffffffffffffffffffffe081840301815291815291525161386e91906020016158f4565b604080517fffffffffffffffffffffffffffffffffffffffffffffffffffffffffffffffe081840301815260808301909152915060609080600181526020018873ffffffffffffffffffffffffffffffffffffffff168152602001600060ff16815260200160405180608001604052803373ffffffffffffffffffffffffffffffffffffffff1681526020013073ffffffffffffffffffffffffffffffffffffffff1681526020018881526020018581525060405160200161393091906158a1565b604080517fffffffffffffffffffffffffffffffffffffffffffffffffffffffffffffffe081840301815291815291525161396e91906020016158f4565b604080517fffffffffffffffffffffffffffffffffffffffffffffffffffffffffffffffe0818403018152908290527f1e7dcc0d000000000000000000000000000000000000000000000000000000008252915073ffffffffffffffffffffffffffffffffffffffff841690631e7dcc0d906139f490339030908b908790600401615208565b600060405180830381600087803b158015613a0e57600080fd5b505af1158015613a22573d6000803e3d6000fd5b5050505050505050505050565b600082613a3e57506000613a86565b82820282848281613a4b57fe5b0414613a83576040517f08c379a000000000000000000000000000000000000000000000000000000000815260040161059790615688565b90505b92915050565b6000613a8383836040518060400160405280601a81526020017f536166654d6174683a206469766973696f6e206279207a65726f000000000000815250614400565b6000806000613adc8761052a565b9250925092506000613aed88611674565b9050613b778373ffffffffffffffffffffffffffffffffffffffff16636f307dc36040518163ffffffff1660e01b815260040160206040518083038186803b158015613b3857600080fd5b505afa158015613b4c573d6000803e3d6000fd5b505050506040513d601f19601f82011682018060405250810190613b7091906147a1565b82896142d6565b613bff8273ffffffffffffffffffffffffffffffffffffffff16636f307dc36040518163ffffffff1660e01b815260040160206040518083038186803b158015613bc057600080fd5b505afa158015613bd4573d6000803e3d6000fd5b505050506040513d601f19601f82011682018060405250810190613bf891906147a1565b82886142d6565b613c0888612763565b15613cb3576040517f6a62784200000000000000000000000000000000000000000000000000000000815273ffffffffffffffffffffffffffffffffffffffff821690636a62784290613c5f908b906004016151e7565b602060405180830381600087803b158015613c7957600080fd5b505af1158015613c8d573d6000803e3d6000fd5b505050506040513d601f19601f82011682018060405250810190613cb19190614f76565b505b6040517f6a62784200000000000000000000000000000000000000000000000000000000815273ffffffffffffffffffffffffffffffffffffffff891690636a62784290613d059087906004016151e7565b602060405180830381600087803b158015613d1f57600080fd5b505af1158015613d33573d6000803e3d6000fd5b505050506040513d601f19601f82011682018060405250810190613d579190614f76565b506040517f6a62784200000000000000000000000000000000000000000000000000000000815273ffffffffffffffffffffffffffffffffffffffff851690636a62784290613daa9088906004016151e7565b602060405180830381600087803b158015613dc457600080fd5b505af1158015613dd8573d6000803e3d6000fd5b505050506040513d601f19601f82011682018060405250810190613dfc9190614f76565b505050505050505050565b6000806000613e158961052a565b92509250925060008273ffffffffffffffffffffffffffffffffffffffff16636f307dc36040518163ffffffff1660e01b815260040160206040518083038186803b158015613e6357600080fd5b505afa158015613e77573d6000803e3d6000fd5b505050506040513d601f19601f82011682018060405250810190613e9b91906147a1565b905060008273ffffffffffffffffffffffffffffffffffffffff16636f307dc36040518163ffffffff1660e01b815260040160206040518083038186803b158015613ee557600080fd5b505afa158015613ef9573d6000803e3d6000fd5b505050506040513d601f19601f82011682018060405250810190613f1d91906147a1565b90506000613f2a8c611674565b6040517fa9059cbb00000000000000000000000000000000000000000000000000000000815290915073ffffffffffffffffffffffffffffffffffffffff8d169063a9059cbb90613f81908f908d906004016152c6565b602060405180830381600087803b158015613f9b57600080fd5b505af1158015613faf573d6000803e3d6000fd5b505050506040513d601f19601f82011682018060405250810190613fd39190614c5c565b50613fdd8c612763565b15614088576040517f95a2251f00000000000000000000000000000000000000000000000000000000815273ffffffffffffffffffffffffffffffffffffffff8d16906395a2251f906140349084906004016151e7565b602060405180830381600087803b15801561404e57600080fd5b505af1158015614062573d6000803e3d6000fd5b505050506040513d601f19601f820116820180604052508101906140869190614f76565b505b6000808273ffffffffffffffffffffffffffffffffffffffff166389afcb44306040518263ffffffff1660e01b81526004016140c491906151e7565b6040805180830381600087803b1580156140dd57600080fd5b505af11580156140f1573d6000803e3d6000fd5b505050506040513d601f19601f820116820180604052508101906141159190614f8e565b9150915089821015614153576040517f08c379a000000000000000000000000000000000000000000000000000000000815260040161059790615449565b8881101561418d576040517f08c379a00000000000000000000000000000000000000000000000000000000081526004016105979061580d565b61419987868f85614451565b6141a586858f84614451565b8773ffffffffffffffffffffffffffffffffffffffff166323b872dd8e8a8f6040518463ffffffff1660e01b81526004016141e293929190615295565b602060405180830381600087803b1580156141fc57600080fd5b505af1158015614210573d6000803e3d6000fd5b505050506040513d601f19601f82011682018060405250810190611de79190614c5c565b600080841161426f576040517f08c379a00000000000000000000000000000000000000000000000000000000081526004016105979061571c565b60008311801561427f5750600082115b6142b5576040517f08c379a00000000000000000000000000000000000000000000000000000000081526004016105979061562b565b826142c6858463ffffffff613a2f16565b816142cd57fe5b04949350505050565b600060608473ffffffffffffffffffffffffffffffffffffffff1663a9059cbb85856040516024016143099291906152c6565b6040516020818303038152906040529060e01b6020820180517bffffffffffffffffffffffffffffffffffffffffffffffffffffffff838183161783525050505060405161435791906150c9565b6000604051808303816000865af19150503d8060008114614394576040519150601f19603f3d011682016040523d82523d6000602084013e614399565b606091505b50915091508180156143c35750805115806143c35750808060200190518101906143c39190614c5c565b6143f9576040517f08c379a0000000000000000000000000000000000000000000000000000000008152600401610597906157b0565b5050505050565b6000818361443b576040517f08c379a000000000000000000000000000000000000000000000000000000000815260040161059791906153d9565b50600083858161444757fe5b0495945050505050565b600061445e85838561352f565b905061446b8486836142d6565b60408051600080825260208201928390527f1e7dcc0d0000000000000000000000000000000000000000000000000000000090925273ffffffffffffffffffffffffffffffffffffffff871691631e7dcc0d916144cf918791819060248101615208565b600060405180830381600087803b1580156144e957600080fd5b505af11580156144fd573d6000803e3d6000fd5b50505050808211156143f957600081830390507f000000000000000000000000000000000000000000000000000000000000000073ffffffffffffffffffffffffffffffffffffffff168573ffffffffffffffffffffffffffffffffffffffff161415614617576040517f2e1a7d4d00000000000000000000000000000000000000000000000000000000815273ffffffffffffffffffffffffffffffffffffffff7f00000000000000000000000000000000000000000000000000000000000000001690632e1a7d4d906145d69084906004016159a2565b600060405180830381600087803b1580156145f057600080fd5b505af1158015614604573d6000803e3d6000fd5b505050506146128482613476565b61292e565b61292e8585836142d6565b60408051608081019091528060008152600060208201819052604082015260609081015290565b60405180606001604052806000815260200160008152602001600073ffffffffffffffffffffffffffffffffffffffff1681525090565b604080516080810182526000808252602082018190529181019190915260608082015290565b6040518060a00160405280600073ffffffffffffffffffffffffffffffffffffffff168152602001600081526020016000815260200160008152602001600081525090565b60008083601f8401126146fc578182fd5b50813567ffffffffffffffff811115614713578182fd5b60208301915083602082850101111561472b57600080fd5b9250929050565b600082601f830112614742578081fd5b8135614755614750826159e0565b6159b9565b915080825283602082850101111561476c57600080fd5b8060208401602084013760009082016020015292915050565b600060208284031215614796578081fd5b8135613a8381615a4e565b6000602082840312156147b2578081fd5b8151613a8381615a4e565b600080600080608085870312156147d2578283fd5b84356147dd81615a4e565b935060208501356147ed81615a4e565b925060408501356147fd81615a4e565b9396929550929360600135925050565b600080600060608486031215614821578283fd5b833561482c81615a4e565b9250602084013561483c81615a4e565b929592945050506040919091013590565b600080600080600060808688031215614864578081fd5b853561486f81615a4e565b9450602086013561487f81615a4e565b935060408601359250606086013567ffffffffffffffff8111156148a1578182fd5b6148ad888289016146eb565b969995985093965092949392505050565b600080600080600060a086880312156148d5578283fd5b85356148e081615a4e565b94506020860135935060408601356148f781615a4e565b9250606086013561490781615a4e565b949793965091946080013592915050565b6000806000806080858703121561492d578182fd5b843561493881615a4e565b93506020850135925060408501356147fd81615a4e565b60008060008060008060a08789031215614967578384fd5b863561497281615a4e565b955060208701359450604087013561498981615a4e565b935060608701359250608087013567ffffffffffffffff8111156149ab578182fd5b6149b789828a016146eb565b979a9699509497509295939492505050565b600080600080600060a086880312156149e0578283fd5b85356149eb81615a4e565b9450602086013593506040860135614a0281615a4e565b925060608601359150608086013567ffffffffffffffff811115614a24578182fd5b614a3088828901614732565b9150509295509295909350565b60008060008060608587031215614a52578182fd5b8435614a5d81615a4e565b935060208501359250604085013567ffffffffffffffff811115614a7f578283fd5b614a8b878288016146eb565b95989497509550505050565b600080600080600060a08688031215614aae578283fd5b8535614ab981615a4e565b97602087013597506040870135966060810135965060800135945092505050565b60008060008060008060008060008060006101208c8e031215614afb578889fd5b614b058c35615a4e565b8b359a5060208c0135995060408c0135985060608c0135975060808c01359650614b3260a08d0135615a4e565b60a08c0135955060c08c0135945067ffffffffffffffff8060e08e01351115614b59578485fd5b614b698e60e08f01358f016146eb565b90955093506101008d0135811015614b7f578283fd5b50614b918d6101008e01358e016146eb565b81935080925050509295989b509295989b9093969950565b600080600080600080600060c0888a031215614bc3578081fd5b8735614bce81615a4e565b96506020880135955060408801359450606088013593506080880135925060a088013567ffffffffffffffff811115614c05578182fd5b614c118a828b016146eb565b989b979a50959850939692959293505050565b60008060408385031215614c36578182fd5b8235614c4181615a4e565b91506020830135614c5181615a8f565b809150509250929050565b600060208284031215614c6d578081fd5b81518015158114613a83578182fd5b60008060008060808587031215614c91578182fd5b84518015158114614ca0578283fd5b6020860151909450614cb181615a8f565b6040860151606090960151949790965092505050565b600060608284031215614cd8578081fd5b614ce260606159b9565b82518152602083015160208201526040830151614cfe81615a4e565b60408201529392505050565b60006020808385031215614d1c578182fd5b825167ffffffffffffffff80821115614d33578384fd5b81850160808188031215614d45578485fd5b614d4f60806159b9565b92508051614d5c81615a4e565b835280840151614d6b81615a4e565b8385015260408181015190840152606081015182811115614d8a578586fd5b019050601f81018613614d9b578384fd5b8051614da9614750826159e0565b8181528785838501011115614dbc578586fd5b614dcb82868301878601615a22565b6060840152509095945050505050565b600060208284031215614dec578081fd5b813567ffffffffffffffff80821115614e03578283fd5b81840160808187031215614e15578384fd5b614e1f60806159b9565b9250803560038110614e2f578485fd5b83526020810135614e3f81615a4e565b60208401526040810135614e5281615a8f565b6040840152606081013582811115614e68578485fd5b614e7487828401614732565b6060850152509195945050505050565b600060a08284031215614e95578081fd5b614e9f60a06159b9565b8251614eaa81615a4e565b80825250602083015160208201526040830151604082015260608301516060820152608083015160808201528091505092915050565b600060208284031215614ef1578081fd5b813567ffffffffffffffff811115614f07578182fd5b8083016101608186031215614f1a578283fd5b949350505050565b600080600060608486031215614f36578081fd5b8351614f4181615a73565b6020850151909350614f5281615a73565b604085015190925063ffffffff81168114614f6b578182fd5b809150509250925092565b600060208284031215614f87578081fd5b5051919050565b60008060408385031215614fa0578182fd5b505080516020909101519092909150565b600080600060608486031215614fc5578081fd5b8351925060208401519150604084015190509250925092565b60008151808452614ff6816020860160208601615a22565b601f017fffffffffffffffffffffffffffffffffffffffffffffffffffffffffffffffe0169290920160200192915050565b7fffffffffffffffffffffffffffffffffffffffff000000000000000000000000606093841b811682529190921b16601482015260280190565b606093841b7fffffffffffffffffffffffffffffffffffffffff00000000000000000000000090811682529290931b909116601483015260f81b7fff0000000000000000000000000000000000000000000000000000000000000016602882015260290190565b600082516150db818460208701615a22565b9190910192915050565b7fff00000000000000000000000000000000000000000000000000000000000000815260609290921b7fffffffffffffffffffffffffffffffffffffffff00000000000000000000000016600183015260158201527f4b8788d8761647e6330407671d3c6c80afaed3d047800dba0e0e3befde047767603582015260550190565b7fff00000000000000000000000000000000000000000000000000000000000000815260609290921b7fffffffffffffffffffffffffffffffffffffffff00000000000000000000000016600183015260158201527f605ba1db56496978613939baf0ae31dccceea3f5ca53dfaa76512bc880d7bb8f603582015260550190565b73ffffffffffffffffffffffffffffffffffffffff91909116815260200190565b600073ffffffffffffffffffffffffffffffffffffffff8087168352808616602084015250836040830152608060608301526118096080830184614fde565b73ffffffffffffffffffffffffffffffffffffffff97881681529590961660208601526040850193909352606084019190915260ff16608083015260a082015260c081019190915260e00190565b73ffffffffffffffffffffffffffffffffffffffff9384168152919092166020820152604081019190915260600190565b73ffffffffffffffffffffffffffffffffffffffff929092168252602082015260400190565b600073ffffffffffffffffffffffffffffffffffffffff85168252836020830152606060408301526136476060830184614fde565b73ffffffffffffffffffffffffffffffffffffffff92831681529116602082015260400190565b73ffffffffffffffffffffffffffffffffffffffff93841681529183166020830152909116604082015260600190565b73ffffffffffffffffffffffffffffffffffffffff9889168152968816602088015260408701959095526060860193909352608085019190915260a084015290921660c082015260e08101919091526101000190565b901515815260200190565b600060208252613a836020830184614fde565b60208082526023908201527f496d7065726d6178526f757465723a20554e415554484f52495a45445f43414c60408201527f4c45520000000000000000000000000000000000000000000000000000000000606082015260800190565b60208082526025908201527f496d7065726d6178526f757465723a20494e53554646494349454e545f415f4160408201527f4d4f554e54000000000000000000000000000000000000000000000000000000606082015260800190565b60208082526031908201527f5472616e7366657248656c7065723a3a7472616e7366657246726f6d3a20747260408201527f616e7366657246726f6d206661696c6564000000000000000000000000000000606082015260800190565b60208082526034908201527f5472616e7366657248656c7065723a3a736166655472616e736665724554483a60408201527f20455448207472616e73666572206661696c6564000000000000000000000000606082015260800190565b60208082526021908201527f496d7065726d6178526f757465723a2053454e4445525f4e4f545f524f55544560408201527f5200000000000000000000000000000000000000000000000000000000000000606082015260800190565b60208082526017908201527f496d7065726d6178526f757465723a2045585049524544000000000000000000604082015260600190565b6020808252601e908201527f496d7065726d6178526f757465723a20494e4445585f544f4f5f484947480000604082015260600190565b60208082526028908201527f556e697377617056324c6962726172793a20494e53554646494349454e545f4c60408201527f4951554944495459000000000000000000000000000000000000000000000000606082015260800190565b60208082526021908201527f536166654d6174683a206d756c7469706c69636174696f6e206f766572666c6f60408201527f7700000000000000000000000000000000000000000000000000000000000000606082015260800190565b6020808252601b908201527f496d7065726d6178526f757465723a2052454445454d5f5a45524f0000000000604082015260600190565b60208082526025908201527f556e697377617056324c6962726172793a20494e53554646494349454e545f4160408201527f4d4f554e54000000000000000000000000000000000000000000000000000000606082015260800190565b60208082526018908201527f496d7065726d6178526f757465723a204e4f545f574554480000000000000000604082015260600190565b6020808252602d908201527f5472616e7366657248656c7065723a3a736166655472616e736665723a20747260408201527f616e73666572206661696c656400000000000000000000000000000000000000606082015260800190565b60208082526025908201527f496d7065726d6178526f757465723a20494e53554646494349454e545f425f4160408201527f4d4f554e54000000000000000000000000000000000000000000000000000000606082015260800190565b815181526020808301519082015260409182015173ffffffffffffffffffffffffffffffffffffffff169181019190915260600190565b60006020825273ffffffffffffffffffffffffffffffffffffffff80845116602084015280602085015116604084015250604083015160608301526060830151608080840152614f1a60a0840182614fde565b60006020825282516003811061590657fe5b8060208401525073ffffffffffffffffffffffffffffffffffffffff602084015116604083015260ff60408401511660608301526060830151608080840152614f1a60a0840182614fde565b600060a08201905073ffffffffffffffffffffffffffffffffffffffff83511682526020830151602083015260408301516040830152606083015160608301526080830151608083015292915050565b90815260200190565b918252602082015260400190565b60405181810167ffffffffffffffff811182821017156159d857600080fd5b604052919050565b600067ffffffffffffffff8211156159f6578081fd5b50601f017fffffffffffffffffffffffffffffffffffffffffffffffffffffffffffffffe01660200190565b60005b83811015615a3d578181015183820152602001615a25565b838111156131425750506000910152565b73ffffffffffffffffffffffffffffffffffffffff81168114615a7057600080fd5b50565b6dffffffffffffffffffffffffffff81168114615a7057600080fd5b60ff81168114615a7057600080fdfea26469706673582212208b6dda9972dc49bb6eddd5fcee197f5420d64c5311c9e2f94965dd1908d58caf64736f6c63430006060033",
  "immutableReferences": {
    "3871": [
      {
        "length": 32,
        "start": 9935
      },
      {
        "length": 32,
        "start": 10588
      },
      {
        "length": 32,
        "start": 11852
      }
    ],
    "3874": [
      {
        "length": 32,
        "start": 10624
      },
      {
        "length": 32,
        "start": 11819
      }
    ],
    "3877": [
      {
        "length": 32,
        "start": 9339
      },
      {
        "length": 32,
        "start": 9902
      }
    ],
    "3880": [
      {
        "length": 32,
        "start": 450
      },
      {
        "length": 32,
        "start": 3759
      },
      {
        "length": 32,
        "start": 4276
      },
      {
        "length": 32,
        "start": 4599
      },
      {
        "length": 32,
        "start": 4781
      },
      {
        "length": 32,
        "start": 5115
      },
      {
        "length": 32,
        "start": 5238
      },
      {
        "length": 32,
        "start": 5423
      },
      {
        "length": 32,
        "start": 8254
      },
      {
        "length": 32,
        "start": 8364
      },
      {
        "length": 32,
        "start": 8497
      },
      {
        "length": 32,
        "start": 10552
      },
      {
        "length": 32,
        "start": 11101
      },
      {
        "length": 32,
        "start": 11224
      },
      {
        "length": 32,
        "start": 11409
      },
      {
        "length": 32,
        "start": 17682
      },
      {
        "length": 32,
        "start": 17825
      }
    ]
  },
  "source": "pragma solidity =0.6.6;\npragma experimental ABIEncoderV2;\n\nimport \"./interfaces/IRouter02.sol\";\nimport \"./interfaces/IPoolToken.sol\";\nimport \"./interfaces/IBorrowable.sol\";\nimport \"./interfaces/ICollateral.sol\";\nimport \"./interfaces/IImpermaxCallee.sol\";\nimport \"./interfaces/IERC20.sol\";\nimport \"./interfaces/IStakedLPToken01.sol\";\nimport \"./interfaces/IWETH.sol\";\nimport \"./interfaces/IUniswapV2Pair.sol\";\nimport \"./interfaces/IDexRouter.sol\";\nimport \"./libraries/SafeMath.sol\";\nimport \"./libraries/TransferHelper.sol\";\nimport \"./libraries/UniswapV2Library.sol\";\n\ncontract Router03 is IRouter02, IImpermaxCallee {\n    using SafeMath for uint256;\n\n    struct addLiquidityAndMintCollateralParams {\n        address router;\n        address tokenA;\n        address tokenB;\n        uint256 amountADesired;\n        uint256 amountBDesired;\n        uint256 amountAMin;\n        uint256 amountBMin;\n        uint256 deadline;\n        address poolToken;\n        address to;\n        bytes permitData;\n    }\n\n    address public immutable override factory;\n    address public immutable override bDeployer;\n    address public immutable override cDeployer;\n    address public immutable override WETH;\n\n    modifier ensure(uint256 deadline) {\n        require(deadline >= block.timestamp, \"ImpermaxRouter: EXPIRED\");\n        _;\n    }\n\n    modifier checkETH(address poolToken) {\n        require(WETH == IPoolToken(poolToken).underlying(), \"ImpermaxRouter: NOT_WETH\");\n        _;\n    }\n\n    constructor(address _factory, address _bDeployer, address _cDeployer, address _WETH) public {\n        factory = _factory;\n        bDeployer = _bDeployer;\n        cDeployer = _cDeployer;\n        WETH = _WETH;\n    }\n\n    receive() external payable {\n        assert(msg.sender == WETH); // only accept ETH via fallback from the WETH contract\n    }\n\n    /**\n     * Mint **\n     */\n\n    function _mint(address poolToken, address token, uint256 amount, address from, address to)\n        internal\n        virtual\n        returns (uint256 tokens)\n    {\n        if (from == address(this)) TransferHelper.safeTransfer(token, poolToken, amount);\n        else TransferHelper.safeTransferFrom(token, from, poolToken, amount);\n        tokens = IPoolToken(poolToken).mint(to);\n    }\n\n    function mint(address poolToken, uint256 amount, address to, uint256 deadline)\n        external\n        virtual\n        override\n        ensure(deadline)\n        returns (uint256 tokens)\n    {\n        return _mint(poolToken, IPoolToken(poolToken).underlying(), amount, msg.sender, to);\n    }\n\n    function mintETH(address poolToken, address to, uint256 deadline)\n        external\n        payable\n        virtual\n        override\n        ensure(deadline)\n        checkETH(poolToken)\n        returns (uint256 tokens)\n    {\n        IWETH(WETH).deposit{value: msg.value}();\n        return _mint(poolToken, WETH, msg.value, address(this), to);\n    }\n\n    function mintCollateral(address poolToken, uint256 amount, address to, uint256 deadline, bytes calldata permitData)\n        external\n        virtual\n        override\n        ensure(deadline)\n        returns (uint256 tokens)\n    {\n        address underlying = IPoolToken(poolToken).underlying();\n        if (isStakedLPToken(underlying)) {\n            address uniswapV2Pair = IStakedLPToken01(underlying).underlying();\n            _permit(uniswapV2Pair, amount, deadline, permitData);\n            TransferHelper.safeTransferFrom(uniswapV2Pair, msg.sender, underlying, amount);\n            IStakedLPToken01(underlying).mint(poolToken);\n            return IPoolToken(poolToken).mint(to);\n        } else {\n            _permit(underlying, amount, deadline, permitData);\n            return _mint(poolToken, underlying, amount, msg.sender, to);\n        }\n    }\n\n    /**\n     * Redeem **\n     */\n\n    function redeem(address poolToken, uint256 tokens, address to, uint256 deadline, bytes memory permitData)\n        public\n        virtual\n        override\n        ensure(deadline)\n        returns (uint256 amount)\n    {\n        _permit(poolToken, tokens, deadline, permitData);\n        IPoolToken(poolToken).transferFrom(msg.sender, poolToken, tokens);\n        address underlying = IPoolToken(poolToken).underlying();\n        if (isStakedLPToken(underlying)) {\n            IPoolToken(poolToken).redeem(underlying);\n            return IStakedLPToken01(underlying).redeem(to);\n        } else {\n            return IPoolToken(poolToken).redeem(to);\n        }\n    }\n\n    function redeemETH(address poolToken, uint256 tokens, address to, uint256 deadline, bytes memory permitData)\n        public\n        virtual\n        override\n        ensure(deadline)\n        checkETH(poolToken)\n        returns (uint256 amountETH)\n    {\n        _permit(poolToken, tokens, deadline, permitData);\n        IPoolToken(poolToken).transferFrom(msg.sender, poolToken, tokens);\n        amountETH = IPoolToken(poolToken).redeem(address(this));\n        IWETH(WETH).withdraw(amountETH);\n        TransferHelper.safeTransferETH(to, amountETH);\n    }\n\n    /**\n     * Borrow **\n     */\n\n    function borrow(address borrowable, uint256 amount, address to, uint256 deadline, bytes memory permitData)\n        public\n        virtual\n        override\n        ensure(deadline)\n    {\n        _borrowPermit(borrowable, amount, deadline, permitData);\n        IBorrowable(borrowable).borrow(msg.sender, to, amount, new bytes(0));\n    }\n\n    function borrowETH(address borrowable, uint256 amountETH, address to, uint256 deadline, bytes memory permitData)\n        public\n        virtual\n        override\n        ensure(deadline)\n        checkETH(borrowable)\n    {\n        borrow(borrowable, amountETH, address(this), deadline, permitData);\n        IWETH(WETH).withdraw(amountETH);\n        TransferHelper.safeTransferETH(to, amountETH);\n    }\n\n    /**\n     * Repay **\n     */\n\n    function _repayAmount(address borrowable, uint256 amountMax, address borrower)\n        internal\n        virtual\n        returns (uint256 amount)\n    {\n        IBorrowable(borrowable).accrueInterest();\n        uint256 borrowedAmount = IBorrowable(borrowable).borrowBalance(borrower);\n        amount = amountMax < borrowedAmount ? amountMax : borrowedAmount;\n    }\n\n    function repay(address borrowable, uint256 amountMax, address borrower, uint256 deadline)\n        external\n        virtual\n        override\n        ensure(deadline)\n        returns (uint256 amount)\n    {\n        amount = _repayAmount(borrowable, amountMax, borrower);\n        TransferHelper.safeTransferFrom(IBorrowable(borrowable).underlying(), msg.sender, borrowable, amount);\n        IBorrowable(borrowable).borrow(borrower, address(0), 0, new bytes(0));\n    }\n\n    function repayETH(address borrowable, address borrower, uint256 deadline)\n        external\n        payable\n        virtual\n        override\n        ensure(deadline)\n        checkETH(borrowable)\n        returns (uint256 amountETH)\n    {\n        amountETH = _repayAmount(borrowable, msg.value, borrower);\n        IWETH(WETH).deposit{value: amountETH}();\n        assert(IWETH(WETH).transfer(borrowable, amountETH));\n        IBorrowable(borrowable).borrow(borrower, address(0), 0, new bytes(0));\n        // refund surpluss eth, if any\n        if (msg.value > amountETH) TransferHelper.safeTransferETH(msg.sender, msg.value - amountETH);\n    }\n\n    /**\n     * Liquidate **\n     */\n\n    function liquidate(address borrowable, uint256 amountMax, address borrower, address to, uint256 deadline)\n        external\n        virtual\n        override\n        ensure(deadline)\n        returns (uint256 amount, uint256 seizeTokens)\n    {\n        amount = _repayAmount(borrowable, amountMax, borrower);\n        TransferHelper.safeTransferFrom(IBorrowable(borrowable).underlying(), msg.sender, borrowable, amount);\n        seizeTokens = IBorrowable(borrowable).liquidate(borrower, to);\n    }\n\n    function liquidateETH(address borrowable, address borrower, address to, uint256 deadline)\n        external\n        payable\n        virtual\n        override\n        ensure(deadline)\n        checkETH(borrowable)\n        returns (uint256 amountETH, uint256 seizeTokens)\n    {\n        amountETH = _repayAmount(borrowable, msg.value, borrower);\n        IWETH(WETH).deposit{value: amountETH}();\n        assert(IWETH(WETH).transfer(borrowable, amountETH));\n        seizeTokens = IBorrowable(borrowable).liquidate(borrower, to);\n        // refund surpluss eth, if any\n        if (msg.value > amountETH) TransferHelper.safeTransferETH(msg.sender, msg.value - amountETH);\n    }\n\n    /**\n     * Leverage LP Token **\n     */\n\n    function _leverage(address underlying, uint256 amountA, uint256 amountB, address to) internal virtual {\n        address borrowableA = getBorrowable(underlying, 0);\n        // mint collateral\n        bytes memory borrowBData = abi.encode(\n            CalleeData({\n                callType: CallType.ADD_LIQUIDITY_AND_MINT,\n                underlying: underlying,\n                borrowableIndex: 1,\n                data: abi.encode(AddLiquidityAndMintCalldata({amountA: amountA, amountB: amountB, to: to}))\n            })\n        );\n        // borrow borrowableB\n        bytes memory borrowAData = abi.encode(\n            CalleeData({\n                callType: CallType.BORROWB,\n                underlying: underlying,\n                borrowableIndex: 0,\n                data: abi.encode(\n                    BorrowBCalldata({\n                        borrower: msg.sender,\n                        receiver: address(this),\n                        borrowAmount: amountB,\n                        data: borrowBData\n                    })\n                    )\n            })\n        );\n        // borrow borrowableA\n        IBorrowable(borrowableA).borrow(msg.sender, address(this), amountA, borrowAData);\n    }\n\n    function leverage(\n        address underlying,\n        uint256 amountADesired,\n        uint256 amountBDesired,\n        uint256 amountAMin,\n        uint256 amountBMin,\n        address to,\n        uint256 deadline,\n        bytes calldata permitDataA,\n        bytes calldata permitDataB\n    ) external virtual override ensure(deadline) {\n        _borrowPermit(getBorrowable(underlying, 0), amountADesired, deadline, permitDataA);\n        _borrowPermit(getBorrowable(underlying, 1), amountBDesired, deadline, permitDataB);\n        address uniswapV2Pair = getUniswapV2Pair(underlying);\n        (uint256 amountA, uint256 amountB) =\n            _optimalLiquidity(uniswapV2Pair, amountADesired, amountBDesired, amountAMin, amountBMin);\n        _leverage(underlying, amountA, amountB, to);\n    }\n\n    function _addLiquidityAndMint(address underlying, uint256 amountA, uint256 amountB, address to) internal virtual {\n        (address collateral, address borrowableA, address borrowableB) = getLendingPool(underlying);\n        address uniswapV2Pair = getUniswapV2Pair(underlying);\n        // add liquidity to uniswap pair\n        TransferHelper.safeTransfer(IBorrowable(borrowableA).underlying(), uniswapV2Pair, amountA);\n        TransferHelper.safeTransfer(IBorrowable(borrowableB).underlying(), uniswapV2Pair, amountB);\n        // mint LP token\n        if (isStakedLPToken(underlying)) IUniswapV2Pair(uniswapV2Pair).mint(underlying);\n        IUniswapV2Pair(underlying).mint(collateral);\n        // mint collateral\n        ICollateral(collateral).mint(to);\n    }\n\n    /**\n     * Deleverage LP Token **\n     */\n\n    function deleverage(\n        address underlying,\n        uint256 redeemTokens,\n        uint256 amountAMin,\n        uint256 amountBMin,\n        uint256 deadline,\n        bytes calldata permitData\n    ) external virtual override ensure(deadline) {\n        address collateral = getCollateral(underlying);\n        uint256 exchangeRate = ICollateral(collateral).exchangeRate();\n        require(redeemTokens > 0, \"ImpermaxRouter: REDEEM_ZERO\");\n        uint256 redeemAmount = (redeemTokens - 1).mul(exchangeRate).div(1e18);\n        _permit(collateral, redeemTokens, deadline, permitData);\n        bytes memory redeemData = abi.encode(\n            CalleeData({\n                callType: CallType.REMOVE_LIQ_AND_REPAY,\n                underlying: underlying,\n                borrowableIndex: 0,\n                data: abi.encode(\n                    RemoveLiqAndRepayCalldata({\n                        borrower: msg.sender,\n                        redeemTokens: redeemTokens,\n                        redeemAmount: redeemAmount,\n                        amountAMin: amountAMin,\n                        amountBMin: amountBMin\n                    })\n                    )\n            })\n        );\n        // flashRedeem\n        ICollateral(collateral).flashRedeem(address(this), redeemAmount, redeemData);\n    }\n\n    function _removeLiqAndRepay(\n        address underlying,\n        address borrower,\n        uint256 redeemTokens,\n        uint256 redeemAmount,\n        uint256 amountAMin,\n        uint256 amountBMin\n    ) internal virtual {\n        (address collateral, address borrowableA, address borrowableB) = getLendingPool(underlying);\n        address tokenA = IBorrowable(borrowableA).underlying();\n        address tokenB = IBorrowable(borrowableB).underlying();\n        address uniswapV2Pair = getUniswapV2Pair(underlying);\n        // removeLiquidity\n        IUniswapV2Pair(underlying).transfer(underlying, redeemAmount);\n        //TransferHelper.safeTransfer(underlying, underlying, redeemAmount);\n        if (isStakedLPToken(underlying)) IStakedLPToken01(underlying).redeem(uniswapV2Pair);\n        (uint256 amountAMax, uint256 amountBMax) = IUniswapV2Pair(uniswapV2Pair).burn(address(this));\n        require(amountAMax >= amountAMin, \"ImpermaxRouter: INSUFFICIENT_A_AMOUNT\");\n        require(amountBMax >= amountBMin, \"ImpermaxRouter: INSUFFICIENT_B_AMOUNT\");\n        // repay and refund\n        _repayAndRefund(borrowableA, tokenA, borrower, amountAMax);\n        _repayAndRefund(borrowableB, tokenB, borrower, amountBMax);\n        // repay flash redeem\n        ICollateral(collateral).transferFrom(borrower, collateral, redeemTokens);\n    }\n\n    function _repayAndRefund(address borrowable, address token, address borrower, uint256 amountMax) internal virtual {\n        //repay\n        uint256 amount = _repayAmount(borrowable, amountMax, borrower);\n        TransferHelper.safeTransfer(token, borrowable, amount);\n        IBorrowable(borrowable).borrow(borrower, address(0), 0, new bytes(0));\n        // refund excess\n        if (amountMax > amount) {\n            uint256 refundAmount = amountMax - amount;\n            if (token == WETH) {\n                IWETH(WETH).withdraw(refundAmount);\n                TransferHelper.safeTransferETH(borrower, refundAmount);\n            } else {\n                TransferHelper.safeTransfer(token, borrower, refundAmount);\n            }\n        }\n    }\n\n    /**\n     * Impermax Callee **\n     */\n\n    enum CallType {\n        ADD_LIQUIDITY_AND_MINT,\n        BORROWB,\n        REMOVE_LIQ_AND_REPAY\n    }\n\n    struct CalleeData {\n        CallType callType;\n        address underlying;\n        uint8 borrowableIndex;\n        bytes data;\n    }\n\n    struct AddLiquidityAndMintCalldata {\n        uint256 amountA;\n        uint256 amountB;\n        address to;\n    }\n\n    struct BorrowBCalldata {\n        address borrower;\n        address receiver;\n        uint256 borrowAmount;\n        bytes data;\n    }\n\n    struct RemoveLiqAndRepayCalldata {\n        address borrower;\n        uint256 redeemTokens;\n        uint256 redeemAmount;\n        uint256 amountAMin;\n        uint256 amountBMin;\n    }\n\n    function impermaxBorrow(address sender, address borrower, uint256 borrowAmount, bytes calldata data)\n        external\n        virtual\n        override\n    {\n        borrower;\n        borrowAmount;\n        CalleeData memory calleeData = abi.decode(data, (CalleeData));\n        address declaredCaller = getBorrowable(calleeData.underlying, calleeData.borrowableIndex);\n        // only succeeds if called by a borrowable and if that borrowable has been called by the router\n        require(sender == address(this), \"ImpermaxRouter: SENDER_NOT_ROUTER\");\n        require(msg.sender == declaredCaller, \"ImpermaxRouter: UNAUTHORIZED_CALLER\");\n        if (calleeData.callType == CallType.ADD_LIQUIDITY_AND_MINT) {\n            AddLiquidityAndMintCalldata memory d = abi.decode(calleeData.data, (AddLiquidityAndMintCalldata));\n            _addLiquidityAndMint(calleeData.underlying, d.amountA, d.amountB, d.to);\n        } else if (calleeData.callType == CallType.BORROWB) {\n            BorrowBCalldata memory d = abi.decode(calleeData.data, (BorrowBCalldata));\n            address borrowableB = getBorrowable(calleeData.underlying, 1);\n            IBorrowable(borrowableB).borrow(d.borrower, d.receiver, d.borrowAmount, d.data);\n        } else {\n            revert();\n        }\n    }\n\n    function impermaxRedeem(address sender, uint256 redeemAmount, bytes calldata data) external virtual override {\n        redeemAmount;\n        CalleeData memory calleeData = abi.decode(data, (CalleeData));\n        address declaredCaller = getCollateral(calleeData.underlying);\n        // only succeeds if called by a collateral and if that collateral has been called by the router\n        require(sender == address(this), \"ImpermaxRouter: SENDER_NOT_ROUTER\");\n        require(msg.sender == declaredCaller, \"ImpermaxRouter: UNAUTHORIZED_CALLER\");\n        if (calleeData.callType == CallType.REMOVE_LIQ_AND_REPAY) {\n            RemoveLiqAndRepayCalldata memory d = abi.decode(calleeData.data, (RemoveLiqAndRepayCalldata));\n            _removeLiqAndRepay(\n                calleeData.underlying, d.borrower, d.redeemTokens, d.redeemAmount, d.amountAMin, d.amountBMin\n            );\n        } else {\n            revert();\n        }\n    }\n\n    /**\n     * Utilities **\n     */\n\n    function _permit(address poolToken, uint256 amount, uint256 deadline, bytes memory permitData) internal virtual {\n        if (permitData.length == 0) return;\n        (bool approveMax, uint8 v, bytes32 r, bytes32 s) = abi.decode(permitData, (bool, uint8, bytes32, bytes32));\n        uint256 value = approveMax ? uint256(-1) : amount;\n        IPoolToken(poolToken).permit(msg.sender, address(this), value, deadline, v, r, s);\n    }\n\n    function _borrowPermit(address borrowable, uint256 amount, uint256 deadline, bytes memory permitData)\n        internal\n        virtual\n    {\n        if (permitData.length == 0) return;\n        (bool approveMax, uint8 v, bytes32 r, bytes32 s) = abi.decode(permitData, (bool, uint8, bytes32, bytes32));\n        uint256 value = approveMax ? uint256(-1) : amount;\n        IBorrowable(borrowable).borrowPermit(msg.sender, address(this), value, deadline, v, r, s);\n    }\n\n    function _optimalLiquidity(\n        address uniswapV2Pair,\n        uint256 amountADesired,\n        uint256 amountBDesired,\n        uint256 amountAMin,\n        uint256 amountBMin\n    ) public view virtual returns (uint256 amountA, uint256 amountB) {\n        (uint256 reserveA, uint256 reserveB,) = IUniswapV2Pair(uniswapV2Pair).getReserves();\n        uint256 amountBOptimal = UniswapV2Library.quote(amountADesired, reserveA, reserveB);\n        if (amountBOptimal <= amountBDesired) {\n            require(amountBOptimal >= amountBMin, \"ImpermaxRouter: INSUFFICIENT_B_AMOUNT\");\n            (amountA, amountB) = (amountADesired, amountBOptimal);\n        } else {\n            uint256 amountAOptimal = UniswapV2Library.quote(amountBDesired, reserveB, reserveA);\n            assert(amountAOptimal <= amountADesired);\n            require(amountAOptimal >= amountAMin, \"ImpermaxRouter: INSUFFICIENT_A_AMOUNT\");\n            (amountA, amountB) = (amountAOptimal, amountBDesired);\n        }\n    }\n\n    function isStakedLPToken(address underlying) public view virtual override returns (bool) {\n        try IStakedLPToken01(underlying).isStakedLPToken() returns (bool result) {\n            return result;\n        } catch {\n            return false;\n        }\n    }\n\n    function getUniswapV2Pair(address underlying) public view virtual override returns (address) {\n        try IStakedLPToken01(underlying).underlying() returns (address u) {\n            if (u != address(0)) return u;\n            return underlying;\n        } catch {\n            return underlying;\n        }\n    }\n\n    function getBorrowable(address underlying, uint8 index) public view virtual override returns (address borrowable) {\n        require(index < 2, \"ImpermaxRouter: INDEX_TOO_HIGH\");\n        borrowable = address(\n            uint256(\n                keccak256(\n                    abi.encodePacked(\n                        hex\"ff\",\n                        bDeployer,\n                        keccak256(abi.encodePacked(factory, underlying, index)),\n                        hex\"605ba1db56496978613939baf0ae31dccceea3f5ca53dfaa76512bc880d7bb8f\" // Borrowable bytecode keccak256\n                    )\n                )\n            )\n        );\n    }\n\n    function getCollateral(address underlying) public view virtual override returns (address collateral) {\n        collateral = address(\n            uint256(\n                keccak256(\n                    abi.encodePacked(\n                        hex\"ff\",\n                        cDeployer,\n                        keccak256(abi.encodePacked(factory, underlying)),\n                        hex\"4b8788d8761647e6330407671d3c6c80afaed3d047800dba0e0e3befde047767\" // Collateral bytecode keccak256\n                    )\n                )\n            )\n        );\n    }\n\n    function getLendingPool(address underlying)\n        public\n        view\n        virtual\n        override\n        returns (address collateral, address borrowableA, address borrowableB)\n    {\n        collateral = getCollateral(underlying);\n        borrowableA = getBorrowable(underlying, 0);\n        borrowableB = getBorrowable(underlying, 1);\n    }\n\n    function addLiquidityAndMintCollateral(addLiquidityAndMintCollateralParams calldata params)\n        external\n        ensure(params.deadline)\n        returns (uint256 tokens)\n    {\n        TransferHelper.safeTransferFrom(params.tokenA, msg.sender, address(this), params.amountADesired);\n        TransferHelper.safeTransferFrom(params.tokenB, msg.sender, address(this), params.amountBDesired);\n        (uint256 amountA, uint256 amountB, uint256 liquidity) = IDexRouter(params.router).addLiquidity(\n            params.tokenA,\n            params.tokenB,\n            params.amountADesired,\n            params.amountBDesired,\n            params.amountAMin,\n            params.amountBMin,\n            address(this),\n            params.deadline\n        );\n        tokens = _mintCollateral(params.poolToken, params.to, params.deadline);\n        if (IERC20(params.tokenA).balanceOf(address(this)) > 0) {\n            IERC20(params.tokenA).transfer(msg.sender, IERC20(params.tokenA).balanceOf(address(this)));\n        }\n        if (IERC20(params.tokenB).balanceOf(address(this)) > 0) {\n            IERC20(params.tokenB).transfer(msg.sender, IERC20(params.tokenB).balanceOf(address(this)));\n        }\n    }\n\n    function _mintCollateral(address poolToken, address to, uint256 deadline)\n        internal\n        ensure(deadline)\n        returns (uint256 tokens)\n    {\n        address underlying = IPoolToken(poolToken).underlying();\n        IStakedLPToken01(underlying).mint(poolToken);\n        return IPoolToken(poolToken).mint(to);\n    }\n}\n",
  "sourcePath": "/Users/allenlin/code/impermax-x-uniswapv2-periphery/contracts/Router03.sol",
  "compiler": {
    "name": "solc",
    "version": "0.6.6+commit.6c089d02.Emscripten.clang"
  },
  "schemaVersion": "3.2.3",
  "updatedAt": "2023-05-24T21:15:58.129Z",
  "devdoc": {
    "methods": {}
  },
  "userdoc": {
    "methods": {
      "borrow(address,uint256,address,uint256,bytes)": {
        "notice": "Borrow **"
      },
      "deleverage(address,uint256,uint256,uint256,uint256,bytes)": {
        "notice": "Deleverage LP Token **"
      },
      "liquidate(address,uint256,address,address,uint256)": {
        "notice": "Liquidate **"
      },
      "redeem(address,uint256,address,uint256,bytes)": {
        "notice": "Redeem **"
      }
    }
  }
}