{
  "contractName": "Router03",
  "abi": [
    {
      "inputs": [
        {
          "internalType": "address",
          "name": "_factory",
          "type": "address"
        },
        {
          "internalType": "address",
          "name": "_WETH",
          "type": "address"
        }
      ],
      "stateMutability": "nonpayable",
      "type": "constructor"
    },
    {
      "inputs": [],
      "name": "WETH",
      "outputs": [
        {
          "internalType": "address",
          "name": "",
          "type": "address"
        }
      ],
      "stateMutability": "view",
      "type": "function"
    },
    {
      "inputs": [],
      "name": "factory",
      "outputs": [
        {
          "internalType": "address",
          "name": "",
          "type": "address"
        }
      ],
      "stateMutability": "view",
      "type": "function"
    },
    {
      "stateMutability": "payable",
      "type": "receive"
    },
    {
      "inputs": [
        {
          "internalType": "address",
          "name": "poolToken",
          "type": "address"
        },
        {
          "internalType": "uint256",
          "name": "amount",
          "type": "uint256"
        },
        {
          "internalType": "address",
          "name": "to",
          "type": "address"
        },
        {
          "internalType": "uint256",
          "name": "deadline",
          "type": "uint256"
        }
      ],
      "name": "mint",
      "outputs": [
        {
          "internalType": "uint256",
          "name": "tokens",
          "type": "uint256"
        }
      ],
      "stateMutability": "nonpayable",
      "type": "function"
    },
    {
      "inputs": [
        {
          "internalType": "address",
          "name": "poolToken",
          "type": "address"
        },
        {
          "internalType": "address",
          "name": "to",
          "type": "address"
        },
        {
          "internalType": "uint256",
          "name": "deadline",
          "type": "uint256"
        }
      ],
      "name": "mintETH",
      "outputs": [
        {
          "internalType": "uint256",
          "name": "tokens",
          "type": "uint256"
        }
      ],
      "stateMutability": "payable",
      "type": "function"
    },
    {
      "inputs": [
        {
          "internalType": "address",
          "name": "poolToken",
          "type": "address"
        },
        {
          "internalType": "uint256",
          "name": "amount",
          "type": "uint256"
        },
        {
          "internalType": "address",
          "name": "to",
          "type": "address"
        },
        {
          "internalType": "uint256",
          "name": "deadline",
          "type": "uint256"
        },
        {
          "internalType": "bytes",
          "name": "permitData",
          "type": "bytes"
        }
      ],
      "name": "mintCollateral",
      "outputs": [
        {
          "internalType": "uint256",
          "name": "tokens",
          "type": "uint256"
        }
      ],
      "stateMutability": "nonpayable",
      "type": "function"
    },
    {
      "inputs": [
        {
          "internalType": "address",
          "name": "poolToken",
          "type": "address"
        },
        {
          "internalType": "uint256",
          "name": "tokens",
          "type": "uint256"
        },
        {
          "internalType": "address",
          "name": "to",
          "type": "address"
        },
        {
          "internalType": "uint256",
          "name": "deadline",
          "type": "uint256"
        },
        {
          "internalType": "bytes",
          "name": "permitData",
          "type": "bytes"
        }
      ],
      "name": "redeem",
      "outputs": [
        {
          "internalType": "uint256",
          "name": "amount",
          "type": "uint256"
        }
      ],
      "stateMutability": "nonpayable",
      "type": "function"
    },
    {
      "inputs": [
        {
          "internalType": "address",
          "name": "poolToken",
          "type": "address"
        },
        {
          "internalType": "uint256",
          "name": "tokens",
          "type": "uint256"
        },
        {
          "internalType": "address",
          "name": "to",
          "type": "address"
        },
        {
          "internalType": "uint256",
          "name": "deadline",
          "type": "uint256"
        },
        {
          "internalType": "bytes",
          "name": "permitData",
          "type": "bytes"
        }
      ],
      "name": "redeemETH",
      "outputs": [
        {
          "internalType": "uint256",
          "name": "amountETH",
          "type": "uint256"
        }
      ],
      "stateMutability": "nonpayable",
      "type": "function"
    },
    {
      "inputs": [
        {
          "internalType": "address",
          "name": "borrowable",
          "type": "address"
        },
        {
          "internalType": "uint256",
          "name": "amount",
          "type": "uint256"
        },
        {
          "internalType": "address",
          "name": "to",
          "type": "address"
        },
        {
          "internalType": "uint256",
          "name": "deadline",
          "type": "uint256"
        },
        {
          "internalType": "bytes",
          "name": "permitData",
          "type": "bytes"
        }
      ],
      "name": "borrow",
      "outputs": [],
      "stateMutability": "nonpayable",
      "type": "function"
    },
    {
      "inputs": [
        {
          "internalType": "address",
          "name": "borrowable",
          "type": "address"
        },
        {
          "internalType": "uint256",
          "name": "amountETH",
          "type": "uint256"
        },
        {
          "internalType": "address",
          "name": "to",
          "type": "address"
        },
        {
          "internalType": "uint256",
          "name": "deadline",
          "type": "uint256"
        },
        {
          "internalType": "bytes",
          "name": "permitData",
          "type": "bytes"
        }
      ],
      "name": "borrowETH",
      "outputs": [],
      "stateMutability": "nonpayable",
      "type": "function"
    },
    {
      "inputs": [
        {
          "internalType": "address",
          "name": "borrowable",
          "type": "address"
        },
        {
          "internalType": "uint256",
          "name": "amountMax",
          "type": "uint256"
        },
        {
          "internalType": "address",
          "name": "borrower",
          "type": "address"
        },
        {
          "internalType": "uint256",
          "name": "deadline",
          "type": "uint256"
        }
      ],
      "name": "repay",
      "outputs": [
        {
          "internalType": "uint256",
          "name": "amount",
          "type": "uint256"
        }
      ],
      "stateMutability": "nonpayable",
      "type": "function"
    },
    {
      "inputs": [
        {
          "internalType": "address",
          "name": "borrowable",
          "type": "address"
        },
        {
          "internalType": "address",
          "name": "borrower",
          "type": "address"
        },
        {
          "internalType": "uint256",
          "name": "deadline",
          "type": "uint256"
        }
      ],
      "name": "repayETH",
      "outputs": [
        {
          "internalType": "uint256",
          "name": "amountETH",
          "type": "uint256"
        }
      ],
      "stateMutability": "payable",
      "type": "function"
    },
    {
      "inputs": [
        {
          "internalType": "address",
          "name": "borrowable",
          "type": "address"
        },
        {
          "internalType": "uint256",
          "name": "amountMax",
          "type": "uint256"
        },
        {
          "internalType": "address",
          "name": "borrower",
          "type": "address"
        },
        {
          "internalType": "address",
          "name": "to",
          "type": "address"
        },
        {
          "internalType": "uint256",
          "name": "deadline",
          "type": "uint256"
        }
      ],
      "name": "liquidate",
      "outputs": [
        {
          "internalType": "uint256",
          "name": "amount",
          "type": "uint256"
        },
        {
          "internalType": "uint256",
          "name": "seizeTokens",
          "type": "uint256"
        }
      ],
      "stateMutability": "nonpayable",
      "type": "function"
    },
    {
      "inputs": [
        {
          "internalType": "address",
          "name": "borrowable",
          "type": "address"
        },
        {
          "internalType": "address",
          "name": "borrower",
          "type": "address"
        },
        {
          "internalType": "address",
          "name": "to",
          "type": "address"
        },
        {
          "internalType": "uint256",
          "name": "deadline",
          "type": "uint256"
        }
      ],
      "name": "liquidateETH",
      "outputs": [
        {
          "internalType": "uint256",
          "name": "amountETH",
          "type": "uint256"
        },
        {
          "internalType": "uint256",
          "name": "seizeTokens",
          "type": "uint256"
        }
      ],
      "stateMutability": "payable",
      "type": "function"
    },
    {
      "inputs": [
        {
          "internalType": "address",
          "name": "underlying",
          "type": "address"
        },
        {
          "internalType": "uint256",
          "name": "amountADesired",
          "type": "uint256"
        },
        {
          "internalType": "uint256",
          "name": "amountBDesired",
          "type": "uint256"
        },
        {
          "internalType": "uint256",
          "name": "amountAMin",
          "type": "uint256"
        },
        {
          "internalType": "uint256",
          "name": "amountBMin",
          "type": "uint256"
        },
        {
          "internalType": "address",
          "name": "to",
          "type": "address"
        },
        {
          "internalType": "uint256",
          "name": "deadline",
          "type": "uint256"
        },
        {
          "internalType": "bytes",
          "name": "permitDataA",
          "type": "bytes"
        },
        {
          "internalType": "bytes",
          "name": "permitDataB",
          "type": "bytes"
        }
      ],
      "name": "leverage",
      "outputs": [],
      "stateMutability": "nonpayable",
      "type": "function"
    },
    {
      "inputs": [
        {
          "internalType": "address",
          "name": "underlying",
          "type": "address"
        },
        {
          "internalType": "uint256",
          "name": "redeemTokens",
          "type": "uint256"
        },
        {
          "internalType": "uint256",
          "name": "amountAMin",
          "type": "uint256"
        },
        {
          "internalType": "uint256",
          "name": "amountBMin",
          "type": "uint256"
        },
        {
          "internalType": "uint256",
          "name": "deadline",
          "type": "uint256"
        },
        {
          "internalType": "bytes",
          "name": "permitData",
          "type": "bytes"
        }
      ],
      "name": "deleverage",
      "outputs": [],
      "stateMutability": "nonpayable",
      "type": "function"
    },
    {
      "inputs": [
        {
          "internalType": "address",
          "name": "sender",
          "type": "address"
        },
        {
          "internalType": "address",
          "name": "borrower",
          "type": "address"
        },
        {
          "internalType": "uint256",
          "name": "borrowAmount",
          "type": "uint256"
        },
        {
          "internalType": "bytes",
          "name": "data",
          "type": "bytes"
        }
      ],
      "name": "impermaxBorrow",
      "outputs": [],
      "stateMutability": "nonpayable",
      "type": "function"
    },
    {
      "inputs": [
        {
          "internalType": "address",
          "name": "sender",
          "type": "address"
        },
        {
          "internalType": "uint256",
          "name": "redeemAmount",
          "type": "uint256"
        },
        {
          "internalType": "bytes",
          "name": "data",
          "type": "bytes"
        }
      ],
      "name": "impermaxRedeem",
      "outputs": [],
      "stateMutability": "nonpayable",
      "type": "function"
    },
    {
      "inputs": [
        {
          "internalType": "address",
          "name": "uniswapV2Pair",
          "type": "address"
        },
        {
          "internalType": "uint256",
          "name": "amountADesired",
          "type": "uint256"
        },
        {
          "internalType": "uint256",
          "name": "amountBDesired",
          "type": "uint256"
        },
        {
          "internalType": "uint256",
          "name": "amountAMin",
          "type": "uint256"
        },
        {
          "internalType": "uint256",
          "name": "amountBMin",
          "type": "uint256"
        }
      ],
      "name": "_optimalLiquidity",
      "outputs": [
        {
          "internalType": "uint256",
          "name": "amountA",
          "type": "uint256"
        },
        {
          "internalType": "uint256",
          "name": "amountB",
          "type": "uint256"
        }
      ],
      "stateMutability": "view",
      "type": "function"
    },
    {
      "inputs": [
        {
          "internalType": "address",
          "name": "underlying",
          "type": "address"
        }
      ],
      "name": "isStakedLPToken",
      "outputs": [
        {
          "internalType": "bool",
          "name": "",
          "type": "bool"
        }
      ],
      "stateMutability": "view",
      "type": "function"
    },
    {
      "inputs": [
        {
          "internalType": "address",
          "name": "underlying",
          "type": "address"
        }
      ],
      "name": "getUniswapV2Pair",
      "outputs": [
        {
          "internalType": "address",
          "name": "",
          "type": "address"
        }
      ],
      "stateMutability": "view",
      "type": "function"
    },
    {
      "inputs": [
        {
          "internalType": "address",
          "name": "underlying",
          "type": "address"
        },
        {
          "internalType": "uint8",
          "name": "index",
          "type": "uint8"
        }
      ],
      "name": "getBorrowable",
      "outputs": [
        {
          "internalType": "address",
          "name": "borrowable",
          "type": "address"
        }
      ],
      "stateMutability": "view",
      "type": "function"
    },
    {
      "inputs": [
        {
          "internalType": "address",
          "name": "underlying",
          "type": "address"
        }
      ],
      "name": "getCollateral",
      "outputs": [
        {
          "internalType": "address",
          "name": "collateral",
          "type": "address"
        }
      ],
      "stateMutability": "view",
      "type": "function"
    },
    {
      "inputs": [
        {
          "internalType": "address",
          "name": "underlying",
          "type": "address"
        }
      ],
      "name": "getLendingPool",
      "outputs": [
        {
          "internalType": "address",
          "name": "collateral",
          "type": "address"
        },
        {
          "internalType": "address",
          "name": "borrowableA",
          "type": "address"
        },
        {
          "internalType": "address",
          "name": "borrowableB",
          "type": "address"
        }
      ],
      "stateMutability": "view",
      "type": "function"
    }
  ],
  "bytecode": "0x60c06040523480156200001157600080fd5b50604051620054e9380380620054e9833981016040819052620000349162000053565b6001600160601b0319606092831b8116608052911b1660a052620000aa565b6000806040838503121562000066578182fd5b8251620000738162000091565b6020840151909250620000868162000091565b809150509250929050565b6001600160a01b0381168114620000a757600080fd5b50565b60805160601c60a05160601c6153bb6200012e600039806101a152806109b85280610c765280610db95280610e6f5280610fbd528061103852806110f15280611c005280611c6e5280611cf352806125ae52806127af528061282a52806128e35280613fc2528061405152508061234952806125d25280612a8052506153bb6000f3fe6080604052600436106101845760003560e01c8063703de94c116100d6578063ad5c46481161007f578063eb03419a11610059578063eb03419a1461046c578063ef974e9c1461047f578063fcb2a8951461049f576101ca565b8063ad5c464814610422578063c45a015514610437578063dbe5f2fb1461044c576101ca565b80639b56d6c9116100b05780639b56d6c9146103b5578063a3c252a0146103d5578063acb86cbb14610402576101ca565b8063703de94c1461036257806377370d6214610375578063876d9d9e14610395576101ca565b80633970036a116101385780635c1e6404116101125780635c1e6404146102f457806367bf252f146103225780636aee7c1e14610342576101ca565b80633970036a146102875780633c173a4f146102b457806343e26448146102d4576101ca565b80632b005cfc116101695780632b005cfc146102345780632c3445041461025457806335bb105914610274576101ca565b80630572bf5f146101cf5780631f1cc5bc14610207576101ca565b366101ca573373ffffffffffffffffffffffffffffffffffffffff7f000000000000000000000000000000000000000000000000000000000000000016146101c857fe5b005b600080fd5b3480156101db57600080fd5b506101ef6101ea36600461425b565b6104bf565b6040516101fe93929190614c57565b60405180910390f35b34801561021357600080fd5b5061022761022236600461449f565b6104ef565b6040516101fe9190615289565b34801561024057600080fd5b5061022761024f36600461449f565b6108e4565b34801561026057600080fd5b506101c861026f36600461449f565b610ce7565b6102276102823660046142e3565b610ee9565b34801561029357600080fd5b506102a76102a236600461425b565b611236565b6040516101fe9190614b1c565b3480156102c057600080fd5b506102276102cf3660046143ee565b611304565b3480156102e057600080fd5b506102276102ef366004614425565b6113d5565b34801561030057600080fd5b5061031461030f366004614394565b611722565b6040516101fe929190615292565b34801561032e57600080fd5b506101c861033d3660046145b0565b6118a9565b34801561034e57600080fd5b5061022761035d3660046143ee565b6119ba565b6102276103703660046142e3565b611b2c565b34801561038157600080fd5b506101c861039036600461467f565b611d1a565b3480156103a157600080fd5b506101c86103b0366004614323565b6120fc565b3480156103c157600080fd5b506102a76103d036600461425b565b612309565b3480156103e157600080fd5b506103f56103f036600461425b565b6123d9565b6040516101fe9190614cad565b34801561040e57600080fd5b506101c861041d366004614513565b612482565b34801561042e57600080fd5b506102a76125ac565b34801561044357600080fd5b506102a76125d0565b34801561045857600080fd5b506101c861046736600461449f565b6125f4565b61031461047a366004614293565b6126da565b34801561048b57600080fd5b506102a761049a3660046146fa565b612a3c565b3480156104ab57600080fd5b506103146104ba36600461456d565b612b4c565b60008060006104cd84612309565b92506104da846000612a3c565b91506104e7846001612a3c565b929491935050565b60008242811015610535576040517f08c379a000000000000000000000000000000000000000000000000000000000815260040161052c90614e9c565b60405180910390fd5b61054187878686612cb6565b6040517f70a0823100000000000000000000000000000000000000000000000000000000815260009073ffffffffffffffffffffffffffffffffffffffff8916906370a0823190610596903390600401614b1c565b60206040518083038186803b1580156105ae57600080fd5b505afa1580156105c2573d6000803e3d6000fd5b505050506040513d601f19601f820116820180604052508101906105e69190614a7b565b90508087106105f557806105f7565b865b6040517f23b872dd00000000000000000000000000000000000000000000000000000000815290975073ffffffffffffffffffffffffffffffffffffffff8916906323b872dd906106509033908c908c90600401614bca565b602060405180830381600087803b15801561066a57600080fd5b505af115801561067e573d6000803e3d6000fd5b505050506040513d601f19601f820116820180604052508101906106a29190614732565b5060008873ffffffffffffffffffffffffffffffffffffffff16636f307dc36040518163ffffffff1660e01b815260040160206040518083038186803b1580156106eb57600080fd5b505afa1580156106ff573d6000803e3d6000fd5b505050506040513d601f19601f820116820180604052508101906107239190614277565b905061072e816123d9565b15610885576040517f95a2251f00000000000000000000000000000000000000000000000000000000815273ffffffffffffffffffffffffffffffffffffffff8a16906395a2251f90610785908490600401614b1c565b602060405180830381600087803b15801561079f57600080fd5b505af11580156107b3573d6000803e3d6000fd5b505050506040513d601f19601f820116820180604052508101906107d79190614a7b565b506040517f95a2251f00000000000000000000000000000000000000000000000000000000815273ffffffffffffffffffffffffffffffffffffffff8216906395a2251f9061082a908a90600401614b1c565b602060405180830381600087803b15801561084457600080fd5b505af1158015610858573d6000803e3d6000fd5b505050506040513d601f19601f8201168201806040525081019061087c9190614a7b565b935050506108da565b6040517f95a2251f00000000000000000000000000000000000000000000000000000000815273ffffffffffffffffffffffffffffffffffffffff8a16906395a2251f9061082a908a90600401614b1c565b50505b5095945050505050565b60008242811015610921576040517f08c379a000000000000000000000000000000000000000000000000000000000815260040161052c90614e9c565b868073ffffffffffffffffffffffffffffffffffffffff16636f307dc36040518163ffffffff1660e01b815260040160206040518083038186803b15801561096857600080fd5b505afa15801561097c573d6000803e3d6000fd5b505050506040513d601f19601f820116820180604052508101906109a09190614277565b73ffffffffffffffffffffffffffffffffffffffff167f000000000000000000000000000000000000000000000000000000000000000073ffffffffffffffffffffffffffffffffffffffff1614610a24576040517f08c379a000000000000000000000000000000000000000000000000000000000815260040161052c90615058565b610a3088888787612cb6565b6040517f70a0823100000000000000000000000000000000000000000000000000000000815260009073ffffffffffffffffffffffffffffffffffffffff8a16906370a0823190610a85903390600401614b1c565b60206040518083038186803b158015610a9d57600080fd5b505afa158015610ab1573d6000803e3d6000fd5b505050506040513d601f19601f82011682018060405250810190610ad59190614a7b565b9050808810610ae45780610ae6565b875b6040517f23b872dd00000000000000000000000000000000000000000000000000000000815290985073ffffffffffffffffffffffffffffffffffffffff8a16906323b872dd90610b3f9033908d908d90600401614bca565b602060405180830381600087803b158015610b5957600080fd5b505af1158015610b6d573d6000803e3d6000fd5b505050506040513d601f19601f82011682018060405250810190610b919190614732565b506040517f95a2251f00000000000000000000000000000000000000000000000000000000815273ffffffffffffffffffffffffffffffffffffffff8a16906395a2251f90610be4903090600401614b1c565b602060405180830381600087803b158015610bfe57600080fd5b505af1158015610c12573d6000803e3d6000fd5b505050506040513d601f19601f82011682018060405250810190610c369190614a7b565b6040517f2e1a7d4d00000000000000000000000000000000000000000000000000000000815290945073ffffffffffffffffffffffffffffffffffffffff7f00000000000000000000000000000000000000000000000000000000000000001690632e1a7d4d90610cab908790600401615289565b600060405180830381600087803b158015610cc557600080fd5b505af1158015610cd9573d6000803e3d6000fd5b505050506108d78785612db1565b8142811015610d22576040517f08c379a000000000000000000000000000000000000000000000000000000000815260040161052c90614e9c565b858073ffffffffffffffffffffffffffffffffffffffff16636f307dc36040518163ffffffff1660e01b815260040160206040518083038186803b158015610d6957600080fd5b505afa158015610d7d573d6000803e3d6000fd5b505050506040513d601f19601f82011682018060405250810190610da19190614277565b73ffffffffffffffffffffffffffffffffffffffff167f000000000000000000000000000000000000000000000000000000000000000073ffffffffffffffffffffffffffffffffffffffff1614610e25576040517f08c379a000000000000000000000000000000000000000000000000000000000815260040161052c90615058565b610e3287873087876125f4565b6040517f2e1a7d4d00000000000000000000000000000000000000000000000000000000815273ffffffffffffffffffffffffffffffffffffffff7f00000000000000000000000000000000000000000000000000000000000000001690632e1a7d4d90610ea4908990600401615289565b600060405180830381600087803b158015610ebe57600080fd5b505af1158015610ed2573d6000803e3d6000fd5b50505050610ee08587612db1565b50505050505050565b60008142811015610f26576040517f08c379a000000000000000000000000000000000000000000000000000000000815260040161052c90614e9c565b848073ffffffffffffffffffffffffffffffffffffffff16636f307dc36040518163ffffffff1660e01b815260040160206040518083038186803b158015610f6d57600080fd5b505afa158015610f81573d6000803e3d6000fd5b505050506040513d601f19601f82011682018060405250810190610fa59190614277565b73ffffffffffffffffffffffffffffffffffffffff167f000000000000000000000000000000000000000000000000000000000000000073ffffffffffffffffffffffffffffffffffffffff1614611029576040517f08c379a000000000000000000000000000000000000000000000000000000000815260040161052c90615058565b611034863487612e6a565b92507f000000000000000000000000000000000000000000000000000000000000000073ffffffffffffffffffffffffffffffffffffffff1663d0e30db0846040518263ffffffff1660e01b81526004016000604051808303818588803b15801561109e57600080fd5b505af11580156110b2573d6000803e3d6000fd5b50506040517fa9059cbb00000000000000000000000000000000000000000000000000000000815273ffffffffffffffffffffffffffffffffffffffff7f000000000000000000000000000000000000000000000000000000000000000016935063a9059cbb925061112b915089908790600401614c87565b602060405180830381600087803b15801561114557600080fd5b505af1158015611159573d6000803e3d6000fd5b505050506040513d601f19601f8201168201806040525081019061117d9190614732565b61118357fe5b60408051600080825260208201928390527f1e7dcc0d0000000000000000000000000000000000000000000000000000000090925273ffffffffffffffffffffffffffffffffffffffff881691631e7dcc0d916111e7918991819060248101614b3d565b600060405180830381600087803b15801561120157600080fd5b505af1158015611215573d6000803e3d6000fd5b505050508234111561122d5761122d33843403612db1565b50509392505050565b60008173ffffffffffffffffffffffffffffffffffffffff16636f307dc36040518163ffffffff1660e01b815260040160206040518083038186803b15801561127e57600080fd5b505afa9250505080156112cc575060408051601f3d9081017fffffffffffffffffffffffffffffffffffffffffffffffffffffffffffffffe01682019092526112c991810190614277565b60015b6112d75750806112ff565b73ffffffffffffffffffffffffffffffffffffffff8116156112fa5790506112ff565b829150505b919050565b60008142811015611341576040517f08c379a000000000000000000000000000000000000000000000000000000000815260040161052c90614e9c565b6113cb868773ffffffffffffffffffffffffffffffffffffffff16636f307dc36040518163ffffffff1660e01b815260040160206040518083038186803b15801561138b57600080fd5b505afa15801561139f573d6000803e3d6000fd5b505050506040513d601f19601f820116820180604052508101906113c39190614277565b873388612f8b565b9695505050505050565b60008342811015611412576040517f08c379a000000000000000000000000000000000000000000000000000000000815260040161052c90614e9c565b60008873ffffffffffffffffffffffffffffffffffffffff16636f307dc36040518163ffffffff1660e01b815260040160206040518083038186803b15801561145a57600080fd5b505afa15801561146e573d6000803e3d6000fd5b505050506040513d601f19601f820116820180604052508101906114929190614277565b905061149d816123d9565b156116c45760008173ffffffffffffffffffffffffffffffffffffffff16636f307dc36040518163ffffffff1660e01b815260040160206040518083038186803b1580156114ea57600080fd5b505afa1580156114fe573d6000803e3d6000fd5b505050506040513d601f19601f820116820180604052508101906115229190614277565b9050611566818a8989898080601f016020809104026020016040519081016040528093929190818152602001838380828437600092019190915250612cb692505050565b6115728133848c61306b565b6040517f6a62784200000000000000000000000000000000000000000000000000000000815273ffffffffffffffffffffffffffffffffffffffff831690636a627842906115c4908d90600401614b1c565b602060405180830381600087803b1580156115de57600080fd5b505af11580156115f2573d6000803e3d6000fd5b505050506040513d601f19601f820116820180604052508101906116169190614a7b565b506040517f6a62784200000000000000000000000000000000000000000000000000000000815273ffffffffffffffffffffffffffffffffffffffff8b1690636a62784290611669908b90600401614b1c565b602060405180830381600087803b15801561168357600080fd5b505af1158015611697573d6000803e3d6000fd5b505050506040513d601f19601f820116820180604052508101906116bb9190614a7b565b93505050611717565b61170681898888888080601f016020809104026020016040519081016040528093929190818152602001838380828437600092019190915250612cb692505050565b61171389828a338b612f8b565b9250505b509695505050505050565b6000808242811015611760576040517f08c379a000000000000000000000000000000000000000000000000000000000815260040161052c90614e9c565b61176b888888612e6a565b92506117f68873ffffffffffffffffffffffffffffffffffffffff16636f307dc36040518163ffffffff1660e01b815260040160206040518083038186803b1580156117b657600080fd5b505afa1580156117ca573d6000803e3d6000fd5b505050506040513d601f19601f820116820180604052508101906117ee9190614277565b338a8661306b565b6040517f86b9d81f00000000000000000000000000000000000000000000000000000000815273ffffffffffffffffffffffffffffffffffffffff8916906386b9d81f9061184a9089908990600401614c30565b602060405180830381600087803b15801561186457600080fd5b505af1158015611878573d6000803e3d6000fd5b505050506040513d601f19601f8201168201806040525081019061189c9190614a7b565b9150509550959350505050565b84428110156118e4576040517f08c379a000000000000000000000000000000000000000000000000000000000815260040161052c90614e9c565b6119306118f28d6000612a3c565b8c8888888080601f01602080910402602001604051908101604052809392919081815260200183838082843760009201919091525061319092505050565b61197c61193e8d6001612a3c565b8b8886868080601f01602080910402602001604051908101604052809392919081815260200183838082843760009201919091525061319092505050565b60006119878d611236565b9050600080611999838f8f8f8f612b4c565b915091506119a98f83838d61324d565b505050505050505050505050505050565b600081428110156119f7576040517f08c379a000000000000000000000000000000000000000000000000000000000815260040161052c90614e9c565b611a02868686612e6a565b9150611a8d8673ffffffffffffffffffffffffffffffffffffffff16636f307dc36040518163ffffffff1660e01b815260040160206040518083038186803b158015611a4d57600080fd5b505afa158015611a61573d6000803e3d6000fd5b505050506040513d601f19601f82011682018060405250810190611a859190614277565b33888561306b565b60408051600080825260208201928390527f1e7dcc0d0000000000000000000000000000000000000000000000000000000090925273ffffffffffffffffffffffffffffffffffffffff881691631e7dcc0d91611af1918891819060248101614b3d565b600060405180830381600087803b158015611b0b57600080fd5b505af1158015611b1f573d6000803e3d6000fd5b5050505050949350505050565b60008142811015611b69576040517f08c379a000000000000000000000000000000000000000000000000000000000815260040161052c90614e9c565b848073ffffffffffffffffffffffffffffffffffffffff16636f307dc36040518163ffffffff1660e01b815260040160206040518083038186803b158015611bb057600080fd5b505afa158015611bc4573d6000803e3d6000fd5b505050506040513d601f19601f82011682018060405250810190611be89190614277565b73ffffffffffffffffffffffffffffffffffffffff167f000000000000000000000000000000000000000000000000000000000000000073ffffffffffffffffffffffffffffffffffffffff1614611c6c576040517f08c379a000000000000000000000000000000000000000000000000000000000815260040161052c90615058565b7f000000000000000000000000000000000000000000000000000000000000000073ffffffffffffffffffffffffffffffffffffffff1663d0e30db0346040518263ffffffff1660e01b81526004016000604051808303818588803b158015611cd457600080fd5b505af1158015611ce8573d6000803e3d6000fd5b50505050506113cb867f0000000000000000000000000000000000000000000000000000000000000000343089612f8b565b8242811015611d55576040517f08c379a000000000000000000000000000000000000000000000000000000000815260040161052c90614e9c565b6000611d6089612309565b9050611da481898787878080601f016020809104026020016040519081016040528093929190818152602001838380828437600092019190915250612cb692505050565b6040517f70a0823100000000000000000000000000000000000000000000000000000000815260009073ffffffffffffffffffffffffffffffffffffffff8316906370a0823190611df9903390600401614b1c565b60206040518083038186803b158015611e1157600080fd5b505afa158015611e25573d6000803e3d6000fd5b505050506040513d601f19601f82011682018060405250810190611e499190614a7b565b9050808910611e585780611e5a565b885b985060008911611e96576040517f08c379a000000000000000000000000000000000000000000000000000000000815260040161052c90614fc4565b60008273ffffffffffffffffffffffffffffffffffffffff16633ba0b9a96040518163ffffffff1660e01b8152600401602060405180830381600087803b158015611ee057600080fd5b505af1158015611ef4573d6000803e3d6000fd5b505050506040513d601f19601f82011682018060405250810190611f189190614a7b565b90506000611f66670de0b6b3a7640000611f5a7fffffffffffffffffffffffffffffffffffffffffffffffffffffffffffffffff8e018563ffffffff6134e116565b9063ffffffff61353c16565b905060606040518060800160405280600280811115611f8157fe5b81526020018e73ffffffffffffffffffffffffffffffffffffffff168152602001600060ff1681526020016040518060a001604052803373ffffffffffffffffffffffffffffffffffffffff1681526020018f81526020018581526020018e81526020018d815250604051602001611ff99190615239565b604080517fffffffffffffffffffffffffffffffffffffffffffffffffffffffffffffffe081840301815291815291525161203791906020016151db565b604080517fffffffffffffffffffffffffffffffffffffffffffffffffffffffffffffffe0818403018152908290527f19f3400d000000000000000000000000000000000000000000000000000000008252915073ffffffffffffffffffffffffffffffffffffffff8616906319f3400d906120bb90309086908690600401614bfb565b600060405180830381600087803b1580156120d557600080fd5b505af11580156120e9573d6000803e3d6000fd5b5050505050505050505050505050505050565b6121046140d2565b61211082840184614924565b9050600061212682602001518360400151612a3c565b905073ffffffffffffffffffffffffffffffffffffffff87163014612177576040517f08c379a000000000000000000000000000000000000000000000000000000000815260040161052c90614e3f565b3373ffffffffffffffffffffffffffffffffffffffff8216146121c6576040517f08c379a000000000000000000000000000000000000000000000000000000000815260040161052c90614ccb565b6000825160028111156121d557fe5b141561221f576121e36140f9565b82606001518060200190518101906121fb9190614810565b9050612219836020015182600001518360200151846040015161357e565b50610ee0565b60018251600281111561222e57fe5b14156101ca5761223c614130565b82606001518060200190518101906122549190614853565b9050600061226784602001516001612a3c565b82516020840151604080860151606087015191517f1e7dcc0d00000000000000000000000000000000000000000000000000000000815294955073ffffffffffffffffffffffffffffffffffffffff861694631e7dcc0d946122d0949093909291600401614b3d565b600060405180830381600087803b1580156122ea57600080fd5b505af11580156122fe573d6000803e3d6000fd5b505050505050610ee0565b6040517f0572bf5f00000000000000000000000000000000000000000000000000000000815260009073ffffffffffffffffffffffffffffffffffffffff7f00000000000000000000000000000000000000000000000000000000000000001690630572bf5f9061237e908590600401614b1c565b60a06040518083038186803b15801561239657600080fd5b505afa1580156123aa573d6000803e3d6000fd5b505050506040513d601f19601f820116820180604052508101906123ce9190614752565b509095945050505050565b60008173ffffffffffffffffffffffffffffffffffffffff16630a6410636040518163ffffffff1660e01b815260040160206040518083038186803b15801561242157600080fd5b505afa92505050801561246f575060408051601f3d9081017fffffffffffffffffffffffffffffffffffffffffffffffffffffffffffffffe016820190925261246c91810190614732565b60015b61247b575060006112ff565b90506112ff565b61248a6140d2565b61249682840184614924565b905060006124a78260200151612309565b905073ffffffffffffffffffffffffffffffffffffffff861630146124f8576040517f08c379a000000000000000000000000000000000000000000000000000000000815260040161052c90614e3f565b3373ffffffffffffffffffffffffffffffffffffffff821614612547576040517f08c379a000000000000000000000000000000000000000000000000000000000815260040161052c90614ccb565b60028251600281111561255657fe5b14156101ca57612564614156565b826060015180602001905181019061257c91906149cb565b9050610ee08360200151826000015183602001518460400151856060015186608001516138b7565b505050505050565b7f000000000000000000000000000000000000000000000000000000000000000081565b7f000000000000000000000000000000000000000000000000000000000000000081565b814281101561262f576040517f08c379a000000000000000000000000000000000000000000000000000000000815260040161052c90614e9c565b61263b86868585613190565b604080516000815260208101918290527f1e7dcc0d0000000000000000000000000000000000000000000000000000000090915273ffffffffffffffffffffffffffffffffffffffff871690631e7dcc0d906126a090339088908a9060248101614b3d565b600060405180830381600087803b1580156126ba57600080fd5b505af11580156126ce573d6000803e3d6000fd5b50505050505050505050565b6000808242811015612718576040517f08c379a000000000000000000000000000000000000000000000000000000000815260040161052c90614e9c565b868073ffffffffffffffffffffffffffffffffffffffff16636f307dc36040518163ffffffff1660e01b815260040160206040518083038186803b15801561275f57600080fd5b505afa158015612773573d6000803e3d6000fd5b505050506040513d601f19601f820116820180604052508101906127979190614277565b73ffffffffffffffffffffffffffffffffffffffff167f000000000000000000000000000000000000000000000000000000000000000073ffffffffffffffffffffffffffffffffffffffff161461281b576040517f08c379a000000000000000000000000000000000000000000000000000000000815260040161052c90615058565b612826883489612e6a565b93507f000000000000000000000000000000000000000000000000000000000000000073ffffffffffffffffffffffffffffffffffffffff1663d0e30db0856040518263ffffffff1660e01b81526004016000604051808303818588803b15801561289057600080fd5b505af11580156128a4573d6000803e3d6000fd5b50506040517fa9059cbb00000000000000000000000000000000000000000000000000000000815273ffffffffffffffffffffffffffffffffffffffff7f000000000000000000000000000000000000000000000000000000000000000016935063a9059cbb925061291d91508b908890600401614c87565b602060405180830381600087803b15801561293757600080fd5b505af115801561294b573d6000803e3d6000fd5b505050506040513d601f19601f8201168201806040525081019061296f9190614732565b61297557fe5b6040517f86b9d81f00000000000000000000000000000000000000000000000000000000815273ffffffffffffffffffffffffffffffffffffffff8916906386b9d81f906129c9908a908a90600401614c30565b602060405180830381600087803b1580156129e357600080fd5b505af11580156129f7573d6000803e3d6000fd5b505050506040513d601f19601f82011682018060405250810190612a1b9190614a7b565b925083341115612a3157612a3133853403612db1565b505094509492505050565b600060028260ff1610612a7b576040517f08c379a000000000000000000000000000000000000000000000000000000000815260040161052c90614ed3565b6000807f000000000000000000000000000000000000000000000000000000000000000073ffffffffffffffffffffffffffffffffffffffff16630572bf5f866040518263ffffffff1660e01b8152600401612ad79190614b1c565b60a06040518083038186803b158015612aef57600080fd5b505afa158015612b03573d6000803e3d6000fd5b505050506040513d601f19601f82011682018060405250810190612b279190614752565b945094505050508360ff16600014612b3f5780612b41565b815b925050505b92915050565b6000806000808873ffffffffffffffffffffffffffffffffffffffff16630902f1ac6040518163ffffffff1660e01b815260040160606040518083038186803b158015612b9857600080fd5b505afa158015612bac573d6000803e3d6000fd5b505050506040513d601f19601f82011682018060405250810190612bd09190614a27565b506dffffffffffffffffffffffffffff1691506dffffffffffffffffffffffffffff1691506000612c02898484613ce4565b9050878111612c505785811015612c45576040517f08c379a000000000000000000000000000000000000000000000000000000000815260040161052c906150ec565b889450925082612ca9565b6000612c5d898486613ce4565b905089811115612c6957fe5b87811015612ca3576040517f08c379a000000000000000000000000000000000000000000000000000000000815260040161052c90614d28565b94508793505b5050509550959350505050565b8051612cc157612dab565b60008060008084806020019051810190612cdb91906147cb565b9350935093509350600084612cf05787612d12565b7fffffffffffffffffffffffffffffffffffffffffffffffffffffffffffffffff5b6040517fd505accf00000000000000000000000000000000000000000000000000000000815290915073ffffffffffffffffffffffffffffffffffffffff8a169063d505accf90612d73903390309086908d908b908b908b90600401614b7c565b600060405180830381600087803b158015612d8d57600080fd5b505af1158015612da1573d6000803e3d6000fd5b5050505050505050505b50505050565b6040805160008082526020820190925273ffffffffffffffffffffffffffffffffffffffff8416908390604051612de89190614b00565b60006040518083038185875af1925050503d8060008114612e25576040519150601f19603f3d011682016040523d82523d6000602084013e612e2a565b606091505b5050905080612e65576040517f08c379a000000000000000000000000000000000000000000000000000000000815260040161052c90614de2565b505050565b60008373ffffffffffffffffffffffffffffffffffffffff1663a6afed956040518163ffffffff1660e01b8152600401600060405180830381600087803b158015612eb457600080fd5b505af1158015612ec8573d6000803e3d6000fd5b50506040517f4d73e9ba0000000000000000000000000000000000000000000000000000000081526000925073ffffffffffffffffffffffffffffffffffffffff87169150634d73e9ba90612f21908690600401614b1c565b60206040518083038186803b158015612f3957600080fd5b505afa158015612f4d573d6000803e3d6000fd5b505050506040513d601f19601f82011682018060405250810190612f719190614a7b565b9050808410612f805780612f82565b835b95945050505050565b600073ffffffffffffffffffffffffffffffffffffffff8316301415612fbb57612fb6858786613d86565b612fc7565b612fc78584888761306b565b6040517f6a62784200000000000000000000000000000000000000000000000000000000815273ffffffffffffffffffffffffffffffffffffffff871690636a62784290613019908590600401614b1c565b602060405180830381600087803b15801561303357600080fd5b505af1158015613047573d6000803e3d6000fd5b505050506040513d601f19601f820116820180604052508101906113cb9190614a7b565b600060608573ffffffffffffffffffffffffffffffffffffffff166323b872dd8686866040516024016130a093929190614bca565b6040516020818303038152906040529060e01b6020820180517bffffffffffffffffffffffffffffffffffffffffffffffffffffffff83818316178352505050506040516130ee9190614b00565b6000604051808303816000865af19150503d806000811461312b576040519150601f19603f3d011682016040523d82523d6000602084013e613130565b606091505b509150915081801561315a57508051158061315a57508080602001905181019061315a9190614732565b6125a4576040517f08c379a000000000000000000000000000000000000000000000000000000000815260040161052c90614d85565b805161319b57612dab565b600080600080848060200190518101906131b591906147cb565b93509350935093506000846131ca57876131ec565b7fffffffffffffffffffffffffffffffffffffffffffffffffffffffffffffffff5b6040517f9e79b55c00000000000000000000000000000000000000000000000000000000815290915073ffffffffffffffffffffffffffffffffffffffff8a1690639e79b55c90612d73903390309086908d908b908b908b90600401614b7c565b600061325a856000612a3c565b9050606060405180608001604052806000600281111561327657fe5b81526020018773ffffffffffffffffffffffffffffffffffffffff168152602001600160ff16815260200160405180606001604052808881526020018781526020018673ffffffffffffffffffffffffffffffffffffffff168152506040516020016132e29190615149565b604080517fffffffffffffffffffffffffffffffffffffffffffffffffffffffffffffffe081840301815291815291525161332091906020016151db565b604080517fffffffffffffffffffffffffffffffffffffffffffffffffffffffffffffffe081840301815260808301909152915060609080600181526020018873ffffffffffffffffffffffffffffffffffffffff168152602001600060ff16815260200160405180608001604052803373ffffffffffffffffffffffffffffffffffffffff1681526020013073ffffffffffffffffffffffffffffffffffffffff168152602001888152602001858152506040516020016133e29190615180565b604080517fffffffffffffffffffffffffffffffffffffffffffffffffffffffffffffffe081840301815291815291525161342091906020016151db565b604080517fffffffffffffffffffffffffffffffffffffffffffffffffffffffffffffffe0818403018152908290527f1e7dcc0d000000000000000000000000000000000000000000000000000000008252915073ffffffffffffffffffffffffffffffffffffffff841690631e7dcc0d906134a690339030908b908790600401614b3d565b600060405180830381600087803b1580156134c057600080fd5b505af11580156134d4573d6000803e3d6000fd5b5050505050505050505050565b6000826134f057506000612b46565b828202828482816134fd57fe5b0414613535576040517f08c379a000000000000000000000000000000000000000000000000000000000815260040161052c90614f67565b9392505050565b600061353583836040518060400160405280601a81526020017f536166654d6174683a206469766973696f6e206279207a65726f000000000000815250613eb0565b600080600061358c876104bf565b925092509250600061359d88611236565b90506136278373ffffffffffffffffffffffffffffffffffffffff16636f307dc36040518163ffffffff1660e01b815260040160206040518083038186803b1580156135e857600080fd5b505afa1580156135fc573d6000803e3d6000fd5b505050506040513d601f19601f820116820180604052508101906136209190614277565b8289613d86565b6136af8273ffffffffffffffffffffffffffffffffffffffff16636f307dc36040518163ffffffff1660e01b815260040160206040518083038186803b15801561367057600080fd5b505afa158015613684573d6000803e3d6000fd5b505050506040513d601f19601f820116820180604052508101906136a89190614277565b8288613d86565b6136b8886123d9565b15613763576040517f6a62784200000000000000000000000000000000000000000000000000000000815273ffffffffffffffffffffffffffffffffffffffff821690636a6278429061370f908b90600401614b1c565b602060405180830381600087803b15801561372957600080fd5b505af115801561373d573d6000803e3d6000fd5b505050506040513d601f19601f820116820180604052508101906137619190614a7b565b505b6040517f6a62784200000000000000000000000000000000000000000000000000000000815273ffffffffffffffffffffffffffffffffffffffff891690636a627842906137b5908790600401614b1c565b602060405180830381600087803b1580156137cf57600080fd5b505af11580156137e3573d6000803e3d6000fd5b505050506040513d601f19601f820116820180604052508101906138079190614a7b565b506040517f6a62784200000000000000000000000000000000000000000000000000000000815273ffffffffffffffffffffffffffffffffffffffff851690636a6278429061385a908890600401614b1c565b602060405180830381600087803b15801561387457600080fd5b505af1158015613888573d6000803e3d6000fd5b505050506040513d601f19601f820116820180604052508101906138ac9190614a7b565b505050505050505050565b60008060006138c5896104bf565b92509250925060008273ffffffffffffffffffffffffffffffffffffffff16636f307dc36040518163ffffffff1660e01b815260040160206040518083038186803b15801561391357600080fd5b505afa158015613927573d6000803e3d6000fd5b505050506040513d601f19601f8201168201806040525081019061394b9190614277565b905060008273ffffffffffffffffffffffffffffffffffffffff16636f307dc36040518163ffffffff1660e01b815260040160206040518083038186803b15801561399557600080fd5b505afa1580156139a9573d6000803e3d6000fd5b505050506040513d601f19601f820116820180604052508101906139cd9190614277565b905060006139da8c611236565b6040517fa9059cbb00000000000000000000000000000000000000000000000000000000815290915073ffffffffffffffffffffffffffffffffffffffff8d169063a9059cbb90613a31908f908d90600401614c87565b602060405180830381600087803b158015613a4b57600080fd5b505af1158015613a5f573d6000803e3d6000fd5b505050506040513d601f19601f82011682018060405250810190613a839190614732565b50613a8d8c6123d9565b15613b38576040517f95a2251f00000000000000000000000000000000000000000000000000000000815273ffffffffffffffffffffffffffffffffffffffff8d16906395a2251f90613ae4908490600401614b1c565b602060405180830381600087803b158015613afe57600080fd5b505af1158015613b12573d6000803e3d6000fd5b505050506040513d601f19601f82011682018060405250810190613b369190614a7b565b505b6000808273ffffffffffffffffffffffffffffffffffffffff166389afcb44306040518263ffffffff1660e01b8152600401613b749190614b1c565b6040805180830381600087803b158015613b8d57600080fd5b505af1158015613ba1573d6000803e3d6000fd5b505050506040513d601f19601f82011682018060405250810190613bc59190614a93565b9150915089821015613c03576040517f08c379a000000000000000000000000000000000000000000000000000000000815260040161052c90614d28565b88811015613c3d576040517f08c379a000000000000000000000000000000000000000000000000000000000815260040161052c906150ec565b613c4987868f85613f01565b613c5586858f84613f01565b8773ffffffffffffffffffffffffffffffffffffffff166323b872dd8e8a8f6040518463ffffffff1660e01b8152600401613c9293929190614bca565b602060405180830381600087803b158015613cac57600080fd5b505af1158015613cc0573d6000803e3d6000fd5b505050506040513d601f19601f820116820180604052508101906119a99190614732565b6000808411613d1f576040517f08c379a000000000000000000000000000000000000000000000000000000000815260040161052c90614ffb565b600083118015613d2f5750600082115b613d65576040517f08c379a000000000000000000000000000000000000000000000000000000000815260040161052c90614f0a565b82613d76858463ffffffff6134e116565b81613d7d57fe5b04949350505050565b600060608473ffffffffffffffffffffffffffffffffffffffff1663a9059cbb8585604051602401613db9929190614c87565b6040516020818303038152906040529060e01b6020820180517bffffffffffffffffffffffffffffffffffffffffffffffffffffffff8381831617835250505050604051613e079190614b00565b6000604051808303816000865af19150503d8060008114613e44576040519150601f19603f3d011682016040523d82523d6000602084013e613e49565b606091505b5091509150818015613e73575080511580613e73575080806020019051810190613e739190614732565b613ea9576040517f08c379a000000000000000000000000000000000000000000000000000000000815260040161052c9061508f565b5050505050565b60008183613eeb576040517f08c379a000000000000000000000000000000000000000000000000000000000815260040161052c9190614cb8565b506000838581613ef757fe5b0495945050505050565b6000613f0e858385612e6a565b9050613f1b848683613d86565b60408051600080825260208201928390527f1e7dcc0d0000000000000000000000000000000000000000000000000000000090925273ffffffffffffffffffffffffffffffffffffffff871691631e7dcc0d91613f7f918791819060248101614b3d565b600060405180830381600087803b158015613f9957600080fd5b505af1158015613fad573d6000803e3d6000fd5b5050505080821115613ea957600081830390507f000000000000000000000000000000000000000000000000000000000000000073ffffffffffffffffffffffffffffffffffffffff168573ffffffffffffffffffffffffffffffffffffffff1614156140c7576040517f2e1a7d4d00000000000000000000000000000000000000000000000000000000815273ffffffffffffffffffffffffffffffffffffffff7f00000000000000000000000000000000000000000000000000000000000000001690632e1a7d4d90614086908490600401615289565b600060405180830381600087803b1580156140a057600080fd5b505af11580156140b4573d6000803e3d6000fd5b505050506140c28482612db1565b6125a4565b6125a4858583613d86565b60408051608081019091528060008152600060208201819052604082015260609081015290565b60405180606001604052806000815260200160008152602001600073ffffffffffffffffffffffffffffffffffffffff1681525090565b604080516080810182526000808252602082018190529181019190915260608082015290565b6040518060a00160405280600073ffffffffffffffffffffffffffffffffffffffff168152602001600081526020016000815260200160008152602001600081525090565b8035612b4681615335565b80518015158114612b4657600080fd5b60008083601f8401126141c7578182fd5b50813567ffffffffffffffff8111156141de578182fd5b6020830191508360208285010111156141f657600080fd5b9250929050565b600082601f83011261420d578081fd5b813561422061421b826152c7565b6152a0565b915080825283602082850101111561423757600080fd5b8060208401602084013760009082016020015292915050565b8035612b4681615376565b60006020828403121561426c578081fd5b813561353581615335565b600060208284031215614288578081fd5b815161353581615335565b600080600080608085870312156142a8578283fd5b84356142b381615335565b935060208501356142c381615335565b925060408501356142d381615335565b9396929550929360600135925050565b6000806000606084860312156142f7578283fd5b833561430281615335565b9250602084013561431281615335565b929592945050506040919091013590565b60008060008060006080868803121561433a578081fd5b853561434581615335565b9450602086013561435581615335565b935060408601359250606086013567ffffffffffffffff811115614377578182fd5b614383888289016141b6565b969995985093965092949392505050565b600080600080600060a086880312156143ab578283fd5b85356143b681615335565b94506020860135935060408601356143cd81615335565b925060608601356143dd81615335565b949793965091946080013592915050565b60008060008060808587031215614403578182fd5b843561440e81615335565b93506020850135925060408501356142d381615335565b60008060008060008060a0878903121561443d578384fd5b863561444881615335565b955060208701359450604087013561445f81615335565b935060608701359250608087013567ffffffffffffffff811115614481578182fd5b61448d89828a016141b6565b979a9699509497509295939492505050565b600080600080600060a086880312156144b6578283fd5b85356144c181615335565b94506020860135935060408601356144d881615335565b925060608601359150608086013567ffffffffffffffff8111156144fa578182fd5b614506888289016141fd565b9150509295509295909350565b60008060008060608587031215614528578182fd5b843561453381615335565b935060208501359250604085013567ffffffffffffffff811115614555578283fd5b614561878288016141b6565b95989497509550505050565b600080600080600060a08688031215614584578283fd5b853561458f81615335565b97602087013597506040870135966060810135965060800135945092505050565b60008060008060008060008060008060006101208c8e0312156145d1578889fd5b6145db8c35615335565b8b359a5060208c0135995060408c0135985060608c0135975060808c0135965061460860a08d0135615335565b60a08c0135955060c08c0135945067ffffffffffffffff8060e08e0135111561462f578485fd5b61463f8e60e08f01358f016141b6565b90955093506101008d0135811015614655578283fd5b506146678d6101008e01358e016141b6565b81935080925050509295989b509295989b9093969950565b600080600080600080600060c0888a031215614699578081fd5b87356146a481615335565b96506020880135955060408801359450606088013593506080880135925060a088013567ffffffffffffffff8111156146db578182fd5b6146e78a828b016141b6565b989b979a50959850939692959293505050565b6000806040838503121561470c578182fd5b823561471781615335565b9150602083013561472781615376565b809150509250929050565b600060208284031215614743578081fd5b81518015158114613535578182fd5b600080600080600060a08688031215614769578283fd5b61477387876141a6565b9450602086015162ffffff8116811461478a578384fd5b604087015190945061479b81615335565b60608701519093506147ac81615335565b60808701519092506147bd81615335565b809150509295509295909350565b600080600080608085870312156147e0578182fd5b6147ea86866141a6565b935060208501516147fa81615376565b6040860151606090960151949790965092505050565b600060608284031215614821578081fd5b61482b60606152a0565b8251815260208301516020820152604083015161484781615335565b60408201529392505050565b60006020808385031215614865578182fd5b825167ffffffffffffffff8082111561487c578384fd5b8185016080818803121561488e578485fd5b61489860806152a0565b925080516148a581615335565b8352808401516148b481615335565b83850152604081810151908401526060810151828111156148d3578586fd5b019050601f810186136148e4578384fd5b80516148f261421b826152c7565b8181528785838501011115614905578586fd5b61491482868301878601615309565b6060840152509095945050505050565b600060208284031215614935578081fd5b813567ffffffffffffffff8082111561494c578283fd5b8184016080818703121561495e578384fd5b61496860806152a0565b9250803560038110614978578485fd5b8352614987866020830161419b565b60208401526149998660408301614250565b60408401526060810135828111156149af578485fd5b6149bb878284016141fd565b6060850152509195945050505050565b600060a082840312156149dc578081fd5b6149e660a06152a0565b82516149f181615335565b80825250602083015160208201526040830151604082015260608301516060820152608083015160808201528091505092915050565b600080600060608486031215614a3b578081fd5b8351614a468161535a565b6020850151909350614a578161535a565b604085015190925063ffffffff81168114614a70578182fd5b809150509250925092565b600060208284031215614a8c578081fd5b5051919050565b60008060408385031215614aa5578182fd5b505080516020909101519092909150565b60008151808452614ace816020860160208601615309565b601f017fffffffffffffffffffffffffffffffffffffffffffffffffffffffffffffffe0169290920160200192915050565b60008251614b12818460208701615309565b9190910192915050565b73ffffffffffffffffffffffffffffffffffffffff91909116815260200190565b600073ffffffffffffffffffffffffffffffffffffffff8087168352808616602084015250836040830152608060608301526113cb6080830184614ab6565b73ffffffffffffffffffffffffffffffffffffffff97881681529590961660208601526040850193909352606084019190915260ff16608083015260a082015260c081019190915260e00190565b73ffffffffffffffffffffffffffffffffffffffff9384168152919092166020820152604081019190915260600190565b600073ffffffffffffffffffffffffffffffffffffffff8516825283602083015260606040830152612f826060830184614ab6565b73ffffffffffffffffffffffffffffffffffffffff92831681529116602082015260400190565b73ffffffffffffffffffffffffffffffffffffffff93841681529183166020830152909116604082015260600190565b73ffffffffffffffffffffffffffffffffffffffff929092168252602082015260400190565b901515815260200190565b6000602082526135356020830184614ab6565b60208082526023908201527f496d7065726d6178526f757465723a20554e415554484f52495a45445f43414c60408201527f4c45520000000000000000000000000000000000000000000000000000000000606082015260800190565b60208082526025908201527f496d7065726d6178526f757465723a20494e53554646494349454e545f415f4160408201527f4d4f554e54000000000000000000000000000000000000000000000000000000606082015260800190565b60208082526031908201527f5472616e7366657248656c7065723a3a7472616e7366657246726f6d3a20747260408201527f616e7366657246726f6d206661696c6564000000000000000000000000000000606082015260800190565b60208082526034908201527f5472616e7366657248656c7065723a3a736166655472616e736665724554483a60408201527f20455448207472616e73666572206661696c6564000000000000000000000000606082015260800190565b60208082526021908201527f496d7065726d6178526f757465723a2053454e4445525f4e4f545f524f55544560408201527f5200000000000000000000000000000000000000000000000000000000000000606082015260800190565b60208082526017908201527f496d7065726d6178526f757465723a2045585049524544000000000000000000604082015260600190565b6020808252601e908201527f496d7065726d6178526f757465723a20494e4445585f544f4f5f484947480000604082015260600190565b60208082526028908201527f556e697377617056324c6962726172793a20494e53554646494349454e545f4c60408201527f4951554944495459000000000000000000000000000000000000000000000000606082015260800190565b60208082526021908201527f536166654d6174683a206d756c7469706c69636174696f6e206f766572666c6f60408201527f7700000000000000000000000000000000000000000000000000000000000000606082015260800190565b6020808252601b908201527f496d7065726d6178526f757465723a2052454445454d5f5a45524f0000000000604082015260600190565b60208082526025908201527f556e697377617056324c6962726172793a20494e53554646494349454e545f4160408201527f4d4f554e54000000000000000000000000000000000000000000000000000000606082015260800190565b60208082526018908201527f496d7065726d6178526f757465723a204e4f545f574554480000000000000000604082015260600190565b6020808252602d908201527f5472616e7366657248656c7065723a3a736166655472616e736665723a20747260408201527f616e73666572206661696c656400000000000000000000000000000000000000606082015260800190565b60208082526025908201527f496d7065726d6178526f757465723a20494e53554646494349454e545f425f4160408201527f4d4f554e54000000000000000000000000000000000000000000000000000000606082015260800190565b815181526020808301519082015260409182015173ffffffffffffffffffffffffffffffffffffffff169181019190915260600190565b60006020825273ffffffffffffffffffffffffffffffffffffffff808451166020840152806020850151166040840152506040830151606083015260608301516080808401526151d360a0840182614ab6565b949350505050565b6000602082528251600381106151ed57fe5b8060208401525073ffffffffffffffffffffffffffffffffffffffff602084015116604083015260ff604084015116606083015260608301516080808401526151d360a0840182614ab6565b600060a08201905073ffffffffffffffffffffffffffffffffffffffff83511682526020830151602083015260408301516040830152606083015160608301526080830151608083015292915050565b90815260200190565b918252602082015260400190565b60405181810167ffffffffffffffff811182821017156152bf57600080fd5b604052919050565b600067ffffffffffffffff8211156152dd578081fd5b50601f017fffffffffffffffffffffffffffffffffffffffffffffffffffffffffffffffe01660200190565b60005b8381101561532457818101518382015260200161530c565b83811115612dab5750506000910152565b73ffffffffffffffffffffffffffffffffffffffff8116811461535757600080fd5b50565b6dffffffffffffffffffffffffffff8116811461535757600080fd5b60ff8116811461535757600080fdfea2646970667358221220616b8efafea20a6cb0df1606718c1b111127676685df2cab71e0ed2346ef502e64736f6c63430006060033",
  "immutableReferences": {
    "8373": [
      {
        "length": 32,
        "start": 9033
      },
      {
        "length": 32,
        "start": 9682
      },
      {
        "length": 32,
        "start": 10880
      }
    ],
    "8376": [
      {
        "length": 32,
        "start": 417
      },
      {
        "length": 32,
        "start": 2488
      },
      {
        "length": 32,
        "start": 3190
      },
      {
        "length": 32,
        "start": 3513
      },
      {
        "length": 32,
        "start": 3695
      },
      {
        "length": 32,
        "start": 4029
      },
      {
        "length": 32,
        "start": 4152
      },
      {
        "length": 32,
        "start": 4337
      },
      {
        "length": 32,
        "start": 7168
      },
      {
        "length": 32,
        "start": 7278
      },
      {
        "length": 32,
        "start": 7411
      },
      {
        "length": 32,
        "start": 9646
      },
      {
        "length": 32,
        "start": 10159
      },
      {
        "length": 32,
        "start": 10282
      },
      {
        "length": 32,
        "start": 10467
      },
      {
        "length": 32,
        "start": 16322
      },
      {
        "length": 32,
        "start": 16465
      }
    ]
  },
  "source": "pragma solidity =0.6.6;\npragma experimental ABIEncoderV2;\n\nimport \"./interfaces/IRouter03.sol\";\nimport \"./interfaces/IPoolToken.sol\";\nimport \"./interfaces/IBorrowable.sol\";\nimport \"./interfaces/IFactory.sol\";\nimport \"./interfaces/ICollateral.sol\";\nimport \"./interfaces/IImpermaxCallee.sol\";\nimport \"./interfaces/IERC20.sol\";\nimport \"./interfaces/IStakedLPToken01.sol\";\nimport \"./interfaces/IWETH.sol\";\nimport \"./interfaces/IUniswapV2Pair.sol\";\nimport \"./libraries/SafeMath.sol\";\nimport \"./libraries/TransferHelper.sol\";\nimport \"./libraries/UniswapV2Library.sol\";\n\ncontract Router03 is IRouter03, IImpermaxCallee {\n\tusing SafeMath for uint;\n\n\taddress public immutable override factory;\n\taddress public immutable override WETH;\n\n\tmodifier ensure(uint deadline) {\n\t\trequire(deadline >= block.timestamp, \"ImpermaxRouter: EXPIRED\");\n\t\t_;\n\t}\n\n\tmodifier checkETH(address poolToken) {\n\t\trequire(WETH == IPoolToken(poolToken).underlying(), \"ImpermaxRouter: NOT_WETH\");\n\t\t_;\n\t}\n\n\tconstructor(address _factory, address _WETH) public {\n\t\tfactory = _factory;\n\t\tWETH = _WETH;\n\t}\n\n\treceive() external payable {\n\t\tassert(msg.sender == WETH); // only accept ETH via fallback from the WETH contract\n\t}\n\n\t/*** Mint ***/\n\t\n\tfunction _mint(\n\t\taddress poolToken, \n\t\taddress token, \n\t\tuint amount,\n\t\taddress from,\n\t\taddress to\n\t) internal virtual returns (uint tokens) {\n\t\tif (from == address(this)) TransferHelper.safeTransfer(token, poolToken, amount);\n\t\telse TransferHelper.safeTransferFrom(token, from, poolToken, amount);\n\t\ttokens = IPoolToken(poolToken).mint(to);\n\t}\n\tfunction mint(\n\t\taddress poolToken, \n\t\tuint amount,\n\t\taddress to,\n\t\tuint deadline\n\t) external virtual override ensure(deadline) returns (uint tokens) {\n\t\treturn _mint(poolToken, IPoolToken(poolToken).underlying(), amount, msg.sender, to);\n\t}\n\tfunction mintETH(\n\t\taddress poolToken, \n\t\taddress to,\n\t\tuint deadline\n\t) external virtual override payable ensure(deadline) checkETH(poolToken) returns (uint tokens) {\n\t\tIWETH(WETH).deposit{value: msg.value}();\n\t\treturn _mint(poolToken, WETH, msg.value, address(this), to);\n\t}\n\tfunction mintCollateral(\n\t\taddress poolToken, \n\t\tuint amount,\n\t\taddress to,\n\t\tuint deadline,\n\t\tbytes calldata permitData\n\t) external virtual override ensure(deadline) returns (uint tokens) {\n\t\taddress underlying = IPoolToken(poolToken).underlying();\n\t\tif (isStakedLPToken(underlying)) {\n\t\t\taddress uniswapV2Pair = IStakedLPToken01(underlying).underlying();\n\t\t\t_permit(uniswapV2Pair, amount, deadline, permitData);\n\t\t\tTransferHelper.safeTransferFrom(uniswapV2Pair, msg.sender, underlying, amount);\n\t\t\tIStakedLPToken01(underlying).mint(poolToken);\n\t\t\treturn IPoolToken(poolToken).mint(to);\n\t\t} else {\n\t\t\t_permit(underlying, amount, deadline, permitData);\n\t\t\treturn _mint(poolToken, underlying, amount, msg.sender, to);\n\t\t}\n\t}\n\t\n\t/*** Redeem ***/\n\t\n\tfunction redeem(\n\t\taddress poolToken,\n\t\tuint tokens,\n\t\taddress to,\n\t\tuint deadline,\n\t\tbytes memory permitData\n\t) public virtual override ensure(deadline) returns (uint amount) {\n\t\t_permit(poolToken, tokens, deadline, permitData);\n\t\tuint tokensBalance = IERC20(poolToken).balanceOf(msg.sender);\n\t\ttokens = tokens < tokensBalance ? tokens : tokensBalance;\n\t\tIPoolToken(poolToken).transferFrom(msg.sender, poolToken, tokens);\n\t\taddress underlying = IPoolToken(poolToken).underlying();\n\t\tif (isStakedLPToken(underlying)) {\n\t\t\tIPoolToken(poolToken).redeem(underlying);\n\t\t\treturn IStakedLPToken01(underlying).redeem(to);\n\t\t} else {\n\t\t\treturn IPoolToken(poolToken).redeem(to);\n\t\t}\n\t}\n\tfunction redeemETH(\n\t\taddress poolToken, \n\t\tuint tokens,\n\t\taddress to,\n\t\tuint deadline,\n\t\tbytes memory permitData\n\t) public virtual override ensure(deadline) checkETH(poolToken) returns (uint amountETH) {\n\t\t_permit(poolToken, tokens, deadline, permitData);\n\t\tuint tokensBalance = IERC20(poolToken).balanceOf(msg.sender);\n\t\ttokens = tokens < tokensBalance ? tokens : tokensBalance;\n\t\tIPoolToken(poolToken).transferFrom(msg.sender, poolToken, tokens);\n\t\tamountETH = IPoolToken(poolToken).redeem(address(this));\n\t\tIWETH(WETH).withdraw(amountETH);\n\t\tTransferHelper.safeTransferETH(to, amountETH);\n\t}\n\t\t\t\n\t/*** Borrow ***/\n\n\tfunction borrow(\n\t\taddress borrowable, \n\t\tuint amount,\n\t\taddress to,\n\t\tuint deadline,\n\t\tbytes memory permitData\n\t) public virtual override ensure(deadline) {\n\t\t_borrowPermit(borrowable, amount, deadline, permitData);\n\t\tIBorrowable(borrowable).borrow(msg.sender, to, amount, new bytes(0));\n\t}\n\tfunction borrowETH(\n\t\taddress borrowable, \n\t\tuint amountETH,\n\t\taddress to,\n\t\tuint deadline,\n\t\tbytes memory permitData\n\t) public virtual override ensure(deadline) checkETH(borrowable) {\n\t\tborrow(borrowable, amountETH, address(this), deadline, permitData);\n\t\tIWETH(WETH).withdraw(amountETH);\n\t\tTransferHelper.safeTransferETH(to, amountETH);\n\t}\n\t\n\t/*** Repay ***/\n\t\n\tfunction _repayAmount(\n\t\taddress borrowable, \n\t\tuint amountMax,\n\t\taddress borrower\n\t) internal virtual returns (uint amount) {\n\t\tIBorrowable(borrowable).accrueInterest();\n\t\tuint borrowedAmount = IBorrowable(borrowable).borrowBalance(borrower);\n\t\tamount = amountMax < borrowedAmount ? amountMax : borrowedAmount;\n\t}\n\tfunction repay(\n\t\taddress borrowable, \n\t\tuint amountMax,\n\t\taddress borrower,\n\t\tuint deadline\n\t) external virtual override ensure(deadline) returns (uint amount) {\n\t\tamount = _repayAmount(borrowable, amountMax, borrower);\n\t\tTransferHelper.safeTransferFrom(IBorrowable(borrowable).underlying(), msg.sender, borrowable, amount);\n\t\tIBorrowable(borrowable).borrow(borrower, address(0), 0, new bytes(0));\n\t}\n\tfunction repayETH(\n\t\taddress borrowable, \n\t\taddress borrower,\n\t\tuint deadline\n\t) external virtual override payable ensure(deadline) checkETH(borrowable) returns (uint amountETH) {\n\t\tamountETH = _repayAmount(borrowable, msg.value, borrower);\n\t\tIWETH(WETH).deposit{value: amountETH}();\n\t\tassert(IWETH(WETH).transfer(borrowable, amountETH));\n\t\tIBorrowable(borrowable).borrow(borrower, address(0), 0, new bytes(0));\n\t\t// refund surpluss eth, if any\n\t\tif (msg.value > amountETH) TransferHelper.safeTransferETH(msg.sender, msg.value - amountETH);\n\t}\n\t\n\t/*** Liquidate ***/\n\n\tfunction liquidate(\n\t\taddress borrowable, \n\t\tuint amountMax,\n\t\taddress borrower,\n\t\taddress to,\n\t\tuint deadline\n\t) external virtual override ensure(deadline) returns (uint amount, uint seizeTokens) {\n\t\tamount = _repayAmount(borrowable, amountMax, borrower);\n\t\tTransferHelper.safeTransferFrom(IBorrowable(borrowable).underlying(), msg.sender, borrowable, amount);\n\t\tseizeTokens = IBorrowable(borrowable).liquidate(borrower, to);\n\t}\n\tfunction liquidateETH(\n\t\taddress borrowable, \n\t\taddress borrower,\n\t\taddress to,\n\t\tuint deadline\n\t) external virtual override payable ensure(deadline) checkETH(borrowable) returns (uint amountETH, uint seizeTokens) {\n\t\tamountETH = _repayAmount(borrowable, msg.value, borrower);\n\t\tIWETH(WETH).deposit{value: amountETH}();\n\t\tassert(IWETH(WETH).transfer(borrowable, amountETH));\n\t\tseizeTokens = IBorrowable(borrowable).liquidate(borrower, to);\n\t\t// refund surpluss eth, if any\n\t\tif (msg.value > amountETH) TransferHelper.safeTransferETH(msg.sender, msg.value - amountETH);\n\t}\n\t\t\n\t/*** Leverage LP Token ***/\n\t\n\tfunction _leverage(\n\t\taddress underlying, \n\t\tuint amountA,\n\t\tuint amountB,\n\t\taddress to\n\t) internal virtual {\n\t\taddress borrowableA = getBorrowable(underlying, 0);\n\t\t// mint collateral\n\t\tbytes memory borrowBData = abi.encode(CalleeData({\n\t\t\tcallType: CallType.ADD_LIQUIDITY_AND_MINT,\n\t\t\tunderlying: underlying,\n\t\t\tborrowableIndex: 1,\n\t\t\tdata: abi.encode(AddLiquidityAndMintCalldata({\n\t\t\t\tamountA: amountA,\n\t\t\t\tamountB: amountB,\n\t\t\t\tto: to\n\t\t\t}))\n\t\t}));\t\n\t\t// borrow borrowableB\n\t\tbytes memory borrowAData = abi.encode(CalleeData({\n\t\t\tcallType: CallType.BORROWB,\n\t\t\tunderlying: underlying,\n\t\t\tborrowableIndex: 0,\n\t\t\tdata: abi.encode(BorrowBCalldata({\n\t\t\t\tborrower: msg.sender,\n\t\t\t\treceiver: address(this),\n\t\t\t\tborrowAmount: amountB,\n\t\t\t\tdata: borrowBData\n\t\t\t}))\n\t\t}));\n\t\t// borrow borrowableA\n\t\tIBorrowable(borrowableA).borrow(msg.sender, address(this), amountA, borrowAData);\t\n\t}\n\tfunction leverage(\n\t\taddress underlying,  \n\t\tuint amountADesired,\n\t\tuint amountBDesired,\n\t\tuint amountAMin,\n\t\tuint amountBMin,\n\t\taddress to,\n\t\tuint deadline,\n\t\tbytes calldata permitDataA,\n\t\tbytes calldata permitDataB\n\t) external virtual override ensure(deadline) {\n\t\t_borrowPermit(getBorrowable(underlying, 0), amountADesired, deadline, permitDataA);\n\t\t_borrowPermit(getBorrowable(underlying, 1), amountBDesired, deadline, permitDataB);\n\t\taddress uniswapV2Pair = getUniswapV2Pair(underlying);\n\t\t(uint amountA, uint amountB) = _optimalLiquidity(uniswapV2Pair, amountADesired, amountBDesired, amountAMin, amountBMin);\n\t\t_leverage(underlying, amountA, amountB, to);\n\t}\n\n\tfunction _addLiquidityAndMint(\n\t\taddress underlying, \n\t\tuint amountA,\n\t\tuint amountB,\n\t\taddress to\n\t) internal virtual {\n\t\t(address collateral, address borrowableA, address borrowableB) = getLendingPool(underlying);\n\t\taddress uniswapV2Pair = getUniswapV2Pair(underlying);\n\t\t// add liquidity to uniswap pair\n\t\tTransferHelper.safeTransfer(IBorrowable(borrowableA).underlying(), uniswapV2Pair, amountA);\n\t\tTransferHelper.safeTransfer(IBorrowable(borrowableB).underlying(), uniswapV2Pair, amountB);\n\t\t// mint LP token\n\t\tif (isStakedLPToken(underlying)) IUniswapV2Pair(uniswapV2Pair).mint(underlying);\n\t\tIUniswapV2Pair(underlying).mint(collateral);\n\t\t// mint collateral\n\t\tICollateral(collateral).mint(to);\n\t}\n\t\t\n\t/*** Deleverage LP Token ***/\n\t\n\tfunction deleverage(\n\t\taddress underlying,  \n\t\tuint redeemTokens,\n\t\tuint amountAMin,\n\t\tuint amountBMin,\n\t\tuint deadline,\n\t\tbytes calldata permitData\n\t) external virtual override ensure(deadline) {\n\t\taddress collateral = getCollateral(underlying);\n\t\t_permit(collateral, redeemTokens, deadline, permitData);\n\t\tuint tokensBalance = IERC20(collateral).balanceOf(msg.sender);\n\t\tredeemTokens = redeemTokens < tokensBalance ? redeemTokens : tokensBalance;\n\t\trequire(redeemTokens > 0, \"ImpermaxRouter: REDEEM_ZERO\");\n\t\tuint exchangeRate = ICollateral(collateral).exchangeRate();\n\t\tuint redeemAmount = (redeemTokens - 1).mul(exchangeRate).div(1e18);\n\t\tbytes memory redeemData = abi.encode(CalleeData({\n\t\t\tcallType: CallType.REMOVE_LIQ_AND_REPAY,\n\t\t\tunderlying: underlying,\n\t\t\tborrowableIndex: 0,\n\t\t\tdata: abi.encode(RemoveLiqAndRepayCalldata({\n\t\t\t\tborrower: msg.sender,\n\t\t\t\tredeemTokens: redeemTokens,\n\t\t\t\tredeemAmount: redeemAmount,\n\t\t\t\tamountAMin: amountAMin,\n\t\t\t\tamountBMin: amountBMin\n\t\t\t}))\n\t\t}));\n\t\t// flashRedeem\n\t\tICollateral(collateral).flashRedeem(address(this), redeemAmount, redeemData);\n\t}\n\n\tfunction _removeLiqAndRepay(\n\t\taddress underlying,\n\t\taddress borrower,\n\t\tuint redeemTokens,\n\t\tuint redeemAmount,\n\t\tuint amountAMin,\n\t\tuint amountBMin\n\t) internal virtual {\n\t\t(address collateral, address borrowableA, address borrowableB) = getLendingPool(underlying);\n\t\taddress tokenA = IBorrowable(borrowableA).underlying();\n\t\taddress tokenB = IBorrowable(borrowableB).underlying();\n\t\taddress uniswapV2Pair = getUniswapV2Pair(underlying);\n\t\t// removeLiquidity\n\t\tIUniswapV2Pair(underlying).transfer(underlying, redeemAmount);\n\t\t//TransferHelper.safeTransfer(underlying, underlying, redeemAmount);\n\t\tif (isStakedLPToken(underlying)) IStakedLPToken01(underlying).redeem(uniswapV2Pair);\n\t\t(uint amountAMax, uint amountBMax) = IUniswapV2Pair(uniswapV2Pair).burn(address(this));\n\t\trequire(amountAMax >= amountAMin, \"ImpermaxRouter: INSUFFICIENT_A_AMOUNT\");\n\t\trequire(amountBMax >= amountBMin, \"ImpermaxRouter: INSUFFICIENT_B_AMOUNT\");\n\t\t// repay and refund\n\t\t_repayAndRefund(borrowableA, tokenA, borrower, amountAMax);\n\t\t_repayAndRefund(borrowableB, tokenB, borrower, amountBMax);\n\t\t// repay flash redeem\n\t\tICollateral(collateral).transferFrom(borrower, collateral, redeemTokens);\n\t}\n\t\n\tfunction _repayAndRefund(\n\t\taddress borrowable,\n\t\taddress token,\n\t\taddress borrower,\n\t\tuint amountMax\n\t) internal virtual {\n\t\t//repay\n\t\tuint amount = _repayAmount(borrowable, amountMax, borrower);\n\t\tTransferHelper.safeTransfer(token, borrowable, amount);\n\t\tIBorrowable(borrowable).borrow(borrower, address(0), 0, new bytes(0));\t\t\n\t\t// refund excess\n\t\tif (amountMax > amount) {\n\t\t\tuint refundAmount = amountMax - amount;\n\t\t\tif (token == WETH) {\t\t\n\t\t\t\tIWETH(WETH).withdraw(refundAmount);\n\t\t\t\tTransferHelper.safeTransferETH(borrower, refundAmount);\n\t\t\t}\n\t\t\telse TransferHelper.safeTransfer(token, borrower, refundAmount);\n\t\t}\n\t}\n\t\n\t/*** Impermax Callee ***/\n\t\t\n\tenum CallType {ADD_LIQUIDITY_AND_MINT, BORROWB, REMOVE_LIQ_AND_REPAY}\n\tstruct CalleeData {\n\t\tCallType callType;\n\t\taddress underlying;\n\t\tuint8 borrowableIndex;\n\t\tbytes data;\t\t\n\t}\n\tstruct AddLiquidityAndMintCalldata {\n\t\tuint amountA;\n\t\tuint amountB;\n\t\taddress to;\n\t}\n\tstruct BorrowBCalldata {\n\t\taddress borrower; \n\t\taddress receiver;\n\t\tuint borrowAmount;\n\t\tbytes data;\n\t}\n\tstruct RemoveLiqAndRepayCalldata {\n\t\taddress borrower;\n\t\tuint redeemTokens;\n\t\tuint redeemAmount;\n\t\tuint amountAMin;\n\t\tuint amountBMin;\n\t}\n\t\n\tfunction impermaxBorrow(address sender, address borrower, uint borrowAmount, bytes calldata data) external virtual override {\n\t\tborrower; borrowAmount;\n\t\tCalleeData memory calleeData = abi.decode(data, (CalleeData));\n\t\taddress declaredCaller = getBorrowable(calleeData.underlying, calleeData.borrowableIndex);\n\t\t// only succeeds if called by a borrowable and if that borrowable has been called by the router\n\t\trequire(sender == address(this), \"ImpermaxRouter: SENDER_NOT_ROUTER\");\n\t\trequire(msg.sender == declaredCaller, \"ImpermaxRouter: UNAUTHORIZED_CALLER\");\n\t\tif (calleeData.callType == CallType.ADD_LIQUIDITY_AND_MINT) {\n\t\t\tAddLiquidityAndMintCalldata memory d = abi.decode(calleeData.data, (AddLiquidityAndMintCalldata));\n\t\t\t_addLiquidityAndMint(calleeData.underlying, d.amountA, d.amountB, d.to);\n\t\t}\n\t\telse if (calleeData.callType == CallType.BORROWB) {\n\t\t\tBorrowBCalldata memory d = abi.decode(calleeData.data, (BorrowBCalldata));\n\t\t\taddress borrowableB = getBorrowable(calleeData.underlying, 1);\n\t\t\tIBorrowable(borrowableB).borrow(d.borrower, d.receiver, d.borrowAmount, d.data);\n\t\t}\n\t\telse revert();\n\t}\n\t\n\tfunction impermaxRedeem(address sender, uint redeemAmount, bytes calldata data) external virtual override {\n\t\tredeemAmount;\n\t\tCalleeData memory calleeData = abi.decode(data, (CalleeData));\n\t\taddress declaredCaller = getCollateral(calleeData.underlying);\n\t\t// only succeeds if called by a collateral and if that collateral has been called by the router\n\t\trequire(sender == address(this), \"ImpermaxRouter: SENDER_NOT_ROUTER\");\n\t\trequire(msg.sender == declaredCaller, \"ImpermaxRouter: UNAUTHORIZED_CALLER\");\n\t\tif (calleeData.callType == CallType.REMOVE_LIQ_AND_REPAY) {\n\t\t\tRemoveLiqAndRepayCalldata memory d = abi.decode(calleeData.data, (RemoveLiqAndRepayCalldata));\n\t\t\t_removeLiqAndRepay(calleeData.underlying, d.borrower, d.redeemTokens, d.redeemAmount, d.amountAMin, d.amountBMin);\n\t\t}\n\t\telse revert();\n\t}\n\t\t\n\t/*** Utilities ***/\n\t\n\tfunction _permit(\n\t\taddress poolToken, \n\t\tuint amount, \n\t\tuint deadline,\n\t\tbytes memory permitData\n\t) internal virtual {\n\t\tif (permitData.length == 0) return;\n\t\t(bool approveMax, uint8 v, bytes32 r, bytes32 s) = abi.decode(permitData, (bool, uint8, bytes32, bytes32));\n\t\tuint value = approveMax ? uint(-1) : amount;\n\t\tIPoolToken(poolToken).permit(msg.sender, address(this), value, deadline, v, r, s);\n\t}\n\tfunction _borrowPermit(\n\t\taddress borrowable, \n\t\tuint amount, \n\t\tuint deadline,\n\t\tbytes memory permitData\n\t) internal virtual {\n\t\tif (permitData.length == 0) return;\n\t\t(bool approveMax, uint8 v, bytes32 r, bytes32 s) = abi.decode(permitData, (bool, uint8, bytes32, bytes32));\n\t\tuint value = approveMax ? uint(-1) : amount;\n\t\tIBorrowable(borrowable).borrowPermit(msg.sender, address(this), value, deadline, v, r, s);\n\t}\n\t\n\tfunction _optimalLiquidity(\n\t\taddress uniswapV2Pair,\n\t\tuint amountADesired,\n\t\tuint amountBDesired,\n\t\tuint amountAMin,\n\t\tuint amountBMin\n\t) public virtual view returns (uint amountA, uint amountB) {\n\t\t(uint reserveA, uint reserveB,) = IUniswapV2Pair(uniswapV2Pair).getReserves();\n\t\tuint amountBOptimal = UniswapV2Library.quote(amountADesired, reserveA, reserveB);\n\t\tif (amountBOptimal <= amountBDesired) {\n\t\t\trequire(amountBOptimal >= amountBMin, \"ImpermaxRouter: INSUFFICIENT_B_AMOUNT\");\n\t\t\t(amountA, amountB) = (amountADesired, amountBOptimal);\n\t\t} else {\n\t\t\tuint amountAOptimal = UniswapV2Library.quote(amountBDesired, reserveB, reserveA);\n\t\t\tassert(amountAOptimal <= amountADesired);\n\t\t\trequire(amountAOptimal >= amountAMin, \"ImpermaxRouter: INSUFFICIENT_A_AMOUNT\");\n\t\t\t(amountA, amountB) = (amountAOptimal, amountBDesired);\n\t\t}\n\t}\n\t\n\tfunction isStakedLPToken(address underlying) public virtual override view returns(bool) {\n\t\ttry IStakedLPToken01(underlying).isStakedLPToken() returns (bool result) {\n\t\t\treturn result;\n\t\t} catch {\n\t\t\treturn false;\n\t\t}\n\t}\n\tfunction getUniswapV2Pair(address underlying) public virtual override view returns (address) {\n\t\ttry IStakedLPToken01(underlying).underlying() returns (address u) {\n\t\t\tif (u != address(0)) return u;\n\t\t\treturn underlying;\n\t\t} catch {\n\t\t\treturn underlying;\n\t\t}\n\t}\n\t\n\tfunction getBorrowable(address underlying, uint8 index) public virtual override view returns (address borrowable) {\n\t\trequire(index < 2, \"ImpermaxRouter: INDEX_TOO_HIGH\");\n\t\t(,,,address borrowable0, address borrowable1) = IFactory(factory).getLendingPool(underlying);\n\t\treturn index == 0 ? borrowable0 : borrowable1;\n\t}\n\tfunction getCollateral(address underlying) public virtual override view returns (address collateral) {\n\t\t(,,collateral,,) = IFactory(factory).getLendingPool(underlying);\n\t}\n\tfunction getLendingPool(address underlying) public virtual override view returns (address collateral, address borrowableA, address borrowableB) {\n\t\tcollateral = getCollateral(underlying);\n\t\tborrowableA = getBorrowable(underlying, 0);\n\t\tborrowableB = getBorrowable(underlying, 1);\n\t}\n}\n",
  "sourcePath": "C:\\Users\\Simone\\Desktop\\impermax-x-uniswapv2-periphery\\contracts\\Router03.sol",
  "compiler": {
    "name": "solc",
    "version": "0.6.6+commit.6c089d02.Emscripten.clang"
  },
  "schemaVersion": "3.4.16",
  "updatedAt": "2023-12-03T13:34:00.775Z",
  "devdoc": {
    "methods": {}
  },
  "userdoc": {
    "methods": {
      "borrow(address,uint256,address,uint256,bytes)": {
        "notice": "* Borrow **"
      },
      "deleverage(address,uint256,uint256,uint256,uint256,bytes)": {
        "notice": "* Deleverage LP Token **"
      },
      "liquidate(address,uint256,address,address,uint256)": {
        "notice": "* Liquidate **"
      },
      "redeem(address,uint256,address,uint256,bytes)": {
        "notice": "* Redeem **"
      }
    }
  }
}