{
  "contractName": "Router01",
  "abi": [
    {
      "inputs": [
        {
          "internalType": "address",
          "name": "_factory",
          "type": "address"
        },
        {
          "internalType": "address",
          "name": "_bDeployer",
          "type": "address"
        },
        {
          "internalType": "address",
          "name": "_cDeployer",
          "type": "address"
        },
        {
          "internalType": "address",
          "name": "_WETH",
          "type": "address"
        }
      ],
      "stateMutability": "nonpayable",
      "type": "constructor"
    },
    {
      "inputs": [],
      "name": "WETH",
      "outputs": [
        {
          "internalType": "address",
          "name": "",
          "type": "address"
        }
      ],
      "stateMutability": "view",
      "type": "function",
      "constant": true
    },
    {
      "inputs": [],
      "name": "bDeployer",
      "outputs": [
        {
          "internalType": "address",
          "name": "",
          "type": "address"
        }
      ],
      "stateMutability": "view",
      "type": "function",
      "constant": true
    },
    {
      "inputs": [],
      "name": "cDeployer",
      "outputs": [
        {
          "internalType": "address",
          "name": "",
          "type": "address"
        }
      ],
      "stateMutability": "view",
      "type": "function",
      "constant": true
    },
    {
      "inputs": [],
      "name": "factory",
      "outputs": [
        {
          "internalType": "address",
          "name": "",
          "type": "address"
        }
      ],
      "stateMutability": "view",
      "type": "function",
      "constant": true
    },
    {
      "stateMutability": "payable",
      "type": "receive",
      "payable": true
    },
    {
      "inputs": [
        {
          "internalType": "address",
          "name": "poolToken",
          "type": "address"
        },
        {
          "internalType": "uint256",
          "name": "amount",
          "type": "uint256"
        },
        {
          "internalType": "address",
          "name": "to",
          "type": "address"
        },
        {
          "internalType": "uint256",
          "name": "deadline",
          "type": "uint256"
        }
      ],
      "name": "mint",
      "outputs": [
        {
          "internalType": "uint256",
          "name": "tokens",
          "type": "uint256"
        }
      ],
      "stateMutability": "nonpayable",
      "type": "function"
    },
    {
      "inputs": [
        {
          "internalType": "address",
          "name": "poolToken",
          "type": "address"
        },
        {
          "internalType": "address",
          "name": "to",
          "type": "address"
        },
        {
          "internalType": "uint256",
          "name": "deadline",
          "type": "uint256"
        }
      ],
      "name": "mintETH",
      "outputs": [
        {
          "internalType": "uint256",
          "name": "tokens",
          "type": "uint256"
        }
      ],
      "stateMutability": "payable",
      "type": "function",
      "payable": true
    },
    {
      "inputs": [
        {
          "internalType": "address",
          "name": "poolToken",
          "type": "address"
        },
        {
          "internalType": "uint256",
          "name": "amount",
          "type": "uint256"
        },
        {
          "internalType": "address",
          "name": "to",
          "type": "address"
        },
        {
          "internalType": "uint256",
          "name": "deadline",
          "type": "uint256"
        },
        {
          "internalType": "bytes",
          "name": "permitData",
          "type": "bytes"
        }
      ],
      "name": "mintCollateral",
      "outputs": [
        {
          "internalType": "uint256",
          "name": "tokens",
          "type": "uint256"
        }
      ],
      "stateMutability": "nonpayable",
      "type": "function"
    },
    {
      "inputs": [
        {
          "internalType": "address",
          "name": "poolToken",
          "type": "address"
        },
        {
          "internalType": "uint256",
          "name": "tokens",
          "type": "uint256"
        },
        {
          "internalType": "address",
          "name": "to",
          "type": "address"
        },
        {
          "internalType": "uint256",
          "name": "deadline",
          "type": "uint256"
        },
        {
          "internalType": "bytes",
          "name": "permitData",
          "type": "bytes"
        }
      ],
      "name": "redeem",
      "outputs": [
        {
          "internalType": "uint256",
          "name": "amount",
          "type": "uint256"
        }
      ],
      "stateMutability": "nonpayable",
      "type": "function"
    },
    {
      "inputs": [
        {
          "internalType": "address",
          "name": "poolToken",
          "type": "address"
        },
        {
          "internalType": "uint256",
          "name": "tokens",
          "type": "uint256"
        },
        {
          "internalType": "address",
          "name": "to",
          "type": "address"
        },
        {
          "internalType": "uint256",
          "name": "deadline",
          "type": "uint256"
        },
        {
          "internalType": "bytes",
          "name": "permitData",
          "type": "bytes"
        }
      ],
      "name": "redeemETH",
      "outputs": [
        {
          "internalType": "uint256",
          "name": "amountETH",
          "type": "uint256"
        }
      ],
      "stateMutability": "nonpayable",
      "type": "function"
    },
    {
      "inputs": [
        {
          "internalType": "address",
          "name": "borrowable",
          "type": "address"
        },
        {
          "internalType": "uint256",
          "name": "amount",
          "type": "uint256"
        },
        {
          "internalType": "address",
          "name": "to",
          "type": "address"
        },
        {
          "internalType": "uint256",
          "name": "deadline",
          "type": "uint256"
        },
        {
          "internalType": "bytes",
          "name": "permitData",
          "type": "bytes"
        }
      ],
      "name": "borrow",
      "outputs": [],
      "stateMutability": "nonpayable",
      "type": "function"
    },
    {
      "inputs": [
        {
          "internalType": "address",
          "name": "borrowable",
          "type": "address"
        },
        {
          "internalType": "uint256",
          "name": "amountETH",
          "type": "uint256"
        },
        {
          "internalType": "address",
          "name": "to",
          "type": "address"
        },
        {
          "internalType": "uint256",
          "name": "deadline",
          "type": "uint256"
        },
        {
          "internalType": "bytes",
          "name": "permitData",
          "type": "bytes"
        }
      ],
      "name": "borrowETH",
      "outputs": [],
      "stateMutability": "nonpayable",
      "type": "function"
    },
    {
      "inputs": [
        {
          "internalType": "address",
          "name": "borrowable",
          "type": "address"
        },
        {
          "internalType": "uint256",
          "name": "amountMax",
          "type": "uint256"
        },
        {
          "internalType": "address",
          "name": "borrower",
          "type": "address"
        },
        {
          "internalType": "uint256",
          "name": "deadline",
          "type": "uint256"
        }
      ],
      "name": "repay",
      "outputs": [
        {
          "internalType": "uint256",
          "name": "amount",
          "type": "uint256"
        }
      ],
      "stateMutability": "nonpayable",
      "type": "function"
    },
    {
      "inputs": [
        {
          "internalType": "address",
          "name": "borrowable",
          "type": "address"
        },
        {
          "internalType": "address",
          "name": "borrower",
          "type": "address"
        },
        {
          "internalType": "uint256",
          "name": "deadline",
          "type": "uint256"
        }
      ],
      "name": "repayETH",
      "outputs": [
        {
          "internalType": "uint256",
          "name": "amountETH",
          "type": "uint256"
        }
      ],
      "stateMutability": "payable",
      "type": "function",
      "payable": true
    },
    {
      "inputs": [
        {
          "internalType": "address",
          "name": "borrowable",
          "type": "address"
        },
        {
          "internalType": "uint256",
          "name": "amountMax",
          "type": "uint256"
        },
        {
          "internalType": "address",
          "name": "borrower",
          "type": "address"
        },
        {
          "internalType": "address",
          "name": "to",
          "type": "address"
        },
        {
          "internalType": "uint256",
          "name": "deadline",
          "type": "uint256"
        }
      ],
      "name": "liquidate",
      "outputs": [
        {
          "internalType": "uint256",
          "name": "amount",
          "type": "uint256"
        },
        {
          "internalType": "uint256",
          "name": "seizeTokens",
          "type": "uint256"
        }
      ],
      "stateMutability": "nonpayable",
      "type": "function"
    },
    {
      "inputs": [
        {
          "internalType": "address",
          "name": "borrowable",
          "type": "address"
        },
        {
          "internalType": "address",
          "name": "borrower",
          "type": "address"
        },
        {
          "internalType": "address",
          "name": "to",
          "type": "address"
        },
        {
          "internalType": "uint256",
          "name": "deadline",
          "type": "uint256"
        }
      ],
      "name": "liquidateETH",
      "outputs": [
        {
          "internalType": "uint256",
          "name": "amountETH",
          "type": "uint256"
        },
        {
          "internalType": "uint256",
          "name": "seizeTokens",
          "type": "uint256"
        }
      ],
      "stateMutability": "payable",
      "type": "function",
      "payable": true
    },
    {
      "inputs": [
        {
          "internalType": "address",
          "name": "uniswapV2Pair",
          "type": "address"
        },
        {
          "internalType": "uint256",
          "name": "amountADesired",
          "type": "uint256"
        },
        {
          "internalType": "uint256",
          "name": "amountBDesired",
          "type": "uint256"
        },
        {
          "internalType": "uint256",
          "name": "amountAMin",
          "type": "uint256"
        },
        {
          "internalType": "uint256",
          "name": "amountBMin",
          "type": "uint256"
        },
        {
          "internalType": "address",
          "name": "to",
          "type": "address"
        },
        {
          "internalType": "uint256",
          "name": "deadline",
          "type": "uint256"
        },
        {
          "internalType": "bytes",
          "name": "permitDataA",
          "type": "bytes"
        },
        {
          "internalType": "bytes",
          "name": "permitDataB",
          "type": "bytes"
        }
      ],
      "name": "leverage",
      "outputs": [],
      "stateMutability": "nonpayable",
      "type": "function"
    },
    {
      "inputs": [
        {
          "internalType": "address",
          "name": "uniswapV2Pair",
          "type": "address"
        },
        {
          "internalType": "uint256",
          "name": "redeemTokens",
          "type": "uint256"
        },
        {
          "internalType": "uint256",
          "name": "amountAMin",
          "type": "uint256"
        },
        {
          "internalType": "uint256",
          "name": "amountBMin",
          "type": "uint256"
        },
        {
          "internalType": "uint256",
          "name": "deadline",
          "type": "uint256"
        },
        {
          "internalType": "bytes",
          "name": "permitData",
          "type": "bytes"
        }
      ],
      "name": "deleverage",
      "outputs": [],
      "stateMutability": "nonpayable",
      "type": "function"
    },
    {
      "inputs": [
        {
          "internalType": "address",
          "name": "sender",
          "type": "address"
        },
        {
          "internalType": "address",
          "name": "borrower",
          "type": "address"
        },
        {
          "internalType": "uint256",
          "name": "borrowAmount",
          "type": "uint256"
        },
        {
          "internalType": "bytes",
          "name": "data",
          "type": "bytes"
        }
      ],
      "name": "impermaxBorrow",
      "outputs": [],
      "stateMutability": "nonpayable",
      "type": "function"
    },
    {
      "inputs": [
        {
          "internalType": "address",
          "name": "sender",
          "type": "address"
        },
        {
          "internalType": "uint256",
          "name": "redeemAmount",
          "type": "uint256"
        },
        {
          "internalType": "bytes",
          "name": "data",
          "type": "bytes"
        }
      ],
      "name": "impermaxRedeem",
      "outputs": [],
      "stateMutability": "nonpayable",
      "type": "function"
    },
    {
      "inputs": [
        {
          "internalType": "address",
          "name": "uniswapV2Pair",
          "type": "address"
        },
        {
          "internalType": "uint256",
          "name": "amountADesired",
          "type": "uint256"
        },
        {
          "internalType": "uint256",
          "name": "amountBDesired",
          "type": "uint256"
        },
        {
          "internalType": "uint256",
          "name": "amountAMin",
          "type": "uint256"
        },
        {
          "internalType": "uint256",
          "name": "amountBMin",
          "type": "uint256"
        }
      ],
      "name": "_optimalLiquidity",
      "outputs": [
        {
          "internalType": "uint256",
          "name": "amountA",
          "type": "uint256"
        },
        {
          "internalType": "uint256",
          "name": "amountB",
          "type": "uint256"
        }
      ],
      "stateMutability": "view",
      "type": "function",
      "constant": true
    },
    {
      "inputs": [
        {
          "internalType": "address",
          "name": "uniswapV2Pair",
          "type": "address"
        },
        {
          "internalType": "uint8",
          "name": "index",
          "type": "uint8"
        }
      ],
      "name": "getBorrowable",
      "outputs": [
        {
          "internalType": "address",
          "name": "borrowable",
          "type": "address"
        }
      ],
      "stateMutability": "view",
      "type": "function",
      "constant": true
    },
    {
      "inputs": [
        {
          "internalType": "address",
          "name": "uniswapV2Pair",
          "type": "address"
        }
      ],
      "name": "getCollateral",
      "outputs": [
        {
          "internalType": "address",
          "name": "collateral",
          "type": "address"
        }
      ],
      "stateMutability": "view",
      "type": "function",
      "constant": true
    },
    {
      "inputs": [
        {
          "internalType": "address",
          "name": "uniswapV2Pair",
          "type": "address"
        }
      ],
      "name": "getLendingPool",
      "outputs": [
        {
          "internalType": "address",
          "name": "collateral",
          "type": "address"
        },
        {
          "internalType": "address",
          "name": "borrowableA",
          "type": "address"
        },
        {
          "internalType": "address",
          "name": "borrowableB",
          "type": "address"
        }
      ],
      "stateMutability": "view",
      "type": "function",
      "constant": true
    }
  ],
  "bytecode": "0x6101006040523480156200001257600080fd5b5060405162004b6a38038062004b6a833981016040819052620000359162000083565b6001600160601b0319606094851b811660805292841b831660a05290831b821660c05290911b1660e052620000e3565b80516001600160a01b03811681146200007d57600080fd5b92915050565b6000806000806080858703121562000099578384fd5b620000a5868662000065565b9350620000b6866020870162000065565b9250620000c7866040870162000065565b9150620000d8866060870162000065565b905092959194509250565b60805160601c60a05160601c60c05160601c60e05160601c6149e162000189600039806101a1528061074a528061080352806109515280610a075280610b555280610bd05280610c89528061148a52806114f8528061157d5280611cdb5280611f005280611f7b528061203452806134de528061356d5250806118c75280611afa525080611d2352806121ce525080611b1b5280611cff52806121ef52506149e16000f3fe6080604052600436106101845760003560e01c806377370d62116100d6578063c45a01551161007f578063eb03419a11610059578063eb03419a14610449578063ef974e9c1461045c578063fcb2a8951461047c576101ca565b8063c45a0155146103ff578063db5a269014610414578063dbe5f2fb14610429576101ca565b80639b56d6c9116100b05780639b56d6c9146103aa578063acb86cbb146103ca578063ad5c4648146103ea576101ca565b806377370d62146103485780637a4660d514610368578063876d9d9e1461038a576101ca565b80633c173a4f1161013857806367bf252f1161011257806367bf252f146102f55780636aee7c1e14610315578063703de94c14610335576101ca565b80633c173a4f1461028757806343e26448146102a75780635c1e6404146102c7576101ca565b80632b005cfc116101695780632b005cfc146102345780632c3445041461025457806335bb105914610274576101ca565b80630572bf5f146101cf5780631f1cc5bc14610207576101ca565b366101ca573373ffffffffffffffffffffffffffffffffffffffff7f000000000000000000000000000000000000000000000000000000000000000016146101c857fe5b005b600080fd5b3480156101db57600080fd5b506101ef6101ea36600461379e565b61049c565b6040516101fe93929190614288565b60405180910390f35b34801561021357600080fd5b506102276102223660046139e2565b6104cc565b6040516101fe91906148af565b34801561024057600080fd5b5061022761024f3660046139e2565b610676565b34801561026057600080fd5b506101c861026f3660046139e2565b61087f565b610227610282366004613826565b610a81565b34801561029357600080fd5b506102276102a2366004613931565b610dce565b3480156102b357600080fd5b506102276102c2366004613968565b610e9f565b3480156102d357600080fd5b506102e76102e23660046138d7565b610fba565b6040516101fe9291906148b8565b34801561030157600080fd5b506101c8610310366004613af3565b611141565b34801561032157600080fd5b50610227610330366004613931565b611244565b610227610343366004613826565b6113b6565b34801561035457600080fd5b506101c8610363366004613bc2565b6115a4565b34801561037457600080fd5b5061037d6118c5565b6040516101fe919061414d565b34801561039657600080fd5b506101c86103a5366004613866565b6118e9565b3480156103b657600080fd5b5061037d6103c536600461379e565b611af6565b3480156103d657600080fd5b506101c86103e5366004613a56565b611baf565b3480156103f657600080fd5b5061037d611cd9565b34801561040b57600080fd5b5061037d611cfd565b34801561042057600080fd5b5061037d611d21565b34801561043557600080fd5b506101c86104443660046139e2565b611d45565b6102e76104573660046137d6565b611e2b565b34801561046857600080fd5b5061037d610477366004613c3d565b61218d565b34801561048857600080fd5b506102e7610497366004613ab0565b612286565b60008060006104aa84611af6565b92506104b784600061218d565b91506104c484600161218d565b929491935050565b60008242811015610512576040517f08c379a0000000000000000000000000000000000000000000000000000000008152600401610509906144c2565b60405180910390fd5b61051e878786866123f0565b6040517f23b872dd00000000000000000000000000000000000000000000000000000000815273ffffffffffffffffffffffffffffffffffffffff8816906323b872dd906105749033908b908b906004016141fb565b602060405180830381600087803b15801561058e57600080fd5b505af11580156105a2573d6000803e3d6000fd5b505050506040513d601f19601f820116820180604052508101906105c69190613c75565b506040517f95a2251f00000000000000000000000000000000000000000000000000000000815273ffffffffffffffffffffffffffffffffffffffff8816906395a2251f9061061990889060040161414d565b602060405180830381600087803b15801561063357600080fd5b505af1158015610647573d6000803e3d6000fd5b505050506040513d601f19601f8201168201806040525081019061066b9190613f09565b979650505050505050565b600082428110156106b3576040517f08c379a0000000000000000000000000000000000000000000000000000000008152600401610509906144c2565b868073ffffffffffffffffffffffffffffffffffffffff16636f307dc36040518163ffffffff1660e01b815260040160206040518083038186803b1580156106fa57600080fd5b505afa15801561070e573d6000803e3d6000fd5b505050506040513d601f19601f8201168201806040525081019061073291906137ba565b73ffffffffffffffffffffffffffffffffffffffff167f000000000000000000000000000000000000000000000000000000000000000073ffffffffffffffffffffffffffffffffffffffff16146107b6576040517f08c379a00000000000000000000000000000000000000000000000000000000081526004016105099061467e565b6107c388883088886104cc565b6040517f2e1a7d4d00000000000000000000000000000000000000000000000000000000815290935073ffffffffffffffffffffffffffffffffffffffff7f00000000000000000000000000000000000000000000000000000000000000001690632e1a7d4d906108389086906004016148af565b600060405180830381600087803b15801561085257600080fd5b505af1158015610866573d6000803e3d6000fd5b5050505061087486846124eb565b505095945050505050565b81428110156108ba576040517f08c379a0000000000000000000000000000000000000000000000000000000008152600401610509906144c2565b858073ffffffffffffffffffffffffffffffffffffffff16636f307dc36040518163ffffffff1660e01b815260040160206040518083038186803b15801561090157600080fd5b505afa158015610915573d6000803e3d6000fd5b505050506040513d601f19601f8201168201806040525081019061093991906137ba565b73ffffffffffffffffffffffffffffffffffffffff167f000000000000000000000000000000000000000000000000000000000000000073ffffffffffffffffffffffffffffffffffffffff16146109bd576040517f08c379a00000000000000000000000000000000000000000000000000000000081526004016105099061467e565b6109ca8787308787611d45565b6040517f2e1a7d4d00000000000000000000000000000000000000000000000000000000815273ffffffffffffffffffffffffffffffffffffffff7f00000000000000000000000000000000000000000000000000000000000000001690632e1a7d4d90610a3c9089906004016148af565b600060405180830381600087803b158015610a5657600080fd5b505af1158015610a6a573d6000803e3d6000fd5b50505050610a7885876124eb565b50505050505050565b60008142811015610abe576040517f08c379a0000000000000000000000000000000000000000000000000000000008152600401610509906144c2565b848073ffffffffffffffffffffffffffffffffffffffff16636f307dc36040518163ffffffff1660e01b815260040160206040518083038186803b158015610b0557600080fd5b505afa158015610b19573d6000803e3d6000fd5b505050506040513d601f19601f82011682018060405250810190610b3d91906137ba565b73ffffffffffffffffffffffffffffffffffffffff167f000000000000000000000000000000000000000000000000000000000000000073ffffffffffffffffffffffffffffffffffffffff1614610bc1576040517f08c379a00000000000000000000000000000000000000000000000000000000081526004016105099061467e565b610bcc8634876125a4565b92507f000000000000000000000000000000000000000000000000000000000000000073ffffffffffffffffffffffffffffffffffffffff1663d0e30db0846040518263ffffffff1660e01b81526004016000604051808303818588803b158015610c3657600080fd5b505af1158015610c4a573d6000803e3d6000fd5b50506040517fa9059cbb00000000000000000000000000000000000000000000000000000000815273ffffffffffffffffffffffffffffffffffffffff7f000000000000000000000000000000000000000000000000000000000000000016935063a9059cbb9250610cc39150899087906004016142b8565b602060405180830381600087803b158015610cdd57600080fd5b505af1158015610cf1573d6000803e3d6000fd5b505050506040513d601f19601f82011682018060405250810190610d159190613c75565b610d1b57fe5b60408051600080825260208201928390527f1e7dcc0d0000000000000000000000000000000000000000000000000000000090925273ffffffffffffffffffffffffffffffffffffffff881691631e7dcc0d91610d7f91899181906024810161416e565b600060405180830381600087803b158015610d9957600080fd5b505af1158015610dad573d6000803e3d6000fd5b5050505082341115610dc557610dc5338434036124eb565b50509392505050565b60008142811015610e0b576040517f08c379a0000000000000000000000000000000000000000000000000000000008152600401610509906144c2565b610e95868773ffffffffffffffffffffffffffffffffffffffff16636f307dc36040518163ffffffff1660e01b815260040160206040518083038186803b158015610e5557600080fd5b505afa158015610e69573d6000803e3d6000fd5b505050506040513d601f19601f82011682018060405250810190610e8d91906137ba565b8733886126c5565b9695505050505050565b60008342811015610edc576040517f08c379a0000000000000000000000000000000000000000000000000000000008152600401610509906144c2565b60008873ffffffffffffffffffffffffffffffffffffffff16636f307dc36040518163ffffffff1660e01b815260040160206040518083038186803b158015610f2457600080fd5b505afa158015610f38573d6000803e3d6000fd5b505050506040513d601f19601f82011682018060405250810190610f5c91906137ba565b9050610fa081898888888080601f0160208091040260200160405190810160405280939291908181526020018383808284376000920191909152506123f092505050565b610fad89828a338b6126c5565b9998505050505050505050565b6000808242811015610ff8576040517f08c379a0000000000000000000000000000000000000000000000000000000008152600401610509906144c2565b6110038888886125a4565b925061108e8873ffffffffffffffffffffffffffffffffffffffff16636f307dc36040518163ffffffff1660e01b815260040160206040518083038186803b15801561104e57600080fd5b505afa158015611062573d6000803e3d6000fd5b505050506040513d601f19601f8201168201806040525081019061108691906137ba565b338a866127a5565b6040517f86b9d81f00000000000000000000000000000000000000000000000000000000815273ffffffffffffffffffffffffffffffffffffffff8916906386b9d81f906110e29089908990600401614261565b602060405180830381600087803b1580156110fc57600080fd5b505af1158015611110573d6000803e3d6000fd5b505050506040513d601f19601f820116820180604052508101906111349190613f09565b9150509550959350505050565b844281101561117c576040517f08c379a0000000000000000000000000000000000000000000000000000000008152600401610509906144c2565b6111c861118a8d600061218d565b8c8888888080601f0160208091040260200160405190810160405280939291908181526020018383808284376000920191909152506128ca92505050565b6112146111d68d600161218d565b8b8886868080601f0160208091040260200160405190810160405280939291908181526020018383808284376000920191909152506128ca92505050565b6000806112248e8e8e8e8e612286565b915091506112348e83838c612987565b5050505050505050505050505050565b60008142811015611281576040517f08c379a0000000000000000000000000000000000000000000000000000000008152600401610509906144c2565b61128c8686866125a4565b91506113178673ffffffffffffffffffffffffffffffffffffffff16636f307dc36040518163ffffffff1660e01b815260040160206040518083038186803b1580156112d757600080fd5b505afa1580156112eb573d6000803e3d6000fd5b505050506040513d601f19601f8201168201806040525081019061130f91906137ba565b3388856127a5565b60408051600080825260208201928390527f1e7dcc0d0000000000000000000000000000000000000000000000000000000090925273ffffffffffffffffffffffffffffffffffffffff881691631e7dcc0d9161137b91889181906024810161416e565b600060405180830381600087803b15801561139557600080fd5b505af11580156113a9573d6000803e3d6000fd5b5050505050949350505050565b600081428110156113f3576040517f08c379a0000000000000000000000000000000000000000000000000000000008152600401610509906144c2565b848073ffffffffffffffffffffffffffffffffffffffff16636f307dc36040518163ffffffff1660e01b815260040160206040518083038186803b15801561143a57600080fd5b505afa15801561144e573d6000803e3d6000fd5b505050506040513d601f19601f8201168201806040525081019061147291906137ba565b73ffffffffffffffffffffffffffffffffffffffff167f000000000000000000000000000000000000000000000000000000000000000073ffffffffffffffffffffffffffffffffffffffff16146114f6576040517f08c379a00000000000000000000000000000000000000000000000000000000081526004016105099061467e565b7f000000000000000000000000000000000000000000000000000000000000000073ffffffffffffffffffffffffffffffffffffffff1663d0e30db0346040518263ffffffff1660e01b81526004016000604051808303818588803b15801561155e57600080fd5b505af1158015611572573d6000803e3d6000fd5b5050505050610e95867f00000000000000000000000000000000000000000000000000000000000000003430896126c5565b82428110156115df576040517f08c379a0000000000000000000000000000000000000000000000000000000008152600401610509906144c2565b60006115ea89611af6565b905060008173ffffffffffffffffffffffffffffffffffffffff16633ba0b9a96040518163ffffffff1660e01b8152600401602060405180830381600087803b15801561163657600080fd5b505af115801561164a573d6000803e3d6000fd5b505050506040513d601f19601f8201168201806040525081019061166e9190613f09565b9050600089116116aa576040517f08c379a0000000000000000000000000000000000000000000000000000000008152600401610509906145ea565b60006116f6670de0b6b3a76400006116ea7fffffffffffffffffffffffffffffffffffffffffffffffffffffffffffffffff8d018563ffffffff612c1b16565b9063ffffffff612c7816565b905061173a838b8989898080601f0160208091040260200160405190810160405280939291908181526020018383808284376000920191909152506123f092505050565b604080516080810190915260609080600281526020018d73ffffffffffffffffffffffffffffffffffffffff168152602001600060ff1681526020016040518060a001604052803373ffffffffffffffffffffffffffffffffffffffff1681526020018e81526020018581526020018d81526020018c8152506040516020016117c3919061485f565b604080517fffffffffffffffffffffffffffffffffffffffffffffffffffffffffffffffe08184030181529181529152516118019190602001614801565b604080517fffffffffffffffffffffffffffffffffffffffffffffffffffffffffffffffe0818403018152908290527f19f3400d000000000000000000000000000000000000000000000000000000008252915073ffffffffffffffffffffffffffffffffffffffff8516906319f3400d906118859030908690869060040161422c565b600060405180830381600087803b15801561189f57600080fd5b505af11580156118b3573d6000803e3d6000fd5b50505050505050505050505050505050565b7f000000000000000000000000000000000000000000000000000000000000000081565b6118f16135ee565b6118fd82840184613dc0565b905060006119138260200151836040015161218d565b905073ffffffffffffffffffffffffffffffffffffffff87163014611964576040517f08c379a000000000000000000000000000000000000000000000000000000000815260040161050990614465565b3373ffffffffffffffffffffffffffffffffffffffff8216146119b3576040517f08c379a0000000000000000000000000000000000000000000000000000000008152600401610509906142f1565b6000825160028111156119c257fe5b1415611a0c576119d0613615565b82606001518060200190518101906119e89190613ce0565b9050611a068360200151826000015183602001518460400151612cba565b50610a78565b600182516002811115611a1b57fe5b14156101ca57611a2961364c565b8260600151806020019051810190611a419190613d23565b90506000611a548460200151600161218d565b82516020840151604080860151606087015191517f1e7dcc0d00000000000000000000000000000000000000000000000000000000815294955073ffffffffffffffffffffffffffffffffffffffff861694631e7dcc0d94611abd94909390929160040161416e565b600060405180830381600087803b158015611ad757600080fd5b505af1158015611aeb573d6000803e3d6000fd5b505050505050610a78565b60007f00000000000000000000000000000000000000000000000000000000000000007f000000000000000000000000000000000000000000000000000000000000000083604051602001611b4c929190613f8e565b60405160208183030381529060405280519060200120604051602001611b7392919061404b565b604080517fffffffffffffffffffffffffffffffffffffffffffffffffffffffffffffffe0818403018152919052805160209091012092915050565b611bb76135ee565b611bc382840184613dc0565b90506000611bd48260200151611af6565b905073ffffffffffffffffffffffffffffffffffffffff86163014611c25576040517f08c379a000000000000000000000000000000000000000000000000000000000815260040161050990614465565b3373ffffffffffffffffffffffffffffffffffffffff821614611c74576040517f08c379a0000000000000000000000000000000000000000000000000000000008152600401610509906142f1565b600282516002811115611c8357fe5b14156101ca57611c91613672565b8260600151806020019051810190611ca99190613e59565b9050610a78836020015182600001518360200151846040015185606001518660800151612f31565b505050505050565b7f000000000000000000000000000000000000000000000000000000000000000081565b7f000000000000000000000000000000000000000000000000000000000000000081565b7f000000000000000000000000000000000000000000000000000000000000000081565b8142811015611d80576040517f08c379a0000000000000000000000000000000000000000000000000000000008152600401610509906144c2565b611d8c868685856128ca565b604080516000815260208101918290527f1e7dcc0d0000000000000000000000000000000000000000000000000000000090915273ffffffffffffffffffffffffffffffffffffffff871690631e7dcc0d90611df190339088908a906024810161416e565b600060405180830381600087803b158015611e0b57600080fd5b505af1158015611e1f573d6000803e3d6000fd5b50505050505050505050565b6000808242811015611e69576040517f08c379a0000000000000000000000000000000000000000000000000000000008152600401610509906144c2565b868073ffffffffffffffffffffffffffffffffffffffff16636f307dc36040518163ffffffff1660e01b815260040160206040518083038186803b158015611eb057600080fd5b505afa158015611ec4573d6000803e3d6000fd5b505050506040513d601f19601f82011682018060405250810190611ee891906137ba565b73ffffffffffffffffffffffffffffffffffffffff167f000000000000000000000000000000000000000000000000000000000000000073ffffffffffffffffffffffffffffffffffffffff1614611f6c576040517f08c379a00000000000000000000000000000000000000000000000000000000081526004016105099061467e565b611f778834896125a4565b93507f000000000000000000000000000000000000000000000000000000000000000073ffffffffffffffffffffffffffffffffffffffff1663d0e30db0856040518263ffffffff1660e01b81526004016000604051808303818588803b158015611fe157600080fd5b505af1158015611ff5573d6000803e3d6000fd5b50506040517fa9059cbb00000000000000000000000000000000000000000000000000000000815273ffffffffffffffffffffffffffffffffffffffff7f000000000000000000000000000000000000000000000000000000000000000016935063a9059cbb925061206e91508b9088906004016142b8565b602060405180830381600087803b15801561208857600080fd5b505af115801561209c573d6000803e3d6000fd5b505050506040513d601f19601f820116820180604052508101906120c09190613c75565b6120c657fe5b6040517f86b9d81f00000000000000000000000000000000000000000000000000000000815273ffffffffffffffffffffffffffffffffffffffff8916906386b9d81f9061211a908a908a90600401614261565b602060405180830381600087803b15801561213457600080fd5b505af1158015612148573d6000803e3d6000fd5b505050506040513d601f19601f8201168201806040525081019061216c9190613f09565b92508334111561218257612182338534036124eb565b505094509492505050565b600060028260ff16106121cc576040517f08c379a0000000000000000000000000000000000000000000000000000000008152600401610509906144f9565b7f00000000000000000000000000000000000000000000000000000000000000007f0000000000000000000000000000000000000000000000000000000000000000848460405160200161222293929190613fc8565b604051602081830303815290604052805190602001206040516020016122499291906140cc565b604080517fffffffffffffffffffffffffffffffffffffffffffffffffffffffffffffffe081840301815291905280516020909101209392505050565b6000806000808873ffffffffffffffffffffffffffffffffffffffff16630902f1ac6040518163ffffffff1660e01b815260040160606040518083038186803b1580156122d257600080fd5b505afa1580156122e6573d6000803e3d6000fd5b505050506040513d601f19601f8201168201806040525081019061230a9190613eb5565b506dffffffffffffffffffffffffffff1691506dffffffffffffffffffffffffffff169150600061233c898484613200565b905087811161238a578581101561237f576040517f08c379a000000000000000000000000000000000000000000000000000000000815260040161050990614712565b8894509250826123e3565b6000612397898486613200565b9050898111156123a357fe5b878110156123dd576040517f08c379a00000000000000000000000000000000000000000000000000000000081526004016105099061434e565b94508793505b5050509550959350505050565b80516123fb576124e5565b600080600080848060200190518101906124159190613c95565b935093509350935060008461242a578761244c565b7fffffffffffffffffffffffffffffffffffffffffffffffffffffffffffffffff5b6040517fd505accf00000000000000000000000000000000000000000000000000000000815290915073ffffffffffffffffffffffffffffffffffffffff8a169063d505accf906124ad903390309086908d908b908b908b906004016141ad565b600060405180830381600087803b1580156124c757600080fd5b505af11580156124db573d6000803e3d6000fd5b5050505050505050505b50505050565b6040805160008082526020820190925273ffffffffffffffffffffffffffffffffffffffff8416908390604051612522919061402f565b60006040518083038185875af1925050503d806000811461255f576040519150601f19603f3d011682016040523d82523d6000602084013e612564565b606091505b505090508061259f576040517f08c379a000000000000000000000000000000000000000000000000000000000815260040161050990614408565b505050565b60008373ffffffffffffffffffffffffffffffffffffffff1663a6afed956040518163ffffffff1660e01b8152600401600060405180830381600087803b1580156125ee57600080fd5b505af1158015612602573d6000803e3d6000fd5b50506040517f4d73e9ba0000000000000000000000000000000000000000000000000000000081526000925073ffffffffffffffffffffffffffffffffffffffff87169150634d73e9ba9061265b90869060040161414d565b60206040518083038186803b15801561267357600080fd5b505afa158015612687573d6000803e3d6000fd5b505050506040513d601f19601f820116820180604052508101906126ab9190613f09565b90508084106126ba57806126bc565b835b95945050505050565b600073ffffffffffffffffffffffffffffffffffffffff83163014156126f5576126f08587866132a2565b612701565b612701858488876127a5565b6040517f6a62784200000000000000000000000000000000000000000000000000000000815273ffffffffffffffffffffffffffffffffffffffff871690636a6278429061275390859060040161414d565b602060405180830381600087803b15801561276d57600080fd5b505af1158015612781573d6000803e3d6000fd5b505050506040513d601f19601f82011682018060405250810190610e959190613f09565b600060608573ffffffffffffffffffffffffffffffffffffffff166323b872dd8686866040516024016127da939291906141fb565b6040516020818303038152906040529060e01b6020820180517bffffffffffffffffffffffffffffffffffffffffffffffffffffffff8381831617835250505050604051612828919061402f565b6000604051808303816000865af19150503d8060008114612865576040519150601f19603f3d011682016040523d82523d6000602084013e61286a565b606091505b50915091508180156128945750805115806128945750808060200190518101906128949190613c75565b611cd1576040517f08c379a0000000000000000000000000000000000000000000000000000000008152600401610509906143ab565b80516128d5576124e5565b600080600080848060200190518101906128ef9190613c95565b93509350935093506000846129045787612926565b7fffffffffffffffffffffffffffffffffffffffffffffffffffffffffffffffff5b6040517f9e79b55c00000000000000000000000000000000000000000000000000000000815290915073ffffffffffffffffffffffffffffffffffffffff8a1690639e79b55c906124ad903390309086908d908b908b908b906004016141ad565b600061299485600061218d565b905060606040518060800160405280600060028111156129b057fe5b81526020018773ffffffffffffffffffffffffffffffffffffffff168152602001600160ff16815260200160405180606001604052808881526020018781526020018673ffffffffffffffffffffffffffffffffffffffff16815250604051602001612a1c919061476f565b604080517fffffffffffffffffffffffffffffffffffffffffffffffffffffffffffffffe0818403018152918152915251612a5a9190602001614801565b604080517fffffffffffffffffffffffffffffffffffffffffffffffffffffffffffffffe081840301815260808301909152915060609080600181526020018873ffffffffffffffffffffffffffffffffffffffff168152602001600060ff16815260200160405180608001604052803373ffffffffffffffffffffffffffffffffffffffff1681526020013073ffffffffffffffffffffffffffffffffffffffff16815260200188815260200185815250604051602001612b1c91906147a6565b604080517fffffffffffffffffffffffffffffffffffffffffffffffffffffffffffffffe0818403018152918152915251612b5a9190602001614801565b604080517fffffffffffffffffffffffffffffffffffffffffffffffffffffffffffffffe0818403018152908290527f1e7dcc0d000000000000000000000000000000000000000000000000000000008252915073ffffffffffffffffffffffffffffffffffffffff841690631e7dcc0d90612be090339030908b90879060040161416e565b600060405180830381600087803b158015612bfa57600080fd5b505af1158015612c0e573d6000803e3d6000fd5b5050505050505050505050565b600082612c2a57506000612c72565b82820282848281612c3757fe5b0414612c6f576040517f08c379a00000000000000000000000000000000000000000000000000000000081526004016105099061458d565b90505b92915050565b6000612c6f83836040518060400160405280601a81526020017f536166654d6174683a206469766973696f6e206279207a65726f0000000000008152506133cc565b6000806000612cc88761049c565b925092509250612d568273ffffffffffffffffffffffffffffffffffffffff16636f307dc36040518163ffffffff1660e01b815260040160206040518083038186803b158015612d1757600080fd5b505afa158015612d2b573d6000803e3d6000fd5b505050506040513d601f19601f82011682018060405250810190612d4f91906137ba565b88886132a2565b612dde8173ffffffffffffffffffffffffffffffffffffffff16636f307dc36040518163ffffffff1660e01b815260040160206040518083038186803b158015612d9f57600080fd5b505afa158015612db3573d6000803e3d6000fd5b505050506040513d601f19601f82011682018060405250810190612dd791906137ba565b88876132a2565b6040517f6a62784200000000000000000000000000000000000000000000000000000000815273ffffffffffffffffffffffffffffffffffffffff881690636a62784290612e3090869060040161414d565b602060405180830381600087803b158015612e4a57600080fd5b505af1158015612e5e573d6000803e3d6000fd5b505050506040513d601f19601f82011682018060405250810190612e829190613f09565b506040517f6a62784200000000000000000000000000000000000000000000000000000000815273ffffffffffffffffffffffffffffffffffffffff841690636a62784290612ed590879060040161414d565b602060405180830381600087803b158015612eef57600080fd5b505af1158015612f03573d6000803e3d6000fd5b505050506040513d601f19601f82011682018060405250810190612f279190613f09565b5050505050505050565b6000806000612f3f8961049c565b92509250925060008273ffffffffffffffffffffffffffffffffffffffff16636f307dc36040518163ffffffff1660e01b815260040160206040518083038186803b158015612f8d57600080fd5b505afa158015612fa1573d6000803e3d6000fd5b505050506040513d601f19601f82011682018060405250810190612fc591906137ba565b905060008273ffffffffffffffffffffffffffffffffffffffff16636f307dc36040518163ffffffff1660e01b815260040160206040518083038186803b15801561300f57600080fd5b505afa158015613023573d6000803e3d6000fd5b505050506040513d601f19601f8201168201806040525081019061304791906137ba565b90506130548b8c8a6132a2565b6000808c73ffffffffffffffffffffffffffffffffffffffff166389afcb44306040518263ffffffff1660e01b8152600401613090919061414d565b6040805180830381600087803b1580156130a957600080fd5b505af11580156130bd573d6000803e3d6000fd5b505050506040513d601f19601f820116820180604052508101906130e19190613f21565b915091508882101561311f576040517f08c379a00000000000000000000000000000000000000000000000000000000081526004016105099061434e565b87811015613159576040517f08c379a000000000000000000000000000000000000000000000000000000000815260040161050990614712565b61316586858e8561341d565b61317185848e8461341d565b8673ffffffffffffffffffffffffffffffffffffffff166323b872dd8d898e6040518463ffffffff1660e01b81526004016131ae939291906141fb565b602060405180830381600087803b1580156131c857600080fd5b505af11580156131dc573d6000803e3d6000fd5b505050506040513d601f19601f820116820180604052508101906112349190613c75565b600080841161323b576040517f08c379a000000000000000000000000000000000000000000000000000000000815260040161050990614621565b60008311801561324b5750600082115b613281576040517f08c379a000000000000000000000000000000000000000000000000000000000815260040161050990614530565b82613292858463ffffffff612c1b16565b8161329957fe5b04949350505050565b600060608473ffffffffffffffffffffffffffffffffffffffff1663a9059cbb85856040516024016132d59291906142b8565b6040516020818303038152906040529060e01b6020820180517bffffffffffffffffffffffffffffffffffffffffffffffffffffffff8381831617835250505050604051613323919061402f565b6000604051808303816000865af19150503d8060008114613360576040519150601f19603f3d011682016040523d82523d6000602084013e613365565b606091505b509150915081801561338f57508051158061338f57508080602001905181019061338f9190613c75565b6133c5576040517f08c379a0000000000000000000000000000000000000000000000000000000008152600401610509906146b5565b5050505050565b60008183613407576040517f08c379a000000000000000000000000000000000000000000000000000000000815260040161050991906142de565b50600083858161341357fe5b0495945050505050565b600061342a8583856125a4565b90506134378486836132a2565b60408051600080825260208201928390527f1e7dcc0d0000000000000000000000000000000000000000000000000000000090925273ffffffffffffffffffffffffffffffffffffffff871691631e7dcc0d9161349b91879181906024810161416e565b600060405180830381600087803b1580156134b557600080fd5b505af11580156134c9573d6000803e3d6000fd5b50505050808211156133c557600081830390507f000000000000000000000000000000000000000000000000000000000000000073ffffffffffffffffffffffffffffffffffffffff168573ffffffffffffffffffffffffffffffffffffffff1614156135e3576040517f2e1a7d4d00000000000000000000000000000000000000000000000000000000815273ffffffffffffffffffffffffffffffffffffffff7f00000000000000000000000000000000000000000000000000000000000000001690632e1a7d4d906135a29084906004016148af565b600060405180830381600087803b1580156135bc57600080fd5b505af11580156135d0573d6000803e3d6000fd5b505050506135de84826124eb565b611cd1565b611cd18585836132a2565b60408051608081019091528060008152600060208201819052604082015260609081015290565b60405180606001604052806000815260200160008152602001600073ffffffffffffffffffffffffffffffffffffffff1681525090565b604080516080810182526000808252602082018190529181019190915260608082015290565b6040518060a00160405280600073ffffffffffffffffffffffffffffffffffffffff168152602001600081526020016000815260200160008152602001600081525090565b60008083601f8401126136c8578182fd5b50813567ffffffffffffffff8111156136df578182fd5b6020830191508360208285010111156136f757600080fd5b9250929050565b600082601f83011261370e578081fd5b813561372161371c826148ed565b6148c6565b915080825283602082850101111561373857600080fd5b8060208401602084013760009082016020015292915050565b600082601f830112613761578081fd5b815161376f61371c826148ed565b915080825283602082850101111561378657600080fd5b61379781602084016020860161492f565b5092915050565b6000602082840312156137af578081fd5b8135612c6f8161495b565b6000602082840312156137cb578081fd5b8151612c6f8161495b565b600080600080608085870312156137eb578283fd5b84356137f68161495b565b935060208501356138068161495b565b925060408501356138168161495b565b9396929550929360600135925050565b60008060006060848603121561383a578283fd5b83356138458161495b565b925060208401356138558161495b565b929592945050506040919091013590565b60008060008060006080868803121561387d578081fd5b85356138888161495b565b945060208601356138988161495b565b935060408601359250606086013567ffffffffffffffff8111156138ba578182fd5b6138c6888289016136b7565b969995985093965092949392505050565b600080600080600060a086880312156138ee578283fd5b85356138f98161495b565b94506020860135935060408601356139108161495b565b925060608601356139208161495b565b949793965091946080013592915050565b60008060008060808587031215613946578182fd5b84356139518161495b565b93506020850135925060408501356138168161495b565b60008060008060008060a08789031215613980578384fd5b863561398b8161495b565b95506020870135945060408701356139a28161495b565b935060608701359250608087013567ffffffffffffffff8111156139c4578182fd5b6139d089828a016136b7565b979a9699509497509295939492505050565b600080600080600060a086880312156139f9578283fd5b8535613a048161495b565b9450602086013593506040860135613a1b8161495b565b925060608601359150608086013567ffffffffffffffff811115613a3d578182fd5b613a49888289016136fe565b9150509295509295909350565b60008060008060608587031215613a6b578182fd5b8435613a768161495b565b935060208501359250604085013567ffffffffffffffff811115613a98578283fd5b613aa4878288016136b7565b95989497509550505050565b600080600080600060a08688031215613ac7578283fd5b8535613ad28161495b565b97602087013597506040870135966060810135965060800135945092505050565b60008060008060008060008060008060006101208c8e031215613b14578889fd5b613b1e8c3561495b565b8b359a5060208c0135995060408c0135985060608c0135975060808c01359650613b4b60a08d013561495b565b60a08c0135955060c08c0135945067ffffffffffffffff8060e08e01351115613b72578485fd5b613b828e60e08f01358f016136b7565b90955093506101008d0135811015613b98578283fd5b50613baa8d6101008e01358e016136b7565b81935080925050509295989b509295989b9093969950565b600080600080600080600060c0888a031215613bdc578081fd5b8735613be78161495b565b96506020880135955060408801359450606088013593506080880135925060a088013567ffffffffffffffff811115613c1e578182fd5b613c2a8a828b016136b7565b989b979a50959850939692959293505050565b60008060408385031215613c4f578182fd5b8235613c5a8161495b565b91506020830135613c6a8161499c565b809150509250929050565b600060208284031215613c86578081fd5b81518015158114612c6f578182fd5b60008060008060808587031215613caa578182fd5b84518015158114613cb9578283fd5b6020860151909450613cca8161499c565b6040860151606090960151949790965092505050565b600060608284031215613cf1578081fd5b613cfb60606148c6565b82518152602083015160208201526040830151613d178161495b565b60408201529392505050565b600060208284031215613d34578081fd5b815167ffffffffffffffff80821115613d4b578283fd5b81840160808187031215613d5d578384fd5b613d6760806148c6565b92508051613d748161495b565b83526020810151613d848161495b565b602084015260408181015190840152606081015182811115613da4578485fd5b613db087828401613751565b6060850152509195945050505050565b600060208284031215613dd1578081fd5b813567ffffffffffffffff80821115613de8578283fd5b81840160808187031215613dfa578384fd5b613e0460806148c6565b9250803560038110613e14578485fd5b83526020810135613e248161495b565b60208401526040810135613e378161499c565b6040840152606081013582811115613e4d578485fd5b613db0878284016136fe565b600060a08284031215613e6a578081fd5b613e7460a06148c6565b8251613e7f8161495b565b80825250602083015160208201526040830151604082015260608301516060820152608083015160808201528091505092915050565b600080600060608486031215613ec9578081fd5b8351613ed481614980565b6020850151909350613ee581614980565b604085015190925063ffffffff81168114613efe578182fd5b809150509250925092565b600060208284031215613f1a578081fd5b5051919050565b60008060408385031215613f33578182fd5b505080516020909101519092909150565b60008151808452613f5c81602086016020860161492f565b601f017fffffffffffffffffffffffffffffffffffffffffffffffffffffffffffffffe0169290920160200192915050565b7fffffffffffffffffffffffffffffffffffffffff000000000000000000000000606093841b811682529190921b16601482015260280190565b606093841b7fffffffffffffffffffffffffffffffffffffffff00000000000000000000000090811682529290931b909116601483015260f81b7fff0000000000000000000000000000000000000000000000000000000000000016602882015260290190565b6000825161404181846020870161492f565b9190910192915050565b7fff00000000000000000000000000000000000000000000000000000000000000815260609290921b7fffffffffffffffffffffffffffffffffffffffff00000000000000000000000016600183015260158201527f4b8788d8761647e6330407671d3c6c80afaed3d047800dba0e0e3befde047767603582015260550190565b7fff00000000000000000000000000000000000000000000000000000000000000815260609290921b7fffffffffffffffffffffffffffffffffffffffff00000000000000000000000016600183015260158201527f605ba1db56496978613939baf0ae31dccceea3f5ca53dfaa76512bc880d7bb8f603582015260550190565b73ffffffffffffffffffffffffffffffffffffffff91909116815260200190565b600073ffffffffffffffffffffffffffffffffffffffff808716835280861660208401525083604083015260806060830152610e956080830184613f44565b73ffffffffffffffffffffffffffffffffffffffff97881681529590961660208601526040850193909352606084019190915260ff16608083015260a082015260c081019190915260e00190565b73ffffffffffffffffffffffffffffffffffffffff9384168152919092166020820152604081019190915260600190565b600073ffffffffffffffffffffffffffffffffffffffff85168252836020830152606060408301526126bc6060830184613f44565b73ffffffffffffffffffffffffffffffffffffffff92831681529116602082015260400190565b73ffffffffffffffffffffffffffffffffffffffff93841681529183166020830152909116604082015260600190565b73ffffffffffffffffffffffffffffffffffffffff929092168252602082015260400190565b600060208252612c6f6020830184613f44565b60208082526023908201527f496d7065726d6178526f757465723a20554e415554484f52495a45445f43414c60408201527f4c45520000000000000000000000000000000000000000000000000000000000606082015260800190565b60208082526025908201527f496d7065726d6178526f757465723a20494e53554646494349454e545f415f4160408201527f4d4f554e54000000000000000000000000000000000000000000000000000000606082015260800190565b60208082526031908201527f5472616e7366657248656c7065723a3a7472616e7366657246726f6d3a20747260408201527f616e7366657246726f6d206661696c6564000000000000000000000000000000606082015260800190565b60208082526034908201527f5472616e7366657248656c7065723a3a736166655472616e736665724554483a60408201527f20455448207472616e73666572206661696c6564000000000000000000000000606082015260800190565b60208082526021908201527f496d7065726d6178526f757465723a2053454e4445525f4e4f545f524f55544560408201527f5200000000000000000000000000000000000000000000000000000000000000606082015260800190565b60208082526017908201527f496d7065726d6178526f757465723a2045585049524544000000000000000000604082015260600190565b6020808252601e908201527f496d7065726d6178526f757465723a20494e4445585f544f4f5f484947480000604082015260600190565b60208082526028908201527f556e697377617056324c6962726172793a20494e53554646494349454e545f4c60408201527f4951554944495459000000000000000000000000000000000000000000000000606082015260800190565b60208082526021908201527f536166654d6174683a206d756c7469706c69636174696f6e206f766572666c6f60408201527f7700000000000000000000000000000000000000000000000000000000000000606082015260800190565b6020808252601b908201527f496d7065726d6178526f757465723a2052454445454d5f5a45524f0000000000604082015260600190565b60208082526025908201527f556e697377617056324c6962726172793a20494e53554646494349454e545f4160408201527f4d4f554e54000000000000000000000000000000000000000000000000000000606082015260800190565b60208082526018908201527f496d7065726d6178526f757465723a204e4f545f574554480000000000000000604082015260600190565b6020808252602d908201527f5472616e7366657248656c7065723a3a736166655472616e736665723a20747260408201527f616e73666572206661696c656400000000000000000000000000000000000000606082015260800190565b60208082526025908201527f496d7065726d6178526f757465723a20494e53554646494349454e545f425f4160408201527f4d4f554e54000000000000000000000000000000000000000000000000000000606082015260800190565b815181526020808301519082015260409182015173ffffffffffffffffffffffffffffffffffffffff169181019190915260600190565b60006020825273ffffffffffffffffffffffffffffffffffffffff808451166020840152806020850151166040840152506040830151606083015260608301516080808401526147f960a0840182613f44565b949350505050565b60006020825282516003811061481357fe5b8060208401525073ffffffffffffffffffffffffffffffffffffffff602084015116604083015260ff604084015116606083015260608301516080808401526147f960a0840182613f44565b600060a08201905073ffffffffffffffffffffffffffffffffffffffff83511682526020830151602083015260408301516040830152606083015160608301526080830151608083015292915050565b90815260200190565b918252602082015260400190565b60405181810167ffffffffffffffff811182821017156148e557600080fd5b604052919050565b600067ffffffffffffffff821115614903578081fd5b50601f017fffffffffffffffffffffffffffffffffffffffffffffffffffffffffffffffe01660200190565b60005b8381101561494a578181015183820152602001614932565b838111156124e55750506000910152565b73ffffffffffffffffffffffffffffffffffffffff8116811461497d57600080fd5b50565b6dffffffffffffffffffffffffffff8116811461497d57600080fd5b60ff8116811461497d57600080fdfea264697066735822122036ed8ba7376d52e12017dd6259a25b1be887411c647d36686653e749988ef96c64736f6c63430006060033",
  "immutableReferences": {
    "1019": [
      {
        "length": 32,
        "start": 6939
      },
      {
        "length": 32,
        "start": 7423
      },
      {
        "length": 32,
        "start": 8687
      }
    ],
    "1022": [
      {
        "length": 32,
        "start": 7459
      },
      {
        "length": 32,
        "start": 8654
      }
    ],
    "1025": [
      {
        "length": 32,
        "start": 6343
      },
      {
        "length": 32,
        "start": 6906
      }
    ],
    "1028": [
      {
        "length": 32,
        "start": 417
      },
      {
        "length": 32,
        "start": 1866
      },
      {
        "length": 32,
        "start": 2051
      },
      {
        "length": 32,
        "start": 2385
      },
      {
        "length": 32,
        "start": 2567
      },
      {
        "length": 32,
        "start": 2901
      },
      {
        "length": 32,
        "start": 3024
      },
      {
        "length": 32,
        "start": 3209
      },
      {
        "length": 32,
        "start": 5258
      },
      {
        "length": 32,
        "start": 5368
      },
      {
        "length": 32,
        "start": 5501
      },
      {
        "length": 32,
        "start": 7387
      },
      {
        "length": 32,
        "start": 7936
      },
      {
        "length": 32,
        "start": 8059
      },
      {
        "length": 32,
        "start": 8244
      },
      {
        "length": 32,
        "start": 13534
      },
      {
        "length": 32,
        "start": 13677
      }
    ]
  },
  "source": "pragma solidity =0.6.6;\npragma experimental ABIEncoderV2;\n\nimport \"./interfaces/IRouter01.sol\";\nimport \"./interfaces/IPoolToken.sol\";\nimport \"./interfaces/IBorrowable.sol\";\nimport \"./interfaces/ICollateral.sol\";\nimport \"./interfaces/IImpermaxCallee.sol\";\nimport \"./interfaces/IERC20.sol\";\nimport \"./interfaces/IWETH.sol\";\nimport \"./interfaces/IUniswapV2Pair.sol\";\nimport \"./libraries/SafeMath.sol\";\nimport \"./libraries/TransferHelper.sol\";\nimport \"./libraries/UniswapV2Library.sol\";\n\ncontract Router01 is IRouter01, IImpermaxCallee {\n\tusing SafeMath for uint;\n\n\taddress public immutable override factory;\n\taddress public immutable override bDeployer;\n\taddress public immutable override cDeployer;\n\taddress public immutable override WETH;\n\n\tmodifier ensure(uint deadline) {\n\t\trequire(deadline >= block.timestamp, \"ImpermaxRouter: EXPIRED\");\n\t\t_;\n\t}\n\n\tmodifier checkETH(address poolToken) {\n\t\trequire(WETH == IPoolToken(poolToken).underlying(), \"ImpermaxRouter: NOT_WETH\");\n\t\t_;\n\t}\n\n\tconstructor(address _factory, address _bDeployer, address _cDeployer, address _WETH) public {\n\t\tfactory = _factory;\n\t\tbDeployer = _bDeployer;\n\t\tcDeployer = _cDeployer;\n\t\tWETH = _WETH;\n\t}\n\n\treceive() external payable {\n\t\tassert(msg.sender == WETH); // only accept ETH via fallback from the WETH contract\n\t}\n\n\t/*** Mint ***/\n\t\n\tfunction _mint(\n\t\taddress poolToken, \n\t\taddress underlying, \n\t\tuint amount,\n\t\taddress from,\n\t\taddress to\n\t) internal virtual returns (uint tokens) {\n\t\tif (from == address(this)) TransferHelper.safeTransfer(underlying, poolToken, amount);\n\t\telse TransferHelper.safeTransferFrom(underlying, from, poolToken, amount);\n\t\ttokens = IPoolToken(poolToken).mint(to);\n\t}\n\tfunction mint(\n\t\taddress poolToken, \n\t\tuint amount,\n\t\taddress to,\n\t\tuint deadline\n\t) external virtual override ensure(deadline) returns (uint tokens) {\n\t\treturn _mint(poolToken, IPoolToken(poolToken).underlying(), amount, msg.sender, to);\n\t}\n\tfunction mintETH(\n\t\taddress poolToken, \n\t\taddress to,\n\t\tuint deadline\n\t) external virtual override payable ensure(deadline) checkETH(poolToken) returns (uint tokens) {\n\t\tIWETH(WETH).deposit{value: msg.value}();\n\t\treturn _mint(poolToken, WETH, msg.value, address(this), to);\n\t}\n\tfunction mintCollateral(\n\t\taddress poolToken, \n\t\tuint amount,\n\t\taddress to,\n\t\tuint deadline,\n\t\tbytes calldata permitData\n\t) external virtual override ensure(deadline) returns (uint tokens) {\n\t\taddress uniswapV2Pair = IPoolToken(poolToken).underlying();\n\t\t_permitUniswapV2Pair(uniswapV2Pair, amount, deadline, permitData);\n\t\treturn _mint(poolToken, uniswapV2Pair, amount, msg.sender, to);\n\t}\n\t\n\t/*** Redeem ***/\n\t\n\tfunction redeem(\n\t\taddress poolToken,\n\t\tuint tokens,\n\t\taddress to,\n\t\tuint deadline,\n\t\tbytes memory permitData\n\t) public virtual override ensure(deadline) returns (uint amount) {\n\t\t_permit(poolToken, tokens, deadline, permitData);\n\t\tIPoolToken(poolToken).transferFrom(msg.sender, poolToken, tokens);\n\t\tamount = IPoolToken(poolToken).redeem(to);\n\t}\n\tfunction redeemETH(\n\t\taddress poolToken, \n\t\tuint tokens,\n\t\taddress to,\n\t\tuint deadline,\n\t\tbytes memory permitData\n\t) public virtual override ensure(deadline) checkETH(poolToken) returns (uint amountETH) {\n\t\tamountETH = redeem(poolToken, tokens, address(this), deadline, permitData);\n\t\tIWETH(WETH).withdraw(amountETH);\n\t\tTransferHelper.safeTransferETH(to, amountETH);\n\t}\n\t\t\t\n\t/*** Borrow ***/\n\n\tfunction borrow(\n\t\taddress borrowable, \n\t\tuint amount,\n\t\taddress to,\n\t\tuint deadline,\n\t\tbytes memory permitData\n\t) public virtual override ensure(deadline) {\n\t\t_borrowPermit(borrowable, amount, deadline, permitData);\n\t\tIBorrowable(borrowable).borrow(msg.sender, to, amount, new bytes(0));\n\t}\n\tfunction borrowETH(\n\t\taddress borrowable, \n\t\tuint amountETH,\n\t\taddress to,\n\t\tuint deadline,\n\t\tbytes memory permitData\n\t) public virtual override ensure(deadline) checkETH(borrowable) {\n\t\tborrow(borrowable, amountETH, address(this), deadline, permitData);\n\t\tIWETH(WETH).withdraw(amountETH);\n\t\tTransferHelper.safeTransferETH(to, amountETH);\n\t}\n\t\n\t/*** Repay ***/\n\t\n\tfunction _repayAmount(\n\t\taddress borrowable, \n\t\tuint amountMax,\n\t\taddress borrower\n\t) internal virtual returns (uint amount) {\n\t\tIBorrowable(borrowable).accrueInterest();\n\t\tuint borrowedAmount = IBorrowable(borrowable).borrowBalance(borrower);\n\t\tamount = amountMax < borrowedAmount ? amountMax : borrowedAmount;\n\t}\n\tfunction repay(\n\t\taddress borrowable, \n\t\tuint amountMax,\n\t\taddress borrower,\n\t\tuint deadline\n\t) external virtual override ensure(deadline) returns (uint amount) {\n\t\tamount = _repayAmount(borrowable, amountMax, borrower);\n\t\tTransferHelper.safeTransferFrom(IBorrowable(borrowable).underlying(), msg.sender, borrowable, amount);\n\t\tIBorrowable(borrowable).borrow(borrower, address(0), 0, new bytes(0));\n\t}\n\tfunction repayETH(\n\t\taddress borrowable, \n\t\taddress borrower,\n\t\tuint deadline\n\t) external virtual override payable ensure(deadline) checkETH(borrowable) returns (uint amountETH) {\n\t\tamountETH = _repayAmount(borrowable, msg.value, borrower);\n\t\tIWETH(WETH).deposit{value: amountETH}();\n\t\tassert(IWETH(WETH).transfer(borrowable, amountETH));\n\t\tIBorrowable(borrowable).borrow(borrower, address(0), 0, new bytes(0));\n\t\t// refund surpluss eth, if any\n\t\tif (msg.value > amountETH) TransferHelper.safeTransferETH(msg.sender, msg.value - amountETH);\n\t}\n\t\n\t/*** Liquidate ***/\n\n\tfunction liquidate(\n\t\taddress borrowable, \n\t\tuint amountMax,\n\t\taddress borrower,\n\t\taddress to,\n\t\tuint deadline\n\t) external virtual override ensure(deadline) returns (uint amount, uint seizeTokens) {\n\t\tamount = _repayAmount(borrowable, amountMax, borrower);\n\t\tTransferHelper.safeTransferFrom(IBorrowable(borrowable).underlying(), msg.sender, borrowable, amount);\n\t\tseizeTokens = IBorrowable(borrowable).liquidate(borrower, to);\n\t}\n\tfunction liquidateETH(\n\t\taddress borrowable, \n\t\taddress borrower,\n\t\taddress to,\n\t\tuint deadline\n\t) external virtual override payable ensure(deadline) checkETH(borrowable) returns (uint amountETH, uint seizeTokens) {\n\t\tamountETH = _repayAmount(borrowable, msg.value, borrower);\n\t\tIWETH(WETH).deposit{value: amountETH}();\n\t\tassert(IWETH(WETH).transfer(borrowable, amountETH));\n\t\tseizeTokens = IBorrowable(borrowable).liquidate(borrower, to);\n\t\t// refund surpluss eth, if any\n\t\tif (msg.value > amountETH) TransferHelper.safeTransferETH(msg.sender, msg.value - amountETH);\n\t}\n\t\t\n\t/*** Leverage LP Token ***/\n\t\n\tfunction _leverage(\n\t\taddress uniswapV2Pair, \n\t\tuint amountA,\n\t\tuint amountB,\n\t\taddress to\n\t) internal virtual {\n\t\taddress borrowableA = getBorrowable(uniswapV2Pair, 0);\n\t\t// mint collateral\n\t\tbytes memory borrowBData = abi.encode(CalleeData({\n\t\t\tcallType: CallType.ADD_LIQUIDITY_AND_MINT,\n\t\t\tuniswapV2Pair: uniswapV2Pair,\n\t\t\tborrowableIndex: 1,\n\t\t\tdata: abi.encode(AddLiquidityAndMintCalldata({\n\t\t\t\tamountA: amountA,\n\t\t\t\tamountB: amountB,\n\t\t\t\tto: to\n\t\t\t}))\n\t\t}));\t\n\t\t// borrow borrowableB\n\t\tbytes memory borrowAData = abi.encode(CalleeData({\n\t\t\tcallType: CallType.BORROWB,\n\t\t\tuniswapV2Pair: uniswapV2Pair,\n\t\t\tborrowableIndex: 0,\n\t\t\tdata: abi.encode(BorrowBCalldata({\n\t\t\t\tborrower: msg.sender,\n\t\t\t\treceiver: address(this),\n\t\t\t\tborrowAmount: amountB,\n\t\t\t\tdata: borrowBData\n\t\t\t}))\n\t\t}));\n\t\t// borrow borrowableA\n\t\tIBorrowable(borrowableA).borrow(msg.sender, address(this), amountA, borrowAData);\t\n\t}\n\tfunction leverage(\n\t\taddress uniswapV2Pair,  \n\t\tuint amountADesired,\n\t\tuint amountBDesired,\n\t\tuint amountAMin,\n\t\tuint amountBMin,\n\t\taddress to,\n\t\tuint deadline,\n\t\tbytes calldata permitDataA,\n\t\tbytes calldata permitDataB\n\t) external virtual override ensure(deadline) {\n\t\t_borrowPermit(getBorrowable(uniswapV2Pair, 0), amountADesired, deadline, permitDataA);\n\t\t_borrowPermit(getBorrowable(uniswapV2Pair, 1), amountBDesired, deadline, permitDataB);\n\t\t(uint amountA, uint amountB) = _optimalLiquidity(uniswapV2Pair, amountADesired, amountBDesired, amountAMin, amountBMin);\n\t\t_leverage(uniswapV2Pair, amountA, amountB, to);\n\t}\n\n\tfunction _addLiquidityAndMint(\n\t\taddress uniswapV2Pair, \n\t\tuint amountA,\n\t\tuint amountB,\n\t\taddress to\n\t) internal virtual {\n\t\t(address collateral, address borrowableA, address borrowableB) = getLendingPool(uniswapV2Pair);\n\t\t// add liquidity to uniswap pair\n\t\tTransferHelper.safeTransfer(IBorrowable(borrowableA).underlying(), uniswapV2Pair, amountA);\n\t\tTransferHelper.safeTransfer(IBorrowable(borrowableB).underlying(), uniswapV2Pair, amountB);\n\t\tIUniswapV2Pair(uniswapV2Pair).mint(collateral);\n\t\t// mint collateral\n\t\tICollateral(collateral).mint(to);\n\t}\n\t\t\n\t/*** Deleverage LP Token ***/\n\t\n\tfunction deleverage(\n\t\taddress uniswapV2Pair,  \n\t\tuint redeemTokens,\n\t\tuint amountAMin,\n\t\tuint amountBMin,\n\t\tuint deadline,\n\t\tbytes calldata permitData\n\t) external virtual override ensure(deadline) {\n\t\taddress collateral = getCollateral(uniswapV2Pair);\n\t\tuint exchangeRate = ICollateral(collateral).exchangeRate();\n\t\trequire(redeemTokens > 0, \"ImpermaxRouter: REDEEM_ZERO\");\t\t\n\t\tuint redeemAmount = (redeemTokens - 1).mul(exchangeRate).div(1e18);\n\t\t_permit(collateral, redeemTokens, deadline, permitData);\n\t\tbytes memory redeemData = abi.encode(CalleeData({\n\t\t\tcallType: CallType.REMOVE_LIQ_AND_REPAY,\n\t\t\tuniswapV2Pair: uniswapV2Pair,\n\t\t\tborrowableIndex: 0,\n\t\t\tdata: abi.encode(RemoveLiqAndRepayCalldata({\n\t\t\t\tborrower: msg.sender,\n\t\t\t\tredeemTokens: redeemTokens,\n\t\t\t\tredeemAmount: redeemAmount,\n\t\t\t\tamountAMin: amountAMin,\n\t\t\t\tamountBMin: amountBMin\n\t\t\t}))\n\t\t}));\n\t\t// flashRedeem\n\t\tICollateral(collateral).flashRedeem(address(this), redeemAmount, redeemData);\n\t}\n\n\tfunction _removeLiqAndRepay(\n\t\taddress uniswapV2Pair,\n\t\taddress borrower,\n\t\tuint redeemTokens,\n\t\tuint redeemAmount,\n\t\tuint amountAMin,\n\t\tuint amountBMin\n\t) internal virtual {\n\t\t(address collateral, address borrowableA, address borrowableB) = getLendingPool(uniswapV2Pair);\n\t\taddress tokenA = IBorrowable(borrowableA).underlying();\n\t\taddress tokenB = IBorrowable(borrowableB).underlying();\n\t\t// removeLiquidity\n\t\tTransferHelper.safeTransfer(uniswapV2Pair, uniswapV2Pair, redeemAmount);\n\t\t(uint amountAMax, uint amountBMax) = IUniswapV2Pair(uniswapV2Pair).burn(address(this));\n\t\trequire(amountAMax >= amountAMin, \"ImpermaxRouter: INSUFFICIENT_A_AMOUNT\");\n\t\trequire(amountBMax >= amountBMin, \"ImpermaxRouter: INSUFFICIENT_B_AMOUNT\");\n\t\t// repay and refund\n\t\t_repayAndRefund(borrowableA, tokenA, borrower, amountAMax);\n\t\t_repayAndRefund(borrowableB, tokenB, borrower, amountBMax);\n\t\t// repay flash redeem\n\t\tICollateral(collateral).transferFrom(borrower, collateral, redeemTokens);\n\t}\n\t\n\tfunction _repayAndRefund(\n\t\taddress borrowable,\n\t\taddress token,\n\t\taddress borrower,\n\t\tuint amountMax\n\t) internal virtual {\n\t\t//repay\n\t\tuint amount = _repayAmount(borrowable, amountMax, borrower);\n\t\tTransferHelper.safeTransfer(token, borrowable, amount);\n\t\tIBorrowable(borrowable).borrow(borrower, address(0), 0, new bytes(0));\t\t\n\t\t// refund excess\n\t\tif (amountMax > amount) {\n\t\t\tuint refundAmount = amountMax - amount;\n\t\t\tif (token == WETH) {\t\t\n\t\t\t\tIWETH(WETH).withdraw(refundAmount);\n\t\t\t\tTransferHelper.safeTransferETH(borrower, refundAmount);\n\t\t\t}\n\t\t\telse TransferHelper.safeTransfer(token, borrower, refundAmount);\n\t\t}\n\t}\n\t\n\t/*** Impermax Callee ***/\n\t\t\n\tenum CallType {ADD_LIQUIDITY_AND_MINT, BORROWB, REMOVE_LIQ_AND_REPAY}\n\tstruct CalleeData {\n\t\tCallType callType;\n\t\taddress uniswapV2Pair;\n\t\tuint8 borrowableIndex;\n\t\tbytes data;\t\t\n\t}\n\tstruct AddLiquidityAndMintCalldata {\n\t\tuint amountA;\n\t\tuint amountB;\n\t\taddress to;\n\t}\n\tstruct BorrowBCalldata {\n\t\taddress borrower; \n\t\taddress receiver;\n\t\tuint borrowAmount;\n\t\tbytes data;\n\t}\n\tstruct RemoveLiqAndRepayCalldata {\n\t\taddress borrower;\n\t\tuint redeemTokens;\n\t\tuint redeemAmount;\n\t\tuint amountAMin;\n\t\tuint amountBMin;\n\t}\n\t\n\tfunction impermaxBorrow(address sender, address borrower, uint borrowAmount, bytes calldata data) external virtual override {\n\t\tborrower; borrowAmount;\n\t\tCalleeData memory calleeData = abi.decode(data, (CalleeData));\n\t\taddress declaredCaller = getBorrowable(calleeData.uniswapV2Pair, calleeData.borrowableIndex);\n\t\t// only succeeds if called by a borrowable and if that borrowable has been called by the router\n\t\trequire(sender == address(this), \"ImpermaxRouter: SENDER_NOT_ROUTER\");\n\t\trequire(msg.sender == declaredCaller, \"ImpermaxRouter: UNAUTHORIZED_CALLER\");\n\t\tif (calleeData.callType == CallType.ADD_LIQUIDITY_AND_MINT) {\n\t\t\tAddLiquidityAndMintCalldata memory d = abi.decode(calleeData.data, (AddLiquidityAndMintCalldata));\n\t\t\t_addLiquidityAndMint(calleeData.uniswapV2Pair, d.amountA, d.amountB, d.to);\n\t\t}\n\t\telse if (calleeData.callType == CallType.BORROWB) {\n\t\t\tBorrowBCalldata memory d = abi.decode(calleeData.data, (BorrowBCalldata));\n\t\t\taddress borrowableB = getBorrowable(calleeData.uniswapV2Pair, 1);\n\t\t\tIBorrowable(borrowableB).borrow(d.borrower, d.receiver, d.borrowAmount, d.data);\n\t\t}\n\t\telse revert();\n\t}\n\t\n\tfunction impermaxRedeem(address sender, uint redeemAmount, bytes calldata data) external virtual override {\n\t\tredeemAmount;\n\t\tCalleeData memory calleeData = abi.decode(data, (CalleeData));\n\t\taddress declaredCaller = getCollateral(calleeData.uniswapV2Pair);\n\t\t// only succeeds if called by a collateral and if that collateral has been called by the router\n\t\trequire(sender == address(this), \"ImpermaxRouter: SENDER_NOT_ROUTER\");\n\t\trequire(msg.sender == declaredCaller, \"ImpermaxRouter: UNAUTHORIZED_CALLER\");\n\t\tif (calleeData.callType == CallType.REMOVE_LIQ_AND_REPAY) {\n\t\t\tRemoveLiqAndRepayCalldata memory d = abi.decode(calleeData.data, (RemoveLiqAndRepayCalldata));\n\t\t\t_removeLiqAndRepay(calleeData.uniswapV2Pair, d.borrower, d.redeemTokens, d.redeemAmount, d.amountAMin, d.amountBMin);\n\t\t}\n\t\telse revert();\n\t}\n\t\t\n\t/*** Utilities ***/\n\t\n\tfunction _permit(\n\t\taddress poolToken, \n\t\tuint amount, \n\t\tuint deadline,\n\t\tbytes memory permitData\n\t) internal virtual {\n\t\tif (permitData.length == 0) return;\n\t\t(bool approveMax, uint8 v, bytes32 r, bytes32 s) = abi.decode(permitData, (bool, uint8, bytes32, bytes32));\n\t\tuint value = approveMax ? uint(-1) : amount;\n\t\tIPoolToken(poolToken).permit(msg.sender, address(this), value, deadline, v, r, s);\n\t}\n\tfunction _permitUniswapV2Pair(\n\t\taddress uniswapV2Pair, \n\t\tuint amount, \n\t\tuint deadline,\n\t\tbytes memory permitData\n\t) internal virtual {\n\t\tif (permitData.length == 0) return;\n\t\t(bool approveMax, uint8 v, bytes32 r, bytes32 s) = abi.decode(permitData, (bool, uint8, bytes32, bytes32));\n\t\tuint value = approveMax ? uint(-1) : amount;\n\t\tIUniswapV2Pair(uniswapV2Pair).permit(msg.sender, address(this), value, deadline, v, r, s);\n\t}\n\tfunction _borrowPermit(\n\t\taddress borrowable, \n\t\tuint amount, \n\t\tuint deadline,\n\t\tbytes memory permitData\n\t) internal virtual {\n\t\tif (permitData.length == 0) return;\n\t\t(bool approveMax, uint8 v, bytes32 r, bytes32 s) = abi.decode(permitData, (bool, uint8, bytes32, bytes32));\n\t\tuint value = approveMax ? uint(-1) : amount;\n\t\tIBorrowable(borrowable).borrowPermit(msg.sender, address(this), value, deadline, v, r, s);\n\t}\n\t\n\tfunction _optimalLiquidity(\n\t\taddress uniswapV2Pair,\n\t\tuint amountADesired,\n\t\tuint amountBDesired,\n\t\tuint amountAMin,\n\t\tuint amountBMin\n\t) public virtual view returns (uint amountA, uint amountB) {\n\t\t(uint reserveA, uint reserveB,) = IUniswapV2Pair(uniswapV2Pair).getReserves();\n\t\tuint amountBOptimal = UniswapV2Library.quote(amountADesired, reserveA, reserveB);\n\t\tif (amountBOptimal <= amountBDesired) {\n\t\t\trequire(amountBOptimal >= amountBMin, \"ImpermaxRouter: INSUFFICIENT_B_AMOUNT\");\n\t\t\t(amountA, amountB) = (amountADesired, amountBOptimal);\n\t\t} else {\n\t\t\tuint amountAOptimal = UniswapV2Library.quote(amountBDesired, reserveB, reserveA);\n\t\t\tassert(amountAOptimal <= amountADesired);\n\t\t\trequire(amountAOptimal >= amountAMin, \"ImpermaxRouter: INSUFFICIENT_A_AMOUNT\");\n\t\t\t(amountA, amountB) = (amountAOptimal, amountBDesired);\n\t\t}\n\t}\n\t\n\tfunction getBorrowable(address uniswapV2Pair, uint8 index) public virtual override view returns (address borrowable) {\n\t\trequire(index < 2, \"ImpermaxRouter: INDEX_TOO_HIGH\");\n\t\tborrowable = address(uint(keccak256(abi.encodePacked(\n\t\t\thex\"ff\",\n\t\t\tbDeployer,\n\t\t\tkeccak256(abi.encodePacked(factory, uniswapV2Pair, index)),\n\t\t\thex\"605ba1db56496978613939baf0ae31dccceea3f5ca53dfaa76512bc880d7bb8f\" // Borrowable bytecode keccak256\n\t\t))));\n\t}\n\tfunction getCollateral(address uniswapV2Pair) public virtual override view returns (address collateral) {\n\t\tcollateral = address(uint(keccak256(abi.encodePacked(\n\t\t\thex\"ff\",\n\t\t\tcDeployer,\n\t\t\tkeccak256(abi.encodePacked(factory, uniswapV2Pair)),\n\t\t\thex\"4b8788d8761647e6330407671d3c6c80afaed3d047800dba0e0e3befde047767\" // Collateral bytecode keccak256\n\t\t))));\n\t}\n\tfunction getLendingPool(address uniswapV2Pair) public virtual override view returns (address collateral, address borrowableA, address borrowableB) {\n\t\tcollateral = getCollateral(uniswapV2Pair);\n\t\tborrowableA = getBorrowable(uniswapV2Pair, 0);\n\t\tborrowableB = getBorrowable(uniswapV2Pair, 1);\n\t}\n}\n",
  "sourcePath": "C:/Users/simor/Desktop/impermax-x-uniswapv2-periphery/contracts/Router01.sol",
  "compiler": {
    "name": "solc",
    "version": "0.6.6+commit.6c089d02.Emscripten.clang"
  },
  "schemaVersion": "3.3.2",
  "updatedAt": "2021-02-23T13:50:05.466Z",
  "networkType": "ethereum",
  "devdoc": {
    "methods": {}
  },
  "userdoc": {
    "methods": {
      "borrow(address,uint256,address,uint256,bytes)": {
        "notice": "* Borrow **"
      },
      "deleverage(address,uint256,uint256,uint256,uint256,bytes)": {
        "notice": "* Deleverage LP Token **"
      },
      "liquidate(address,uint256,address,address,uint256)": {
        "notice": "* Liquidate **"
      },
      "redeem(address,uint256,address,uint256,bytes)": {
        "notice": "* Redeem **"
      }
    }
  }
}