{
  "contractName": "SimpleUniswapOracle",
  "abi": [
    {
      "anonymous": false,
      "inputs": [
        {
          "indexed": true,
          "internalType": "address",
          "name": "pair",
          "type": "address"
        },
        {
          "indexed": false,
          "internalType": "uint256",
          "name": "priceCumulative",
          "type": "uint256"
        },
        {
          "indexed": false,
          "internalType": "uint32",
          "name": "blockTimestamp",
          "type": "uint32"
        },
        {
          "indexed": false,
          "internalType": "bool",
          "name": "lastIsA",
          "type": "bool"
        }
      ],
      "name": "PriceUpdate",
      "type": "event"
    },
    {
      "constant": true,
      "inputs": [],
      "name": "MIN_T",
      "outputs": [
        {
          "internalType": "uint32",
          "name": "",
          "type": "uint32"
        }
      ],
      "payable": false,
      "stateMutability": "view",
      "type": "function"
    },
    {
      "constant": true,
      "inputs": [
        {
          "internalType": "address",
          "name": "",
          "type": "address"
        }
      ],
      "name": "getPair",
      "outputs": [
        {
          "internalType": "uint256",
          "name": "priceCumulativeA",
          "type": "uint256"
        },
        {
          "internalType": "uint256",
          "name": "priceCumulativeB",
          "type": "uint256"
        },
        {
          "internalType": "uint32",
          "name": "updateA",
          "type": "uint32"
        },
        {
          "internalType": "uint32",
          "name": "updateB",
          "type": "uint32"
        },
        {
          "internalType": "bool",
          "name": "lastIsA",
          "type": "bool"
        },
        {
          "internalType": "bool",
          "name": "initialized",
          "type": "bool"
        }
      ],
      "payable": false,
      "stateMutability": "view",
      "type": "function"
    },
    {
      "constant": false,
      "inputs": [
        {
          "internalType": "address",
          "name": "uniswapV2Pair",
          "type": "address"
        }
      ],
      "name": "initialize",
      "outputs": [],
      "payable": false,
      "stateMutability": "nonpayable",
      "type": "function"
    },
    {
      "constant": false,
      "inputs": [
        {
          "internalType": "address",
          "name": "uniswapV2Pair",
          "type": "address"
        }
      ],
      "name": "getResult",
      "outputs": [
        {
          "internalType": "uint224",
          "name": "price",
          "type": "uint224"
        },
        {
          "internalType": "uint32",
          "name": "T",
          "type": "uint32"
        }
      ],
      "payable": false,
      "stateMutability": "nonpayable",
      "type": "function"
    },
    {
      "constant": true,
      "inputs": [],
      "name": "getBlockTimestamp",
      "outputs": [
        {
          "internalType": "uint32",
          "name": "",
          "type": "uint32"
        }
      ],
      "payable": false,
      "stateMutability": "view",
      "type": "function"
    }
  ],
  "bytecode": "0x608060405234801561001057600080fd5b50610a99806100206000396000f3fe608060405234801561001057600080fd5b50600436106100675760003560e01c8063796b89b911610050578063796b89b91461014d578063c4d66de81461016e578063f51b5531146101a357610067565b80631a788a021461006c578063446a37e0146100dd575b600080fd5b61009f6004803603602081101561008257600080fd5b503573ffffffffffffffffffffffffffffffffffffffff166101ab565b60408051968752602087019590955263ffffffff938416868601529190921660608501529015156080840152151560a0830152519081900360c00190f35b610110600480360360208110156100f357600080fd5b503573ffffffffffffffffffffffffffffffffffffffff16610200565b604080517bffffffffffffffffffffffffffffffffffffffffffffffffffffffff909316835263ffffffff90911660208301528051918290030190f35b61015561058f565b6040805163ffffffff9092168252519081900360200190f35b6101a16004803603602081101561018457600080fd5b503573ffffffffffffffffffffffffffffffffffffffff16610599565b005b61015561076f565b60006020819052908152604090208054600182015460029092015490919063ffffffff8082169164010000000081049091169060ff680100000000000000008204811691690100000000000000000090041686565b60008061020b610a0d565b5073ffffffffffffffffffffffffffffffffffffffff831660009081526020818152604091829020825160c081018452815481526001820154928101929092526002015463ffffffff808216938301939093526401000000008104909216606082015260ff6801000000000000000083048116151560808301526901000000000000000000909204909116151560a0820181905261030a57604080517f08c379a000000000000000000000000000000000000000000000000000000000815260206004820152601e60248201527f556e69737761704f7261636c653a204e4f545f494e495449414c495a45440000604482015290519081900360640190fd5b73ffffffffffffffffffffffffffffffffffffffff841660009081526020819052604081209061033861058f565b90506000836080015161034f578360600151610355565b83604001515b9050600061036288610775565b9050600061070883850363ffffffff16106104b857856080015161038a57856020015161038d565b85515b90508560800151156103de57600185018290556002850180547fffffffffffffffffffffffffffffffffffffffffffffffff00000000ffffffff1664010000000063ffffffff871602179055610414565b8185556002850180547fffffffffffffffffffffffffffffffffffffffffffffffffffffffff000000001663ffffffff86161790555b60808601516002860180546801000000000000000092159283027fffffffffffffffffffffffffffffffffffffffffffffff00ffffffffffffffff9091161790556040805184815263ffffffff87166020820152808201929092525173ffffffffffffffffffffffffffffffffffffffff8b16917fc58c63744da19faddae8e37958053493f49d71b8f78d4facf6002cd1c2618fcf919081900360600190a26104ec565b85608001516104cb5785604001516104d1565b85606001515b925085608001516104e35785516104e9565b85602001515b90505b828403965061070863ffffffff8816101561056857604080517f08c379a000000000000000000000000000000000000000000000000000000000815260206004820152601860248201527f556e69737761704f7261636c653a204e4f545f52454144590000000000000000604482015290519081900360640190fd5b6105828763ffffffff168284038161057c57fe5b04610917565b9750505050505050915091565b63ffffffff421690565b73ffffffffffffffffffffffffffffffffffffffff8116600090815260208190526040902060028101546901000000000000000000900460ff1615610629576040517f08c379a0000000000000000000000000000000000000000000000000000000008152600401808060200182810382526022815260200180610a436022913960400191505060405180910390fd5b600061063483610775565b9050600061064061058f565b82845560018085018490556002850180546901000000000000000000680100000000000000007fffffffffffffffffffffffffffffffffffffffffffffffffffffffff0000000090921663ffffffff86169081177fffffffffffffffffffffffffffffffffffffffffffffffff00000000ffffffff166401000000008202177fffffffffffffffffffffffffffffffffffffffffffffff00ffffffffffffffff16929092177fffffffffffffffffffffffffffffffffffffffffffff00ffffffffffffffffff161790915560408051868152602081019290925281810192909252905191925073ffffffffffffffffffffffffffffffffffffffff8616917fc58c63744da19faddae8e37958053493f49d71b8f78d4facf6002cd1c2618fcf916060908290030190a250505050565b61070881565b60008173ffffffffffffffffffffffffffffffffffffffff16635909c0d56040518163ffffffff1660e01b815260040160206040518083038186803b1580156107bd57600080fd5b505afa1580156107d1573d6000803e3d6000fd5b505050506040513d60208110156107e757600080fd5b5051604080517f0902f1ac00000000000000000000000000000000000000000000000000000000815290519192506000918291829173ffffffffffffffffffffffffffffffffffffffff871691630902f1ac916004808301926060929190829003018186803b15801561085957600080fd5b505afa15801561086d573d6000803e3d6000fd5b505050506040513d606081101561088357600080fd5b5080516020820151604090920151909450909250905060006108d2846108a8856109a8565b7bffffffffffffffffffffffffffffffffffffffffffffffffffffffff169063ffffffff6109cc16565b90506000826108df61058f565b0390508063ffffffff16827bffffffffffffffffffffffffffffffffffffffffffffffffffffffff1602860195505050505050919050565b60007bffffffffffffffffffffffffffffffffffffffffffffffffffffffff8211156109a457604080517f08c379a000000000000000000000000000000000000000000000000000000000815260206004820152601f60248201527f556e69737761704f7261636c653a2055494e543232345f4f564552464c4f5700604482015290519081900360640190fd5b5090565b6dffffffffffffffffffffffffffff166e0100000000000000000000000000000290565b60006dffffffffffffffffffffffffffff82167bffffffffffffffffffffffffffffffffffffffffffffffffffffffff841681610a0557fe5b049392505050565b6040805160c081018252600080825260208201819052918101829052606081018290526080810182905260a08101919091529056fe556e69737761704f7261636c653a20414c52454144595f494e495449414c495a4544a265627a7a72315820dad917d6d934fc03eefe520cad27d09e3cd5a3da667c792e26ccb077cc014b9e64736f6c63430005100032",
  "source": "pragma solidity =0.5.16;\r\n\r\nimport \"./libraries/UQ112x112.sol\";\r\nimport \"./interfaces/IUniswapV2Pair.sol\";\r\nimport \"./interfaces/ISimpleUniswapOracle.sol\";\r\n\r\ncontract SimpleUniswapOracle is ISimpleUniswapOracle {\r\n\tusing UQ112x112 for uint224;\r\n\t\r\n\tuint32 public constant MIN_T = 1800;\r\n\t\r\n\tstruct Pair {\r\n\t\tuint256 priceCumulativeA;\r\n\t\tuint256 priceCumulativeB;\r\n\t\tuint32 updateA;\r\n\t\tuint32 updateB;\r\n\t\tbool lastIsA;\r\n\t\tbool initialized;\r\n\t}\r\n\tmapping(address => Pair) public getPair;\r\n\r\n\tevent PriceUpdate(address indexed pair, uint256 priceCumulative, uint32 blockTimestamp, bool lastIsA);\r\n\t\r\n\tfunction toUint224(uint256 input) internal pure returns (uint224) {\r\n\t\trequire(input <= uint224(-1), \"UniswapOracle: UINT224_OVERFLOW\");\r\n\t\treturn uint224(input);\r\n\t}\r\n\t\r\n\tfunction getPriceCumulativeCurrent(address uniswapV2Pair) internal view returns (uint256 priceCumulative) {\r\n\t\tpriceCumulative = IUniswapV2Pair(uniswapV2Pair).price0CumulativeLast();\r\n\t\t(uint112 reserve0, uint112 reserve1, uint32 blockTimestampLast) = IUniswapV2Pair(uniswapV2Pair).getReserves();\r\n\t\tuint224 priceLast = UQ112x112.encode(reserve1).uqdiv(reserve0);\r\n\t\tuint32 timeElapsed = getBlockTimestamp() - blockTimestampLast; // overflow is desired\r\n\t\t// * never overflows, and + overflow is desired\r\n\t\tpriceCumulative += uint256(priceLast) * timeElapsed;\r\n\t}\r\n\t\r\n\tfunction initialize(address uniswapV2Pair) external {\r\n\t\tPair storage pairStorage = getPair[uniswapV2Pair];\r\n\t\trequire(!pairStorage.initialized, \"UniswapOracle: ALREADY_INITIALIZED\");\r\n\t\t\r\n\t\tuint256 priceCumulativeCurrent = getPriceCumulativeCurrent(uniswapV2Pair);\r\n\t\tuint32 blockTimestamp = getBlockTimestamp();\r\n\t\tpairStorage.priceCumulativeA = priceCumulativeCurrent;\r\n\t\tpairStorage.priceCumulativeB = priceCumulativeCurrent;\r\n\t\tpairStorage.updateA = blockTimestamp;\r\n\t\tpairStorage.updateB = blockTimestamp;\r\n\t\tpairStorage.lastIsA = true;\r\n\t\tpairStorage.initialized = true;\r\n\t\temit PriceUpdate(uniswapV2Pair, priceCumulativeCurrent, blockTimestamp, true);\r\n\t}\r\n\t\r\n\tfunction getResult(address uniswapV2Pair) external returns (uint224 price, uint32 T) {\r\n\t\tPair memory pair = getPair[uniswapV2Pair];\r\n\t\trequire(pair.initialized, \"UniswapOracle: NOT_INITIALIZED\");\r\n\t\tPair storage pairStorage = getPair[uniswapV2Pair];\r\n\t\t\t\t\r\n\t\tuint32 blockTimestamp = getBlockTimestamp();\r\n\t\tuint32 updateLast = pair.lastIsA ? pair.updateA : pair.updateB;\r\n\t\tuint256 priceCumulativeCurrent = getPriceCumulativeCurrent(uniswapV2Pair);\r\n\t\tuint256 priceCumulativeLast;\r\n\t\t\r\n\t\tif (blockTimestamp - updateLast >= MIN_T) {\r\n\t\t\t// update\r\n\t\t\tpriceCumulativeLast = pair.lastIsA ? pair.priceCumulativeA : pair.priceCumulativeB;\r\n\t\t\tif (pair.lastIsA) {\r\n\t\t\t\tpairStorage.priceCumulativeB = priceCumulativeCurrent;\r\n\t\t\t\tpairStorage.updateB = blockTimestamp;\r\n\t\t\t} else {\r\n\t\t\t\tpairStorage.priceCumulativeA = priceCumulativeCurrent;\r\n\t\t\t\tpairStorage.updateA = blockTimestamp;\r\n\t\t\t}\r\n\t\t\tpairStorage.lastIsA = !pair.lastIsA;\r\n\t\t\temit PriceUpdate(uniswapV2Pair, priceCumulativeCurrent, blockTimestamp, !pair.lastIsA);\r\n\t\t}\r\n\t\telse {\r\n\t\t\t// don't update and return price using previous priceCumulative\r\n\t\t\tupdateLast = pair.lastIsA ? pair.updateB : pair.updateA;\r\n\t\t\tpriceCumulativeLast = pair.lastIsA ? pair.priceCumulativeB : pair.priceCumulativeA;\r\n\t\t}\r\n\t\t\r\n\t\tT = blockTimestamp - updateLast; // overflow is desired\r\n\t\trequire(T >= MIN_T, \"UniswapOracle: NOT_READY\"); //reverts only if the pair has just been initialized\r\n\t\t// / is safe, and - overflow is desired\r\n\t\tprice = toUint224((priceCumulativeCurrent - priceCumulativeLast) / T);\r\n\t}\r\n\t\r\n\t/*** Utilities ***/\r\n\t\r\n\tfunction getBlockTimestamp() public view returns (uint32) {\r\n\t\treturn uint32(block.timestamp % 2**32);\r\n\t}\r\n}",
  "sourcePath": "C:/Users/simor/Desktop/impermax-x-uniswapv2-periphery/test/Contracts/simple-uniswap-oracle/SimpleUniswapOracle.sol",
  "compiler": {
    "name": "solc",
    "version": "0.5.16+commit.9c3226ce.Emscripten.clang"
  },
  "schemaVersion": "3.3.2",
  "updatedAt": "2021-03-12T13:25:57.671Z",
  "networkType": "ethereum",
  "devdoc": {
    "methods": {}
  },
  "userdoc": {
    "methods": {
      "getBlockTimestamp()": {
        "notice": "* Utilities **"
      }
    }
  }
}