{
  "contractName": "StakingRewards",
  "abi": [
    {
      "inputs": [
        {
          "internalType": "address",
          "name": "_rewardsDistribution",
          "type": "address"
        },
        {
          "internalType": "address",
          "name": "_rewardsToken",
          "type": "address"
        },
        {
          "internalType": "address",
          "name": "_stakingToken",
          "type": "address"
        }
      ],
      "payable": false,
      "stateMutability": "nonpayable",
      "type": "constructor"
    },
    {
      "anonymous": false,
      "inputs": [
        {
          "indexed": false,
          "internalType": "uint256",
          "name": "reward",
          "type": "uint256"
        },
        {
          "indexed": false,
          "internalType": "uint256",
          "name": "periodFinish",
          "type": "uint256"
        }
      ],
      "name": "RewardAdded",
      "type": "event"
    },
    {
      "anonymous": false,
      "inputs": [
        {
          "indexed": true,
          "internalType": "address",
          "name": "user",
          "type": "address"
        },
        {
          "indexed": false,
          "internalType": "uint256",
          "name": "reward",
          "type": "uint256"
        }
      ],
      "name": "RewardPaid",
      "type": "event"
    },
    {
      "anonymous": false,
      "inputs": [
        {
          "indexed": true,
          "internalType": "address",
          "name": "user",
          "type": "address"
        },
        {
          "indexed": false,
          "internalType": "uint256",
          "name": "amount",
          "type": "uint256"
        }
      ],
      "name": "Staked",
      "type": "event"
    },
    {
      "anonymous": false,
      "inputs": [
        {
          "indexed": true,
          "internalType": "address",
          "name": "user",
          "type": "address"
        },
        {
          "indexed": false,
          "internalType": "uint256",
          "name": "amount",
          "type": "uint256"
        }
      ],
      "name": "Withdrawn",
      "type": "event"
    },
    {
      "constant": true,
      "inputs": [],
      "name": "lastUpdateTime",
      "outputs": [
        {
          "internalType": "uint256",
          "name": "",
          "type": "uint256"
        }
      ],
      "payable": false,
      "stateMutability": "view",
      "type": "function"
    },
    {
      "constant": true,
      "inputs": [],
      "name": "periodFinish",
      "outputs": [
        {
          "internalType": "uint256",
          "name": "",
          "type": "uint256"
        }
      ],
      "payable": false,
      "stateMutability": "view",
      "type": "function"
    },
    {
      "constant": true,
      "inputs": [],
      "name": "rewardPerTokenStored",
      "outputs": [
        {
          "internalType": "uint256",
          "name": "",
          "type": "uint256"
        }
      ],
      "payable": false,
      "stateMutability": "view",
      "type": "function"
    },
    {
      "constant": true,
      "inputs": [],
      "name": "rewardRate",
      "outputs": [
        {
          "internalType": "uint256",
          "name": "",
          "type": "uint256"
        }
      ],
      "payable": false,
      "stateMutability": "view",
      "type": "function"
    },
    {
      "constant": true,
      "inputs": [
        {
          "internalType": "address",
          "name": "",
          "type": "address"
        }
      ],
      "name": "rewards",
      "outputs": [
        {
          "internalType": "uint256",
          "name": "",
          "type": "uint256"
        }
      ],
      "payable": false,
      "stateMutability": "view",
      "type": "function"
    },
    {
      "constant": true,
      "inputs": [],
      "name": "rewardsDistribution",
      "outputs": [
        {
          "internalType": "address",
          "name": "",
          "type": "address"
        }
      ],
      "payable": false,
      "stateMutability": "view",
      "type": "function"
    },
    {
      "constant": true,
      "inputs": [],
      "name": "rewardsToken",
      "outputs": [
        {
          "internalType": "contract IERC20",
          "name": "",
          "type": "address"
        }
      ],
      "payable": false,
      "stateMutability": "view",
      "type": "function"
    },
    {
      "constant": true,
      "inputs": [],
      "name": "stakingToken",
      "outputs": [
        {
          "internalType": "contract IERC20",
          "name": "",
          "type": "address"
        }
      ],
      "payable": false,
      "stateMutability": "view",
      "type": "function"
    },
    {
      "constant": true,
      "inputs": [
        {
          "internalType": "address",
          "name": "",
          "type": "address"
        }
      ],
      "name": "userRewardPerTokenPaid",
      "outputs": [
        {
          "internalType": "uint256",
          "name": "",
          "type": "uint256"
        }
      ],
      "payable": false,
      "stateMutability": "view",
      "type": "function"
    },
    {
      "constant": true,
      "inputs": [],
      "name": "totalSupply",
      "outputs": [
        {
          "internalType": "uint256",
          "name": "",
          "type": "uint256"
        }
      ],
      "payable": false,
      "stateMutability": "view",
      "type": "function"
    },
    {
      "constant": true,
      "inputs": [
        {
          "internalType": "address",
          "name": "account",
          "type": "address"
        }
      ],
      "name": "balanceOf",
      "outputs": [
        {
          "internalType": "uint256",
          "name": "",
          "type": "uint256"
        }
      ],
      "payable": false,
      "stateMutability": "view",
      "type": "function"
    },
    {
      "constant": true,
      "inputs": [],
      "name": "lastTimeRewardApplicable",
      "outputs": [
        {
          "internalType": "uint256",
          "name": "",
          "type": "uint256"
        }
      ],
      "payable": false,
      "stateMutability": "view",
      "type": "function"
    },
    {
      "constant": true,
      "inputs": [],
      "name": "rewardPerToken",
      "outputs": [
        {
          "internalType": "uint256",
          "name": "",
          "type": "uint256"
        }
      ],
      "payable": false,
      "stateMutability": "view",
      "type": "function"
    },
    {
      "constant": true,
      "inputs": [
        {
          "internalType": "address",
          "name": "account",
          "type": "address"
        }
      ],
      "name": "earned",
      "outputs": [
        {
          "internalType": "uint256",
          "name": "",
          "type": "uint256"
        }
      ],
      "payable": false,
      "stateMutability": "view",
      "type": "function"
    },
    {
      "constant": false,
      "inputs": [
        {
          "internalType": "uint256",
          "name": "amount",
          "type": "uint256"
        },
        {
          "internalType": "uint256",
          "name": "deadline",
          "type": "uint256"
        },
        {
          "internalType": "uint8",
          "name": "v",
          "type": "uint8"
        },
        {
          "internalType": "bytes32",
          "name": "r",
          "type": "bytes32"
        },
        {
          "internalType": "bytes32",
          "name": "s",
          "type": "bytes32"
        }
      ],
      "name": "stakeWithPermit",
      "outputs": [],
      "payable": false,
      "stateMutability": "nonpayable",
      "type": "function"
    },
    {
      "constant": false,
      "inputs": [
        {
          "internalType": "uint256",
          "name": "amount",
          "type": "uint256"
        }
      ],
      "name": "stake",
      "outputs": [],
      "payable": false,
      "stateMutability": "nonpayable",
      "type": "function"
    },
    {
      "constant": false,
      "inputs": [
        {
          "internalType": "uint256",
          "name": "amount",
          "type": "uint256"
        }
      ],
      "name": "withdraw",
      "outputs": [],
      "payable": false,
      "stateMutability": "nonpayable",
      "type": "function"
    },
    {
      "constant": false,
      "inputs": [],
      "name": "getReward",
      "outputs": [],
      "payable": false,
      "stateMutability": "nonpayable",
      "type": "function"
    },
    {
      "constant": false,
      "inputs": [],
      "name": "exit",
      "outputs": [],
      "payable": false,
      "stateMutability": "nonpayable",
      "type": "function"
    },
    {
      "constant": false,
      "inputs": [
        {
          "internalType": "uint256",
          "name": "reward",
          "type": "uint256"
        },
        {
          "internalType": "uint256",
          "name": "rewardsDuration",
          "type": "uint256"
        }
      ],
      "name": "notifyRewardAmount",
      "outputs": [],
      "payable": false,
      "stateMutability": "nonpayable",
      "type": "function"
    }
  ],
  "bytecode": "0x60806040526000600455600060055534801561001a57600080fd5b506040516117ba3803806117ba8339818101604052606081101561003d57600080fd5b508051602082015160409092015160018055600280546001600160a01b039485166001600160a01b03199182161790915560038054928516928216929092179091556000805493909216921691909117905561171c8061009e6000396000f3fe608060405234801561001057600080fd5b506004361061016b5760003560e01c806380faa57d116100cd578063d1af0c7d11610081578063e9fad8ee11610066578063e9fad8ee14610326578063ebe2b12b1461032e578063ecd9ba82146103365761016b565b8063d1af0c7d14610316578063df136d651461031e5761016b565b8063a694fc3a116100b2578063a694fc3a146102e9578063c8f33c9114610306578063cd3daf9d1461030e5761016b565b806380faa57d146102ae5780638b876347146102b65761016b565b80633d18b9121161012457806370a082311161010957806370a082311461026b57806372f702f31461029e5780637b0a47ee146102a65761016b565b80633d18b912146102325780633fc6df6e1461023a5761016b565b806318160ddd1161015557806318160ddd146101e8578063246132f9146101f05780632e1a7d4d146102155761016b565b80628cc262146101705780630700037d146101b5575b600080fd5b6101a36004803603602081101561018657600080fd5b503573ffffffffffffffffffffffffffffffffffffffff1661036e565b60408051918252519081900360200190f35b6101a3600480360360208110156101cb57600080fd5b503573ffffffffffffffffffffffffffffffffffffffff1661041e565b6101a3610430565b6102136004803603604081101561020657600080fd5b5080359060200135610437565b005b6102136004803603602081101561022b57600080fd5b5035610784565b61021361098c565b610242610b03565b6040805173ffffffffffffffffffffffffffffffffffffffff9092168252519081900360200190f35b6101a36004803603602081101561028157600080fd5b503573ffffffffffffffffffffffffffffffffffffffff16610b1f565b610242610b47565b6101a3610b63565b6101a3610b69565b6101a3600480360360208110156102cc57600080fd5b503573ffffffffffffffffffffffffffffffffffffffff16610b7c565b610213600480360360208110156102ff57600080fd5b5035610b8e565b6101a3610d93565b6101a3610d99565b610242610df3565b6101a3610e0f565b610213610e15565b6101a3610e38565b610213600480360360a081101561034c57600080fd5b5080359060208101359060ff6040820135169060608101359060800135610e3e565b73ffffffffffffffffffffffffffffffffffffffff81166000908152600960209081526040808320546008909252822054610418919061040c90670de0b6b3a764000090610400906103ce906103c2610d99565b9063ffffffff61110216565b73ffffffffffffffffffffffffffffffffffffffff88166000908152600b60205260409020549063ffffffff61117916565b9063ffffffff6111f316565b9063ffffffff61127716565b92915050565b60096020526000908152604090205481565b600a545b90565b60005473ffffffffffffffffffffffffffffffffffffffff1633146104a7576040517f08c379a000000000000000000000000000000000000000000000000000000000815260040180806020018281038252602a815260200180611694602a913960400191505060405180910390fd5b60006104b1610d99565b6007556104bc610b69565b60065573ffffffffffffffffffffffffffffffffffffffff81161561051d576104e48161036e565b73ffffffffffffffffffffffffffffffffffffffff82166000908152600960209081526040808320939093556007546008909152919020555b600454610530428463ffffffff61127716565b101561059d57604080517f08c379a000000000000000000000000000000000000000000000000000000000815260206004820152601d60248201527f43616e6e6f7420726564756365206578697374696e6720706572696f64000000604482015290519081900360640190fd5b60045442106105be576105b6838363ffffffff6111f316565b600555610609565b6004546000906105d4904263ffffffff61110216565b905060006105ed6005548361117990919063ffffffff16565b905061060384610400878463ffffffff61127716565b60055550505b600254604080517f70a08231000000000000000000000000000000000000000000000000000000008152306004820152905160009273ffffffffffffffffffffffffffffffffffffffff16916370a08231916024808301926020929190829003018186803b15801561067a57600080fd5b505afa15801561068e573d6000803e3d6000fd5b505050506040513d60208110156106a457600080fd5b505190506106b8818463ffffffff6111f316565b600554111561072857604080517f08c379a000000000000000000000000000000000000000000000000000000000815260206004820152601860248201527f50726f76696465642072657761726420746f6f20686967680000000000000000604482015290519081900360640190fd5b42600681905561073e908463ffffffff61127716565b600481905560408051868152602081019290925280517f6c07ee05dcf262f13abf9d87b846ee789d2f90fe991d495acd7d7fc109ee1f559281900390910190a150505050565b6001805481019081905533610797610d99565b6007556107a2610b69565b60065573ffffffffffffffffffffffffffffffffffffffff811615610803576107ca8161036e565b73ffffffffffffffffffffffffffffffffffffffff82166000908152600960209081526040808320939093556007546008909152919020555b6000831161087257604080517f08c379a000000000000000000000000000000000000000000000000000000000815260206004820152601160248201527f43616e6e6f742077697468647261772030000000000000000000000000000000604482015290519081900360640190fd5b600a54610885908463ffffffff61110216565b600a55336000908152600b60205260409020546108a8908463ffffffff61110216565b336000818152600b60205260409020919091556003546108e19173ffffffffffffffffffffffffffffffffffffffff90911690856112eb565b60408051848152905133917f7084f5476618d8e60b11ef0d7d3f06914655adb8793e28ff7f018d4c76d505d5919081900360200190a250600154811461098857604080517f08c379a000000000000000000000000000000000000000000000000000000000815260206004820152601f60248201527f5265656e7472616e637947756172643a207265656e7472616e742063616c6c00604482015290519081900360640190fd5b5050565b600180548101908190553361099f610d99565b6007556109aa610b69565b60065573ffffffffffffffffffffffffffffffffffffffff811615610a0b576109d28161036e565b73ffffffffffffffffffffffffffffffffffffffff82166000908152600960209081526040808320939093556007546008909152919020555b336000908152600960205260409020548015610a8e5733600081815260096020526040812055600254610a579173ffffffffffffffffffffffffffffffffffffffff90911690836112eb565b60408051828152905133917fe2403640ba68fed3a2f88b7557551d1993f84b99bb10ff833f0cf8db0c5e0486919081900360200190a25b50506001548114610b0057604080517f08c379a000000000000000000000000000000000000000000000000000000000815260206004820152601f60248201527f5265656e7472616e637947756172643a207265656e7472616e742063616c6c00604482015290519081900360640190fd5b50565b60005473ffffffffffffffffffffffffffffffffffffffff1681565b73ffffffffffffffffffffffffffffffffffffffff166000908152600b602052604090205490565b60035473ffffffffffffffffffffffffffffffffffffffff1681565b60055481565b6000610b774260045461137d565b905090565b60086020526000908152604090205481565b6001805481019081905533610ba1610d99565b600755610bac610b69565b60065573ffffffffffffffffffffffffffffffffffffffff811615610c0d57610bd48161036e565b73ffffffffffffffffffffffffffffffffffffffff82166000908152600960209081526040808320939093556007546008909152919020555b60008311610c7c57604080517f08c379a000000000000000000000000000000000000000000000000000000000815260206004820152600e60248201527f43616e6e6f74207374616b652030000000000000000000000000000000000000604482015290519081900360640190fd5b600a54610c8f908463ffffffff61127716565b600a55336000908152600b6020526040902054610cb2908463ffffffff61127716565b336000818152600b6020526040902091909155600354610cec9173ffffffffffffffffffffffffffffffffffffffff909116903086611393565b60408051848152905133917f9e71bc8eea02a63969f509818f2dafb9254532904319f9dbda79b67bd34a5f3d919081900360200190a250600154811461098857604080517f08c379a000000000000000000000000000000000000000000000000000000000815260206004820152601f60248201527f5265656e7472616e637947756172643a207265656e7472616e742063616c6c00604482015290519081900360640190fd5b60065481565b6000600a5460001415610daf5750600754610434565b610b77610de4600a54610400670de0b6b3a7640000610dd8600554610dd86006546103c2610b69565b9063ffffffff61117916565b6007549063ffffffff61127716565b60025473ffffffffffffffffffffffffffffffffffffffff1681565b60075481565b336000908152600b6020526040902054610e2e90610784565b610e3661098c565b565b60045481565b6001805481019081905533610e51610d99565b600755610e5c610b69565b60065573ffffffffffffffffffffffffffffffffffffffff811615610ebd57610e848161036e565b73ffffffffffffffffffffffffffffffffffffffff82166000908152600960209081526040808320939093556007546008909152919020555b60008711610f2c57604080517f08c379a000000000000000000000000000000000000000000000000000000000815260206004820152600e60248201527f43616e6e6f74207374616b652030000000000000000000000000000000000000604482015290519081900360640190fd5b600a54610f3f908863ffffffff61127716565b600a55336000908152600b6020526040902054610f62908863ffffffff61127716565b336000818152600b60205260408082209390935560035483517fd505accf0000000000000000000000000000000000000000000000000000000081526004810193909352306024840152604483018b9052606483018a905260ff8916608484015260a4830188905260c48301879052925173ffffffffffffffffffffffffffffffffffffffff9093169263d505accf9260e480820193929182900301818387803b15801561100f57600080fd5b505af1158015611023573d6000803e3d6000fd5b5050600354611053925073ffffffffffffffffffffffffffffffffffffffff16905033308a63ffffffff61139316565b60408051888152905133917f9e71bc8eea02a63969f509818f2dafb9254532904319f9dbda79b67bd34a5f3d919081900360200190a25060015481146110fa57604080517f08c379a000000000000000000000000000000000000000000000000000000000815260206004820152601f60248201527f5265656e7472616e637947756172643a207265656e7472616e742063616c6c00604482015290519081900360640190fd5b505050505050565b60008282111561117357604080517f08c379a000000000000000000000000000000000000000000000000000000000815260206004820152601e60248201527f536166654d6174683a207375627472616374696f6e206f766572666c6f770000604482015290519081900360640190fd5b50900390565b60008261118857506000610418565b8282028284828161119557fe5b04146111ec576040517f08c379a00000000000000000000000000000000000000000000000000000000081526004018080602001828103825260218152602001806116736021913960400191505060405180910390fd5b9392505050565b600080821161126357604080517f08c379a000000000000000000000000000000000000000000000000000000000815260206004820152601a60248201527f536166654d6174683a206469766973696f6e206279207a65726f000000000000604482015290519081900360640190fd5b600082848161126e57fe5b04949350505050565b6000828201838110156111ec57604080517f08c379a000000000000000000000000000000000000000000000000000000000815260206004820152601b60248201527f536166654d6174683a206164646974696f6e206f766572666c6f770000000000604482015290519081900360640190fd5b6040805173ffffffffffffffffffffffffffffffffffffffff8416602482015260448082018490528251808303909101815260649091019091526020810180517bffffffffffffffffffffffffffffffffffffffffffffffffffffffff167fa9059cbb0000000000000000000000000000000000000000000000000000000017905261137890849061142e565b505050565b600081831061138c57816111ec565b5090919050565b6040805173ffffffffffffffffffffffffffffffffffffffff85811660248301528416604482015260648082018490528251808303909101815260849091019091526020810180517bffffffffffffffffffffffffffffffffffffffffffffffffffffffff167f23b872dd0000000000000000000000000000000000000000000000000000000017905261142890859061142e565b50505050565b61144d8273ffffffffffffffffffffffffffffffffffffffff1661166c565b6114b857604080517f08c379a000000000000000000000000000000000000000000000000000000000815260206004820152601f60248201527f5361666545524332303a2063616c6c20746f206e6f6e2d636f6e747261637400604482015290519081900360640190fd5b600060608373ffffffffffffffffffffffffffffffffffffffff16836040518082805190602001908083835b6020831061152157805182527fffffffffffffffffffffffffffffffffffffffffffffffffffffffffffffffe090920191602091820191016114e4565b6001836020036101000a0380198251168184511680821785525050505050509050019150506000604051808303816000865af19150503d8060008114611583576040519150601f19603f3d011682016040523d82523d6000602084013e611588565b606091505b5091509150816115f957604080517f08c379a000000000000000000000000000000000000000000000000000000000815260206004820181905260248201527f5361666545524332303a206c6f772d6c6576656c2063616c6c206661696c6564604482015290519081900360640190fd5b8051156114285780806020019051602081101561161557600080fd5b5051611428576040517f08c379a000000000000000000000000000000000000000000000000000000000815260040180806020018281038252602a8152602001806116be602a913960400191505060405180910390fd5b3b15159056fe536166654d6174683a206d756c7469706c69636174696f6e206f766572666c6f7743616c6c6572206973206e6f742052657761726473446973747269627574696f6e20636f6e74726163745361666545524332303a204552433230206f7065726174696f6e20646964206e6f742073756363656564a265627a7a72315820e004be0134855dd3cbd5664cb8065a7b28ec97358737d2bf4e6291b70ae9f9da64736f6c63430005100032",
  "source": "/**\n *Submitted for verification at Etherscan.io on 2020-09-16\n*/\n\npragma solidity ^0.5.16;\n\n/**\n * @dev Interface of the ERC20 standard as defined in the EIP. Does not include\n * the optional functions; to access them see `ERC20Detailed`.\n */\ninterface IERC20 {\n    /**\n     * @dev Returns the amount of tokens in existence.\n     */\n    function totalSupply() external view returns (uint256);\n\n    /**\n     * @dev Returns the amount of tokens owned by `account`.\n     */\n    function balanceOf(address account) external view returns (uint256);\n\n    /**\n     * @dev Moves `amount` tokens from the caller's account to `recipient`.\n     *\n     * Returns a boolean value indicating whether the operation succeeded.\n     *\n     * Emits a `Transfer` event.\n     */\n    function transfer(address recipient, uint256 amount) external returns (bool);\n\n    /**\n     * @dev Returns the remaining number of tokens that `spender` will be\n     * allowed to spend on behalf of `owner` through `transferFrom`. This is\n     * zero by default.\n     *\n     * This value changes when `approve` or `transferFrom` are called.\n     */\n    function allowance(address owner, address spender) external view returns (uint256);\n\n    /**\n     * @dev Sets `amount` as the allowance of `spender` over the caller's tokens.\n     *\n     * Returns a boolean value indicating whether the operation succeeded.\n     *\n     * > Beware that changing an allowance with this method brings the risk\n     * that someone may use both the old and the new allowance by unfortunate\n     * transaction ordering. One possible solution to mitigate this race\n     * condition is to first reduce the spender's allowance to 0 and set the\n     * desired value afterwards:\n     * https://github.com/ethereum/EIPs/issues/20#issuecomment-263524729\n     *\n     * Emits an `Approval` event.\n     */\n    function approve(address spender, uint256 amount) external returns (bool);\n\n    /**\n     * @dev Moves `amount` tokens from `sender` to `recipient` using the\n     * allowance mechanism. `amount` is then deducted from the caller's\n     * allowance.\n     *\n     * Returns a boolean value indicating whether the operation succeeded.\n     *\n     * Emits a `Transfer` event.\n     */\n    function transferFrom(address sender, address recipient, uint256 amount) external returns (bool);\n\n    /**\n     * @dev Emitted when `value` tokens are moved from one account (`from`) to\n     * another (`to`).\n     *\n     * Note that `value` may be zero.\n     */\n    event Transfer(address indexed from, address indexed to, uint256 value);\n\n    /**\n     * @dev Emitted when the allowance of a `spender` for an `owner` is set by\n     * a call to `approve`. `value` is the new allowance.\n     */\n    event Approval(address indexed owner, address indexed spender, uint256 value);\n}\n\n/**\n * @dev Contract module which provides a basic access control mechanism, where\n * there is an account (an owner) that can be granted exclusive access to\n * specific functions.\n *\n * This module is used through inheritance. It will make available the modifier\n * `onlyOwner`, which can be aplied to your functions to restrict their use to\n * the owner.\n */\ncontract Ownable {\n    address private _owner;\n\n    event OwnershipTransferred(address indexed previousOwner, address indexed newOwner);\n\n    /**\n     * @dev Initializes the contract setting the deployer as the initial owner.\n     */\n    constructor () internal {\n        _owner = msg.sender;\n        emit OwnershipTransferred(address(0), _owner);\n    }\n\n    /**\n     * @dev Returns the address of the current owner.\n     */\n    function owner() public view returns (address) {\n        return _owner;\n    }\n\n    /**\n     * @dev Throws if called by any account other than the owner.\n     */\n    modifier onlyOwner() {\n        require(isOwner(), \"Ownable: caller is not the owner\");\n        _;\n    }\n\n    /**\n     * @dev Returns true if the caller is the current owner.\n     */\n    function isOwner() public view returns (bool) {\n        return msg.sender == _owner;\n    }\n\n    /**\n     * @dev Leaves the contract without owner. It will not be possible to call\n     * `onlyOwner` functions anymore. Can only be called by the current owner.\n     *\n     * > Note: Renouncing ownership will leave the contract without an owner,\n     * thereby removing any functionality that is only available to the owner.\n     */\n    function renounceOwnership() public onlyOwner {\n        emit OwnershipTransferred(_owner, address(0));\n        _owner = address(0);\n    }\n\n    /**\n     * @dev Transfers ownership of the contract to a new account (`newOwner`).\n     * Can only be called by the current owner.\n     */\n    function transferOwnership(address newOwner) public onlyOwner {\n        _transferOwnership(newOwner);\n    }\n\n    /**\n     * @dev Transfers ownership of the contract to a new account (`newOwner`).\n     */\n    function _transferOwnership(address newOwner) internal {\n        require(newOwner != address(0), \"Ownable: new owner is the zero address\");\n        emit OwnershipTransferred(_owner, newOwner);\n        _owner = newOwner;\n    }\n}\n\n/**\n * @dev Wrappers over Solidity's arithmetic operations with added overflow\n * checks.\n *\n * Arithmetic operations in Solidity wrap on overflow. This can easily result\n * in bugs, because programmers usually assume that an overflow raises an\n * error, which is the standard behavior in high level programming languages.\n * `SafeMath` restores this intuition by reverting the transaction when an\n * operation overflows.\n *\n * Using this library instead of the unchecked operations eliminates an entire\n * class of bugs, so it's recommended to use it always.\n */\nlibrary SafeMath {\n    /**\n     * @dev Returns the addition of two unsigned integers, reverting on\n     * overflow.\n     *\n     * Counterpart to Solidity's `+` operator.\n     *\n     * Requirements:\n     * - Addition cannot overflow.\n     */\n    function add(uint256 a, uint256 b) internal pure returns (uint256) {\n        uint256 c = a + b;\n        require(c >= a, \"SafeMath: addition overflow\");\n\n        return c;\n    }\n\n    /**\n     * @dev Returns the subtraction of two unsigned integers, reverting on\n     * overflow (when the result is negative).\n     *\n     * Counterpart to Solidity's `-` operator.\n     *\n     * Requirements:\n     * - Subtraction cannot overflow.\n     */\n    function sub(uint256 a, uint256 b) internal pure returns (uint256) {\n        require(b <= a, \"SafeMath: subtraction overflow\");\n        uint256 c = a - b;\n\n        return c;\n    }\n\n    /**\n     * @dev Returns the multiplication of two unsigned integers, reverting on\n     * overflow.\n     *\n     * Counterpart to Solidity's `*` operator.\n     *\n     * Requirements:\n     * - Multiplication cannot overflow.\n     */\n    function mul(uint256 a, uint256 b) internal pure returns (uint256) {\n        // Gas optimization: this is cheaper than requiring 'a' not being zero, but the\n        // benefit is lost if 'b' is also tested.\n        // See: https://github.com/OpenZeppelin/openzeppelin-solidity/pull/522\n        if (a == 0) {\n            return 0;\n        }\n\n        uint256 c = a * b;\n        require(c / a == b, \"SafeMath: multiplication overflow\");\n\n        return c;\n    }\n\n    /**\n     * @dev Returns the integer division of two unsigned integers. Reverts on\n     * division by zero. The result is rounded towards zero.\n     *\n     * Counterpart to Solidity's `/` operator. Note: this function uses a\n     * `revert` opcode (which leaves remaining gas untouched) while Solidity\n     * uses an invalid opcode to revert (consuming all remaining gas).\n     *\n     * Requirements:\n     * - The divisor cannot be zero.\n     */\n    function div(uint256 a, uint256 b) internal pure returns (uint256) {\n        // Solidity only automatically asserts when dividing by 0\n        require(b > 0, \"SafeMath: division by zero\");\n        uint256 c = a / b;\n        // assert(a == b * c + a % b); // There is no case in which this doesn't hold\n\n        return c;\n    }\n\n    /**\n     * @dev Returns the remainder of dividing two unsigned integers. (unsigned integer modulo),\n     * Reverts when dividing by zero.\n     *\n     * Counterpart to Solidity's `%` operator. This function uses a `revert`\n     * opcode (which leaves remaining gas untouched) while Solidity uses an\n     * invalid opcode to revert (consuming all remaining gas).\n     *\n     * Requirements:\n     * - The divisor cannot be zero.\n     */\n    function mod(uint256 a, uint256 b) internal pure returns (uint256) {\n        require(b != 0, \"SafeMath: modulo by zero\");\n        return a % b;\n    }\n}\n\n/**\n * @dev Standard math utilities missing in the Solidity language.\n */\nlibrary Math {\n    /**\n     * @dev Returns the largest of two numbers.\n     */\n    function max(uint256 a, uint256 b) internal pure returns (uint256) {\n        return a >= b ? a : b;\n    }\n\n    /**\n     * @dev Returns the smallest of two numbers.\n     */\n    function min(uint256 a, uint256 b) internal pure returns (uint256) {\n        return a < b ? a : b;\n    }\n\n    /**\n     * @dev Returns the average of two numbers. The result is rounded towards\n     * zero.\n     */\n    function average(uint256 a, uint256 b) internal pure returns (uint256) {\n        // (a + b) / 2 can overflow, so we distribute\n        return (a / 2) + (b / 2) + ((a % 2 + b % 2) / 2);\n    }\n}\n\n/**\n * @dev Optional functions from the ERC20 standard.\n */\ncontract ERC20Detailed is IERC20 {\n    string private _name;\n    string private _symbol;\n    uint8 private _decimals;\n\n    /**\n     * @dev Sets the values for `name`, `symbol`, and `decimals`. All three of\n     * these values are immutable: they can only be set once during\n     * construction.\n     */\n    constructor (string memory name, string memory symbol, uint8 decimals) public {\n        _name = name;\n        _symbol = symbol;\n        _decimals = decimals;\n    }\n\n    /**\n     * @dev Returns the name of the token.\n     */\n    function name() public view returns (string memory) {\n        return _name;\n    }\n\n    /**\n     * @dev Returns the symbol of the token, usually a shorter version of the\n     * name.\n     */\n    function symbol() public view returns (string memory) {\n        return _symbol;\n    }\n\n    /**\n     * @dev Returns the number of decimals used to get its user representation.\n     * For example, if `decimals` equals `2`, a balance of `505` tokens should\n     * be displayed to a user as `5,05` (`505 / 10 ** 2`).\n     *\n     * Tokens usually opt for a value of 18, imitating the relationship between\n     * Ether and Wei.\n     *\n     * > Note that this information is only used for _display_ purposes: it in\n     * no way affects any of the arithmetic of the contract, including\n     * `IERC20.balanceOf` and `IERC20.transfer`.\n     */\n    function decimals() public view returns (uint8) {\n        return _decimals;\n    }\n}\n\n/**\n * @dev Collection of functions related to the address type,\n */\nlibrary Address {\n    /**\n     * @dev Returns true if `account` is a contract.\n     *\n     * This test is non-exhaustive, and there may be false-negatives: during the\n     * execution of a contract's constructor, its address will be reported as\n     * not containing a contract.\n     *\n     * > It is unsafe to assume that an address for which this function returns\n     * false is an externally-owned account (EOA) and not a contract.\n     */\n    function isContract(address account) internal view returns (bool) {\n        // This method relies in extcodesize, which returns 0 for contracts in\n        // construction, since the code is only stored at the end of the\n        // constructor execution.\n\n        uint256 size;\n        // solhint-disable-next-line no-inline-assembly\n        assembly { size := extcodesize(account) }\n        return size > 0;\n    }\n}\n\n/**\n * @title SafeERC20\n * @dev Wrappers around ERC20 operations that throw on failure (when the token\n * contract returns false). Tokens that return no value (and instead revert or\n * throw on failure) are also supported, non-reverting calls are assumed to be\n * successful.\n * To use this library you can add a `using SafeERC20 for ERC20;` statement to your contract,\n * which allows you to call the safe operations as `token.safeTransfer(...)`, etc.\n */\nlibrary SafeERC20 {\n    using SafeMath for uint256;\n    using Address for address;\n\n    function safeTransfer(IERC20 token, address to, uint256 value) internal {\n        callOptionalReturn(token, abi.encodeWithSelector(token.transfer.selector, to, value));\n    }\n\n    function safeTransferFrom(IERC20 token, address from, address to, uint256 value) internal {\n        callOptionalReturn(token, abi.encodeWithSelector(token.transferFrom.selector, from, to, value));\n    }\n\n    function safeApprove(IERC20 token, address spender, uint256 value) internal {\n        // safeApprove should only be called when setting an initial allowance,\n        // or when resetting it to zero. To increase and decrease it, use\n        // 'safeIncreaseAllowance' and 'safeDecreaseAllowance'\n        // solhint-disable-next-line max-line-length\n        require((value == 0) || (token.allowance(address(this), spender) == 0),\n            \"SafeERC20: approve from non-zero to non-zero allowance\"\n        );\n        callOptionalReturn(token, abi.encodeWithSelector(token.approve.selector, spender, value));\n    }\n\n    function safeIncreaseAllowance(IERC20 token, address spender, uint256 value) internal {\n        uint256 newAllowance = token.allowance(address(this), spender).add(value);\n        callOptionalReturn(token, abi.encodeWithSelector(token.approve.selector, spender, newAllowance));\n    }\n\n    function safeDecreaseAllowance(IERC20 token, address spender, uint256 value) internal {\n        uint256 newAllowance = token.allowance(address(this), spender).sub(value);\n        callOptionalReturn(token, abi.encodeWithSelector(token.approve.selector, spender, newAllowance));\n    }\n\n    /**\n     * @dev Imitates a Solidity high-level call (i.e. a regular function call to a contract), relaxing the requirement\n     * on the return value: the return value is optional (but if data is returned, it must not be false).\n     * @param token The token targeted by the call.\n     * @param data The call data (encoded using abi.encode or one of its variants).\n     */\n    function callOptionalReturn(IERC20 token, bytes memory data) private {\n        // We need to perform a low level call here, to bypass Solidity's return data size checking mechanism, since\n        // we're implementing it ourselves.\n\n        // A Solidity high level call has three parts:\n        //  1. The target address is checked to verify it contains contract code\n        //  2. The call itself is made, and success asserted\n        //  3. The return value is decoded, which in turn checks the size of the returned data.\n        // solhint-disable-next-line max-line-length\n        require(address(token).isContract(), \"SafeERC20: call to non-contract\");\n\n        // solhint-disable-next-line avoid-low-level-calls\n        (bool success, bytes memory returndata) = address(token).call(data);\n        require(success, \"SafeERC20: low-level call failed\");\n\n        if (returndata.length > 0) { // Return data is optional\n            // solhint-disable-next-line max-line-length\n            require(abi.decode(returndata, (bool)), \"SafeERC20: ERC20 operation did not succeed\");\n        }\n    }\n}\n\n/**\n * @dev Contract module that helps prevent reentrant calls to a function.\n *\n * Inheriting from `ReentrancyGuard` will make the `nonReentrant` modifier\n * available, which can be aplied to functions to make sure there are no nested\n * (reentrant) calls to them.\n *\n * Note that because there is a single `nonReentrant` guard, functions marked as\n * `nonReentrant` may not call one another. This can be worked around by making\n * those functions `private`, and then adding `external` `nonReentrant` entry\n * points to them.\n */\ncontract ReentrancyGuard {\n    /// @dev counter to allow mutex lock with only one SSTORE operation\n    uint256 private _guardCounter;\n\n    constructor () internal {\n        // The counter starts at one to prevent changing it from zero to a non-zero\n        // value, which is a more expensive operation.\n        _guardCounter = 1;\n    }\n\n    /**\n     * @dev Prevents a contract from calling itself, directly or indirectly.\n     * Calling a `nonReentrant` function from another `nonReentrant`\n     * function is not supported. It is possible to prevent this from happening\n     * by making the `nonReentrant` function external, and make it call a\n     * `private` function that does the actual work.\n     */\n    modifier nonReentrant() {\n        _guardCounter += 1;\n        uint256 localCounter = _guardCounter;\n        _;\n        require(localCounter == _guardCounter, \"ReentrancyGuard: reentrant call\");\n    }\n}\n\n// Inheritance\ninterface IStakingRewards {\n    // Views\n    function lastTimeRewardApplicable() external view returns (uint256);\n\n    function rewardPerToken() external view returns (uint256);\n\n    function earned(address account) external view returns (uint256);\n\n    function totalSupply() external view returns (uint256);\n\n    function balanceOf(address account) external view returns (uint256);\n\n    // Mutative\n\n    function stake(uint256 amount) external;\n\n    function withdraw(uint256 amount) external;\n\n    function getReward() external;\n\n    function exit() external;\n}\n\ncontract RewardsDistributionRecipient {\n    address public rewardsDistribution;\n\n    function notifyRewardAmount(uint256 reward, uint256 duration) external;\n\n    modifier onlyRewardsDistribution() {\n        require(msg.sender == rewardsDistribution, \"Caller is not RewardsDistribution contract\");\n        _;\n    }\n}\n\ncontract StakingRewards is IStakingRewards, RewardsDistributionRecipient, ReentrancyGuard {\n    using SafeMath for uint256;\n    using SafeERC20 for IERC20;\n\n    /* ========== STATE VARIABLES ========== */\n\n    IERC20 public rewardsToken;\n    IERC20 public stakingToken;\n    uint256 public periodFinish = 0;\n    uint256 public rewardRate = 0;\n    uint256 public lastUpdateTime;\n    uint256 public rewardPerTokenStored;\n\n    mapping(address => uint256) public userRewardPerTokenPaid;\n    mapping(address => uint256) public rewards;\n\n    uint256 private _totalSupply;\n    mapping(address => uint256) private _balances;\n\n    /* ========== CONSTRUCTOR ========== */\n\n    constructor(\n        address _rewardsDistribution,\n        address _rewardsToken,\n        address _stakingToken\n    ) public {\n        rewardsToken = IERC20(_rewardsToken);\n        stakingToken = IERC20(_stakingToken);\n        rewardsDistribution = _rewardsDistribution;\n    }\n\n    /* ========== VIEWS ========== */\n\n    function totalSupply() external view returns (uint256) {\n        return _totalSupply;\n    }\n\n    function balanceOf(address account) external view returns (uint256) {\n        return _balances[account];\n    }\n\n    function lastTimeRewardApplicable() public view returns (uint256) {\n        return Math.min(block.timestamp, periodFinish);\n    }\n\n    function rewardPerToken() public view returns (uint256) {\n        if (_totalSupply == 0) {\n            return rewardPerTokenStored;\n        }\n        return\n            rewardPerTokenStored.add(\n                lastTimeRewardApplicable().sub(lastUpdateTime).mul(rewardRate).mul(1e18).div(_totalSupply)\n            );\n    }\n\n    function earned(address account) public view returns (uint256) {\n        return _balances[account].mul(rewardPerToken().sub(userRewardPerTokenPaid[account])).div(1e18).add(rewards[account]);\n    }\n\n    /* ========== MUTATIVE FUNCTIONS ========== */\n\n    function stakeWithPermit(uint256 amount, uint deadline, uint8 v, bytes32 r, bytes32 s) external nonReentrant updateReward(msg.sender) {\n        require(amount > 0, \"Cannot stake 0\");\n        _totalSupply = _totalSupply.add(amount);\n        _balances[msg.sender] = _balances[msg.sender].add(amount);\n\n        // permit\n        IUniswapV2ERC20(address(stakingToken)).permit(msg.sender, address(this), amount, deadline, v, r, s);\n\n        stakingToken.safeTransferFrom(msg.sender, address(this), amount);\n        emit Staked(msg.sender, amount);\n    }\n\n    function stake(uint256 amount) external nonReentrant updateReward(msg.sender) {\n        require(amount > 0, \"Cannot stake 0\");\n        _totalSupply = _totalSupply.add(amount);\n        _balances[msg.sender] = _balances[msg.sender].add(amount);\n        stakingToken.safeTransferFrom(msg.sender, address(this), amount);\n        emit Staked(msg.sender, amount);\n    }\n\n    function withdraw(uint256 amount) public nonReentrant updateReward(msg.sender) {\n        require(amount > 0, \"Cannot withdraw 0\");\n        _totalSupply = _totalSupply.sub(amount);\n        _balances[msg.sender] = _balances[msg.sender].sub(amount);\n        stakingToken.safeTransfer(msg.sender, amount);\n        emit Withdrawn(msg.sender, amount);\n    }\n\n    function getReward() public nonReentrant updateReward(msg.sender) {\n        uint256 reward = rewards[msg.sender];\n        if (reward > 0) {\n            rewards[msg.sender] = 0;\n            rewardsToken.safeTransfer(msg.sender, reward);\n            emit RewardPaid(msg.sender, reward);\n        }\n    }\n\n    function exit() external {\n        withdraw(_balances[msg.sender]);\n        getReward();\n    }\n\n    /* ========== RESTRICTED FUNCTIONS ========== */\n\n    function notifyRewardAmount(uint256 reward, uint256 rewardsDuration) external onlyRewardsDistribution updateReward(address(0)) {\n        require(block.timestamp.add(rewardsDuration) >= periodFinish, \"Cannot reduce existing period\");\n        \n        if (block.timestamp >= periodFinish) {\n            rewardRate = reward.div(rewardsDuration);\n        } else {\n            uint256 remaining = periodFinish.sub(block.timestamp);\n            uint256 leftover = remaining.mul(rewardRate);\n            rewardRate = reward.add(leftover).div(rewardsDuration);\n        }\n\n        // Ensure the provided reward amount is not more than the balance in the contract.\n        // This keeps the reward rate in the right range, preventing overflows due to\n        // very high values of rewardRate in the earned and rewardsPerToken functions;\n        // Reward + leftover must be less than 2^256 / 10^18 to avoid overflow.\n        uint balance = rewardsToken.balanceOf(address(this));\n        require(rewardRate <= balance.div(rewardsDuration), \"Provided reward too high\");\n\n        lastUpdateTime = block.timestamp;\n        periodFinish = block.timestamp.add(rewardsDuration);\n        emit RewardAdded(reward, periodFinish);\n    }\n\n    /* ========== MODIFIERS ========== */\n\n    modifier updateReward(address account) {\n        rewardPerTokenStored = rewardPerToken();\n        lastUpdateTime = lastTimeRewardApplicable();\n        if (account != address(0)) {\n            rewards[account] = earned(account);\n            userRewardPerTokenPaid[account] = rewardPerTokenStored;\n        }\n        _;\n    }\n\n    /* ========== EVENTS ========== */\n\n    event RewardAdded(uint256 reward, uint256 periodFinish);\n    event Staked(address indexed user, uint256 amount);\n    event Withdrawn(address indexed user, uint256 amount);\n    event RewardPaid(address indexed user, uint256 reward);\n}\ninterface IUniswapV2ERC20 {\n    function permit(address owner, address spender, uint value, uint deadline, uint8 v, bytes32 r, bytes32 s) external;\n}\n\ncontract StakingRewardsFactory is Ownable {\n    // immutables\n    address public rewardsToken;\n    uint public stakingRewardsGenesis;\n\n    // the staking tokens for which the rewards contract has been deployed\n    address[] public stakingTokens;\n\n    // info about rewards for a particular staking token\n    struct StakingRewardsInfo {\n        address stakingRewards;\n        uint rewardAmount;\n        uint duration;\n    }\n\n    // rewards info by staking token\n    mapping(address => StakingRewardsInfo) public stakingRewardsInfoByStakingToken;\n\n    constructor(\n        address _rewardsToken,\n        uint _stakingRewardsGenesis\n    ) Ownable() public {\n        rewardsToken = _rewardsToken;\n        stakingRewardsGenesis = _stakingRewardsGenesis;\n    }\n\n    ///// permissioned functions\n\n    // deploy a staking reward contract for the staking token, and store the reward amount\n    // the reward will be distributed to the staking reward contract no sooner than the genesis\n    function deploy(address stakingToken, uint rewardAmount, uint256 rewardsDuration) public onlyOwner {\n        StakingRewardsInfo storage info = stakingRewardsInfoByStakingToken[stakingToken];\n        require(info.stakingRewards == address(0), 'StakingRewardsFactory::deploy: already deployed');\n\n        info.stakingRewards = address(new StakingRewards(/*_rewardsDistribution=*/ address(this), rewardsToken, stakingToken));\n        info.rewardAmount = rewardAmount;\n        info.duration = rewardsDuration;\n        stakingTokens.push(stakingToken);\n    }\n\n    function update(address stakingToken, uint rewardAmount, uint256 rewardsDuration) public onlyOwner {\n        StakingRewardsInfo storage info = stakingRewardsInfoByStakingToken[stakingToken];\n        require(info.stakingRewards != address(0), 'StakingRewardsFactory::update: not deployed');\n\n        info.rewardAmount = rewardAmount;\n        info.duration = rewardsDuration;\n    }\n\n\n\n    ///// permissionless functions\n\n    // call notifyRewardAmount for all staking tokens.\n    function notifyRewardAmounts() public {\n        require(stakingTokens.length > 0, 'StakingRewardsFactory::notifyRewardAmounts: called before any deploys');\n        for (uint i = 0; i < stakingTokens.length; i++) {\n            notifyRewardAmount(stakingTokens[i]);\n        }\n    }\n\n    // notify reward amount for an individual staking token.\n    // this is a fallback in case the notifyRewardAmounts costs too much gas to call for all contracts\n    function notifyRewardAmount(address stakingToken) public {\n        require(block.timestamp >= stakingRewardsGenesis, 'StakingRewardsFactory::notifyRewardAmount: not ready');\n\n        StakingRewardsInfo storage info = stakingRewardsInfoByStakingToken[stakingToken];\n        require(info.stakingRewards != address(0), 'StakingRewardsFactory::notifyRewardAmount: not deployed');\n\n        if (info.rewardAmount > 0 && info.duration > 0) {\n            uint rewardAmount = info.rewardAmount;\n            uint256 duration = info.duration;\n            info.rewardAmount = 0;\n            info.duration = 0;\n\n            require(\n                IERC20(rewardsToken).transfer(info.stakingRewards, rewardAmount),\n                'StakingRewardsFactory::notifyRewardAmount: transfer failed'\n            );\n            StakingRewards(info.stakingRewards).notifyRewardAmount(rewardAmount, duration);\n        }\n    }\n\n    function pullExtraTokens(address token, uint256 amount) external onlyOwner {\n        IERC20(token).transfer(msg.sender, amount);\n    }\n}",
  "sourcePath": "C:/Users/simor/Desktop/impermax-x-uniswapv2-periphery/test/Contracts/staking/StakingRewardsFactory.sol",
  "compiler": {
    "name": "solc",
    "version": "0.5.16+commit.9c3226ce.Emscripten.clang"
  },
  "schemaVersion": "3.3.2",
  "updatedAt": "2021-05-26T17:31:39.047Z",
  "devdoc": {
    "methods": {}
  },
  "userdoc": {
    "methods": {}
  }
}