{
  "contractName": "StakedLPToken",
  "abi": [
    {
      "anonymous": false,
      "inputs": [
        {
          "indexed": true,
          "internalType": "address",
          "name": "owner",
          "type": "address"
        },
        {
          "indexed": true,
          "internalType": "address",
          "name": "spender",
          "type": "address"
        },
        {
          "indexed": false,
          "internalType": "uint256",
          "name": "value",
          "type": "uint256"
        }
      ],
      "name": "Approval",
      "type": "event"
    },
    {
      "anonymous": false,
      "inputs": [
        {
          "indexed": true,
          "internalType": "address",
          "name": "sender",
          "type": "address"
        },
        {
          "indexed": true,
          "internalType": "address",
          "name": "minter",
          "type": "address"
        },
        {
          "indexed": false,
          "internalType": "uint256",
          "name": "mintAmount",
          "type": "uint256"
        },
        {
          "indexed": false,
          "internalType": "uint256",
          "name": "mintTokens",
          "type": "uint256"
        }
      ],
      "name": "Mint",
      "type": "event"
    },
    {
      "anonymous": false,
      "inputs": [
        {
          "indexed": true,
          "internalType": "address",
          "name": "sender",
          "type": "address"
        },
        {
          "indexed": true,
          "internalType": "address",
          "name": "redeemer",
          "type": "address"
        },
        {
          "indexed": false,
          "internalType": "uint256",
          "name": "redeemAmount",
          "type": "uint256"
        },
        {
          "indexed": false,
          "internalType": "uint256",
          "name": "redeemTokens",
          "type": "uint256"
        }
      ],
      "name": "Redeem",
      "type": "event"
    },
    {
      "anonymous": false,
      "inputs": [
        {
          "indexed": true,
          "internalType": "address",
          "name": "caller",
          "type": "address"
        },
        {
          "indexed": false,
          "internalType": "uint256",
          "name": "reward",
          "type": "uint256"
        },
        {
          "indexed": false,
          "internalType": "uint256",
          "name": "bounty",
          "type": "uint256"
        }
      ],
      "name": "Reinvest",
      "type": "event"
    },
    {
      "anonymous": false,
      "inputs": [
        {
          "indexed": false,
          "internalType": "uint256",
          "name": "totalBalance",
          "type": "uint256"
        }
      ],
      "name": "Sync",
      "type": "event"
    },
    {
      "anonymous": false,
      "inputs": [
        {
          "indexed": true,
          "internalType": "address",
          "name": "from",
          "type": "address"
        },
        {
          "indexed": true,
          "internalType": "address",
          "name": "to",
          "type": "address"
        },
        {
          "indexed": false,
          "internalType": "uint256",
          "name": "value",
          "type": "uint256"
        }
      ],
      "name": "Transfer",
      "type": "event"
    },
    {
      "constant": true,
      "inputs": [],
      "name": "DOMAIN_SEPARATOR",
      "outputs": [
        {
          "internalType": "bytes32",
          "name": "",
          "type": "bytes32"
        }
      ],
      "payable": false,
      "stateMutability": "view",
      "type": "function"
    },
    {
      "constant": true,
      "inputs": [],
      "name": "MINIMUM_LIQUIDITY",
      "outputs": [
        {
          "internalType": "uint256",
          "name": "",
          "type": "uint256"
        }
      ],
      "payable": false,
      "stateMutability": "view",
      "type": "function"
    },
    {
      "constant": true,
      "inputs": [],
      "name": "PERMIT_TYPEHASH",
      "outputs": [
        {
          "internalType": "bytes32",
          "name": "",
          "type": "bytes32"
        }
      ],
      "payable": false,
      "stateMutability": "view",
      "type": "function"
    },
    {
      "constant": true,
      "inputs": [],
      "name": "REINVEST_BOUNTY",
      "outputs": [
        {
          "internalType": "uint256",
          "name": "",
          "type": "uint256"
        }
      ],
      "payable": false,
      "stateMutability": "view",
      "type": "function"
    },
    {
      "constant": true,
      "inputs": [],
      "name": "WETH",
      "outputs": [
        {
          "internalType": "address",
          "name": "",
          "type": "address"
        }
      ],
      "payable": false,
      "stateMutability": "view",
      "type": "function"
    },
    {
      "constant": false,
      "inputs": [],
      "name": "_setFactory",
      "outputs": [],
      "payable": false,
      "stateMutability": "nonpayable",
      "type": "function"
    },
    {
      "constant": true,
      "inputs": [
        {
          "internalType": "address",
          "name": "",
          "type": "address"
        },
        {
          "internalType": "address",
          "name": "",
          "type": "address"
        }
      ],
      "name": "allowance",
      "outputs": [
        {
          "internalType": "uint256",
          "name": "",
          "type": "uint256"
        }
      ],
      "payable": false,
      "stateMutability": "view",
      "type": "function"
    },
    {
      "constant": false,
      "inputs": [
        {
          "internalType": "address",
          "name": "spender",
          "type": "address"
        },
        {
          "internalType": "uint256",
          "name": "value",
          "type": "uint256"
        }
      ],
      "name": "approve",
      "outputs": [
        {
          "internalType": "bool",
          "name": "",
          "type": "bool"
        }
      ],
      "payable": false,
      "stateMutability": "nonpayable",
      "type": "function"
    },
    {
      "constant": true,
      "inputs": [
        {
          "internalType": "address",
          "name": "",
          "type": "address"
        }
      ],
      "name": "balanceOf",
      "outputs": [
        {
          "internalType": "uint256",
          "name": "",
          "type": "uint256"
        }
      ],
      "payable": false,
      "stateMutability": "view",
      "type": "function"
    },
    {
      "constant": true,
      "inputs": [],
      "name": "decimals",
      "outputs": [
        {
          "internalType": "uint8",
          "name": "",
          "type": "uint8"
        }
      ],
      "payable": false,
      "stateMutability": "view",
      "type": "function"
    },
    {
      "constant": false,
      "inputs": [],
      "name": "exchangeRate",
      "outputs": [
        {
          "internalType": "uint256",
          "name": "",
          "type": "uint256"
        }
      ],
      "payable": false,
      "stateMutability": "nonpayable",
      "type": "function"
    },
    {
      "constant": true,
      "inputs": [],
      "name": "factory",
      "outputs": [
        {
          "internalType": "address",
          "name": "",
          "type": "address"
        }
      ],
      "payable": false,
      "stateMutability": "view",
      "type": "function"
    },
    {
      "constant": true,
      "inputs": [],
      "name": "name",
      "outputs": [
        {
          "internalType": "string",
          "name": "",
          "type": "string"
        }
      ],
      "payable": false,
      "stateMutability": "view",
      "type": "function"
    },
    {
      "constant": true,
      "inputs": [
        {
          "internalType": "address",
          "name": "",
          "type": "address"
        }
      ],
      "name": "nonces",
      "outputs": [
        {
          "internalType": "uint256",
          "name": "",
          "type": "uint256"
        }
      ],
      "payable": false,
      "stateMutability": "view",
      "type": "function"
    },
    {
      "constant": false,
      "inputs": [
        {
          "internalType": "address",
          "name": "owner",
          "type": "address"
        },
        {
          "internalType": "address",
          "name": "spender",
          "type": "address"
        },
        {
          "internalType": "uint256",
          "name": "value",
          "type": "uint256"
        },
        {
          "internalType": "uint256",
          "name": "deadline",
          "type": "uint256"
        },
        {
          "internalType": "uint8",
          "name": "v",
          "type": "uint8"
        },
        {
          "internalType": "bytes32",
          "name": "r",
          "type": "bytes32"
        },
        {
          "internalType": "bytes32",
          "name": "s",
          "type": "bytes32"
        }
      ],
      "name": "permit",
      "outputs": [],
      "payable": false,
      "stateMutability": "nonpayable",
      "type": "function"
    },
    {
      "constant": true,
      "inputs": [],
      "name": "rewardsToken",
      "outputs": [
        {
          "internalType": "address",
          "name": "",
          "type": "address"
        }
      ],
      "payable": false,
      "stateMutability": "view",
      "type": "function"
    },
    {
      "constant": true,
      "inputs": [],
      "name": "router",
      "outputs": [
        {
          "internalType": "address",
          "name": "",
          "type": "address"
        }
      ],
      "payable": false,
      "stateMutability": "view",
      "type": "function"
    },
    {
      "constant": false,
      "inputs": [
        {
          "internalType": "address",
          "name": "to",
          "type": "address"
        }
      ],
      "name": "skim",
      "outputs": [],
      "payable": false,
      "stateMutability": "nonpayable",
      "type": "function"
    },
    {
      "constant": true,
      "inputs": [],
      "name": "stakingRewards",
      "outputs": [
        {
          "internalType": "address",
          "name": "",
          "type": "address"
        }
      ],
      "payable": false,
      "stateMutability": "view",
      "type": "function"
    },
    {
      "constant": true,
      "inputs": [],
      "name": "symbol",
      "outputs": [
        {
          "internalType": "string",
          "name": "",
          "type": "string"
        }
      ],
      "payable": false,
      "stateMutability": "view",
      "type": "function"
    },
    {
      "constant": false,
      "inputs": [],
      "name": "sync",
      "outputs": [],
      "payable": false,
      "stateMutability": "nonpayable",
      "type": "function"
    },
    {
      "constant": true,
      "inputs": [],
      "name": "token0",
      "outputs": [
        {
          "internalType": "address",
          "name": "",
          "type": "address"
        }
      ],
      "payable": false,
      "stateMutability": "view",
      "type": "function"
    },
    {
      "constant": true,
      "inputs": [],
      "name": "token1",
      "outputs": [
        {
          "internalType": "address",
          "name": "",
          "type": "address"
        }
      ],
      "payable": false,
      "stateMutability": "view",
      "type": "function"
    },
    {
      "constant": true,
      "inputs": [],
      "name": "totalBalance",
      "outputs": [
        {
          "internalType": "uint256",
          "name": "",
          "type": "uint256"
        }
      ],
      "payable": false,
      "stateMutability": "view",
      "type": "function"
    },
    {
      "constant": true,
      "inputs": [],
      "name": "totalSupply",
      "outputs": [
        {
          "internalType": "uint256",
          "name": "",
          "type": "uint256"
        }
      ],
      "payable": false,
      "stateMutability": "view",
      "type": "function"
    },
    {
      "constant": false,
      "inputs": [
        {
          "internalType": "address",
          "name": "to",
          "type": "address"
        },
        {
          "internalType": "uint256",
          "name": "value",
          "type": "uint256"
        }
      ],
      "name": "transfer",
      "outputs": [
        {
          "internalType": "bool",
          "name": "",
          "type": "bool"
        }
      ],
      "payable": false,
      "stateMutability": "nonpayable",
      "type": "function"
    },
    {
      "constant": false,
      "inputs": [
        {
          "internalType": "address",
          "name": "from",
          "type": "address"
        },
        {
          "internalType": "address",
          "name": "to",
          "type": "address"
        },
        {
          "internalType": "uint256",
          "name": "value",
          "type": "uint256"
        }
      ],
      "name": "transferFrom",
      "outputs": [
        {
          "internalType": "bool",
          "name": "",
          "type": "bool"
        }
      ],
      "payable": false,
      "stateMutability": "nonpayable",
      "type": "function"
    },
    {
      "constant": true,
      "inputs": [],
      "name": "underlying",
      "outputs": [
        {
          "internalType": "address",
          "name": "",
          "type": "address"
        }
      ],
      "payable": false,
      "stateMutability": "view",
      "type": "function"
    },
    {
      "constant": false,
      "inputs": [
        {
          "internalType": "address",
          "name": "_stakingRewards",
          "type": "address"
        },
        {
          "internalType": "address",
          "name": "_underlying",
          "type": "address"
        },
        {
          "internalType": "address",
          "name": "_rewardsToken",
          "type": "address"
        },
        {
          "internalType": "address",
          "name": "_token0",
          "type": "address"
        },
        {
          "internalType": "address",
          "name": "_token1",
          "type": "address"
        },
        {
          "internalType": "address",
          "name": "_router",
          "type": "address"
        },
        {
          "internalType": "address",
          "name": "_WETH",
          "type": "address"
        }
      ],
      "name": "_initialize",
      "outputs": [],
      "payable": false,
      "stateMutability": "nonpayable",
      "type": "function"
    },
    {
      "constant": false,
      "inputs": [
        {
          "internalType": "address",
          "name": "minter",
          "type": "address"
        }
      ],
      "name": "mint",
      "outputs": [
        {
          "internalType": "uint256",
          "name": "mintTokens",
          "type": "uint256"
        }
      ],
      "payable": false,
      "stateMutability": "nonpayable",
      "type": "function"
    },
    {
      "constant": false,
      "inputs": [
        {
          "internalType": "address",
          "name": "redeemer",
          "type": "address"
        }
      ],
      "name": "redeem",
      "outputs": [
        {
          "internalType": "uint256",
          "name": "redeemAmount",
          "type": "uint256"
        }
      ],
      "payable": false,
      "stateMutability": "nonpayable",
      "type": "function"
    },
    {
      "constant": false,
      "inputs": [],
      "name": "reinvest",
      "outputs": [],
      "payable": false,
      "stateMutability": "nonpayable",
      "type": "function"
    },
    {
      "constant": true,
      "inputs": [],
      "name": "getReserves",
      "outputs": [
        {
          "internalType": "uint112",
          "name": "reserve0",
          "type": "uint112"
        },
        {
          "internalType": "uint112",
          "name": "reserve1",
          "type": "uint112"
        },
        {
          "internalType": "uint32",
          "name": "blockTimestampLast",
          "type": "uint32"
        }
      ],
      "payable": false,
      "stateMutability": "view",
      "type": "function"
    },
    {
      "constant": true,
      "inputs": [],
      "name": "price0CumulativeLast",
      "outputs": [
        {
          "internalType": "uint256",
          "name": "",
          "type": "uint256"
        }
      ],
      "payable": false,
      "stateMutability": "view",
      "type": "function"
    },
    {
      "constant": true,
      "inputs": [],
      "name": "price1CumulativeLast",
      "outputs": [
        {
          "internalType": "uint256",
          "name": "",
          "type": "uint256"
        }
      ],
      "payable": false,
      "stateMutability": "view",
      "type": "function"
    }
  ],
  "bytecode": "0x60806040526002805460ff19908116601217909155600b805490911660011790556137038061002f6000396000f3fe608060405234801561001057600080fd5b50600436106102415760003560e01c80636f307dc311610145578063bc25cf77116100bd578063d505accf1161008c578063f887ea4011610071578063f887ea40146106b3578063fdb5a03e146106bb578063fff6cae9146106c357610241565b8063d505accf1461061a578063dd62ed3e1461067857610241565b8063bc25cf77146105cf578063c45a015514610602578063d1af0c7d1461060a578063d21220a71461061257610241565b806395d89b4111610114578063ad5c4648116100f9578063ad5c4648146105b7578063ad7a672f146105bf578063ba9a7a56146105c757610241565b806395d89b4114610576578063a9059cbb1461057e57610241565b80636f307dc3146104d557806370a08231146104dd5780637ecebe001461051057806395a2251f1461054357610241565b80633644e515116101d85780635909c0d5116101a757806364b87a701161018c57806364b87a70146104925780636a6278421461049a5780636c2a3bc5146104cd57610241565b80635909c0d5146104825780635a3d54931461048a57610241565b80633644e515146104035780633ba0b9a91461040b578063439e2740146104135780634a5d316c1461047a57610241565b806318160ddd1161021457806318160ddd1461038057806323b872dd1461039a57806330adf81f146103dd578063313ce567146103e557610241565b806306fdde03146102465780630902f1ac146102c3578063095ea7b3146103025780630dfe16811461034f575b600080fd5b61024e6106cb565b6040805160208082528351818301528351919283929083019185019080838360005b83811015610288578181015183820152602001610270565b50505050905090810190601f1680156102b55780820380516001836020036101000a031916815260200191505b509250505060405180910390f35b6102cb610777565b604080516dffffffffffffffffffffffffffff948516815292909316602083015263ffffffff168183015290519081900360600190f35b61033b6004803603604081101561031857600080fd5b5073ffffffffffffffffffffffffffffffffffffffff81351690602001356109bd565b604080519115158252519081900360200190f35b6103576109d4565b6040805173ffffffffffffffffffffffffffffffffffffffff9092168252519081900360200190f35b6103886109f0565b60408051918252519081900360200190f35b61033b600480360360608110156103b057600080fd5b5073ffffffffffffffffffffffffffffffffffffffff8135811691602081013590911690604001356109f6565b610388610b0a565b6103ed610b2e565b6040805160ff9092168252519081900360200190f35b610388610b37565b610388610b3d565b610478600480360360e081101561042957600080fd5b5073ffffffffffffffffffffffffffffffffffffffff8135811691602081013582169160408201358116916060810135821691608082013581169160a081013582169160c09091013516610b8d565b005b610478610e17565b610388610ec8565b610388610f64565b610357610fcf565b610388600480360360208110156104b057600080fd5b503573ffffffffffffffffffffffffffffffffffffffff16610ff0565b610388611298565b6103576112a3565b610388600480360360208110156104f357600080fd5b503573ffffffffffffffffffffffffffffffffffffffff166112bf565b6103886004803603602081101561052657600080fd5b503573ffffffffffffffffffffffffffffffffffffffff166112d1565b6103886004803603602081101561055957600080fd5b503573ffffffffffffffffffffffffffffffffffffffff166112e3565b61024e61157e565b61033b6004803603604081101561059457600080fd5b5073ffffffffffffffffffffffffffffffffffffffff81351690602001356115f6565b610357611603565b61038861161f565b610388611625565b610478600480360360208110156105e557600080fd5b503573ffffffffffffffffffffffffffffffffffffffff1661162b565b6103576117ae565b6103576117ca565b6103576117e6565b610478600480360360e081101561063057600080fd5b5073ffffffffffffffffffffffffffffffffffffffff813581169160208101359091169060408101359060608101359060ff6080820135169060a08101359060c00135611802565b6103886004803603604081101561068e57600080fd5b5073ffffffffffffffffffffffffffffffffffffffff8135811691602001351661183d565b61035761185a565b610478611876565b610478611e82565b6000805460408051602060026001851615610100027fffffffffffffffffffffffffffffffffffffffffffffffffffffffffffffffff0190941693909304601f8101849004840282018401909252818152929183018282801561076f5780601f106107445761010080835404028352916020019161076f565b820191906000526020600020905b81548152906001019060200180831161075257829003601f168201915b505050505081565b6000806000600860009054906101000a900473ffffffffffffffffffffffffffffffffffffffff1673ffffffffffffffffffffffffffffffffffffffff16630902f1ac6040518163ffffffff1660e01b815260040160606040518083038186803b1580156107e457600080fd5b505afa1580156107f8573d6000803e3d6000fd5b505050506040513d606081101561080e57600080fd5b5080516020820151604090920151600354919550919350909150610831576109b8565b600a54600854604080517f18160ddd000000000000000000000000000000000000000000000000000000008152905160009273ffffffffffffffffffffffffffffffffffffffff16916318160ddd916004808301926020929190829003018186803b15801561089f57600080fd5b505afa1580156108b3573d6000803e3d6000fd5b505050506040513d60208110156108c957600080fd5b50519050610905610900826108f4856dffffffffffffffffffffffffffff8a1663ffffffff611f2316565b9063ffffffff611f9d16565b611fdf565b945061092e610900826108f4856dffffffffffffffffffffffffffff891663ffffffff611f2316565b93506064856dffffffffffffffffffffffffffff1611801561096057506064846dffffffffffffffffffffffffffff16115b6109b5576040517f08c379a00000000000000000000000000000000000000000000000000000000081526004018080602001828103825260248152602001806135f56024913960400191505060405180910390fd5b50505b909192565b60006109ca338484612066565b5060015b92915050565b600f5473ffffffffffffffffffffffffffffffffffffffff1681565b60035481565b73ffffffffffffffffffffffffffffffffffffffff831660009081526005602090815260408083203384529091528120547fffffffffffffffffffffffffffffffffffffffffffffffffffffffffffffffff14610af557604080518082018252601e81527f496d7065726d61783a205452414e534645525f4e4f545f414c4c4f574544000060208083019190915273ffffffffffffffffffffffffffffffffffffffff87166000908152600582528381203382529091529190912054610ac391849063ffffffff6120d516565b73ffffffffffffffffffffffffffffffffffffffff851660009081526005602090815260408083203384529091529020555b610b00848484612186565b5060019392505050565b7f6e71edae12b1b97f4d1f60370fef10105fa2faae0126114a169c64845d6126c981565b60025460ff1681565b60065481565b600354600a5460009190811580610b52575080155b15610b6957670de0b6b3a764000092505050610b8a565b610b85826108f483670de0b6b3a764000063ffffffff611f2316565b925050505b90565b60095473ffffffffffffffffffffffffffffffffffffffff1615610bfc576040517f08c379a00000000000000000000000000000000000000000000000000000000081526004018080602001828103825260228152602001806136ad6022913960400191505060405180910390fd5b600980547fffffffffffffffffffffffff00000000000000000000000000000000000000001633179055604080518082018252601181527f5374616b656420556e69737761702056320000000000000000000000000000006020808301919091528251808401909352600b83527f53544b442d554e492d563200000000000000000000000000000000000000000090830152610c979161229f565b600b80547fffffffffffffffffffffff0000000000000000000000000000000000000000ff1661010073ffffffffffffffffffffffffffffffffffffffff8a81169190910291909117909155600880547fffffffffffffffffffffffff000000000000000000000000000000000000000090811689841617909155600c80548216888416908117909155600f80548316888516179055601080548316878516179055600d80548316868516179055600e8054909216928416929092179055610d8090837fffffffffffffffffffffffffffffffffffffffffffffffffffffffffffffffff612383565b610dc773ffffffffffffffffffffffffffffffffffffffff8216837fffffffffffffffffffffffffffffffffffffffffffffffffffffffffffffffff63ffffffff61238316565b610e0e73ffffffffffffffffffffffffffffffffffffffff8716887fffffffffffffffffffffffffffffffffffffffffffffffffffffffffffffffff63ffffffff61238316565b50505050505050565b60095473ffffffffffffffffffffffffffffffffffffffff1615610e9c57604080517f08c379a000000000000000000000000000000000000000000000000000000000815260206004820152601d60248201527f496d7065726d61783a20464143544f52595f414c52454144595f534554000000604482015290519081900360640190fd5b600980547fffffffffffffffffffffffff00000000000000000000000000000000000000001633179055565b600854604080517f5909c0d5000000000000000000000000000000000000000000000000000000008152905160009273ffffffffffffffffffffffffffffffffffffffff1691635909c0d5916004808301926020929190829003018186803b158015610f3357600080fd5b505afa158015610f47573d6000803e3d6000fd5b505050506040513d6020811015610f5d57600080fd5b5051905090565b600854604080517f5a3d5493000000000000000000000000000000000000000000000000000000008152905160009273ffffffffffffffffffffffffffffffffffffffff1691635a3d5493916004808301926020929190829003018186803b158015610f3357600080fd5b600b54610100900473ffffffffffffffffffffffffffffffffffffffff1681565b600b5460009060ff1661106457604080517f08c379a000000000000000000000000000000000000000000000000000000000815260206004820152601360248201527f496d7065726d61783a205245454e544552454400000000000000000000000000604482015290519081900360640190fd5b600b80547fffffffffffffffffffffffffffffffffffffffffffffffffffffffffffffff001690556008546000906110b19073ffffffffffffffffffffffffffffffffffffffff16612560565b9050600b60019054906101000a900473ffffffffffffffffffffffffffffffffffffffff1673ffffffffffffffffffffffffffffffffffffffff1663a694fc3a826040518263ffffffff1660e01b815260040180828152602001915050600060405180830381600087803b15801561112857600080fd5b505af115801561113c573d6000803e3d6000fd5b5050505061116361114b610b3d565b6108f483670de0b6b3a764000063ffffffff611f2316565b91506003546000141561119157611182826103e863ffffffff61260216565b915061119160006103e8612644565b6000821161120057604080517f08c379a000000000000000000000000000000000000000000000000000000000815260206004820152601f60248201527f5374616b65644c50546f6b656e3a204d494e545f414d4f554e545f5a45524f00604482015290519081900360640190fd5b61120a8383612644565b6040805182815260208101849052815173ffffffffffffffffffffffffffffffffffffffff86169233927f2f00e3cdd69a77be7ed215ec7b2a36784dd158f921fca79ac29deffa353fe6ee929081900390910190a3506112686126f5565b600b80547fffffffffffffffffffffffffffffffffffffffffffffffffffffffffffffff00166001179055919050565b66470de4df82000081565b60085473ffffffffffffffffffffffffffffffffffffffff1681565b60046020526000908152604090205481565b60076020526000908152604090205481565b600b5460009060ff1661135757604080517f08c379a000000000000000000000000000000000000000000000000000000000815260206004820152601360248201527f496d7065726d61783a205245454e544552454400000000000000000000000000604482015290519081900360640190fd5b600b80547fffffffffffffffffffffffffffffffffffffffffffffffffffffffffffffff00169055306000908152600460205260409020546113b3670de0b6b3a76400006108f46113a6610b3d565b849063ffffffff611f2316565b91506000821161140e576040517f08c379a00000000000000000000000000000000000000000000000000000000081526004018080602001828103825260218152602001806136196021913960400191505060405180910390fd5b600a5482111561147f57604080517f08c379a000000000000000000000000000000000000000000000000000000000815260206004820181905260248201527f5374616b65644c50546f6b656e3a20494e53554646494349454e545f43415348604482015290519081900360640190fd5b61148930826127cf565b600b60019054906101000a900473ffffffffffffffffffffffffffffffffffffffff1673ffffffffffffffffffffffffffffffffffffffff16632e1a7d4d836040518263ffffffff1660e01b815260040180828152602001915050600060405180830381600087803b1580156114fe57600080fd5b505af1158015611512573d6000803e3d6000fd5b505050506115208383612893565b6040805183815260208101839052815173ffffffffffffffffffffffffffffffffffffffff86169233927f3f693fff038bb8a046aa76d9516190ac7444f7d69cf952c4cbdc086fdef2d6fc929081900390910190a3506112686126f5565b60018054604080516020600284861615610100027fffffffffffffffffffffffffffffffffffffffffffffffffffffffffffffffff0190941693909304601f8101849004840282018401909252818152929183018282801561076f5780601f106107445761010080835404028352916020019161076f565b60006109ca338484612186565b600e5473ffffffffffffffffffffffffffffffffffffffff1681565b600a5481565b6103e881565b600b5460ff1661169c57604080517f08c379a000000000000000000000000000000000000000000000000000000000815260206004820152601360248201527f496d7065726d61783a205245454e544552454400000000000000000000000000604482015290519081900360640190fd5b600b80547fffffffffffffffffffffffffffffffffffffffffffffffffffffffffffffff00169055600a54600854604080517f70a08231000000000000000000000000000000000000000000000000000000008152306004820152905161178093859361177b93919273ffffffffffffffffffffffffffffffffffffffff909116916370a08231916024808301926020929190829003018186803b15801561174357600080fd5b505afa158015611757573d6000803e3d6000fd5b505050506040513d602081101561176d57600080fd5b50519063ffffffff61260216565b612893565b50600b80547fffffffffffffffffffffffffffffffffffffffffffffffffffffffffffffff00166001179055565b60095473ffffffffffffffffffffffffffffffffffffffff1681565b600c5473ffffffffffffffffffffffffffffffffffffffff1681565b60105473ffffffffffffffffffffffffffffffffffffffff1681565b611832878787878787877f6e71edae12b1b97f4d1f60370fef10105fa2faae0126114a169c64845d6126c9612a9f565b610e0e878787612066565b600560209081526000928352604080842090915290825290205481565b600d5473ffffffffffffffffffffffffffffffffffffffff1681565b600b5460ff166118e757604080517f08c379a000000000000000000000000000000000000000000000000000000000815260206004820152601360248201527f496d7065726d61783a205245454e544552454400000000000000000000000000604482015290519081900360640190fd5b600b80547fffffffffffffffffffffffffffffffffffffffffffffffffffffffffffffff0016905533321461191b57600080fd5b600b60019054906101000a900473ffffffffffffffffffffffffffffffffffffffff1673ffffffffffffffffffffffffffffffffffffffff16633d18b9126040518163ffffffff1660e01b8152600401600060405180830381600087803b15801561198557600080fd5b505af1158015611999573d6000803e3d6000fd5b5050600c54600092506119c2915073ffffffffffffffffffffffffffffffffffffffff16612560565b9050806119cf5750611e4d565b6000670de0b6b3a76400006119f18366470de4df82000063ffffffff611f2316565b816119f857fe5b600c549190049150611a279073ffffffffffffffffffffffffffffffffffffffff16338363ffffffff612d4216565b600c54600f54600091829173ffffffffffffffffffffffffffffffffffffffff90811691161480611a755750600c5460105473ffffffffffffffffffffffffffffffffffffffff9081169116145b15611aef57600c54600f5473ffffffffffffffffffffffffffffffffffffffff908116911614611ac457601054600f5473ffffffffffffffffffffffffffffffffffffffff9182169116611ae5565b600f5460105473ffffffffffffffffffffffffffffffffffffffff91821691165b9092509050611c10565b600c54600e54611b289173ffffffffffffffffffffffffffffffffffffffff9081169116611b23878763ffffffff61260216565b612f18565b600e54600f5473ffffffffffffffffffffffffffffffffffffffff90811691161480611b715750600e5460105473ffffffffffffffffffffffffffffffffffffffff9081169116145b15611bc057600e54600f5473ffffffffffffffffffffffffffffffffffffffff908116911614611ac457601054600f5473ffffffffffffffffffffffffffffffffffffffff9182169116611ae5565b600e54600f54611bed9173ffffffffffffffffffffffffffffffffffffffff9081169116611b2382612560565b5050600f5460105473ffffffffffffffffffffffffffffffffffffffff91821691165b6000611c318373ffffffffffffffffffffffffffffffffffffffff16612560565b905060008111611c3d57fe5b600080600860009054906101000a900473ffffffffffffffffffffffffffffffffffffffff1673ffffffffffffffffffffffffffffffffffffffff16630902f1ac6040518163ffffffff1660e01b815260040160606040518083038186803b158015611ca857600080fd5b505afa158015611cbc573d6000803e3d6000fd5b505050506040513d6060811015611cd257600080fd5b508051602090910151600f546dffffffffffffffffffffffffffff92831694509116915060009073ffffffffffffffffffffffffffffffffffffffff878116911614611d1e5781611d20565b825b90506000611d2e8583613195565b9050611d3b878783612f18565b6000611d768888611d52898663ffffffff61260216565b611d718b73ffffffffffffffffffffffffffffffffffffffff16612560565b613222565b9050600b60019054906101000a900473ffffffffffffffffffffffffffffffffffffffff1673ffffffffffffffffffffffffffffffffffffffff1663a694fc3a826040518263ffffffff1660e01b815260040180828152602001915050600060405180830381600087803b158015611ded57600080fd5b505af1158015611e01573d6000803e3d6000fd5b5050604080518d8152602081018d905281513394507fc003f45bc224d116b6d079100d4ab57a5b9633244c47a5a92a176c5b79a85f2893509081900390910190a2505050505050505050505b611e556126f5565b600b80547fffffffffffffffffffffffffffffffffffffffffffffffffffffffffffffff00166001179055565b600b5460ff16611ef357604080517f08c379a000000000000000000000000000000000000000000000000000000000815260206004820152601360248201527f496d7065726d61783a205245454e544552454400000000000000000000000000604482015290519081900360640190fd5b600b80547fffffffffffffffffffffffffffffffffffffffffffffffffffffffffffffff00169055611e556126f5565b600082611f32575060006109ce565b82820282848281611f3f57fe5b0414611f96576040517f08c379a000000000000000000000000000000000000000000000000000000000815260040180806020018281038252602181526020018061368c6021913960400191505060405180910390fd5b9392505050565b6000611f9683836040518060400160405280601a81526020017f536166654d6174683a206469766973696f6e206279207a65726f000000000000815250613318565b60006e010000000000000000000000000000821061205e57604080517f08c379a000000000000000000000000000000000000000000000000000000000815260206004820152601660248201527f5374616b65644c50546f6b656e3a205341464531313200000000000000000000604482015290519081900360640190fd5b50805b919050565b73ffffffffffffffffffffffffffffffffffffffff808416600081815260056020908152604080832094871680845294825291829020859055815185815291517f8c5be1e5ebec7d5bd14f71427d1e84f3dd0314c0f7b2291e5b200ac8c7c3b9259281900390910190a3505050565b6000818484111561217e576040517f08c379a00000000000000000000000000000000000000000000000000000000081526004018080602001828103825283818151815260200191508051906020019080838360005b8381101561214357818101518382015260200161212b565b50505050905090810190601f1680156121705780820380516001836020036101000a031916815260200191505b509250505060405180910390fd5b505050900390565b604080518082018252601b81527f496d7065726d61783a205452414e534645525f544f4f5f48494748000000000060208083019190915273ffffffffffffffffffffffffffffffffffffffff86166000908152600490915291909120546121f491839063ffffffff6120d516565b73ffffffffffffffffffffffffffffffffffffffff8085166000908152600460205260408082209390935590841681522054612236908263ffffffff61339716565b73ffffffffffffffffffffffffffffffffffffffff80841660008181526004602090815260409182902094909455805185815290519193928716927fddf252ad1be2c89b69c2b068fc378daa952ba7f163c4a11628f55a4df523b3ef92918290030190a3505050565b81516122b290600090602085019061355c565b5080516122c690600190602084019061355c565b50604051469080605261363a82396040805191829003605201822086516020978801208383018352600184527f310000000000000000000000000000000000000000000000000000000000000093880193909352815180880191909152808201929092527fc89efdaa54c0f20c7adf612882df0950f5a951637e0307cdcb4c672f298b8bc6606083015260808201939093523060a0808301919091528351808303909101815260c090910190925250805192019190912060065550565b6040805173ffffffffffffffffffffffffffffffffffffffff8481166024830152604480830185905283518084039091018152606490920183526020820180517bffffffffffffffffffffffffffffffffffffffffffffffffffffffff167f095ea7b300000000000000000000000000000000000000000000000000000000178152925182516000946060949389169392918291908083835b6020831061245957805182527fffffffffffffffffffffffffffffffffffffffffffffffffffffffffffffffe0909201916020918201910161241c565b6001836020036101000a0380198251168184511680821785525050505050509050019150506000604051808303816000865af19150503d80600081146124bb576040519150601f19603f3d011682016040523d82523d6000602084013e6124c0565b606091505b50915091508180156124ee5750805115806124ee57508080602001905160208110156124eb57600080fd5b50515b61255957604080517f08c379a000000000000000000000000000000000000000000000000000000000815260206004820152600c60248201527f2173616665417070726f76650000000000000000000000000000000000000000604482015290519081900360640190fd5b5050505050565b604080517f70a08231000000000000000000000000000000000000000000000000000000008152306004820152905160009173ffffffffffffffffffffffffffffffffffffffff8416916370a0823191602480820192602092909190829003018186803b1580156125d057600080fd5b505afa1580156125e4573d6000803e3d6000fd5b505050506040513d60208110156125fa57600080fd5b505192915050565b6000611f9683836040518060400160405280601f81526020017f536166654d6174683a207375627472616374696f6e20756e646572666c6f77008152506120d5565b600354612657908263ffffffff61339716565b60035573ffffffffffffffffffffffffffffffffffffffff8216600090815260046020526040902054612690908263ffffffff61339716565b73ffffffffffffffffffffffffffffffffffffffff831660008181526004602090815260408083209490945583518581529351929391927fddf252ad1be2c89b69c2b068fc378daa952ba7f163c4a11628f55a4df523b3ef9281900390910190a35050565b600b54604080517f70a08231000000000000000000000000000000000000000000000000000000008152306004820152905161010090920473ffffffffffffffffffffffffffffffffffffffff16916370a0823191602480820192602092909190829003018186803b15801561276a57600080fd5b505afa15801561277e573d6000803e3d6000fd5b505050506040513d602081101561279457600080fd5b5051600a81905560408051918252517f8a0df8ef054fae2c3d2d19a7b322e864870cc9fd3cb07fb9526309c596244bf49181900360200190a1565b73ffffffffffffffffffffffffffffffffffffffff8216600090815260046020526040902054612805908263ffffffff61260216565b73ffffffffffffffffffffffffffffffffffffffff831660009081526004602052604090205560035461283e908263ffffffff61260216565b60035560408051828152905160009173ffffffffffffffffffffffffffffffffffffffff8516917fddf252ad1be2c89b69c2b068fc378daa952ba7f163c4a11628f55a4df523b3ef9181900360200190a35050565b600854604080518082018252601981527f7472616e7366657228616464726573732c75696e743235362900000000000000602091820152815173ffffffffffffffffffffffffffffffffffffffff86811660248301526044808301879052845180840390910181526064909201845291810180517bffffffffffffffffffffffffffffffffffffffffffffffffffffffff167fa9059cbb000000000000000000000000000000000000000000000000000000001781529251815160009560609594169382918083835b6020831061299957805182527fffffffffffffffffffffffffffffffffffffffffffffffffffffffffffffffe0909201916020918201910161295c565b6001836020036101000a0380198251168184511680821785525050505050509050019150506000604051808303816000865af19150503d80600081146129fb576040519150601f19603f3d011682016040523d82523d6000602084013e612a00565b606091505b5091509150818015612a2e575080511580612a2e5750808060200190516020811015612a2b57600080fd5b50515b612a9957604080517f08c379a000000000000000000000000000000000000000000000000000000000815260206004820152601960248201527f496d7065726d61783a205452414e534645525f4641494c454400000000000000604482015290519081900360640190fd5b50505050565b42851015612b0e57604080517f08c379a000000000000000000000000000000000000000000000000000000000815260206004820152601160248201527f496d7065726d61783a2045585049524544000000000000000000000000000000604482015290519081900360640190fd5b60065473ffffffffffffffffffffffffffffffffffffffff808a1660008181526007602090815260408083208054600180820190925582518085018a905280840196909652958e166060860152608085018d905260a085019590955260c08085018c90528151808603909101815260e0850182528051908301207f19010000000000000000000000000000000000000000000000000000000000006101008601526101028501969096526101228085019690965280518085039096018652610142840180825286519683019690962095839052610162840180825286905260ff8a166101828501526101a284018990526101c28401889052519193926101e2808201937fffffffffffffffffffffffffffffffffffffffffffffffffffffffffffffffe081019281900390910190855afa158015612c50573d6000803e3d6000fd5b50506040517fffffffffffffffffffffffffffffffffffffffffffffffffffffffffffffffe0015191505073ffffffffffffffffffffffffffffffffffffffff811615801590612ccb57508973ffffffffffffffffffffffffffffffffffffffff168173ffffffffffffffffffffffffffffffffffffffff16145b612d3657604080517f08c379a000000000000000000000000000000000000000000000000000000000815260206004820152601b60248201527f496d7065726d61783a20494e56414c49445f5349474e41545552450000000000604482015290519081900360640190fd5b50505050505050505050565b6040805173ffffffffffffffffffffffffffffffffffffffff8481166024830152604480830185905283518084039091018152606490920183526020820180517bffffffffffffffffffffffffffffffffffffffffffffffffffffffff167fa9059cbb00000000000000000000000000000000000000000000000000000000178152925182516000946060949389169392918291908083835b60208310612e1857805182527fffffffffffffffffffffffffffffffffffffffffffffffffffffffffffffffe09092019160209182019101612ddb565b6001836020036101000a0380198251168184511680821785525050505050509050019150506000604051808303816000865af19150503d8060008114612e7a576040519150601f19603f3d011682016040523d82523d6000602084013e612e7f565b606091505b5091509150818015612ead575080511580612ead5750808060200190516020811015612eaa57600080fd5b50515b61255957604080517f08c379a000000000000000000000000000000000000000000000000000000000815260206004820152600d60248201527f21736166655472616e7366657200000000000000000000000000000000000000604482015290519081900360640190fd5b60408051600280825260608083018452926020830190803883390190505090508381600081518110612f4657fe5b602002602001019073ffffffffffffffffffffffffffffffffffffffff16908173ffffffffffffffffffffffffffffffffffffffff16815250508281600181518110612f8e57fe5b602002602001019073ffffffffffffffffffffffffffffffffffffffff16908173ffffffffffffffffffffffffffffffffffffffff1681525050612fd2848361340b565b600d546040517f38ed1739000000000000000000000000000000000000000000000000000000008152600481018481526000602483018190523060648401819052426084850181905260a060448601908152875160a4870152875173ffffffffffffffffffffffffffffffffffffffff909716966338ed1739968a968a9594939092909160c40190602080880191028083838b5b8381101561307e578181015183820152602001613066565b505050509050019650505050505050600060405180830381600087803b1580156130a757600080fd5b505af11580156130bb573d6000803e3d6000fd5b505050506040513d6000823e601f3d9081017fffffffffffffffffffffffffffffffffffffffffffffffffffffffffffffffe0168201604052602081101561310257600080fd5b810190808051604051939291908464010000000082111561312257600080fd5b90830190602082018581111561313757600080fd5b825186602082028301116401000000008211171561315457600080fd5b82525081516020918201928201910280838360005b83811015613181578181015183820152602001613169565b505050509050016040525050505050505050565b6000806131aa6107cd8463ffffffff611f2316565b905060006131d4610f946131c88681896103e863ffffffff611f2316565b9063ffffffff611f2316565b905060006132006131fb836131ef868063ffffffff611f2316565b9063ffffffff61339716565b61350b565b90506132186107ca6108f4838663ffffffff61260216565b9695505050505050565b600061322e858461340b565b613238848361340b565b600d54604080517fe8e3370000000000000000000000000000000000000000000000000000000000815273ffffffffffffffffffffffffffffffffffffffff88811660048301528781166024830152604482018790526064820186905260006084830181905260a483018190523060c48401524260e4840152925193169263e8e337009261010480840193606093929083900390910190829087803b1580156132e057600080fd5b505af11580156132f4573d6000803e3d6000fd5b505050506040513d606081101561330a57600080fd5b506040015195945050505050565b60008183613381576040517f08c379a000000000000000000000000000000000000000000000000000000000815260206004820181815283516024840152835190928392604490910191908501908083836000831561214357818101518382015260200161212b565b50600083858161338d57fe5b0495945050505050565b600082820183811015611f9657604080517f08c379a000000000000000000000000000000000000000000000000000000000815260206004820152601b60248201527f536166654d6174683a206164646974696f6e206f766572666c6f770000000000604482015290519081900360640190fd5b600d54604080517fdd62ed3e00000000000000000000000000000000000000000000000000000000815230600482015273ffffffffffffffffffffffffffffffffffffffff92831660248201529051839285169163dd62ed3e916044808301926020929190829003018186803b15801561348457600080fd5b505afa158015613498573d6000803e3d6000fd5b505050506040513d60208110156134ae57600080fd5b5051106134ba57613507565b600d546135079073ffffffffffffffffffffffffffffffffffffffff84811691167fffffffffffffffffffffffffffffffffffffffffffffffffffffffffffffffff63ffffffff61238316565b5050565b6000600382111561354e575080600160028204015b818110156135485780915060028182858161353757fe5b04018161354057fe5b049050613520565b50612061565b811561206157506001919050565b828054600181600116156101000203166002900490600052602060002090601f016020900481019282601f1061359d57805160ff19168380011785556135ca565b828001600101855582156135ca579182015b828111156135ca5782518255916020019190600101906135af565b506135d69291506135da565b5090565b610b8a91905b808211156135d657600081556001016135e056fe5374616b65644c50546f6b656e3a20494e53554646494349454e545f52455345525645535374616b65644c50546f6b656e3a2052454445454d5f414d4f554e545f5a45524f454950373132446f6d61696e28737472696e67206e616d652c737472696e672076657273696f6e2c75696e7432353620636861696e49642c6164647265737320766572696679696e67436f6e747261637429536166654d6174683a206d756c7469706c69636174696f6e206f766572666c6f775374616b65644c50546f6b656e3a20464143544f52595f414c52454144595f534554a265627a7a72315820417a24aeaf1f5f0c93f4be4d578199a9f1738dffb85bd8d259911b39bdfc921f64736f6c63430005100032",
  "source": "pragma solidity =0.5.16;\r\n\r\nimport \"./PoolToken.sol\";\r\nimport \"./interfaces/IStakingRewards.sol\";\r\nimport \"./interfaces/IStakedLPToken.sol\";\r\nimport \"./interfaces/IERC20.sol\";\r\nimport \"./interfaces/IUniswapV2Router01.sol\";\r\nimport \"./interfaces/IUniswapV2Pair.sol\";\r\nimport \"./libraries/SafeToken.sol\";\r\nimport \"./libraries/Math.sol\";\r\n\r\ncontract StakedLPToken is IStakedLPToken, IUniswapV2Pair, PoolToken {\r\n    using SafeToken for address;\r\n\t\r\n\taddress public stakingRewards;\r\n\taddress public rewardsToken;\r\n\taddress public router;\r\n\taddress public WETH;\r\n\taddress public token0;\r\n\taddress public token1;\r\n\tuint256 public constant REINVEST_BOUNTY = 0.02e18;\r\n\r\n\tevent Reinvest(address indexed caller, uint256 reward, uint256 bounty);\r\n\t\r\n\tfunction _initialize(\r\n\t\taddress _stakingRewards,\r\n\t\taddress _underlying,\r\n\t\taddress _rewardsToken,\r\n\t\taddress _token0,\r\n\t\taddress _token1,\r\n\t\taddress _router,\r\n\t\taddress _WETH\r\n\t) external {\r\n\t\trequire(factory == address(0), \"StakedLPToken: FACTORY_ALREADY_SET\"); // sufficient check\r\n\t\tfactory = msg.sender;\r\n\t\t_setName(\"Staked Uniswap V2\", \"STKD-UNI-V2\");\r\n\t\tstakingRewards = _stakingRewards;\r\n\t\tunderlying = _underlying;\r\n\t\trewardsToken = _rewardsToken;\r\n\t\ttoken0 = _token0;\r\n\t\ttoken1 = _token1;\r\n\t\trouter = _router;\r\n\t\tWETH = _WETH;\r\n\t\t_rewardsToken.safeApprove(address(_router), uint256(-1));\r\n\t\t_WETH.safeApprove(address(_router), uint256(-1));\r\n\t\t_underlying.safeApprove(address(_stakingRewards), uint256(-1));\r\n\t}\r\n\t\r\n\t/*** PoolToken Overrides ***/\r\n\t\r\n\tfunction _update() internal {\r\n\t\ttotalBalance = IStakingRewards(stakingRewards).balanceOf(address(this));\r\n\t\temit Sync(totalBalance);\r\n\t}\r\n\t\r\n\t// this low-level function should be called from another contract\r\n\tfunction mint(address minter) external nonReentrant update returns (uint mintTokens) {\r\n\t\tuint mintAmount = underlying.myBalance();\r\n\t\tIStakingRewards(stakingRewards).stake(mintAmount);\r\n\t\tmintTokens = mintAmount.mul(1e18).div(exchangeRate());\r\n\r\n\t\tif(totalSupply == 0) {\r\n\t\t\t// permanently lock the first MINIMUM_LIQUIDITY tokens\r\n\t\t\tmintTokens = mintTokens.sub(MINIMUM_LIQUIDITY);\r\n\t\t\t_mint(address(0), MINIMUM_LIQUIDITY);\r\n\t\t}\r\n\t\trequire(mintTokens > 0, \"StakedLPToken: MINT_AMOUNT_ZERO\");\r\n\t\t_mint(minter, mintTokens);\r\n\t\temit Mint(msg.sender, minter, mintAmount, mintTokens);\r\n\t}\r\n\r\n\t// this low-level function should be called from another contract\r\n\tfunction redeem(address redeemer) external nonReentrant update returns (uint redeemAmount) {\r\n\t\tuint redeemTokens = balanceOf[address(this)];\r\n\t\tredeemAmount = redeemTokens.mul(exchangeRate()).div(1e18);\r\n\r\n\t\trequire(redeemAmount > 0, \"StakedLPToken: REDEEM_AMOUNT_ZERO\");\r\n\t\trequire(redeemAmount <= totalBalance, \"StakedLPToken: INSUFFICIENT_CASH\");\r\n\t\t_burn(address(this), redeemTokens);\r\n\t\tIStakingRewards(stakingRewards).withdraw(redeemAmount);\r\n\t\t_safeTransfer(redeemer, redeemAmount);\r\n\t\temit Redeem(msg.sender, redeemer, redeemAmount, redeemTokens);\t\t\r\n\t}\r\n\t\r\n\t/*** Reinvest ***/\r\n\t\r\n\tfunction _optimalDepositA(uint256 amountA, uint256 reserveA) internal pure returns (uint256) {\r\n\t\tuint256 a = uint256(1997).mul(reserveA);\r\n\t\tuint256 b = amountA.mul(1000).mul(reserveA).mul(3988);\r\n\t\tuint256 c = Math.sqrt(a.mul(a).add(b));\r\n\t\treturn c.sub(a).div(1994);\r\n\t}\r\n\t\r\n\tfunction approveRouter(address token, uint256 amount) internal {\r\n\t\tif (IERC20(token).allowance(address(this), router) >= amount) return;\r\n\t\ttoken.safeApprove(address(router), uint256(-1));\r\n\t}\r\n\t\r\n\tfunction swapExactTokensForTokens(address tokenIn, address tokenOut, uint256 amount) internal {\r\n\t\taddress[] memory path = new address[](2);\r\n\t\tpath[0] = address(tokenIn);\r\n\t\tpath[1] = address(tokenOut);\r\n\t\tapproveRouter(tokenIn, amount);\r\n\t\tIUniswapV2Router01(router).swapExactTokensForTokens(amount, 0, path, address(this), now);\r\n\t}\r\n\t\r\n\tfunction addLiquidity(address tokenA, address tokenB, uint256 amountA, uint256 amountB) internal returns (uint256 liquidity) {\r\n\t\tapproveRouter(tokenA, amountA);\r\n\t\tapproveRouter(tokenB, amountB);\r\n\t\t(,,liquidity) = IUniswapV2Router01(router).addLiquidity(tokenA, tokenB, amountA, amountB, 0, 0, address(this), now);\r\n\t}\r\n\t\r\n\tfunction reinvest() external nonReentrant update {\r\n\t\trequire(msg.sender == tx.origin);\r\n\t\t// 1. Withdraw all the rewards.\t\t\r\n\t\tIStakingRewards(stakingRewards).getReward();\r\n\t\tuint256 reward = rewardsToken.myBalance();\r\n\t\tif (reward == 0) return;\r\n\t\t// 2. Send the reward bounty to the caller.\r\n\t\tuint256 bounty = reward.mul(REINVEST_BOUNTY) / 1e18;\r\n\t\trewardsToken.safeTransfer(msg.sender, bounty);\r\n\t\t// 3. Convert all the remaining rewards to token0 or token1.\r\n\t\taddress tokenA;\r\n\t\taddress tokenB;\r\n\t\tif (token0 == rewardsToken || token1 == rewardsToken) {\r\n\t\t\t(tokenA, tokenB) = token0 == rewardsToken ? (token0, token1) : (token1, token0);\r\n\t\t}\r\n\t\telse {\r\n\t\t\tswapExactTokensForTokens(rewardsToken, WETH, reward.sub(bounty));\r\n\t\t\tif (token0 == WETH || token1 == WETH) { \r\n\t\t\t\t(tokenA, tokenB) = token0 == WETH ? (token0, token1) : (token1, token0);\r\n\t\t\t}\r\n\t\t\telse {\r\n\t\t\t\tswapExactTokensForTokens(WETH, token0, WETH.myBalance());\r\n\t\t\t\t(tokenA, tokenB) = (token0, token1);\r\n\t\t\t}\r\n\t\t}\r\n\t\t// 4. Convert tokenA to LP Token underlyings.\r\n\t\tuint256 totalAmountA = tokenA.myBalance();\r\n\t\tassert(totalAmountA > 0);\r\n\t\t(uint256 r0, uint256 r1,) = IUniswapV2Pair(underlying).getReserves();\r\n\t\tuint256 reserveA = tokenA == token0 ? r0 : r1;\r\n\t\tuint256 swapAmount = _optimalDepositA(totalAmountA, reserveA);\r\n\t\tswapExactTokensForTokens(tokenA, tokenB, swapAmount);\r\n\t\tuint256 liquidity = addLiquidity(tokenA, tokenB, totalAmountA.sub(swapAmount), tokenB.myBalance());\r\n\t\t// 5. Stake the LP Tokens. \r\n\t\tIStakingRewards(stakingRewards).stake(liquidity);\r\n\t\temit Reinvest(msg.sender, reward, bounty);\r\n\t}\r\n\t\t\r\n\t/*** Mirrored From uniswapV2Pair ***/\r\n\r\n\tfunction getReserves() external view returns (uint112 reserve0, uint112 reserve1, uint32 blockTimestampLast) {\r\n\t\t(reserve0, reserve1, blockTimestampLast) = IUniswapV2Pair(underlying).getReserves();\r\n\t\t// if no token has been minted yet mirror uniswap getReserves\r\n\t\tif (totalSupply == 0) return (reserve0, reserve1, blockTimestampLast);\r\n\t\t// else, return the underlying reserves of this contract\r\n\t\tuint256 _totalBalance = totalBalance;\r\n\t\tuint256 _totalSupply = IUniswapV2Pair(underlying).totalSupply();\r\n\t\treserve0 = safe112(_totalBalance.mul(reserve0).div(_totalSupply));\r\n\t\treserve1 = safe112(_totalBalance.mul(reserve1).div(_totalSupply));\r\n\t\trequire(reserve0 > 100 && reserve1 > 100, \"StakedLPToken: INSUFFICIENT_RESERVES\");\r\n\t}\r\n\tfunction price0CumulativeLast() external view returns (uint256) {\r\n\t\treturn IUniswapV2Pair(underlying).price0CumulativeLast();\r\n\t}\r\n\tfunction price1CumulativeLast() external view returns (uint256) {\r\n\t\treturn IUniswapV2Pair(underlying).price1CumulativeLast();\r\n\t}\r\n\r\n\t/*** Utilities ***/\r\n\t\r\n    function safe112(uint n) internal pure returns (uint112) {\r\n        require(n < 2**112, \"StakedLPToken: SAFE112\");\r\n        return uint112(n);\r\n    }\r\n}",
  "sourcePath": "C:\\Users\\simor\\Desktop\\impermax-x-quickswap-core\\contracts\\StakedLPToken.sol",
  "compiler": {
    "name": "solc",
    "version": "0.5.16+commit.9c3226ce.Emscripten.clang"
  },
  "schemaVersion": "3.3.2",
  "updatedAt": "2021-05-22T13:48:39.336Z",
  "devdoc": {
    "methods": {}
  },
  "userdoc": {
    "methods": {
      "_setFactory()": {
        "notice": "* Initialize **"
      },
      "getReserves()": {
        "notice": "* Mirrored From uniswapV2Pair **"
      }
    }
  }
}